:100000000C948B0C0C94B30C0C94B30C0C94B30C9C
:100010000C94B30C0C94B30C0C94B30C0C94B30C64
:100020000C94B30C0C94B30C0C94361F0C94A81FB6
:100030000C94B30C0C94B30C0C94B30C0C94B30C44
:100040000C94B30C0C94B30C0C94B30C0C94B30C34
:100050000C94B30C0C94B30C0C94B30C0C94A4241B
:100060000C94B30C0C94B30C0C94B30C0C94B30C14
:100070000C94B30C0C94B30C0C94B30C0C94B30C04
:100080000C94B30C0C94B30C0C94B30C0C94B30CF4
:100090000C94B30C0C94B30C0C94B30C0C94B30CE4
:1000A0000C94B30C0C94B30C0C94B30C3A0D9C0D43
:1000B0009C0D9C0D430D4F0D5D0D680D790D810D4F
:1000C0008B0DCB0FFB10FB10D211D211CC121C13D5
:1000D0009114A91536166916E51614170618524913
:1000E00053494E47203500524953494E472034006A
:1000F000524953494E47203300524953494E4720F5
:100100003200524953494E47203100524953494E1B
:100110004720535441520020204D414E4120574129
:100120004E44004C455448414C2057414E44002019
:10013000204F54484552204841540020202048492F
:10014000474820484154004352595354414C204899
:100150004154001508FFB7CFD7ABF5FAFCC3834372
:10016000BBC3FCFAF5ABD7CFB7FFFFFFFB83FD8323
:10017000FBFFEFDF81FBF7FFFBF789F7FBFFFFFFDB
:10018000A78383A7BFBBDFEDFF81BDB5BDB5B5B507
:10019000BD8181FFFFFFFFFEFEFEFFFFFFFFFFFFB0
:1001A000FFFFFFFFFFFFFFFFFFFEFEFFFFFFFFFC64
:1001B000E0C0800000001F1F1F1F1F1F1F1F1F1FE9
:1001C0001F1F1F1F1F1F1F1F1F1F1F1F1F1F1F1F3F
:1001D0001F07070707070604220DFF01FDFAFAFAB9
:1001E000FDFDFDFDFDFDFDFDFDFDFDFDFDFDFDFA42
:1001F000FAFBFD01035CA040800000001F000F0F10
:100200000F0F0F0F0F0F0F0F0F0F0F0F0F0F0F0FFE
:100210000F0F0F0F0F000005060502050204F0FC8A
:10022000FEFFFFFFFFFFFEFCF07F7F7F7F7F7F7F72
:100230007F7F7F7F0B0FF00CE21905050505020C8F
:10024000F07F007F000000000000007F0808003001
:10025000000000FFFFFF0000000000F0F0FF33335C
:10026000333333333333FFFFFF00FFFF00FFD8DAB0
:10027000D8D8DAD8D8DA00FFFF0000007733F0F6DC
:10028000F606E6E606F6A6B6A6B6A6B6A6B606E64E
:10029000E60606007020DDDDDDDDDDDDDDDD3020A4
:1002A000302030203020E51808040607070707082B
:1002B0000A010304040404050200030909090905ED
:1002C0000200030909090905020001FD0B01EFF510
:1002D000011E28C1BD7DF7B1FDB7B1BDF7F17DBDF0
:1002E000C1FFFFFFFFFFFFFFFFFFFFFFFFFFFFFF5C
:1002F000FFFFFFFF00FF6D7D6FEDFF80BFBF8FEF42
:10030000EFBFBF8FEFEFBFBF8FEFEFBFBF8FEFFF2D
:10031000FFFF00FFDBDFDBFBFBDFFBFFFBFBFBFF8C
:10032000FBFFFFFFFFFFFFFFFBFFFBFFFFFFFFFFE9
:1003300000FFF6FFFFFFFFFFFFFFFFFFFFFFFFFFD5
:10034000FFFFFFFFFFFFFFFFFFFFFFFFFFFF00FFBC
:10035000FFFFFFFFFFFFFFFFFFFFFFFFFFFFFFFFAD
:10036000FFFFFFFFFFFFFFFFFF101001FE00005720
:100370005757575757575757574747A0A7A0A0A5B4
:10038000A5A5A5A5A5A5A5A5A5A4A4101001FE0039
:1003900000575757575757575757574747A0A7A082
:1003A000A0A5A5A5A5A5A5A5A1A1A1A0A4FFFFFF06
:1003B000FFFFFFFFFFFFFF051019E30FFFFF00FF27
:1003C00000FFFF0B10FF0FE319C4320A0A0A0A04E8
:1003D000FF00FF00FF008040A050A8A0F0E0FCFE5E
:1003E000FFFFFFFFFFFEFCE0F0A00001000F1FBFBA
:1003F000FFFFFFBF1F0F0001000F10A050A0BC02A5
:10040000EDDDDD8901023CA050A00001000F10AF1E
:100410004F0F4AA0100F00010000000000F0F0FF95
:10042000FFFFFFFFFFFFFFFFF0F0F0F00000FFFF16
:10043000FFFFFFFFFFFFFFFFFFFFFFFFFFFFFFFFCC
:10044000FFFEFE01010101010101010101010101A4
:10045000010101010101010115110000000000E08E
:10046000A03E3AF222FEA23E20E020E00000000082
:10047000FE4282025343531253120303033233FEEC
:1004800057AAFE000001010001000000000000006A
:100490000000000001010001001A1041BEFEFFAE85
:1004A000EEACAEBEBEAEBEEEBEFEEEAEAEEEEEFE4E
:1004B000FDFE768889FEFDFBFBFBFBFBFBFBFBFBEC
:1004C0000BFB1B0BFBFBFBFBFBFBFDFAF9FCFE072D
:1004D000083C7E81B5CB7E3C07083C7EC3F5C37EDD
:1004E0003C03083C0B3C3F253B3F21333F213E3F33
:1004F00025213F05013F213B3F043F3F00003020C5
:100500003F3F043B3F20003F0E3F3F023F3F213F24
:100510003F090F1F113F3F053B372D3B013F013F77
:10052000203F0F300F3F183F330C33033C03312D76
:100530002318243C3E24183C242418243E18342834
:10054000083E0A5C543C3E04383A0000403A003E03
:100550000834023E003C083C3C043C3C243C7C24E7
:100560001818247C3C040C282414041E243C203C31
:100570001C201C3C103C3408345C503C34242C3F80
:10058000213F223F203329272329371E113F3725BA
:100590003D3F253D3905033F253F07053F002F001F
:1005A000002000080808081C080229061400002082
:1005B00000201A20804080408000225DA2548800E4
:1005C00000106890285082FD027DA2502810001F64
:1005D000608F508C324C810FF001ED1228281106EB
:1005E000D821063BC40A0A040000000003040B14CF
:1005F0002841B31410030402F2211824A4A2916824
:1006000014280000000000008040A0D86700001FF0
:10061000C000001F63810000000000001A201028A5
:1006200050A27D02FD82502890681000008854A2DC
:100630005D22008040804080040A0AC43B06619825
:100640000611282812ED01F00F814C328C508F607A
:100650001F00000000030408041821F10204031025
:1006600014B34128140B0403000000000000000034
:10067000000080601F0000C01F000067D8A04080FD
:100680000000000000001A20205050A06010E08000
:10069000906810E89000008854A25D2280000080DD
:1006A0004080000000C43B06A1D84781810202F5CA
:1006B00009F0DF0D2DEB202F2F201F00000000037D
:1006C0000408041820F10205031014B3412814098A
:1006D00006000000000000000000000080601F0015
:1006E000000060000067D8A040800000000000000B
:1006F000E803EA07CA084F0CE204340D00000310B7
:1007000066883366883380C0E0FCFEFFFFFFFFFF92
:10071000FFFFFFFFFFFFFFFFFFFFFFFFFFFFFFFFE9
:10072000FFFFFFFFFFFFFFFEFCE0C080070F1F1F62
:100730001F1F1F1F1F1F1F1F1F1F1F1F1F1F1F1FC9
:100740001F1F1F1F1F1F1F1F1F1F1F1F1F1F1F1FB9
:100750000F07260D8040A0BC82818181818181812B
:100760008181818181818181818181818181818179
:10077000818181818182BCA04080070817141414F4
:100780001414141414141414141414141414141429
:10079000141414141414141414141414141708072F
:1007A000110D00F9F801E0E1008180010001000174
:1007B0000001541013131013131013131012101000
:1007C00010101015A0F0E0FCFEFFFFFFFFFFFEFC85
:1007D000E0F0A00001000F1FBFFFFFFFBF1F0F00D1
:1007E00001000F10A050A0BC02EDDDDD8901023C2C
:1007F000A050A00001000F10AF4F0F4AA0100F0033
:100800000100100E060E86C488468E460E468648A7
:10081000C48E060E08110C1428150201082510219B
:1008200011240A163C7EFFFFFFFFFFFFFFFF7E3C07
:10083000003C7EFFFFFFFFFFFFFFFFFFFFFFFFFF0B
:10084000FFFFFFFFFFFFFFFFFFFFFFFFFFFFFFFFB8
:10085000FFFFFFFFFF7E3C33083C4281BD89BD8125
:10086000BD9589423C003C42BDA5A5A5A5A5A5A571
:10087000A5A5A5A5A5A5A5A5A5A5A5A5A5A5A5A528
:10088000A5A5A5A5A5A5A5A5A5BD423CF0F8FCFC80
:10089000FCFCFCFCFCFCF8F000FCFEFFFFFFFFFF93
:1008A000FFFFFFFFFFFFFFFFFFFFFFFFFFFFFFFF58
:1008B000FFFFFEFC00010303030303030303010026
:1008C00000010307070707070707070707070707C9
:1008D000070707070707070707070301280BF008A3
:1008E00004A4945404F4542408F000FC02FDFD8D8B
:1008F00075058DFD8D75058DFD8D75058DFD8D75D0
:10090000058DFDFD02FC000102020202020202024C
:10091000010000010205050505050505050505059C
:1009200005050505050505050505050502010B017C
:100930000201F900F000E700DE00000000000015F1
:10094000170000000101162D00000002021721000F
:100950000000030318170000000404192100000020
:1009600005051A2126081E214054524A405E4A4479
:10097000213F40BFBFBFBFBFBFBFBFBFBFBFBFBF24
:10098000BFBFBFBFBFBFBFBFBFBF403F211F000032
:10099000000000804040A05050909C92928448906B
:1009A000909090901010202040800000000000C027
:1009B00030CCF2FD0EF3FDFE8F070371195983FF52
:1009C0008359197103078EFCF1020CF1C20C30C07F
:1009D000E013CCF3274ED9D7CDDB5FBFB7A7A7A5D0
:1009E000A4A5A7A7B7BFDB4DC7D1584EE3D02CC3F2
:1009F000000142751B1B1D1A35452B646B57564A67
:100A0000554B4B554A54575368274A351A1B19748E
:100A10004300040406090F060A0F0F08090D0F0A08
:100A2000090B0F0F03020F0F070D0D0D0F0A0E0E0E
:100A3000010D0F030E0B0B0F07050F0F000005969E
:100A4000000104960002039601000296010101963E
:100A500047013B012F01230117010E0D102854D42B
:100A6000145651F5F5BDFAF408F00000000708151A
:100A7000151717160B05020126081E21405C525A55
:100A8000405E4A44213F40BFBFBFBFBFBFBFBFBFE3
:100A9000BFBFBFBFBFBFBFBFBFBFBFBFBFBF403F65
:100AA000291AFE01FDFDFDFDFDFDFDFDFDFDFDFD28
:100AB000FDFDFDFDFDFDFDFDFDFDFDFDFDFDFDFD66
:100AC000FDFDFDFDFDFDFDFDFD01FEFF00FFFFFF46
:100AD000FFFFFFFFFFFFFFFFFFFFFFFFFFFFFFFF26
:100AE000FFFFFFFFFFFFFFFFFFFFFFFFFFFFFFFF16
:100AF000FFFF00FF7F80BFBFBFBFBFBFBFBFBFBF84
:100B0000BFBFBF7FBFBFBFBFBFBFBFBFBFBFBFBF35
:100B1000BFBFBFBFBFBFBFBFBFBFBF40FF00000061
:100B200002010000000000000000010300030303B5
:100B30000303030303030303030303030303030385
:100B4000030303030003211F000000008040A0A056
:100B500050A8A8C8CEC9C9C2A4C8C8C8C8C88808EF
:100B6000109020408000000000609866F9FE07F9B0
:100B7000FEFFC78381B98BA7C77FC7A78BB98183C6
:100B8000C7FEF80106F861069860F009E6F993A738
:100B90006CEBE6ED29DFDF5F5FD2D2D2DF5F5FD99A
:100BA000ED26E368AC27F1E816E10000213A0D0DCF
:100BB0000E0D1A221532352B2B252A25252A252AFA
:100BC0002B293413251A0D0D0C3A210009040103B9
:100BD000070F070B0502010904080C0E0F0E0D0A82
:100BE0000408100EBAB6BE5E3EFE7E7E6E76EE3E07
:100BF0005EBEBEB6040222142438051D252D140C39
:100C000002360A040C0E0C0E0F0A00080C0C0E0E15
:100C10000F0E0C00000000000000000000000000AB
:100C2000080C0E0F0E0E0C0824040C020402050A18
:100C300000080404020601020C000000000000008D
:100C400000000000000008040E01060204081C0E4B
:100C5000E0F0F0F8FCFEFFFFFEFEFCF8F0F8FCFC14
:100C6000FEFEFFFFFFFEFCF8F8F8F0E001030707C7
:100C70000F0F0F0F0F07070F1F3F3F1F0F0F1F1FF4
:100C80001F0F0F07070301010A03010303070707EB
:100C9000030301001B07010307071F3F3F7F7F3F3F
:100CA0001F3F7F7F7F7F3F3F1F0F1F3F1F070703B0
:100CB00001041055A055A075FFD5FF20596F752070
:100CC000646F206E6F7420686176650A2020202092
:100CD000656E6F756768205350210020204275793A
:100CE0002074686973206974656D3F0A2020232091
:100CF000202059657320202020242020204E6F00C2
:100D0000000000000015170000000101162D000072
:100D1000000202172100000003031817000000045E
:100D200004192100000005051A2120596F7520645F
:100D30006F206E6F7420686176650A202020206520
:100D40006E6F75676820676F6C64210020204275A4
:100D5000792074686973206974656D3F0A202023C7
:100D600020202059657320202020242020204E6F31
:100D700000202020596F7520616C726561647920B4
:100D8000686176650A206F6E65206F662074686FF3
:100D900073652077616E64732100202020596F7580
:100DA000206172652077656172696E670A206F6ED7
:100DB00065206F662074686F7365206861747321A5
:100DC000000000059600010496000203960100024F
:100DD0009601010196D5F08D14A1C881CFD9F1AF4C
:100DE00020000506EDF6C9F6EDFDFDC0EFEFFCFBBA
:100DF000C0FBFCFDC1FEC1FDF7EFC0FDFBFDFBC468
:100E0000FBFDFCFEFFFFFFFFFFFFFFFFFEFC0F1FD0
:100E10003F3F3F3F3F3F3F3F1F0F00FCFEFFFFFFB5
:100E2000FFFFFFFEFC00000F1F3F3F3F3F3F3F1F04
:100E30000F000000FCFEFFFFFFFFFEFC00000000B3
:100E40000F1F3F3F3F3F1F0F0000000000FCFEFF51
:100E5000FFFEFC0000000000000F1F3F3F1F0F00BF
:100E6000000000000000FEFFFFFE00000000000088
:100E700000001F3F3F1F000000000C0EFC02F9FDA8
:100E8000FDFDFDFDF90102FC0F10272F2F2F2F2F45
:100E90002720100F00FC02F90D2DFDF90102FC00C6
:100EA000000F10272E2C2F2720100F000000FC020F
:100EB000F90DF90102FC000000000F10272C27207B
:100EC000100F0000000000FC02F90102FC0000000D
:100ED0000000000F102720100F000000000000008D
:100EE000FE0101FE00000000000000001F20201F86
:100EF00000000000000000FC0201F902FC000000FC
:100F00000000000F102027100F0000000000FC025E
:100F100001F9FDF902FC000000000F1020272F2727
:100F2000100F000000FC0201F9FDFDFDF902FC00BC
:100F3000000F1020272F2F2F27100F00FC0201F980
:100F4000FDFDFDFDFDF902FC0F1020272F2F2F2F97
:100F50002F27100FFC02F9FDFDFDFDFDFDF902FC40
:100F60000F10272F2F2F2F2F2F27100F00FC02F9E4
:100F7000FDFDFDF90102FC00000F10272F2F2F2788
:100F800020100F000000FC02F9FDF90102FC000036
:100F900000000F10272F2720100F0000000000FC7A
:100FA00002F90102FC0000000000000F10272010D1
:100FB0000F00000000000000FE0101FE0000000024
:100FC000000000001F20201F00000000000000FCA7
:100FD0000201F902FC0000000000000F10202710A1
:100FE0000F0000000000FC0201F90DF902FC0000F6
:100FF00000000F1020272C27100F000000FC02011A
:10100000F9FD0D2DF902FC00000F1020272F2E2CCA
:1010100027100F00C0E0F0F0F8FCFEFFFEE4000037
:10102000000000000001010100C0E0F0F8F8F8F055
:10103000E0C0000000000000000001010048FCF8D2
:10104000FCFEFCF8FCC800000000000000000101EC
:10105000E4FEFFFEFCF8F0F0E0C00101010000003A
:1010600000000000C0E0F0F8F8F8F0E0C000010176
:101070000000000000000000C8FCF8FCFEFCF8FCCA
:101080004800010100000000000000000A09C02023
:101090005050286C4AA51AE400000000000000002F
:1010A000000100C020502828081020C000000000C7
:1010B0000000000000010048B408143A140874C885
:1010C00000000000000000000001E41AA54A6C289E
:1010D000505020C001000000000000000000C020AF
:1010E000100828285020C000010000000000000067
:1010F0000000C87408143A1408B448000100000045
:1011000000000000000000F0F8FCFEFFFFFFFFFF02
:10111000FEBC000103071F1F1F1F1F1F1F1F1F0FE4
:1011200080F8FCFCFEFFFFFFFFFFFE3C0000010318
:101130001F1F1F1F1F1F1F1F1F1E00F0F8FCFEFF99
:10114000FFFFFFFFFEBC000103071F1F1F1F1F1F24
:101150001F1F1F0F00E0F0FCFEFFFFFFFFFFFEFC64
:101160008002070F1F1F1F1F1F1F1F1F1F0700BC0D
:10117000FEFFFFFFFFFFFEFCF8F0000F1F1F1F1F09
:101180001F1F1F1F1F070301003CFEFFFFFFFFFF84
:10119000FEFCFCF8801E1F1F1F1F1F1F1F1F1F03A9
:1011A000010000BCFEFFFFFFFFFFFEFCF8F0000F98
:1011B0001F1F1F1F1F1F1F1F1F07030180FCFEFF94
:1011C000FFFFFFFFFEFCF0E000071F1F1F1F1F1F98
:1011D0001F1F1F0F07020D0D00F0087C02297D69FB
:1011E000B90142BC000102041A001F07071F0003D7
:1011F000180F8078043C02297D69B901C23C0000C7
:1012000001021D000707071F0006111E00F0087CE1
:1012100002297D69B90142BC000102041A001F07BE
:10122000071F0003180F00E010FC02297D69B901B7
:10123000827C8002050814001F07070700011C07B5
:1012400000BC4201B9697D29027C08F0000F180337
:10125000001F07071F001A040201003CC201B96900
:101260007D29023C0478801E1106001F0707070035
:101270001D02010000BC4201B9697D29027C08F011
:10128000000F1803001F07071F001A040201807CCB
:101290008201B9697D2902FC10E000071C010007EA
:1012A00007071F001408050200F0F8FCFEFFFFFF0F
:1012B000FFFFFEBC000103071F1F1F1F1F1F1F1F73
:1012C0001F0F00F0F8FCFCFEFEFEFEFEFCF8000125
:1012D00003071F1F1F1F1F1F1F1F1F0F00E0F0F816
:1012E000FCFEFEFEFEFEFC780002070F1F1F1F1F04
:1012F0001F1F1F1F1F1E00BCFEFFFFFFFFFFFEFC86
:10130000F8F0000F1F1F1F1F1F1F1F1F1F070301C4
:1013100000F8FCFEFEFEFEFEFCFCF8F0000F1F1FB6
:101320001F1F1F1F1F1F1F0703010078FCFEFEFE6B
:10133000FEFEFCF8F0E0001E1F1F1F1F1F1F1F1FD7
:101340001F0F07020D0D00F0087C02297D69B9010D
:1013500042BC000102041A001F07071F0003180FF8
:1013600000F0087C0452FAD2720204F80001020470
:101370001A001E06061F0003180F00E010F80452A2
:10138000FAD2720284780002050814001E06061FB5
:101390000006111E00BC4201B9697D29027C08F0DB
:1013A000000F1803001F07071F001A04020100F8AE
:1013B000040272D2FA52047C08F0000F1803001FD6
:1013C00006061E001A0402010078840272D2FA5244
:1013D00004F810E0001E1106001F06061E00140887
:1013E0000502FFFFFFFFFFFFFFFFFFFFFFFFFFFF04
:1013F000FFFFFFFFFFFFFFFFFF7F3F1F010103070D
:101400000F0F0F0F0F1F3F7FFFFF7F3D19010101DE
:101410000101000000001A10BFBFBF1FEFEFEFEF88
:10142000EF1FBFBFBFBFBFBFBFBFBFBFBFBF5F203B
:101430001F000000010205050505050219245A5A7E
:101440002418000000000000000000000F1F3F7F74
:10145000FFFFFFFF0808000F102F5F5F5F5FFFFFB8
:10146000FFFFFEFCF8F00808FAFAFAFAF408F000B8
:10147000F0F8FCFEFFFFFFFF080800F008F4FAFA9E
:10148000FAFA080B0002020201000904000001023E
:1014900002000005240010010524010101042402BA
:1014A0000605240600010705810310004009040118
:1014B00000020A0000000705020240000007058341
:1014C000024000000403090412010002EF0201407F
:1014D0004123368000010102030141726475696E87
:1014E0006F204C4C430041726475696E6F204C65EF
:1014F0006F6E6172646F0021080F0F080800060903
:101500000B06000E03030E000F090F06000F0F005D
:101510000F02030F000E0F090D000E10BEBDBEBD61
:10152000BEBDBEBDBEBDBEBDBE0000040004000405
:1015300000040004000400004E080F0D0702000F15
:10154000050F0A000F0D0900020B0D00020B0D0024
:10155000000000000F0D0702000F0F0808000E0327
:10156000030E00030E0E0300000006090B06000F19
:1015700002030F00000000010F0F010E03030E0015
:101580000F0D0702000F0D090E10A7C7A7C7A7C7A9
:10159000A7C7A7C7A7C7A700070707070707070722
:1015A00007070707070024080E1F1F1F0E00000073
:1015B00000000000000000001F0E040000000000FA
:1015C00000000000040E1F00040E1F00210BFE127D
:1015D000120C00F00808100070A8A8300090A8A80D
:1015E000480090A8A84800007CFE87DB87FE7C00AE
:1015F00000000000000000000000000000000000EB
:1016000000000000000000000001020505050201C5
:101610008030419981712931892141998171293124
:10162000012141890121012101214189012101215A
:10163000012141090101C141C141C141C14141C132
:101640004141C14141C101010101814141C141C14A
:101650004141C14141C1414181018141C10141C17A
:101660004141C1010101814141810141C14141C16A
:1016700001010101210121018941210121012101F2
:101680008941210131297181994121893129718152
:1016900099414398837428338D2643988374283363
:1016A0000522408801200022052240880100000018
:1016B000081C1C0800000000FF000000FF0808FFD5
:1016C0000000FF081CC000000000FF0000C100FF78
:1016D0000000FF0000FF0808F700870CF10000FF82
:1016E000081CC0000000FF0000FF0000FF081C00F5
:1016F0000000081C1C080000804022052200200178
:1017000088402205332874839843268D33287483B8
:1017100098434398837428338D26439883742833E1
:10172000052240880120002201000010080888C816
:10173000C8C8C8C8C888080909C9C8C9C949494921
:101740004949094949C9C8C8C8C84849090848C8D1
:10175000C9C9C8C8C9C9490848C9C9C9C8C8C989FF
:1017600009090988C8C8C8C9C9C888090949C8C8B1
:10177000C8080848C8C8480808100001020020012D
:1017800088402205332874839843268D3328748338
:1017900098434398837428338D2643988374283361
:1017A0000522408801200022052240000000FF7F22
:1017B0000781838FFFFF00000038F1F13131277E70
:1017C0007E1C00000000FFFFFF0000000000FF1F64
:1017D00033313117FFFF7C00001FFF01C1F13F0FC4
:1017E000030000FFFF03010107FFFF000000FFFFF0
:1017F000FF80E0F83F0F000080402205220020011A
:1018000088402205332874839843268D33287483B7
:1018100098434398837428338D26439883742833E0
:1018200005224088012000220522408800003FC098
:1018300000010101FFFF000000000103060C000091
:101840000000000000000FFF000000000000000387
:101850000C0000000700000000007F0000030F30B4
:101860000000000103040C0C0203010000007FFFD4
:1018700007010F7FC000000108402205220020015F
:1018800088402205332874839843268D3328748337
:101890009843040404040404040404040404040435
:1018A00004040404040404040404040404040401FB
:1018B000020004E01F0004040404040404040404FB
:1018C000040404040400000F0000040404040404DD
:1018D00004040404040404040404040404040404C8
:1018E00004040404040404040404040400000003C5
:1018F00000040000071E30C00000040404040404B7
:101900000404040404040404040404040404040497
:101910000404FA27D32511241FBECFEFDAE0DEBF7F
:10192000CDBF11E0A0E0B1E0E0EAFAE502C0059029
:101930000D92A63EB107D9F727E0A6EEB1E001C0AF
:101940001D92AA30B207E1F71CE0CAE8DCE004C04F
:101950002197FE010E943A2BC938D107C9F70E948E
:10196000D7250C94432D0C940000CF93DF93EC010A
:10197000EF96FC0117AEDC01AE5BBF4F31E03C934C
:10198000EB5BFF4F22E0208344E650E05A8349831B
:1019900048EC50E012965C934E931197ACE2B1E0A4
:1019A000B283A18333961082ABE9BFEFB283A183E8
:1019B00013823496A4E0A083528341831382349629
:1019C00046E0408343EE51E05283418333833496B3
:1019D000A7E0A083528341832383349648E0408369
:1019E0004CE350E052834183338334963AE03083B2
:1019F0004AEC51E05283418313827896108230E89A
:101A0000FB0136872787FC01EF59FF4F1082DF91DA
:101A1000CF910895DC01FB0191859095208592235B
:101A200093FF0CC01E968C911E97811102C082E01C
:101A3000818B1E968C91813009F4818B089522E070
:101A4000FC0126870895089580E090E008950895A8
:101A5000EF920F93CF93DF93EB01DC01EC914E2FCC
:101A600050E04B30510508F067C0FA01EA5AFF4FC9
:101A70000C943A2B11968D919C9112970D9720E022
:101A800049E954E022C011968D919C9112970697D6
:101A9000E12C00E029E134E048E554E00BC0119668
:101AA0008D919C9112970897E12C00E02BED33E08B
:101AB00049EF53E061E270E017C011968D919C915F
:101AC00012970B9720E043EC53E062E270E02CC0E9
:101AD00011968D919C911297E12C00E02DEA33E054
:101AE00047EB53E062E270E08C0F9D1F0E943A25A5
:101AF00023C011968D919C91129720E04BE853E002
:101B000007C011968D919C91129720E049E653E011
:101B100067E270E009C011968D919C91129720E0C8
:101B200041ED52E06FE070E08C0F9D1FDF91CF918F
:101B30000F91EF900C940E25DF91CF910F91EF90C4
:101B400008952F923F924F925F926F927F928F9261
:101B50009F92AF92BF92CF92DF92EF92FF920F933C
:101B60001F93CF93DF935C01EB01E6EAF2E0C490B0
:101B7000E7EAF2E05490E8EAF2E0E490E9EAF2E021
:101B80006490312C54E0452E062C000C7708852CEF
:101B9000052C000C99080E2C000CFF080C2C000CD6
:101BA000DD08032D10E00615170584F543E0000F4E
:101BB000111F4A95E1F7080D191DE42D4E2F441908
:101BC00050E04E155F05FCF4222423942E0EF0E025
:101BD000EA55FD4F2491D5011196ED91FC91129794
:101BE000EC0FFD1FEC0DFD1DCA0133E0880F991F9E
:101BF0003A95E1F74CE452E0B8018E0F9F1F0E9426
:101C00000E25E22DDBCF33944E2ECBCF11E0140DF9
:101C1000E42DF0E0EA55FD4FF490B1E0FB122AC04C
:101C2000E12FF0E0EA55FD4F949113E0140D439439
:101C30004394E42DF0E0EA55FD4F6491062E000C2C
:101C4000770B650D711D57FC7A95D5011196ED91B5
:101C5000FC911297EC0FFD1FE12C00E02EE132E029
:101C600044E352E0DF01A90FB11D97FDBA95CD0104
:101C70000E943A25E12FF0E0EA55FD4FE491B1E0F2
:101C8000FB1250C0E1E0E10FF0E0EA55FD4F849017
:101C9000E2E0E10FF0E0EA55FD4FC4901D5FE12F57
:101CA000F0E0EA55FD4F14910C2C000CDD08C50C3A
:101CB000D11C57FCDA94082C000C9908F50181819D
:101CC00092818C0F9D1FE12C00E024E931E048ED6A
:101CD00051E0B601880D991D0E943A25B6016D5F4D
:101CE0007F4FD50111968D919C91129703968C0F81
:101CF0009D1F212F43E551E0880D991DDF91CF9164
:101D00001F910F91FF90EF90DF90CF90BF90AF9019
:101D10009F908F907F906F905F904F903F902F900B
:101D20000C940E25DF91CF911F910F91FF90EF90B2
:101D3000DF90CF90BF90AF909F908F907F906F90EB
:101D40005F904F903F902F9008950F931F93CF93E4
:101D5000FC016A3039F48581848396818185890FFD
:101D600086838CC08481603209F477C06E3709F4B1
:101D700074C0C62F8F0166816F5FCA33B0F4C03361
:101D800058F5C43209F44EC030F4C13209F472C0BF
:101D9000C332A9F15DC0CD3209F46EC0CE32C1F0BC
:101DA000CB3209F055C021E41DC0CB3550F4C1340D
:101DB00088F4CF33A1F0A8F4CA3309F049C023E472
:101DC00011C09FE99C0F9A3108F042C029EB05C071
:101DD0002FE308C02FEB01C024E02C0F03C022E446
:101DE00001C024E4F8013781062E000C770B082E81
:101DF000000C990B41EE54E0313041F521C02781B0
:101E0000062E000C770B082E000C990B61507109FF
:101E1000213021F420E048ED54E012C020E048EDEC
:101E200054E014C02781062E000C770B082E000CFE
:101E3000990B61507109213031F420E04FEC54E0EE
:101E40000E94EE2405C020E04FEC54E00E94FE24E6
:101E5000CF7DF8018481C93411F48E5F09C0CC3480
:101E600019F48D5FF80104C0F80190859D5F890F1A
:101E7000848304C02EE3B6CF20E4B4CF81E090E0A9
:101E8000CF911F910F910895FF920F931F93CF93BE
:101E9000DF93F42EC62FD0E0082F10E020E04AE7B1
:101EA0005EE0BE01C8010E94EE24BE016C5F7F4F60
:101EB0002F2D42EE5DE0C8010396DF91CF911F9177
:101EC0000F91FF900C940E250C94D82B0C94D82BCA
:101ED0000C94D82B0C94D82BCF92DF92EF92FF92D8
:101EE000CF93DF93EC0118820E94EF2926E0C22EE7
:101EF000D12CE12CF12CA70196010E946C2A6B8356
:101F00000E94EF29A70196010E946C2A6C831D8212
:101F1000DF91CF91FF90EF90DF90CF900895FC017B
:101F2000858191E098279583911101C011820895D0
:101F300008950895089508952F923F924F925F92C9
:101F40006F927F928F929F92AF92BF92CF92DF92C9
:101F5000EF92FF920F931F93CF93DF93CDB7DEB72E
:101F600027970FB6F894DEBF0FBECDBF6C011B01E3
:101F70003B0123E0620E711CFC01EF59FF4FE08131
:101F80008E2F90E08730910508F0B7C3FC01EF5920
:101F9000FF4F0C943A2B00E010E020E041EB5CE0B6
:101FA00060E070E0C8010E940E250C5F1F4F0038F2
:101FB000110599F7F601E459FF4F80819181B8012D
:101FC0000E94262B8C010058110920E044E95CE0B6
:101FD00060E070E0C8010E94EE2420E048E85CE088
:101FE00060E070E0C8018A5B9F4F0E94EE2420E011
:101FF0004EE45CE063E070E0C801865A9F4F0E94A7
:10200000EE2400581F4F0F3F1105F9F2F4F256016C
:102010003EE6A30EB11CF50100811181E0E098EECF
:10202000E92E93E0F92E992493949E0EF0E0EE0FA2
:10203000FF1FE051F94F85919491009731F410E022
:102040002601F0E64F0E511C3FC0B7010E94262B1F
:102050006230710571F063307105B1F06130710566
:1020600011F0E92DE0CF800F911F20E046E856E007
:1020700005C0800F911F20E04CE156E062E170E066
:1020800006970E94FE24EDCF800F911F20E042EBC7
:1020900055E0F4CF812F90E0F60124E0129FE00D8F
:1020A000F11D1124E55BFF4F208121110CC0F501CA
:1020B000608171814296880F991F880F991F8C0D3E
:1020C0009D1D0E94280D1F5FF2018081181710F3DB
:1020D000F50160817181C601CF960E94A10DF501C5
:1020E00060817181C6018E5B9F4F0E94A10DF50139
:1020F00060817181C6018B5B9F4F0E94A10D10E032
:10210000F20180811817D8F4812F90E0F60124E0C5
:10211000129FE00DF11D1124E55BFF4F208121305E
:1021200061F4F501608171814296880F991F880FD3
:10213000991F8C0D9D1D0E94280D1F5FE1CFF50199
:102140008081918160E370E00E94262B4C01F0E3D6
:102150008F1A9108E12C00E024E03CE048E25CE0CA
:102160006FE270E0C4010E943A2520E3820E911CC8
:1021700030E88316910474F3F601E059FF4F808133
:10218000918160E170E00E94262B8C0100511109C1
:1021900020E042EE5BE062E370E0C8010E940E25A1
:1021A000005F1F4F003811059CF3B301C6010C9668
:1021B0000E942D1C10E0F2018081181708F09FC2C8
:1021C000812F90E0F60124E0129FE00DF11D112413
:1021D000E55BFF4F2081223061F4F5016081718160
:1021E0004296880F991F880F991F8C0D9D1D0E9484
:1021F000280D1F5FE0CF61E070E0F601EE58FF4F61
:102200008081882311F060E070E020E047ED5BE022
:102210008CE190E00E940E25F601ED58FF4F808181
:10222000811103C06BE370E002C06CE370E020E05A
:102230004CEC5BE08CE190E00E940E2520E046E44F
:102240005BE060E070E089E590E00E940E2520E010
:1022500040EA5AE060E270E085E590E00E940E25D9
:1022600020E048E75AE068E370E088E590E00E94EB
:102270000E2520E04AE55AE06CE170E08CE390E046
:102280000E940E25F60156AC5A945A94F8E0FF834A
:10229000412C75E0672E712C86010E5F1F4FEAE01E
:1022A0008E2E912C21E0F60121873CE03683378386
:1022B0008F818087852D052C000C990B0596B30125
:1022C0000E94262B7C01FF24F701EE0FFF1FE05B2D
:1022D000F54F65917491C8010E94FD1C5394E5E08F
:1022E0005E1201C0512CF2E04F1254C0C701880F9A
:1022F000991F880F991FFC01E25CF54F6491FC0166
:10230000E15CF54FE490F601118621E626832783F0
:1023100034E23087C8010E942B2964ED71E0C801C6
:102320000E941B292FE5F601268327833DE2308793
:102330006E2DC8010E942B2969ED71E0C8010E9431
:102340001B2919821A821B821C82F60186859785B9
:10235000FE0131965E0125E0A20EB11CB4010E947F
:10236000122B8193CB01EA15FB05C1F747E6E42E5A
:10237000F12CF50122915F0142E15AE069E370E03E
:10238000C7010E94FE24F5E0EF0EF11C2BE7E216D8
:10239000F10479F743943F81365F3F8385E048122B
:1023A00081CFABC161E070E0F601EE58FF4F808154
:1023B000882311F060E070E020E047ED5BE08CE105
:1023C00090E00E940E25F601ED58FF4F80818111AB
:1023D00003C06BE370E002C06CE370E020E04CEC03
:1023E0005BE08CE190E00E940E2520E04AE55AE097
:1023F0006CE170E083E490E00E940E2520E04CE860
:1024000059E060E070E089E590E00E940E2520E050
:1024100040EA5AE060E270E085E590E00E940E2517
:1024200020E044E659E068E370E088E590E00E942F
:102430000E25F60104AD015018E0E12C27E5F22E3F
:102440005601F2E0AF0EB11C3FE5632E802F002E47
:10245000000C990B069666E070E00E94262B27E0A0
:10246000829FC0011124FC01E65CF64F4491FC01FF
:10247000E55CF64F4490FC01E45CF64F5490FC019F
:10248000E35CF64F7490FC01E25CF64F8490FC0133
:10249000E15CF64F9490FC01E05CF64F34913F8391
:1024A000612F80E00E94440F442D612F8DE00E9437
:1024B000440F452D612F8AE10E94440F472D612F63
:1024C00087E20E94440F482D612F84E30E94440F4D
:1024D0000F5F063009F400E082E0E81257C0F60111
:1024E0001186F682F78222E22087E02FEE0FFF0BA3
:1024F000E25DF64F65917491C5010E94FD1C2CE5CB
:10250000F6012683278339E23087692DC5010E94B1
:102510002B296DED71E0C5010E941B29F601668231
:1025200067822FE220876F81C5010E942B2962EE0E
:1025300071E0C5010E941B2919821A821B821C822C
:10254000F60180899189FE0131962E0125E0420E27
:10255000511C6AE070E00E94122B8193CB01E415BC
:10256000F505B9F797E6892E912CF20122912F01FA
:1025700042E15AE069E370E0C4010E94FE24F5E004
:102580008F0E911C2BE78216910479F7E3941F5E5E
:1025900033E0E3125BCFB1C060E0C6014E960E940B
:1025A000C01C6DE0C60184960E94C01C6AE1C60191
:1025B0008A960E94C01C67E2C601C0960E94C01C99
:1025C00064E3C601C6960E94C01CE12C00E02CE822
:1025D00038E04CED58E065E070E080E090E00E946B
:1025E0003A2524E238E047E558E060E070E080E01A
:1025F00090E00E943A2500E010E020E042E058E040
:1026000062E370E0C8010E940E25005F1F4F003892
:10261000110599F7E12C00E024EC37E042EE57E099
:1026200060E270E084E690E00E943A25B301C601C2
:102630000C960E942D1C63C060E0C6014E960E945D
:10264000C01C6DE0C60184960E94C01C6AE1C601F0
:102650008A960E94C01C67E2C601C0960E94C01CF8
:1026600064E3C601C6960E94C01CE12C00E02CE881
:1026700038E04CED58E065E070E080E090E00E94CA
:102680003A2524E238E047E558E060E070E080E079
:1026900090E00E943A2500E010E020E042E058E09F
:1026A00062E370E0C8010E940E25005F1F4F0037F3
:1026B000110599F720E040EA57E063E370E08FE608
:1026C00090E00E940E25E12C00E026E037E042E594
:1026D00057E06BE070E082E590E00E943A2520E050
:1026E0004EEF56E060E070E08CE790E00E940E252F
:1026F000B301C6010C960E942D1C11E001C010E030
:10270000F1018685882331F1E12CF12C80E8A82E97
:10271000B12CF1014685B70180E090E00E94151BC5
:10272000F1018685B7016F5F7F4F482F9501281B08
:102730003109C9010E94151B32E0E30EF11C80E44F
:10274000E816F10431F7F1018685882319F09785A1
:10275000891B86875601FBE6AF0EB11CF50180810F
:10276000882309F13297E080319600813297F0801A
:102770001A8219821C821B821E821D82B6016E592A
:102780007F4FCE0101960E943C1A2F2DAE014F5F64
:102790005F4FB101C6010E944C1BCE0101960E9401
:1027A000531AF50110820E94051B111120C040E050
:1027B00054E06FEF70E08CEE91E027960FB6F8943E
:1027C000DEBF0FBECDBFDF91CF911F910F91FF9064
:1027D000EF90DF90CF90BF90AF909F908F907F90C1
:1027E0006F905F904F903F902F900C94352D2796CF
:1027F0000FB6F894DEBF0FBECDBFDF91CF911F9112
:102800000F91FF90EF90DF90CF90BF90AF909F908F
:102810008F907F906F905F904F903F902F90089592
:10282000CF93DF93CDB7DEB72A970FB6F894DEBF0C
:102830000FBECDBF1A8219821C821B821E821D828E
:1028400040E050E068ED71E0CE0101960E941B1A55
:102850001A860E94051BCE0101960E94531A2A96E1
:102860000FB6F894DEBF0FBECDBFDF91CF910895B4
:102870002FE631E0FC01318320838E599F4F0C9469
:10288000531ACF93DF93EC010E943814CE01DF91ED
:10289000CF910C94D82B29EC31E0FC0131832083BB
:1028A0008D960C943814CF93DF93EC010E944B1457
:1028B000CE01DF91CF910C94D82B3F924F925F9233
:1028C0006F927F928F929F92AF92BF92CF92DF9240
:1028D000EF92FF920F931F93CF93DF9300D000D01E
:1028E00000D0CDB7DEB7DB017B0123E0E20EF11CA7
:1028F00018969C90189719963C90309439205C015A
:1029000041E6A40EB11CF501408150E0473051056D
:1029100008F0D9C46B018C01FA01E859FF4F0C94FF
:102920003A2B35FE06C060E0C8010C960E945F1D80
:1029300049C095FE41C062E00C960E945F1DD8011F
:1029400052968D919C9153978D33910534F0019758
:1029500053969C938E93529735C0F801E259FF4FDE
:1029600020813181233C3105E4F4D60116968C9107
:1029700080FD09C0D801A459BF4F8D919C9111973A
:1029800001968D939C93D801A059BF4F8D919C9136
:10299000119702968D939C932F5F3F4F3183208335
:1029A00011C0233C310571F4833091055CF001972F
:1029B000F801938B828B06C0DC015B968C91823090
:1029C00009F4B1CF36FE06C061E0C8010C960E9442
:1029D0005F1D55C096FE4EC063E0C8010C960E9474
:1029E0005F1DF801828993898C33910514F4019657
:1029F0002AC0F801E259FF4F2081318129394EEF79
:102A00003407E4F0D60116968C9180FD09C0D801F8
:102A1000A459BF4F8D919C91119701978D939C93D1
:102A2000D801A059BF4F8D919C91119702978D931A
:102A30009C93215031093183208321C08038910536
:102A40002CF40196F801938B828B19C085EF9FEFD0
:102A5000D80153969C938E935297F801EC58FF4FF0
:102A6000108280E8F601868782E0878786E0D501BC
:102A70008C9305C0F801838D833009F4A5CF37FE10
:102A800022C4F801E259FF4F20813181D801DF963D
:102A900011968D919C911297820F931FD801529697
:102AA0002D913C915397821B930B0A9770F4AC586D
:102AB000BF4F1C9280E8D6011E968C931E9782E031
:102AC0001F968C9381E0D5018C9320813181D801B0
:102AD000AE5BBF4F11968D919C911297820F931F01
:102AE000D80152962D913C915397821B930B0A97D4
:102AF00070F4AC58BF4F1C9280E8D6011E968C93A0
:102B00001E9782E01F968C9383E0D5018C932081E1
:102B10003181F801EB5BFF4F81819281820F931F1E
:102B2000F80122893389821B930B0A9708F0CBC3E3
:102B300085E090E0938B828BEC58FF4F108280E809
:102B4000D6011E968C931E9782E01F968C9385E08B
:102B500023C17C01F4E7EF0EF11CD7018C9188238F
:102B600039F081508C9381E0F801E559FF4F808363
:102B7000F801EE58FF4F37FE0DC0D801DE968C915C
:102B8000882311F0815001C084E0D801DE968C9337
:102B900085E004C08081882311F081508083F80192
:102BA000ED58FF4F34FE0DC0D801DE968C91843075
:102BB00010F48F5F01C080E0D801DE968C9385E031
:102BC00004C08081882311F08150808332FE0CC0C4
:102BD000F701108280E8D6011E968C931E9782E042
:102BE0001F968C93F501108233FE6DC3D801DE96DB
:102BF0008C91B4E08B9FC0011124FC01EF53F24F84
:102C00003491FC01EE53F24F2491FC01EC53F24F4E
:102C1000E491332319F03130E1F0EBC2D8015C9636
:102C20008C912813E6C26AE97DE0CE0101960E94EC
:102C3000581A22E545E0BE016F5F7F4FC8010E9430
:102C4000661DCE0101960E94531A8BE4F701808322
:102C50003AC3D8015D968C912813CBC261E77DE021
:102C6000CE0101960E94581A24E5E4CF81E0F801D4
:102C7000E559FF4F808333FE28C0D801DE968C9142
:102C8000B4E08B9FC0011124FC01EF53F24F34914B
:102C9000FC01EE53F24F2491FC01EC53F24F84916E
:102CA000332331F0313031F4D8015D962C9302C0DA
:102CB000F801248FF80126853785A901481B5109A1
:102CC0005787468781E0D5018C9332FEFCC281E0B4
:102CD00063C0FC01EE58FF4F37FE0DC0DC01DC96EF
:102CE0008C91882311F0815001C085E0D801DC96D9
:102CF0008C9385E004C08081882311F0815080830B
:102D0000F801ED58FF4F34FE0DC0D801DC968C91D0
:102D1000853010F48F5F01C080E0D801DC968C9381
:102D200085E004C08081882311F08150808332FEC9
:102D30000BC0F801EC58FF4F108280E8F60186873F
:102D400082E08787D5011C9233FEBDC2D801DE9692
:102D5000EC91B7E0EB9FF0011124EA5FF24FE491B0
:102D6000F0E0D80150968D919C9151978E179F0756
:102D7000A8F06BED7CE0CE0101960E94581A24E485
:102D80004FE1BE016F5F7F4FC8010E94661DCE01FB
:102D900001960E94531A84E0F50159CF6BEB7CE059
:102DA000CE0101960E94581A26E44FE0BE016F5FE3
:102DB0007F4FC8010E94661DCE0101960E94531AE2
:102DC000F801EC58FF4F8BE442CF81E0F801E55960
:102DD000FF4F808333FE22C0D801DE96EC91AE2FE8
:102DE000B0E027E0E29FF0011124EA5FF24FE491A6
:102DF000A00FB11F55968C9155978F5F55968C9368
:102E0000D80150968D919C9151978E1B91095196A6
:102E10009C938E93509783E0F501808332FE53C2DA
:102E200083E0D5018C934FC235FE06C060E0C80137
:102E30000C960E945F1D30C095FE29C0FC0182895E
:102E40009389853F9F4F84F062E0C8010C960E94F1
:102E50005F1DD80152968D919C915397019753967F
:102E60009C938E93529718C08CE390E0F801938B5B
:102E7000828BEC58FF4F108280E8DB011E968C930A
:102E80001E9782E01F968C93F501108205C0DC012D
:102E90005B968C91823051F236FE06C061E0C8012B
:102EA0000C960E945F1D0FC096FE08C0F801828933
:102EB0009389883791050CF4C2C105C0D8015B968F
:102EC0008C91833059F3F8017E962F01A8014C5D57
:102ED0005F4F3A01C8018A966C01D801D0965D0116
:102EE00078964F0132FE3EC0D801DD968C9181115B
:102EF0000DC0C2010E946C0FC3010E946C0FC6017D
:102F00000E946C0FC5010E946C0F22C0F80183A1C2
:102F1000882319F0C2010E946C0FD80199968C91F8
:102F2000882319F0C3010E946C0FF80187A588233C
:102F300019F0C6010E946C0FD801D5968C91882398
:102F400019F0C5010E946C0FF80183AD882319F0B8
:102F5000C4010E946C0FD801DD968C91DD978F5FC4
:102F6000DD968C93F80185AD8430E8F5E68DF0E0D0
:102F7000EA5EFE4F80818F3FB1F5D8019496EC91C7
:102F80009497F0E0EA5EFE4F80818F3F61F59A965C
:102F9000EC919A97F0E0EA5EFE4F80818F3F19F541
:102FA000D096EC91D097F0E0EA5EFE4F80818F3FA3
:102FB000D1F4D696EC91F0E0EA5EFE4F80818F3F2F
:102FC00091F433FE10C0F801828993898132910512
:102FD0000CF045C1843191050CF04BC18A3FFFEFE5
:102FE0009F070CF038C1B701C2010E941C1DB70138
:102FF000C3010E941C1DB701C6010E941C1DB70120
:10300000C5010E941C1DB701C401F0C035FE06C0F9
:1030100060E0C8010C960E945F1D2DC095FE27C080
:10302000DC0152968D919C915397853F9F4F64F0A0
:1030300062E0C8010C960E945F1DF80182899389A5
:103040000197938B828B17C08FE790E0D80153963E
:103050009C938E935297F801EC58FF4F108280E8B2
:10306000FB01868782E08787D5011C9204C0FC01A2
:10307000838D823069F236FE06C061E0C8010C968D
:103080000E945F1D10C096FE0AC0D80152968D9115
:103090009C915397883791050CF4F1C004C0F80156
:1030A000838D833051F3A801425E5F4F2A01C8012E
:1030B00084963C01D8019A964D01F801F0966F0173
:1030C000485E5F4F5A0132FE3EC0D801DD968C91BA
:1030D00081110DC0C2010E946C0FC3010E946C0FD0
:1030E000C4010E946C0FC6010E946C0F22C0F8013F
:1030F00083A1882319F0C2010E946C0FD801999610
:103100008C91882319F0C3010E946C0FF80187A5E8
:10311000882319F0C4010E946C0FD801D5968C91B8
:10312000882319F0C6010E946C0FF80183AD882333
:1031300019F0C5010E946C0FD801DD968C91DD97C6
:103140008F5FDD968C93F80185AD8430E8F5E68DD0
:10315000F0E0EA5EFE4F80818F3FB1F5D801949692
:10316000EC919497F0E0EA5EFE4F80818F3F61F52D
:103170009A96EC919A97F0E0EA5EFE4F80818F3F3D
:1031800019F5D096EC91D097F0E0EA5EFE4F808181
:103190008F3FD1F4D696EC91F0E0EA5EFE4F80814D
:1031A0008F3F91F433FE10C0F801828993898132F8
:1031B00091050CF078C0843191050CF07EC08A3FF7
:1031C000FFEF9F070CF06BC0B701C2010E941C1DEE
:1031D000B701C3010E941C1DB701C4010E941C1D40
:1031E000B701C6010E941C1DB701C5010E941C1D2C
:1031F0006AC0F0E0D8011E968D919C911F978E17A2
:103200009F07A0F06CE47DE0CE0101960E94581A61
:1032100024E44FE1BE016F5F7F4FC8010E94661D2D
:10322000CE0101960E94531A82E0FBCD6AE27DE056
:10323000CE0101960E94581A26E44FE0FCCC63E0D0
:10324000C8010C960E945F1DF8018289938901963E
:10325000938B828B38CE079754F4C2010DC08E3207
:1032600091054CF0CB970CF0BECEC40105C0C30154
:1032700003C0C60101C0C5010E948F0FB4CE63E038
:10328000C8010C960E945F1DD80152968D919C91A9
:103290005397019653969C938E93529704CF07971A
:1032A00054F4C2010DC08E3291054CF0CB970CF056
:1032B0008BCFC50105C0C30103C0C40101C0C60155
:1032C0000E948F0F81CF26960FB6F894DEBF0FBEF7
:1032D000CDBFDF91CF911F910F91FF90EF90DF90C5
:1032E000CF90BF90AF909F908F907F906F905F90A6
:1032F0004F903F900895CF92DF92EF92FF920F93FD
:103300001F93CF93DF936C017A018B01C0E0D0E073
:10331000CE15DF0581F0D8016D918D01D601ED91BB
:10332000FC910190F081E02DC6010995892B11F0E7
:103330002196EECF7E01C701DF91CF911F910F91B2
:10334000FF90EF90DF90CF9008950E94272D0F936C
:103350001F93CF93DF93EC0188819981009729F027
:103360002A813B812617370788F48B016F5F7F4FD7
:103370000E94612C009761F0998388831B830A83E4
:103380002C813D81232B11F4FC01108281E001C0CE
:1033900080E0DF91CF911F910F910895CF93DF933C
:1033A000EC0188819981009711F00E94D82B198235
:1033B00018821D821C821B821A82DF91CF91089590
:1033C0004091FB065091FC062091F9063091FA06D7
:1033D00042175307B4F49091E8009570E1F390918F
:1033E000E80092FD19C08093F1008091FB06909156
:1033F000FC0601968F739927892B19F48EEF809321
:10340000E8008091FB069091FC0601969093FC06E3
:103410008093FB0681E0089580E00895615030F0CC
:103420002091F100FC0120830196F8CF289884E6D2
:103430008093EA010895EF92FF920F931F93CF9329
:10344000DF93EC017B018A01BA010E94A719811167
:1034500004C0CE010E94CE1907C01D830C83B701A2
:10346000888199810E943C2DCE01DF91CF911F91DF
:103470000F91FF90EF900895CF93DF93EC01FB0144
:103480008617970761F0608171816115710529F0D8
:10349000448155810E941B1A02C00E94CE19CE01A0
:1034A000DF91CF910895FC01808191810C94D82BFC
:1034B000EF92FF920F931F93CF93DF93EC0119824A
:1034C00018821B821A821D821C826115710509F106
:1034D0008B01CB010E944D2A7C01BC01CE010E94D0
:1034E000A719811109C0CE01DF91CF911F910F91D2
:1034F000FF90EF900C94CE19FD82EC82B801888188
:103500009981DF91CF911F910F91FF90EF900C94D3
:10351000462ADF91CF911F910F91FF90EF90089570
:103520008F929F92AF92BF92CF92DF92EF92FF92D3
:103530006B017C010E947F244B015C01C114D1040A
:10354000E104F104F1F00E947F24DC01CB01881931
:103550009909AA09BB09883E9340A105B10570F3FA
:1035600021E0C21AD108E108F10888EE880E83E054
:10357000981EA11CB11CC114D104E104F10419F777
:10358000DDCFFF90EF90DF90CF90BF90AF909F90F6
:103590008F9008958F929F92AF92BF92CF92DF92B9
:1035A000EF920F931F93CF93DF936A01EB014B01CF
:1035B000820E911C5A01A00EB11CC815D905CCF47D
:1035C0008601D7FE02C000E010E0C50121E4A2168A
:1035D000B10414F080E490E00817190744F44E2D6C
:1035E000B801CE010E9457250F5F1F4FEECF2196E5
:1035F000E4CFDF91CF911F910F91EF90DF90CF90AB
:10360000BF90AF909F908F900895ECEEF1E081E035
:10361000A0E0B8E000800EBC8111012C1197A0FD44
:10362000FDCF0192B9F70DB408959C01240F311D0F
:103630001216130684F5803891056CF597FF02C0C9
:1036400080E090E02138310514F020E830E0281BBC
:10365000FB01E770FF2741E050E001C0440FEA950D
:10366000EAF7409577FF02C0695F7F4F33E07595B9
:1036700067953A95E1F77695762F66277795679562
:10368000860F971FFC01E451FE4F215020F08081EE
:1036900084238193FACF08952F923F924F925F92A5
:1036A0006F927F928F929F92AF92BF92CF92DF9252
:1036B000EF92FF920F931F93CF93DF935C012A0148
:1036C000602E7E2C89E0289F102D112424E0222ECC
:1036D000210EC02ED12CEB01239605E0010FE12C29
:1036E000272D43E050E0B601CE010E94CA1A38EF00
:1036F000F32EF70C460184E0880E911C0DE0010FBB
:103700002F2D4FEF5FEFB401CE010E94CA1A06E0E1
:10371000010F2EEF270DB6016F5F7F4FEE24E3946C
:1037200043E050E0CE010E94CA1A0BE0010F2F2D9A
:1037300040E050E0B401CE010E94CA1A49E0F42EE4
:10374000F10E5CEF352E370CE6012296432D61E039
:1037500070E0CE010E94151B0F2D10E0EFE3EF1576
:1037600028F0432DB801CE010E94151B0F5F1F4F9B
:1037700088248394912C7801013411051CF080E495
:10378000E82EF12C8E149F044CF440E0B401CE01DD
:103790000E945725FFEF8F1A9F0AEDCFC30DD11D51
:1037A000219701E010E00E151F0541F040E0B8013F
:1037B000CE010E9457250F5F1F4FF5CFE12C00E08F
:1037C00020E734E148E754E16FEF7FEFC6010E9444
:1037D0003A25E601C70DD11D2EE534E146E654E158
:1037E0006FEF7FEFCE0108970E943A25312C2CE431
:1037F00034E144E554E1B101C6010E943A25B1012A
:103800006150710922EE33E146E154E1CE014A975D
:103810000E943A25F501118686E0860D868387830E
:1038200085E08087F2014481558160817181C50105
:103830000296DF91CF911F910F91FF90EF90DF9053
:10384000CF90BF90AF909F908F907F906F905F9040
:103850004F903F902F900C947B19CF92DF92EF9274
:103860000F93CF93DF93EC016B018F85813011F1C2
:1038700038F0823011F18330A9F508850C5F1EC045
:103880000885E02E28EA32E144E453E165E270E085
:103890008E819F810E943A25F601838194818770F1
:1038A0009927892BF9F488858F5F88878330D1F435
:1038B000188618C008850D5FE4CF0885E02E26E045
:1038C00031E146ED51E165E270E08E819F810E9419
:1038D0003A25F601838180FD05C088858F5F888742
:1038E000843031F30889033009F443C08F85813077
:1038F00061F178F08230F1F08330D9F50D5F8E817F
:103900009F81E02E24E130E14CE850E160E270E07C
:103910002DC061E070E08885811102C060E070E038
:10392000605E7F4F8E819F81E02E24E130E14CE884
:1039300050E109C08E819F81E02E24E130E14CE806
:1039400050E160E270E0029612C00D5F61E070E04D
:103950008885811102C060E070E0605E7F4F8E81DB
:103960009F81E02E24E130E14CE850E101960E9475
:103970003A25DF91CF910F91EF90DF90CF9008958E
:10398000CF92DF92EF920F93CF93DF936C01DC0124
:1039900011960C91C62FD0E0E02FF0E0E85CFE4FCE
:1039A000E08022E03EE04AE75EE062E170E0CE01C6
:1039B0000E943A25F6018581811118C0E081F0E06E
:1039C000EA5EFE4F80818F3F89F4D60112962C91DA
:1039D00042EE5DE066E170E0CE010396DF91CF91AB
:1039E0000F91EF90DF90CF900C940E25DF91CF9147
:1039F0000F91EF90DF90CF900895EF92FF920F9389
:103A00001F93CF93DF938C017B01C0E0D0E0F701DF
:103A1000EC0FFD1F6491662339F0C8010E94A50ECA
:103A2000892B11F02196F3CFCE01DF91CF911F9119
:103A30000F91FF90EF900895CF93DF93FC014081A9
:103A4000A42FB0E0AA5EBE4F2C912F3F59F130E079
:103A5000DB0113968D919C911497B9010E94122B52
:103A6000892B51F581818F5F813111F0818301C0F4
:103A70001182A1E0A40FA083B0E0AA5EBE4F8C919A
:103A80008F3F29F48181882311F0408315C0EF0115
:103A90000E94EF2926E030E040E050E00E946C2ACE
:103AA0006A830AC08581882339F081818F5F8131E3
:103AB00011F0818301C01182DF91CF910895FC0143
:103AC0008785861711F06787108608950F931F93D7
:103AD000CF93DF93EC01142F022F8E599F4F0E943A
:103AE0003C1AFE01E859FF4F82E080833196008343
:103AF00031961083C559DF4F81E08883DF91CF91E4
:103B00001F910F9108952091EB01211103C08FEFB8
:103B10009FEF08955FB7F89422E02093E900209189
:103B2000F20030E01216130614F421E030E0422FC8
:103B3000FC0184E6415038F028988093EA01909186
:103B4000F1009193F7CF2115310521F08091F2001A
:103B5000882319F05FBFC90108958BE68093E800C0
:103B6000F9CF2FB7F89483E08093E9009091E800B3
:103B7000892F807295FF04C09091F20080E4891B28
:103B80002FBF08958091A10681110DC082E080931E
:103B90009D0684E080939E061092A00610929F06D8
:103BA00081E08093A1068DE996E00895CF93DF939D
:103BB0001F92CDB7DEB76983DC01ED91FC910280E5
:103BC000F381E02D41E050E0BE016F5F7F4F09952A
:103BD0000F90DF91CF91089583E08093E900809169
:103BE000F200882319F08AE38093E8000895FC012D
:103BF0008485958597FD0BC09FB7F89482E08093EC
:103C0000E9008091F2009FBF90E0019608959FB770
:103C1000F89482E08093E9008091F2009FBF90E0E9
:103C200008958F929F92AF92BF92CF92DF92EF92C0
:103C3000FF920F931F93CF93DF936C017B018A0157
:103C400080910B01882309F45CC08091EB018823EB
:103C500009F457C08091FE0680FF05C08091E00006
:103C600082608093E000E801B12C8AEFA82E93E0F7
:103C7000892E2AE3922E209711F4BB20D9F10E94BD
:103C8000B11D81110AC0AA94AA20D9F161E070E0A7
:103C900080E090E00E94901AEECF282F30E0C2170B
:103CA000D3070CF48C2F9FB7F8948092E9002091F1
:103CB000E80025FF1DC0282F30E0C21BD30BF70101
:103CC000815020F041914093F100FACFE20EF31EB3
:103CD000BB2019F09092E8000AC08091E80085FDB1
:103CE00007C09092E800BB24B394209709F0B12C50
:103CF0009FBFC1CF5D9884E6809300071016110620
:103D000044F081E090E0F6019383828380E090E0CC
:103D100001C0C801DF91CF911F910F91FF90EF90EB
:103D2000DF90CF90BF90AF909F908F9008950E94AA
:103D3000B11D90E008950F931F93CF93DF931F92CF
:103D4000CDB7DEB78C01FC018485958597FF0EC049
:103D5000CE0101960E94831D019719F4898190E09C
:103D600002C08FEF9FEFF80195878487F801848563
:103D700095850F90DF91CF911F910F910895CF936B
:103D8000DF931F92CDB7DEB7FC018485958597FD43
:103D900005C02FEF3FEF358724870BC0CE0101967A
:103DA0000E94831D019719F4898190E002C08FEF72
:103DB0009FEF0F90DF91CF910895DF92EF92FF92E6
:103DC0000F931F93CF93DF93D82E8A017B01E40ECC
:103DD000F51EEB01CE15DF0571F0D7FE03C0FE0125
:103DE000849101C088810E94E01921968111F2CF4F
:103DF0008FEF9FEF01C0C801DF91CF911F910F910D
:103E0000FF90EF90DF9008950F931F93CF93DF9370
:103E10001F92CDB7DEB782E0898342E450E062E8CA
:103E200074E180E80E94DD1E0E94C21DDC01129632
:103E30000D911C9113970115110589F0D801ED9191
:103E4000FC910280F381E02DBE016F5F7F4FC801BE
:103E5000099597FD04C0F80100851185ECCF898193
:103E60000F90DF91CF911F910F9108951F920F92A4
:103E70000FB60F9211248F939F938091E100909140
:103E8000E100937F9093E10083FF0FC01092E9005F
:103E900091E09093EB001092EC0092E39093ED0090
:103EA0001092EB0198E09093F00082FF20C093E025
:103EB0009093E9009091F200992319F09AE390937E
:103EC000E80090910007992339F0909100079150F4
:103ED00090930007992389F19091EA01992339F091
:103EE0009091EA0191509093EA01992341F184FF66
:103EF00010C08091E2008E7E81608093E20080910C
:103F0000E1008F7E8093E1008091FE068E7E8061CD
:103F100011C080FF16C08091E2008E7E8061809388
:103F2000E2008091E1008E7E8093E1008091FE06A8
:103F30008E7E81608093FE0604C05D9ACDCF289A64
:103F4000D6CF9F918F910F900FBE0F901F90189515
:103F50001F920F920FB60F921124CF92DF92EF9221
:103F6000FF920F931F932F933F934F935F936F9302
:103F70007F938F939F93AF93BF93EF93FF93CF93D1
:103F8000DF93CDB7DEB76C97DEBFCDBF1092E900EF
:103F90008091E80083FFFBC168E0CE0145960E9456
:103FA0000E1A82EF8093E8008D8987FF05C09091FB
:103FB000E80090FFFCCF03C09EEF9093E800982F9D
:103FC000907609F0C6C09E894F89588D2F89F88C4C
:103FD00091110CC0803829F48091FD068093F10086
:103FE00002C01092F1001092F10045C1913051F4DD
:103FF000811141C14130510509F03DC18091FD065B
:104000008D7F0BC0933061F4811135C14130510572
:1040100009F031C18091FD0682608093FD062BC1BD
:10402000953049F48091E80080FFFCCF822F8068B2
:104030008093E30020C1963009F05EC00B8D1C8D8B
:1040400022E01092E9001092FC061092FB06F21298
:1040500032C01092FA061092F9060E94041F99E0ED
:10406000BE016F5F7F4FDB01E92F1D92EA95E9F7F3
:104070009983FA8291E09E8390EA98879AEF9987D4
:104080002091FB063091FC06275F3F4F3C832B833A
:104090008D831092E9001092FC061092FB0610939B
:1040A000FA060093F90649E050E080E00E94DD1E28
:1040B0000E94041FE0C01093FA060093F9060E94C4
:1040C000C21DDC0112960D911C911397011511056B
:1040D00009F4BBC0D801ED91FC910480F581E02D7D
:1040E000BE016B5E7F4FC8010995009709F0C7C0FC
:1040F000F80100851185EACF973009F445C1983061
:1041000021F481E08093F100B6C0993009F0B3C08A
:10411000837009F039C1EEECF1E081E031E096E323
:104120002081211109C08EE78093EA001092EA00F5
:104130008F898093EB019FC08093E9003093EB005F
:1041400021912093EC009093ED008F5F873041F731
:10415000EACF8B8D9C8D1092E9001092FC06109294
:10416000FB069093FA068093F906898D811153C05E
:104170008E899D89913A49F4813209F005C147E061
:1041800050E064E071E080E0BBC0913209F0FCC017
:10419000833269F48F89988DA0E0B0E080930001AC
:1041A00090930101A0930201B093030164C0803297
:1041B00069F48091E80082FFFCCF67E084E091E041
:1041C0000E940E1A8BEF8093E80055C0823209F0EE
:1041D00052C08F8980930B01EEEFFFE78591949198
:1041E0008B3F9C4D19F0E0E0F8E002C0EEEFFAE002
:1041F0008091040190910501A0910601B091070101
:10420000803B9440A105B10509F09EC080910B014F
:1042100080FF79C099C00E94C21DFC0102811381F8
:104220000115110509F4B0C0D801ED91FC91019080
:10423000F081E02DBE016B5E7F4FC80109958111B1
:104240001AC0F80100851185EBCFF1E0FF1609F4E3
:104250004EC0F3E0FF1298C08F89882309F44AC04A
:10426000823089F440E860E186EE94E10E946F2993
:10427000882309F489C08EEF8093E80088C018165F
:104280001906CCF381C0813029F440E86BE08AED57
:1042900094E1ECCF833009F077C00E94C21DDC01AD
:1042A0001296ED90FC9013978E010F5F1F4F6801DF
:1042B000E114F10479F0D701ED91FC910680F781CA
:1042C000E02DB801C7010995080F111DF701E08421
:1042D000F184EECFD8011C92F60101900020E9F79D
:1042E0003197BF016C197D0940E0C601BFCF68EC72
:1042F00074E102C064EC74E1FB01449150E080E899
:104300000E94DD1EB8CFEE3F2AE0F20751F0808117
:1043100091818737A7E79A0721F09093FF0A80934E
:10432000FE0A87E797E791838083809160008093FE
:10433000FF069BE088E10FB6F894A8958093600093
:104340000FBE9093600097CF808191818737974708
:1043500009F091CFA89580916000886180936000FA
:104360008091FF0680936000EE3FBAE0FB0739F0D2
:104370008091FE0A9091FF0A918380837CCF1092F6
:10438000FF0A1092FE0A77CF81E28093EB006C96D1
:104390000FB6F894DEBF0FBECDBFDF91CF91FF9176
:1043A000EF91BF91AF919F918F917F916F915F91AD
:1043B0004F913F912F911F910F91FF90EF90DF90C0
:1043C000CF900F900FBE0F901F9018954F925F9255
:1043D0007F928F929F92AF92BF92CF92DF92EF9295
:1043E000FF920F931F93CF93DF9300D000D0CDB7F0
:1043F000DEB7DC0148014115510509F406C2FA0196
:10440000F490319684914E5F5F4FAF2CB12C211107
:1044100002C0EE2061F101E010E0982F977011F4D6
:1044200000E010E0982F969596959695090F111D2E
:104430000A9DF0010B9DF00D1A9DF00D112413E063
:10444000712EC71003C0EE0FFF1F0AC08114910424
:1044500039F0EE9E8001EF9E100D1124800E911E0A
:104460002E9F80012F9F100D1124400F511F1FEF11
:10447000C11208C08114910419F0CC24C39402C065
:1044800022E0C22EFD01EA0DFB1D1E161F060CF0D8
:10449000BCC1A038B1050CF0B8C19B01280F311D7B
:1044A000121613060CF0B1C1603471050CF0ADC1E9
:1044B0004115510509F4A9C1362F37708B0177FFDB
:1044C00002C0095F1F4F93E0159507959A95E1F794
:1044D000202F77FF04C0332311F02FEF200FB7FFF9
:1044E00005C0002711270A1B1B0B02C000E010E0CB
:1044F000E038F1051CF090E89A1B01C09F2D901B3D
:10450000622F022E000C770B2F3F1CF4E62EE09456
:1045100001C0E12CF1E0E82FE77009F4F0E08695A6
:1045200086958695F80F6F0F711D6930710514F02F
:10453000F8E0F21BFE192E0D60E82603A00DB11D58
:104540001124A00FB11FFE9C000D111D1124400F5E
:10455000511F61E070E07B01032E02C0EE0CFF1CD6
:104560000A94E2F773E0C71609F407C17C15C8F096
:1045700081E0C81609F4B9C0E2E0CE1246C18FEF5F
:104580008E9D80018F9D100D1124009510951C8328
:104590000B839C80BD0164517E4F2B018F2E820EB8
:1045A0002DC06AEF762EC71409F43BC01BEFC11271
:1045B0002CC1BD0164517E4F4B01DF2ED20E83C052
:1045C00084918E9D60018F9DD00C1124DA82C98266
:1045D00027FD05C0DB018C918023C82ACC923111C4
:1045E00013C031966F5F7F4F8E2F841B891740F366
:1045F0002F5F4A0D5B1DB0E84B0E511C281509F4C6
:1046000004C1B201FA01F0CF27305CF76B01B0E8CA
:10461000CB0ED11CD6018C9189217A8087298C936D
:10462000E0CFBD0164517E4F4B01DF2ED20E2D1520
:1046300009F4EBC0B401FA018E2F841B8917F0F442
:1046400084918E9D80018F9D100D11241A83098302
:1046500027FD04C0DB018C91082B0C93332351F010
:10466000273044F48B0100581F4FD801CC908A8129
:104670008C298C9331966F5F7F4FDECF2F5F4A0D71
:104680005B1DB0E88B0E911CD2CF84918E9DB00142
:104690008F9D700D11247A83698327FD05C0609575
:1046A000D8018C9168236C93311113C031960F5F40
:1046B0001F4F8E2F841B891740F32F5F4A0D5B1D00
:1046C000B0E88B0E911C2D1509F49FC08401FA01EE
:1046D000F0CF27305CF7B80160587F4F8A81809512
:1046E000DB01CC908C218C93E1CF080D191DA451D6
:1046F000BE4F7F2E720E271509F487C0BD01C12C55
:10470000D12CC91690F5F801EC0DFD1DE491EE9D3C
:104710004001EF9D900C1124809490949C828B8298
:10472000FA01EC0DFD1DE491EE9D2001EF9D500C72
:1047300011245A82498227FD05C0FB01808188220D
:1047400048284082332359F027304CF4FB01E058CD
:10475000FF4F90808C8189219A8089298083FFEF87
:10476000CF1ADF0A6F5F7F4FCCCF2F5F4A0D5B1DE3
:104770000A0D1B1DA058BF4FBECFC92ED12C28013A
:10478000440E551EA451BE4F60E870E04B018C18DA
:104790009D08AC18BD08AA0CBB1CC92E022F192FEE
:1047A0002F2FF201A401B501732ECF93DF93ED01FA
:1047B000EF96EF9622968590A590772059F08E9CE3
:1047C0004001AE9C500107302CF4D880B094DB201F
:1047D000D928D99200233AF0DC90A094DA20D82886
:1047E000DD920C94F42311961A9529F72A9551F02D
:1047F0001C2D03951124E60FF11DA40FB11DC40F4C
:10480000D11DD9CFDF91CF9111240F900F900F9030
:104810000F90DF91CF911F910F91FF90EF90DF905C
:10482000CF90BF90AF909F908F907F905F904F9070
:1048300008950895FC01DB0118968C91189719963C
:104840009C9119979095982384FF14C0848580319A
:1048500018F48F5F84870FC0F89487E7809300086F
:1048600080930108A89588E18093600088E0809398
:104870006000FFCF14868585803410F48F5F8587B4
:1048800093FF03C082E051968C9308950895FC0134
:10489000DB0119968C911997809518969C91189721
:1048A000892399F08485882311F08CE78487948587
:1048B00091110EC081E0848780E48093900081E4B0
:1048C0009FE0909399008093980094859923B1F08C
:1048D0009F5F9487953059F09D3761F0923071F465
:1048E00080E596E490939900809398000895109243
:1048F0009000089581E051968C93089508953FB7F4
:10490000F8948091020790910307A0910407B09159
:10491000050726B5A89B05C02F3F19F00196A11DDC
:10492000B11D3FBFBA2FA92F982F8827820F911D45
:10493000A11DB11DBC01CD0142E0660F771F881F8C
:10494000991F4A95D1F708951F920F920FB60F92B3
:1049500011242F933F938F939F93AF93BF93809195
:10496000E6019091E701A091E801B091E901309151
:10497000010723E0230F2D3720F40196A11DB11D5F
:1049800005C026E8230F0296A11DB11D2093010743
:104990008093E6019093E701A093E801B093E901C9
:1049A0008091020790910307A0910407B091050739
:1049B0000196A11DB11D8093020790930307A09358
:1049C0000407B0930507BF91AF919F918F913F91DD
:1049D0002F910F900FBE0F901F901895CF92EF92CE
:1049E0000F931F933AEFC32EE12C00E010E00E94DA
:1049F000E6211F910F91EF90CF900895CF92EF9203
:104A00000F931F933BEFC32EE12C00E010E00E94B8
:104A1000E6211F910F91EF90CF900895CF92EF92E2
:104A20000F931F9332E0C32EE12C00E010E00E94B0
:104A3000E6211F910F91EF90CF900895CF93DF93D0
:104A4000EC0120E040E156E166E070E080E090E0BB
:104A50000E940E258D85803449F420E04CEC55E110
:104A600065E370E080E390E00E940E25DF91CF9136
:104A70000C94051BCF92EF920F931F93F901202FF7
:104A8000CC24C3948F010E94E6211F910F91EF90D7
:104A9000CF900895BC0180E090E00C94901A8FB103
:104AA0008095807F669B88601C9B84600895803819
:104AB0009105B8F460347105A0F490E121E061FD46
:104AC00024E060FD220F62FD2295687F969FD00151
:104AD0001124A80FA451BE4F8C91822B40FF822736
:104AE0008C9308950F931F93CF93DF93EC0120E0F5
:104AF00046EA55E161E170E08FE290E00E940E2508
:104B000020E048E855E16AE170E08BE290E00E9425
:104B10000E2520E048E855E16AE170E089E490E084
:104B20000E940E258C8520E0811112C048E855E1D5
:104B30006AE170E08AE390E00E940E2520E048E3FD
:104B400055E16EE270E08AE190E00E940E2525C0FA
:104B50004AE155E16AE170E08AE390E00E940E25A7
:104B600020E047EF54E16EE270E08CE290E00E94BA
:104B70000E258C856FE00E94062B082F0370CFE472
:104B8000D0E010E0101749F041E061E370E0CE01A1
:104B90000E9457251F5F2296F5CFDF91CF911F917D
:104BA0000F910C94051B8CEE95E00C944B147894AB
:104BB00084B5826084BD84B5816084BD85B5826022
:104BC00085BD85B5816085BD80916E0081608093D3
:104BD0006E0010928100809181008260809381003C
:104BE000809181008160809381008091800081604C
:104BF00080938000809191008260809391008091E9
:104C000091008160809391008091900081608093F9
:104C100090008091C10084608093C1008091C100A8
:104C200082608093C1008091C10081608093C10047
:104C30008091C30081608093C3008091C000826036
:104C40008093C0008091C20081608093C2008091F7
:104C50007A00846080937A0080917A0082608093E9
:104C60007A0080917A00816080937A0080917A0046
:104C7000806880937A001092EB011092FD061092EA
:104C8000FE068091D70081608093D70080EA8093F0
:104C9000D80089B5806189BD89B5826089BD09B4B4
:104CA00000FEFDCF61E070E080E090E00E94901A8D
:104CB0008091D8008F7C80618093D8008091E00043
:104CC000807F8093E0008091E1008E7E8093E10000
:104CD0008DE08093E200559A209A81EC80937C00CD
:104CE00085B1806F85B984B1877E84B984B1876EC0
:104CF00084B95E9A5F988AB1806D8AB9769A6E9807
:104D000081B3806F81BB899880B38D7080BB80E553
:104D10008CBD81E08DBD85E090E00E944A255F9AC0
:104D200085E090E00E944A255E985C98E5EDFDE004
:104D300084918EBD00000DB407FEFDCF31968DE04D
:104D4000E23EF807A9F75C9A81E8809364008091BD
:104D500065008160809365000E944F2587FF24C015
:104D60005C9885EA8EBD00000DB407FEFDCF5C9A0D
:104D70002E982F982D988091640080628093640013
:104D800081E083BF889513BEFCCF2D980E944F25EC
:104D90008478843871F00E944F258471843129F120
:104DA00088EC90E00E944A250E944F2582FDEDCFBD
:104DB00038C02D9A88EC90E00E944A252F9882E016
:104DC00090E00E94562A8F3F29F06FEF82E090E03A
:104DD0000E945E2A84EF91E00E944A252F9A0E9449
:104DE0004F2584788438D9F3D6CF2D9A88EC90E07B
:104DF0000E944A252E9882E090E00E94562A88233D
:104E000029F060E082E090E00E945E2A84EF91E069
:104E10000E944A252E9A0E944F2584718431D9F32D
:104E2000BFCF2D9A82E090E00E94562A882319F085
:104E30003E9A3F9A02C03E983F9884E18093F605DF
:104E4000809164008E7F8093640080917A008064FA
:104E500080937A0080917A0086FDFCCFC091780023
:104E6000D09179000E947F248E0120E030E09801EB
:104E700011270027600F711F821F931F209164006C
:104E8000216020936400611571058105910511F081
:104E90000E943D2A1092FD0511E0C0E0D0E001E043
:104EA00082E0F82E8FB7F8944091E6015091E70127
:104EB0006091E8017091E9018FBF8091F705942F0F
:104EC000981B892F9091F805992329F08093F90573
:104ED0001092F80589C09091F605891740F48F5F0C
:104EE000891708F081C013BF889513BE7DC0009359
:104EF000F8054093F7058091F2059091F30501962E
:104F00009093F3058093F2058091F4058093F50565
:104F10000E944F258093F4058091FD058130E1F0DA
:104F200030F0823071F1833009F448C05DC0809167
:104F3000FC05882321F01092EE051092FC056CEE22
:104F400075E08CE096E00E9447246CEE75E08CE002
:104F500096E00E94722548C09091FC05913021F0A6
:104F60008093EE058093FC056CEE75E08EEF95E086
:104F70000E941A246CEE75E08EEF95E00E941E25CB
:104F800033C09091FC05923061F08093EE056CEE99
:104F900075E089E196E00E94B50C8091FD05809353
:104FA000FC056CEE75E089E196E00E945D146CEE04
:104FB00075E089E196E00E949C0F16C09091FC0577
:104FC000933031F08093EE05F0929C068093FC05BF
:104FD0006CEE75E08EE896E00E940A0D6CEE75E0CE
:104FE0008EE896E00E941014209709F45BCF0E948F
:104FF000000058CFEF92FF920F931F93CF93DF9350
:10500000E9EAF6E01382128288EE93E0A0E0B0E0D5
:1050100084839583A683B7838DE491E09183808315
:105020008FEF9FEF95878487ECEEF5E01086118671
:1050300080E182871782168214868BEB91E094833D
:10504000838380E88687C1E0C78789EC91E09183FC
:105050008083178A168A0FE811E0158B048BD9E03C
:10506000D58FC48F118E128E108E138E8BEA91E025
:10507000938B828B168E178E15A214A213A302A3F4
:10508000D3A7C2A717A210A616A211A68FE791E078
:1050900091A380A314A612AA11AA10AB07A7D0AFA0
:1050A000C7AB14AA15AA13AA16AA8FE691E096A771
:1050B00085A784E690E092AF81AF80ED97E094AF52
:1050C00083AF96AF85AF8CE3E82EF12CF0922C06DF
:1050D000E0922B0610922D06C093340683E0809355
:1050E000350682E08093360682E28093370610927E
:1050F00038061092390610923A0610923B06C09379
:105100003C0680933D0610923E0610923F06109298
:10511000400610924106C0934206809343061092C7
:105120004406109245061092460610924706C09318
:1051300048068093490610924A0610924B06109238
:105140004C0610924D06C0934E0680934F06109267
:105150005006109251061092520610925306C093B8
:105160005406109255061092560610925706109249
:1051700064061092680610926C06109270061092E7
:1051800074061092780686E08093790610927A066B
:1051900010927C0610927B0610927E0610927D067D
:1051A0001092800610927F0640E050E068ED71E0BA
:1051B0008BE796E00E941B1A109284068EE190E025
:1051C000909386068093850688E790E09093880602
:1051D00080938706F0928A06E092890610928B06E9
:1051E00010928C0610928D061092930610929206E1
:1051F0001093910600939006D0939906C093980659
:1052000010929506109296061092940610929706A8
:105210008FE591E090938F0680938E0610929A0608
:1052200010929B0610929C06DF91CF911F910F91D7
:10523000FF90EF9008956115710551F0FB01019009
:105240000020E9F73197AF01461B570B0C947B19EF
:1052500080E090E008958F929F92AF92BF92EF927C
:10526000FF920F931F93CF93DF93CDB7DEB7A19734
:105270000FB6F894DEBF0FBECDBF7C01262F30E005
:1052800040E050E019A28E010F5D1F4F8AE0882E8A
:10529000912CA12CB12CCA01B901A50194010E9445
:1052A000D52A605DF80162938F0121153105410512
:1052B000510589F7BF01C7010E941B29A1960FB6AE
:1052C000F894DEBF0FBECDBFDF91CF911F910F913C
:1052D000FF90EF90BF90AF909F908F900895DF92D6
:1052E000EF92FF920F931F93CF93DF93D82EF92E57
:1052F000E42E062F10E0C8010196880F0E94E019E5
:1053000083E00E94E019CD2DDF2D0C0F1D1FC0176B
:10531000D10789F0E7FE03C0FE01849101C08881B6
:105320000E94E019F82E80E00E94E0198F2121965A
:105330008111EDCF01C081E0DF91CF911F910F91DD
:10534000FF90EF90DF9008958F929F92AF92BF925F
:10535000CF92DF92EF92FF92CF93DF93EC016881BF
:1053600079818A819B81611571058105910521F4FF
:1053700064E279ED8BE597E02DE133EF41E050E019
:105380000E946C2A49015A019B01AC01A7EAB1E4D1
:105390000E948B2A6B017C01ACEEB4EFA501940155
:1053A0000E94992ADC01CB018C0D9D1DAE1DBF1DF5
:1053B000B7FF03C00197A109B04888839983AA83E6
:1053C000BB83BC01CD019F77DF91CF91FF90EF9020
:1053D000DF90CF90BF90AF909F908F9008958F9265
:1053E0009F92AF92BF92CF92DF92EF92FF92609125
:1053F0000C0170910D0180910E0190910F016115CA
:1054000071058105910521F464E279ED8BE597E062
:105410002DE133EF41E050E00E946C2A49015A012E
:105420009B01AC01A7EAB1E40E948B2A6B017C01CD
:10543000ACEEB4EFA50194010E94992ADC01CB01E6
:105440008C0D9D1DAE1DBF1DB7FF03C00197A109A7
:10545000B04880930C0190930D01A0930E01B0937E
:105460000F01BC01CD019F77FF90EF90DF90CF90AF
:10547000BF90AF909F908F90089560930C017093B0
:105480000D0180930E0190930F010895FB01DC0143
:1054900005900D920020E1F70895FC010590002091
:1054A000E9F7809590958E0F9F1F0895F999FECF8B
:1054B00092BD81BDF89A992780B50895262FF99954
:1054C000FECF1FBA92BD81BD20BD0FB6F894FA9AE7
:1054D000F99A0FBE01960895052E97FB1EF40094CD
:1054E0000E94832A57FD07D00E94D52A07FC03D0CB
:1054F0004EF40C94832A50954095309521953F4F5A
:105500004F4F5F4F089590958095709561957F4FAF
:105510008F4F9F4F08950E94F72AA59F900DB49F2B
:10552000900DA49F800D911D11240895B7FF0C9438
:105530008B2A0E948B2A821B930B08952F923F92F5
:105540004F925F926F927F928F929F92AF92BF9293
:10555000CF92DF92EF92FF920F931F93CF93DF933F
:10556000CDB7DEB7CA1BDB0B0FB6F894DEBF0FBE9C
:10557000CDBF09942A88398848885F846E847D84E9
:105580008C849B84AA84B984C884DF80EE80FD80EB
:105590000C811B81AA81B981CE0FD11D0FB6F89461
:1055A000DEBF0FBECDBFED010895A1E21A2EAA1BEA
:1055B000BB1BFD010DC0AA1FBB1FEE1FFF1FA217C3
:1055C000B307E407F50720F0A21BB30BE40BF50BC0
:1055D000661F771F881F991F1A9469F76095709549
:1055E000809590959B01AC01BD01CF010895A29FCC
:1055F000B001B39FC001A39F700D811D1124911DA7
:10560000B29F700D811D1124911D0895991B79E0A1
:1056100004C0991F961708F0961B881F7A95C9F742
:1056200080950895AA1BBB1B51E107C0AA1FBB1F91
:10563000A617B70710F0A61BB70B881F991F5A951E
:10564000A9F780959095BC01CD01089597FB072E91
:1056500016F4009407D077FD09D00E94122B07FCA6
:1056600005D03EF4909581959F4F08957095619572
:105670007F4F0895EE0FFF1F0590F491E02D0994E0
:105680000F931F93CF93DF938230910510F482E044
:1056900090E0E0910807F091090720E030E0A0E0F9
:1056A000B0E0309719F14081518102811381481790
:1056B0005907C8F08417950769F4109731F01296CE
:1056C0000C93129713961C9327C00093080710930E
:1056D000090722C02115310519F04217530718F4A4
:1056E0009A01BD01EF01DF01F801DBCF2115310582
:1056F000F9F0281B390B2430310580F48A819B8115
:105700006115710521F0FB019383828304C090939E
:10571000090780930807FE01329644C0FE01E20F9C
:10572000F31F8193919322503109398328833AC022
:105730002091060730910707232B41F42091120195
:105740003091130130930707209306072091100131
:10575000309111012115310541F42DB73EB740912B
:10576000140150911501241B350BE0910607F091AF
:105770000707E217F307A0F42E1B3F0B2817390782
:1057800078F0AC014E5F5F4F2417350748F04E0F9D
:105790005F1F50930707409306078193919302C0C0
:1057A000E0E0F0E0CF01DF91CF911F910F910895DC
:1057B000CF93DF93009709F481C0FC0132971382E5
:1057C0001282A0910807B0910907109781F42081F7
:1057D0003181820F931F2091060730910707281708
:1057E000390751F5F0930707E093060767C0ED010D
:1057F00020E030E0CE17DF0740F44A815B819E0154
:1058000041155105F1F0EA01F5CFD383C283408100
:105810005181840F951FC817D90759F48881998140
:10582000840F951F0296918380838A819B81938345
:1058300082832115310529F4F0930907E0930807C5
:105840003DC0E901FB83EA8349915991C40FD51FFB
:10585000EC17FD0761F480819181840F951F0296FA
:10586000E90199838883828193819B838A83E0E025
:10587000F0E012968D919C911397009719F0FD011D
:10588000DC01F7CF8D919C9111979D012E5F3F4FC9
:10589000820F931F209106073091070728173907B9
:1058A00069F4309729F4109209071092080702C092
:1058B00013821282B0930707A0930607DF91CF915E
:1058C0000895A0E0B0E0E7E6FCE20C94A22AEC0127
:1058D000009721F4CB010E94402BB4C0FC01E60FDD
:1058E000F71F9C0122503109E217F30708F4A8C002
:1058F000D9010D911C91119706171707B0F00530CB
:10590000110508F49BC0C80104978617970708F48F
:1059100095C002501109061B170B019311936D934B
:105920007C93CF010E94D82B89C05B01A01AB10AD9
:105930004C01800E911EA0910807B0910907612CBF
:10594000712CE12CF12C109709F446C08D919C919B
:105950001197A815B905B1F56C0142E0C40ED11C30
:10596000CA14DB0478F14C018A189B08640142E0F8
:10597000C40ED11C1296BC9012971396AC91B5E050
:10598000CB16D10440F0B282A38391828082D901E8
:105990006D937C9309C00E5F1F4F800F911FF9011B
:1059A00091838083EB2DFA2FE114F10431F0D701BC
:1059B0001396FC93EE93129741C0F0930907E0937E
:1059C00008073CC06816790608F43C017D01129670
:1059D0000D90BC91A02DB7CF80910607909107073D
:1059E00088169906E1F466167706C8F480911001CE
:1059F00090911101009741F48DB79EB74091140129
:105A000050911501841B950BE817F907C8F4F09322
:105A10000707E0930607F901718360830FC0CB018C
:105A20000E94402B7C01009759F0A801BE010E9402
:105A30002C2DCE010E94D82BC70104C0CE0102C07C
:105A400080E090E0CDB7DEB7EEE00C94BE2A81E0B6
:105A500090E0F8940C94432DFB01DC0102C001900E
:105A60000D9241505040D8F70895DC0101C06D936C
:105A700041505040E0F70895FB01DC0101900D9288
:105A80000020E1F708951CE0CAE8DCE004C0FE0154
:105A90000E943A2B2196CB38D107C9F7F894FFCF53
:105AA000FFFFFFFF00E10000000000000100000018
:105AB00000000A0780000101010101010202020247
:105AC0000202020303030303040405050606070795
:105AD00007080808090909FF00010203040302017D
