:100000000C94500D0C94780D0C94780D0C94780D84
:100010000C94780D0C94780D0C94780D0C94780D4C
:100020000C94780D0C94780D0C94C51B0C94371C13
:100030000C94780D0C94780D0C94780D0C94780D2C
:100040000C94780D0C94780D0C94780D0C94780D1C
:100050000C94780D0C94780D0C94780D0C94D41E9F
:100060000C94780D0C94780D0C94780D0C94780DFC
:100070000C94780D0C94780D0C94780D0C94780DEC
:100080000C94780D0C94780D0C94780D0C94780DDC
:100090000C94780D0C94780D0C94780D0C94780DCC
:1000A0000C94780D0C94780D0C94780D0A0A007C51
:1000B000FDFEFDFE7C003800020202020202020286
:1000C00000000A0A0080C080387DEEBCEE79020391
:1000D00001030302030100000A0A080C14FEF4E005
:1000E000C000E010000002030303030200000A0A3C
:1000F0001C3870F8FEFBF9F9FBFE00000001030359
:10010000030303010A0A204080FCC0FFE0FFC0FC9B
:10011000000000010303030303010A0A484472C1FB
:10012000F24448427F420000000103030200000045
:100130000A0A00FC0209BD898102FC0000030202D8
:100140000202020203000A0A78843231FDFD3132D4
:100150008478000001020202020100000A0A00FF86
:10016000555D55F735BDB5BF000303030303000319
:1001700001000A0A00000E1FF9F99F8E000000001E
:1001800000000303020200000A0AF1FACCCC7C7CD6
:10019000CCCCFAF1030103010303010301030A0AB2
:1001A000784651C6613E080808F8000203030101C1
:1001B000010203030A0A1018FC1EFF9F9EFC181080
:1001C000000003020303030300000A0AC167396247
:1001D000C4386C446C3801030203010000000000C5
:1001E0000A0A0000FFA9F9A9F9A9FF00000003020B
:1001F0000302030203000A0AE070B07EF2F272B654
:100200007CF0000103010000010301000A0A01FF64
:1002100045FC8249458902FC000300000000000003
:1002200001010A0A406070FC3F3FFC706040000022
:1002300002000303000200000A0A78FCFE8F050595
:100240000D1B961C000001030302020100000A0AB4
:10025000FCB63331FFFF3133B6FC00010302030368
:10026000020301000A0A0E1F5F9F0EC0242821C24C
:10027000010200000001020202010A0AF03CEE3B0A
:10028000BFBF3BEE3CF00000000203030200000091
:100290000A0A90DEDE9E3E9ED4D49424010303011C
:1002A0000001030301000A0A0C1E3F3F9E0C409010
:1002B0002040000000000001020001020909000FB7
:1002C00010A7CFA7100F00000001010101010000DD
:1002D0000909048E5F0E44E0F4E2410100000000D1
:1002E0000001000009090C5ED3803F009FDE5C0026
:1002F00000000101010100000909004CDEDFDFF709
:10030000F66400000000010101000000090980609E
:1003100018E6F3E618608001010000010000010109
:10032000090900DFB6A4B6DF6060F8010100000033
:1003300001010001090982FD82BABABA827F8200F6
:100340000100000000000100090907091EBFFFBFEE
:100350001E09070000010101010100000909C02078
:1003600070F86C3E1B0E040101010000000000004B
:100370000909CCEEA6F7B7F7A6EECC010100010003
:100380000100010109097CDA93333B3393DA7C00E5
:10039000000101010101000009097CF6F3F1FF1FD2
:1003A0009FDE7C000001010101010000090910D657
:1003B000D600C700D6D610000000000100000000E3
:1003C0000909008040201C1C1E07030100000000DA
:1003D0000000000009090E1B15377AF0E0C000008C
:1003E000000000000001010109097C9E33333F3306
:1003F000339E7C0000010101010100000909006039
:100400005876FD6E786000010101010101010101D2
:10041000090910FE9282D78292FE100000000001AE
:10042000000000000909C62929C610C62929C600EE
:1004300001010000000101000909C22E2ACE18C8DE
:100440002A2CC800010100000001010009093CC27A
:10045000094D414D09C23C000001010101010000AC
:1004600009091E3F7FFFFEDF6F3B1E0000000001F9
:100470000000000009097EF1F171DF71F1F17E00E9
:10048000010100010001010009094E5959899F89A4
:1004900059594E01010100000001010108083C3CCE
:1004A000DBFFFFDB3C3C0808DFDFD8FFFF1BFBFB6B
:1004B0000808FF7E3C18FC5C7C1C0808060F2FA671
:1004C000904C201808081E3360C2878ADC48080850
:1004D0003C7EF3E1C0C460310808003872E1E1728B
:1004E00038000808001E3BF3F33B1E000808E0C07C
:1004F000983C3C19030708083C24E78181E7243C29
:1005000008081E3F7FFEDE6F331E0808060979BE0D
:10051000BE7909060808DB5A182424242418080880
:10052000619689A8A88996610808C399004242008B
:1005300099C30808815A3C66663C5A810808C098ED
:10054000244242241903080810189CFFFF9C18102D
:1005500008081008E43F3FE4081008083C638AA03C
:10056000A08A631C080803070E1C1820C0C00808D6
:1005700000708DB1B18D7000080860C0D8DCDCD887
:10058000C0600808387CFCFD7BBC7C3807073D78E0
:10059000607A707D380707081C2263221C08070751
:1005A000080C7E7F7E0C0807071E79396F39791E8B
:1005B00007070E1F3F7E3F1F0E07071F1D77535F64
:1005C000447C07071C3E5F5F6F321C070707152737
:1005D000087254700707775D7722775D7707070801
:1005E0000C0E3F4E2C08070718045F1D5F04180708
:1005F000070822004D10220807077F6959695969C9
:100600007F0707397F39383F613F07076B41085D36
:1006100008416B07071C14774177141C0707775DA7
:100620007505755D77070773517C141F45670707CC
:1006300004487A1F7A480407071E785C1C7F4F061F
:1006400007070036006300360007076363000800F1
:10065000636307071C22554955221C07071C2255B6
:100660005155221C060610381C0D010706060C12F7
:100670003F213F0C0606041E27271E0406062C3EBB
:100680000F0F3E2C0606071D270A122406060F0927
:10069000392F243C06063F002D2D003F06060002A0
:1006A000253D020006060F3C0C3F0F0606062B0BED
:1006B0003807343506061B0F063B190806061233A9
:1006C0000000331206063333000033330606180CDD
:1006D0002633190C060602263F3F2602060603248F
:1006E00038382403060621120C0C122106060C00D1
:1006F0002D2D000C0606211E12121E2106063C227C
:100700000909223C06063F090F0F0F0F06063F0F8F
:100710000D0F311106060C122121120C06060C1EBB
:100720003F3F1E0C05051B1B041B1B05050E1B1F55
:100730001D0E050503061F060305051C1516151CD1
:1007400005050C181E1E04050500121D12000505E6
:10075000021E020E1205051E1E1E0A0E0505081AAF
:100760001F1A08050512191E19120505001F0D1F75
:1007700000050504061F16040505011E0B1E0105D4
:1007800005100E1B0E1005050E1F1B110005051E82
:100790000C0F1E0605051E181D1E1C0505041E1740
:1007A0001E040505160D0F0D160505061D1F1D0659
:1007B00005051E071F071E05051C0E070E1C050557
:1007C000070F1E0F0705051F1111111F0A0A007CD4
:1007D000FDFEFDFE7C00380002020202020202025F
:1007E00000000A0A0080C080387DEEBCEE7902036A
:1007F00001030302030100000A0A080C14FEF4E0DE
:10080000C000E010000002030303030200000A0A14
:100810001C3870F8FEFBF9F9FBFE00000001030331
:10082000030303010A0A204080FCC0FFE0FFC0FC74
:10083000000000010303030303010A0A484472C1D4
:10084000F24448427F42000000010303020000001E
:100850000A0A00FC0209BD898102FC0000030202B1
:100860000202020203000A0A78843231FDFD3132AD
:100870008478000001020202020100000A0A00FF5F
:10088000555D55F735BDB5BF0003030303030003F2
:1008900001000A0A00000E1FF9F99F8E00000000F7
:1008A00000000303020200000A0AF1FACCCC7C7CAF
:1008B000CCCCFAF1030103010303010301030A0A8B
:1008C000784651C6613E080808F80002030301019A
:1008D000010203030A0A1018FC1EFF9F9EFC181059
:1008E000000003020303030300000A0AC167396220
:1008F000C4386C446C38010302030100000000009E
:100900000A0A0000FFA9F9A9F9A9FF0000000302E3
:100910000302030203000A0AE070B07EF2F272B62C
:100920007CF0000103010000010301000A0A01FF3D
:1009300045FC8249458902FC0003000000000000DC
:1009400001010A0A406070FC3F3FFC7060400000FB
:1009500002000303000200000A0A78FCFE8F05056E
:100960000D1B961C000001030302020100000A0A8D
:10097000FCB63331FFFF3133B6FC00010302030341
:10098000020301000A0A0E1F5F9F0EC0242821C225
:10099000010200000001020202010A0AF03CEE3BE3
:1009A000BFBF3BEE3CF0000000020303020000006A
:1009B0000A0A90DEDE9E3E9ED4D4942401030301F5
:1009C0000001030301000A0A0C1E3F3F9E0C4090E9
:1009D0002040000000000001020001020909000F90
:1009E00010A7CFA7100F00000001010101010000B6
:1009F0000909048E5F0E44E0F4E2410100000000AA
:100A00000001000009090C5ED3803F009FDE5C00FE
:100A100000000101010100000909004CDEDFDFF7E1
:100A2000F664000000000101010000000909806077
:100A300018E6F3E6186080010100000100000101E2
:100A4000090900DFB6A4B6DF6060F801010000000C
:100A500001010001090982FD82BABABA827F8200CF
:100A60000100000000000100090907091EBFFFBFC7
:100A70001E09070000010101010100000909C02051
:100A800070F86C3E1B0E0401010100000000000024
:100A90000909CCEEA6F7B7F7A6EECC0101000100DC
:100AA0000100010109097CDA93333B3393DA7C00BE
:100AB000000101010101000009097CF6F3F1FF1FAB
:100AC0009FDE7C000001010101010000090910D630
:100AD000D600C700D6D610000000000100000000BC
:100AE0000909008040201C1C1E07030100000000B3
:100AF0000000000009090E1B15377AF0E0C0000065
:100B0000000000000001010109097C9E33333F33DE
:100B1000339E7C0000010101010100000909006011
:100B20005876FD6E786000010101010101010101AB
:100B3000090910FE9282D78292FE10000000000187
:100B4000000000000909C62929C610C62929C600C7
:100B500001010000000101000909C22E2ACE18C8B7
:100B60002A2CC800010100000001010009093CC253
:100B7000094D414D09C23C00000101010101000085
:100B800009091E3F7FFFFEDF6F3B1E0000000001D2
:100B90000000000009097EF1F171DF71F1F17E00C2
:100BA000010100010001010009094E5959899F897D
:100BB00059594E01010100000001010108083C3CA7
:100BC000DBFFFFDB3C3C0808DFDFD8FFFF1BFBFB44
:100BD0000808FF7E3C18FC5C7C1C0808060F2FA64A
:100BE000904C201808081E3360C2878ADC48080829
:100BF0003C7EF3E1C0C460310808003872E1E17264
:100C000038000808001E3BF3F33B1E000808E0C054
:100C1000983C3C19030708083C24E78181E7243C01
:100C200008081E3F7FFEDE6F331E0808060979BEE6
:100C3000BE7909060808DB5A182424242418080859
:100C4000619689A8A88996610808C3990042420064
:100C500099C30808815A3C66663C5A810808C098C6
:100C6000244242241903080810189CFFFF9C181006
:100C700008081008E43F3FE4081008083C638AA015
:100C8000A08A631C080803070E1C1820C0C00808AF
:100C900000708DB1B18D7000080860C0D8DCDCD860
:100CA000C0600808387CFCFD7BBC7C3807073D78B9
:100CB000607A707D380707081C2263221C0807072A
:100CC000080C7E7F7E0C0807071E79396F39791E64
:100CD00007070E1F3F7E3F1F0E07071F1D77535F3D
:100CE000447C07071C3E5F5F6F321C070707152710
:100CF000087254700707775D7722775D77070708DA
:100D00000C0E3F4E2C08070718045F1D5F041807E0
:100D1000070822004D10220807077F6959695969A1
:100D20007F0707397F39383F613F07076B41085D0F
:100D300008416B07071C14774177141C0707775D80
:100D40007505755D77070773517C141F45670707A5
:100D500004487A1F7A480407071E785C1C7F4F06F8
:100D600007070036006300360007076363000800CA
:100D7000636307071C22554955221C07071C22558F
:100D80005155221C060610381C0D010706060C12D0
:100D90003F213F0C0606041E27271E0406062C3E94
:100DA0000F0F3E2C0606071D270A122406060F0900
:100DB000392F243C06063F002D2D003F0606000279
:100DC000253D020006060F3C0C3F0F0606062B0BC6
:100DD0003807343506061B0F063B19080606123382
:100DE0000000331206063333000033330606180CB6
:100DF0002633190C060602263F3F26020606032468
:100E000038382403060621120C0C122106060C00A9
:100E10002D2D000C0606211E12121E2106063C2254
:100E20000909223C06063F090F0F0F0F06063F0F68
:100E30000D0F311106060C122121120C06060C1E94
:100E40003F3F1E0C05051B1B041B1B05050E1B1F2E
:100E50001D0E050503061F060305051C1516151CAA
:100E600005050C181E1E04050500121D12000505BF
:100E7000021E020E1205051E1E1E0A0E0505081A88
:100E80001F1A08050512191E19120505001F0D1F4E
:100E900000050504061F16040505011E0B1E0105AD
:100EA00005100E1B0E1005050E1F1B110005051E5B
:100EB0000C0F1E0605051E181D1E1C0505041E1719
:100EC0001E040505160D0F0D160505061D1F1D0632
:100ED00005051E071F071E05051C0E070E1C050530
:100EE000070F1E0F0705051F1111111F03081F050E
:100EF0001F1F151B1F11111F110E1F15111F05019B
:100F00001F111D1F041F001F0010101F1F041B1F97
:100F100010101F061F1F011F1F111F1F05071F3164
:100F20001F1F051B17151D011F011F101F0F100F7D
:100F30001F0C1F1B041B071C071915130C121E1F67
:100F4000120C1E12120C121F0C1A14041F052E2A4A
:100F50001E1F021C001D00201D001F041A011F007F
:100F60001E041E1E021E1E121E3E120C0C123E1EDF
:100F7000020614120A020F121E101E0E100E1E0878
:100F80001E1A041A2E281E1A12161F111F00001FE7
:100F90001D151711151F07041F17151D1F151D01FE
:100FA000011F1F151F17151F001700001000040454
:100FB00004040E040229060A0000FEFFFFFFFFFFE3
:100FC000FFFFFFFFFFFFFFFFFFFFFFFFFFFFFFFF31
:100FD000FFFFFFFFFFFFFFFFFFFFFFFFFFFFFFFF21
:100FE000FFFFFFFFFFFFFFFFFFFFFFFFFFFFFFFF11
:100FF000FFFFFFFFFFFFFFFFFFFFFFFFFFFFFFFF01
:10100000FFFFFFFFFFFFFFFFFFFFFFFFFFFFFFFFF0
:10101000FFFFFFFFFFFFFFFFFFFFFFFFFEFFFFFFE1
:10102000FFFFFFFFFFFFFFFFFFFFFFFFFFFFFFFFD0
:10103000FFFFFFFFFFFFFFFFFFFFFFFFFFFFFFFFC0
:10104000FFFFFFFFFFFFFFFFFFFFFFFFFFFFFFFFB0
:10105000FFFFFFFFFFFFFFFFFFFFFFFFFFFFFFFFA0
:10106000FFFFFFFFFFFFFFFFFFFFFFFFFFFFFFFF90
:10107000FFFFFFFFFFFFFFFFFFFFFFFFFFFFFFFF80
:101080007FFFFFFFFFFFFFFFFFFFFFFFFFFFFFFFF0
:10109000FFFFFFFFFFFFFFFFFFFFFFFFFFFFFFFF60
:1010A000FFFFFFFFFFFFFFFFFFFFFFFFFFFFFFFF50
:1010B000FFFFFFFFFFFFFFFFFFFFFFFFFFFFFFFF40
:1010C000FFFFFFFFFFFFFFFFFFFFFFFFFFFFFFFF30
:1010D000FFFFFFFFFFFFFFFFFFFFFFFFFFFFFFFF20
:1010E000FFFF7F631800FC06028282820202020276
:1010F00002020202020202020202020282820202D0
:1011000002020202020202020282828282020202BF
:1011100002020202020202020202020202020202AF
:10112000020202020202020202020202020202029F
:10113000020202FA0A0A0A0A0A0A0A0A0A0A0A0A37
:101140000A0A0A0AF206FC0000FF00003F20603095
:1011500010001C3622223C003C0404043C00070919
:10116000083C00003F1F30003E12163C00003F00CC
:101170007C40780C003E60407E13137E00013F01EE
:10118000007F003F6141417F007F04083F004745E9
:10119000693800000000FF000000000000000000AF
:1011A00000000000000000FF00FF00003F60404022
:1011B000404040404040404040404040404040402F
:1011C000404040404040404040404040404040401F
:1011D000404040404040404040404040404040400F
:1011E00040404040404040404040404040404040FF
:1011F0004040404040404040405F50505050505070
:10120000505050505050505050504F603F00C50704
:10121000BE07B707B007A907A2079B0794078D076A
:1012200086077F07780771076A076307A2075C07CD
:1012300055074E0747074007390732072B07240792
:101240001C0714070C070407FC06F406EC06E4066A
:10125000DC06D406CC06C406BC06B406AC06F4060E
:10126000A4069C0694068C0684067C0674066C060E
:1012700064065B0652064906400637062E0625061A
:101280001C0613060A060106F805EF05E605DD054E
:101290002E06D405CB05C205B905B005A7059E05E8
:1012A00095058C05820578056E0564055A0550057F
:1012B00046053C05320528051E0514050A050005EE
:1012C000F6045005EC04E204D804CE04C404BA04C5
:1012D000B004A6049C048804740460044C0438041C
:1012E00024041004FC03E803D403C003AC039803F4
:1012F0008403700324045C034803340320030C03B9
:10130000F802E402D002BC02A60290027A02640251
:101310004E02380222020C02F601E001CA01B401B9
:101320009E018801720138025C01460130011A01F8
:101330000401EE00D800C200AC0005050A150A152C
:101340000A05030103070301050304060706041445
:1013500014000000000000C0E030303030E0C00079
:1013600000000000000000000000000000006C6EA3
:101370000703010000000000000000000000000062
:10138000000000000000000000000000001414FF36
:10139000010101010101010101010101010101013D
:1013A0000101FFFF0000000000000000000000003D
:1013B000000000000000FF0F0808080808080808DF
:1013C000080808080808080808080FE50EDE0ED708
:1013D0000ED00EC90EC20EBB0EB40EAD0EA60E9FE1
:1013E0000E980E910E8A0E830EC20E7C0E750E6E36
:1013F0000E670E600E590E520E4B0E440E3C0E340C
:101400000E2C0E240E1C0E140E0C0E040EFC0DF4ED
:101410000DEC0DE40DDC0DD40DCC0D140EC40DBC83
:101420000DB40DAC0DA40D9C0D940D8C0D840D7B95
:101430000D720D690D600D570D4E0D450D3C0D33B0
:101440000D2A0D210D180D0F0D060DFD0C4E0DF47E
:101450000CEB0CE20CD90CD00CC70CBE0CB50CACD0
:101460000CA20C980C8E0C840C7A0C700C660C5C24
:101470000C520C480C3E0C340C2A0C200C160C7030
:101480000C0C0C020CF80BEE0BE40BDA0BD00BC6B9
:101490000BBC0BA80B940B800B6C0B580B440B3044
:1014A0000B1C0B080BF40AE00ACC0AB80AA40A9039
:1014B0000A440B7C0A680A540A400A2C0A180A04D7
:1014C0000AF009DC09C609B0099A0984096E0958AD
:1014D0000942092C0916090009EA08D408BE08A81F
:1014E00008920858097C08660850083A0824080E33
:1014F00008F807E207CC07D5F08D14A1C881CFD931
:10150000F1AF2000080B00020202010009040000F4
:10151000010202000005240010010524010101045C
:101520002402060524060001070581031000400976
:10153000040100020A000000070502024000000743
:101540000583024000000403090412010002EF02B7
:10155000014041233680000101020301417264759C
:10156000696E6F204C4C430041726475696E6F2048
:101570004C656F6E6172646F0021080F0F080800E0
:1015800006090B06000E03030E000F090F06000FDD
:101590000F000F02030F000E0F090D000E10BEBD4D
:1015A000BEBDBEBDBEBDBEBDBEBDBE00000400040E
:1015B000000400040004000400004E080F0D0702A0
:1015C000000F050F0A000F0D0900020B0D00020BA2
:1015D0000D00000000000F0D0702000F0F080800AB
:1015E0000E03030E00030E0E0300000006090B0697
:1015F000000F02030F00000000010F0F010E030394
:101600000E000F0D0702000F0D090E10A7C7A7C788
:10161000A7C7A7C7A7C7A7C7A70007070707070741
:10162000070707070707070024080E1F1F1F0E00E4
:10163000000000000000000000001F0E0400000079
:10164000000000000000040E1F00040E1F00210B0C
:10165000FE12120C00F00808100070A8A8300090CC
:10166000A8A8480090A8A84800007CFE87DB87FE59
:101670007C000000000000000000000000000000EE
:101680000000000000000000000000010205050548
:101690000201804000000000000000000000000087
:1016A000000000000000000000000000000000003A
:1016B000000000000000000000000000000000002A
:1016C000000000000000000000000000000000001A
:1016D000000000000000000000000000000000000A
:1016E00000000000000000000000000000000000FA
:1016F00000000000000000000000000000000000EA
:1017000000000000000000000000000000000000D9
:101710000000000000000000000000000000C040C9
:101720004040404040408080000000000000000039
:1017300000000000000000000000000000000000A9
:101740000000000000000000000000000000000099
:101750000000000000000000000000000000000089
:101760000000000000000000000000000000000079
:101770000000000000000000000000000000000069
:101780000000000000000000000000000000000059
:10179000000000000000000000000000F00F00004A
:1017A00000000000000000000106CC7000000000F6
:1017B0000000000000000000000000000000000029
:1017C0000000000000000000000000000000000019
:1017D0000000000000000000000000000000000009
:1017E00000000000000000000000000000000000F9
:1017F00000000000000000000000000000000000E9
:1018000000000000000000000000000000000000D8
:101810000000000000000000000000000FF0006069
:10182000202020101010080C06020100000060802B
:1018300001000000000000000000C040301010183F
:101840000808080000000000FC0404C4A4341C00C4
:101850000000000000F00804070301010302060471
:101860000418F00004060606060A09090909111100
:101870001010102020202060C0000E09090909095D
:1018800009080808101060C00000000000000000F7
:10189000000000000000000000000000000F30C049
:1018A0000000000000000000000000000000000137
:1018B0000638C0000000000000020D10202020208B
:1018C0002020204040406020031E30000001020222
:1018D00002040C081010030C0810102020202020F7
:1018E000300E0300000000000002020202020206A5
:1018F00004040404040404020300000101010202C0
:1019000002020202020202030000000000000000C6
:1019100000000000000000000000000000000000C7
:101920000F38E00000000000000000000000000090
:1019300000000100000000000000000000000000A6
:101940000000000000000000000000000000000097
:101950000000000000106080402020203010101097
:1019600010202020202040C00000000000000000C7
:101970000000000000000000000000000000000067
:101980000000000000000000000000000000000057
:101990000000000000000000000000000000000047
:1019A0000000000300000000000000000000000034
:1019B00000000000000000000000000808101010E7
:1019C0001020202020202020202020202020202027
:1019D00021131E30C8060100030C10200000000077
:1019E000000000000000000001010102040C0000E2
:1019F00000000000000000000000000000000000E7
:101A000000000000000000000000000000000000D6
:101A100000000000000000000000000000000000C6
:101A200000000000000000000000000000000000B6
:101A300000000000000000000000000000000000A6
:101A40000000000000000000000000000000000096
:101A50000000000000000000000000000000000086
:101A60000000000000000000000000000000000076
:101A70000000000000000000000000000000000066
:101A80000000000000000000000000000000000056
:101A9000000000000102040810204080B5242B2221
:101AA00011241FBECFEFDAE0DEBFCDBF12E0A0E011
:101AB000B1E0EAEDF1E502C005900D92A232B10766
:101AC000D9F727E0A2E2B2E001C01D92A23FB2071F
:101AD000E1F71DE0CFE4DDE004C02197FE010E94A4
:101AE000DE26CE34D107C9F70E9443220C94E028A9
:101AF0000C940000DC01FB019185909520859223D8
:101B000093FF0CC01E968C911E97811102C083E03A
:101B1000808B1E968C91813009F4808B089522E091
:101B2000FC0126870895089580E090E008950895C7
:101B30002F923F924F925F926F927F928F929F92DD
:101B4000AF92BF92CF92DF92EF92FF920F931F93CB
:101B5000CF93DF93CDB7DEB72B970FB6F894DEBFE8
:101B60000FBECDBF9B878A871B01FC0184859585AD
:101B700069E170E00E94CA269B016B83482F823086
:101B8000910518F01EEF180F01C010E0512EF7E07C
:101B9000F10FFE83423020F4412F480F4A8303C0E7
:101BA00052E0510F5A83F1018681978160E370E022
:101BB0000E94CA268987A90155275D834C8359E174
:101BC000259F30011124C30187539C4F98878F8331
:101BD0009BE09983EA85FB8532964F01FE811F17B2
:101BE0000CF070C0A12E012E000CBB087301EA0C92
:101BF000FB1CF701EE0FFF1FAF0145535C4E7A014E
:101C0000FA0185919491FC01449031960491C12E82
:101C1000C518F9E1CF9E600111244985493118F4B6
:101C20005A81151741F04DE853E163E170E0C601B8
:101C300004960E94801A8F8198858A0D9B1D0E94B0
:101C40008F21813071F4F7014591549106956DE132
:101C500070E0601B7109C6010E96469484199109C3
:101C600006C04FE453E163E170E0C60104960E94B0
:101C7000801A4981EA85FB854683478358E250876D
:101C800019302CF462E172E0C4010E944E17A501E4
:101C90004F5F5F4F4F3F8FEF580739F44FEF5FEFC4
:101CA000BA01C4010E94D41A08C0052E000C660BAC
:101CB000770B2AE0C4010E9463171F5F9981975E2A
:101CC00099838CCFE12CF12C81010D5F1F4F21E016
:101CD0004CE050E0B701C8010E94A521E2E0EE0E01
:101CE000F11CF2E8EF16F10491F7E12CF12C21E060
:101CF00044E350E0B701C8010E94A52142E0E40E90
:101D0000F11C52E8E516F10491F7EA85FB8516828D
:101D1000178210863296F887EF8364E172E0CF0174
:101D20000E944E170C811D810B5F1F4FB8018F81E0
:101D300098850E94FD1A6DE172E08F8198850E945E
:101D40004E17B8018F8198850E94FD1AFB81F11111
:101D500020C041E453E162E070E08FE390E02B9615
:101D60000FB6F894DEBF0FBECDBFDF91CF911F91AC
:101D70000F91FF90EF90DF90CF90BF90AF909F902A
:101D80008F907F906F905F904F903F902F900C942A
:101D9000801A48E453E162E070E087E390E00E943B
:101DA000801A4B814F30A8F22B960FB6F894DEBF05
:101DB0000FBECDBFDF91CF911F910F91FF90EF909C
:101DC000DF90CF90BF90AF909F908F907F906F905B
:101DD0005F904F903F902F900895EF92FF920F9356
:101DE0001F93CF938C0184EC91E00E948F21C82F28
:101DF00090E0F8019587848787539C4F0E948F213C
:101E0000813079F4CF5FC63960F4EC2EF12CC70134
:101E100087539C4F0E948F218111F4CFF801F586E2
:101E2000E486CF911F910F91FF90EF900895CF928C
:101E3000DF92EF92FF921F93CF93DF93EC016B0140
:101E4000FB01118510958085182315FF03C08C8533
:101E500081116EC016FF0DC0FC8485EC91E00E94DC
:101E60008F212F2D30E090E00197281739070CF4CF
:101E700062C017FF03C08D85811160C014FF0DC0C3
:101E8000FD8485EC91E00E948F212F2D30E090E0C1
:101E90000197281739070CF454C0FE01EE5EFE4F7F
:101EA0008081811137C07E01FCE0EF0EF11C8D8531
:101EB000833040F0835099E0899F802D1124F601F2
:101EC000868702C0F601168613FF0EC0C7010E9466
:101ED000BC1A813029F010F0823031F461E001C089
:101EE00060E0C7010E94961A12FF2EC0C7010E942F
:101EF000BC1A823020F0823039F560E001C062E027
:101F0000C701DF91CF911F91FF90EF90DF90CF90AD
:101F10000C94961ACD5EDE4F8881803418F48F5F62
:101F2000888312C013FF10C082E0F601808B0CC0C2
:101F300081508C878FCFF394FC869BCF81508D8707
:101F40009DCFF394FD86A9CFDF91CF911F91FF9094
:101F5000EF90DF90CF9008950C947C270C947C2711
:101F60000C947C270C947C270C947C270C947C2765
:101F7000CF93DF9361E070E080E090E00E9405285D
:101F8000EC01009721F060E272E00E94D928CE01B6
:101F9000DF91CF910C947C27CF92EF920F931F93F8
:101FA000CF93DF93FC016A3039F485818483968175
:101FB0008185890F86839DC0A4816E3719F4AF5F38
:101FC000A48397C0962FEF0166816F5F9A3380F4E8
:101FD000903310F59B3219F118F4913221F156C06B
:101FE0009D3209F459C09E3209F050C01FE31CC055
:101FF0009B3548F4913470F49A3399F09F3309F08B
:1020000045C012E411C08FE9890F8A3108F03EC043
:1020100019EB03C01FEB01C014E0190F05C011E458
:1020200003C013E401C01EE38F81062E000C770B62
:102030000A2E000CBB0B8130A1F5ECEEFEE0049102
:10204000EDEEFEE0E490112349F121E030E08E2D29
:10205000877011F420E030E08E2D86958695869568
:10206000280F311D029FF001039FF00D11249F01E5
:102070001203A001139F500D11244251514F9AEFAA
:10208000C92E20E030E0CD010E94AC1788858D5F1D
:102090009C81890F8C832DC010E4C6CF4EEE5EE08C
:1020A000EECFECEEFEE00491EDEEFEE0E4901123C5
:1020B000D9F021E030E08E2D877011F420E030E07F
:1020C0008E2D869586958695280F311D029FF001ED
:1020D000039FF00D11249F011203A001139F500DC7
:1020E00011244251514F02C04EEE5EE08BEFC82EDC
:1020F000C8CF81E090E0DF91CF911F910F91EF90D9
:10210000CF9008952F923F924F925F926F927F925D
:102110008F929F92AF92BF92CF92DF92EF92FF92F7
:102120000F931F93CF93DF93CDB7DEB762970FB6B0
:10213000F894DEBF0FBECDBFFC019B01DB011996F9
:102140004C911997409518968C91482304851585D4
:10215000C80169E170E00E94CA2645FF06C08823D5
:1021600021F0015011091587048746FF07C0883107
:1021700029F08485958501969587848747FF07C058
:10218000662329F08485958549979587848744FF40
:1021900007C06B3028F48485958549969587848798
:1021A00043FF4FC164857585FB01FF27EE0FFF1FBD
:1021B000E553FC4E05911491F8013490319624902A
:1021C000822D8770F22CF694F694F6948111F39494
:1021D0003A8B298B84EC91E00E949121632D85EC50
:1021E00091E00E949121622D86EC91E00E94912164
:1021F000832D90E09A87898723E0880F991F2A957D
:10220000E1F79C878B870E5F1F4FA12CB12CC12C4F
:10221000D12CAF2DB0E0B88BAF87EF85F889E12CDA
:10222000F12CCE16DF0608F041C0C50187539E4F42
:102230009E878D87A985BA85EA16FB0658F5F701B2
:10224000E00FF11FE4914D845E844E0C5F1C98E01A
:10225000692E712C8E2E912C81E090E0072C02C00B
:10226000880F991F0A94E2F788219921892B11F090
:1022700060E101C060E0C201739C800D911D1124DA
:102280000E94912173946A946110E6CFBFEFEB1A1C
:10229000FB0AD0CFEFEFCE1ADE0A89859A85080FA8
:1022A000191FAB85BC85AA0EBB1EB7CFC12CD12C84
:1022B000412C512CFE0131963F0124100AC000E050
:1022C00010E0712C612C88E0482ECE0101967C0133
:1022D0007EC0D301E8E01D92EA95E9F78701075334
:1022E0001E4F912CA12CBB24BA943914E9F0C801DB
:1022F0000E948F218A1539F0803189F4B394F8E077
:10230000BF1204C011C090E1A91209C0F301EB0D86
:10231000F11DB7FCFA9580818F5F808380E19394F3
:102320000F5F1F4FA82EE1CF530100E010E04601E0
:10233000A8EB8A1AACEF9A0A9801F50161915F0146
:102340000F5F1F4F662331F0852D90E02817390766
:102350000CF0502EC401800F911F0E949121083073
:10236000110551F74394F8E0CF0ED11C89859A8569
:10237000E80EF91EA2CFC601B39C800D911D112459
:102380000E948F218915D1F1803199F1B394982E53
:10239000B21488F36701812C912C5801A8E3AA1A82
:1023A000ADEFBA0A9401F60161916F01FFEF8F1A48
:1023B0009F0A611130C0C501880D991D0E949121AD
:1023C00088E08816910471F77394085F1F4F3714E3
:1023D00049F1D701E42D1D92EA95E9F7B12C912C32
:1023E000AA24AA94C72CD12CF7E3CF1AFEEFDF0A58
:1023F000CFCFA39488E0A81204C0CCCF90E199126B
:10240000C5CFF701EA0DF11DA7FCFA9580818F5F1A
:10241000808380E1BBCF862D90E0281739075CF2DE
:10242000682CC9CF652D87EC91E00E949121662D23
:1024300088EC91E00E94912183E0A989BA895096A5
:102440008C9362960FB6F894DEBF0FBECDBFDF91BE
:10245000CF911F910F91FF90EF90DF90CF90BF90A1
:10246000AF909F908F907F906F905F904F903F9034
:102470002F9008952F923F924F925F926F927F928A
:102480008F929F92AF92BF92CF92DF92EF92FF9284
:102490000F931F93CF93DF93CDB7DEB7C556D10906
:1024A0000FB6F894DEBF0FBECDBF2C0168967FAF8C
:1024B0006EAF689785E5E6E1F1E0DE0111960190E7
:1024C0000D928A95E1F76896EEADFFAD68970680AC
:1024D000F781E02DA696FFAFEEAFA69785EC91E0D1
:1024E0000E948F21382EA82EAA0CAA0CA80E90E0CC
:1024F000019625E0289F6001299FD00C1124B32C60
:10250000BB0CBB0CBB0CE12CF12C9201205F3E4FAD
:102510006A963FAF2EAF6A97C2018F5E9E4F6C9650
:102520009FAF8EAF6C976896EEADFFAD6897339610
:102530006E96FFAFEEAF6E97F8E0FF9E800111241C
:102540009A2C892D90E08C159D050CF042C0E1E09D
:10255000F0E0EC0FFD1FE80FF91F80818F1137C0ED
:102560006A96EEADFFAD6A97408150E06896EEAD99
:10257000FFAD68978685481B51096C96EEADFFAD9F
:102580006C978081B801680F711D2B2D6E968EADF2
:102590009FAD6E970E941F1A6A96EEADFFAD6A97C7
:1025A0008081B801680F711D6896EEADFFAD689728
:1025B0008685681B71096034710548F46C96EEAD30
:1025C000FFAD6C9780814B2D90E00E944B1A939445
:1025D000B8CF6C96EEADFFAD6C9700810E0D6A968C
:1025E000EEADFFAD6A9790806896EEADFFAD68974F
:1025F0008685981A9B0C812C10E0482D50E021E034
:10260000B8016E968EAD9FAD6E970E94A521839402
:102610008394981490F76A96EEADFFAD6A970081A7
:102620006896EEADFFAD68978685081B0E0D6C961B
:10263000EEADFFAD6C9780808B0C912C10E0692D76
:1026400070E021E0A8016E968EAD9FAD6E970E945E
:10265000A52193949394891490F7F394F8E0EF0EE6
:102660003F1408F069CF00E010E0212C231018C0BF
:10267000812C912C49ECA42E42E0B42E6F961FAE13
:102680006F97212C92012F5E3E4FA2963FAF2EAF47
:10269000A297C2010296A4969FAF8EAFA497A3C043
:1026A000E12CF12CC12CD12C822D90E0FC01E753C0
:1026B000FE4FA096FFAFEEAFA097C31408F070C016
:1026C00085EC91E00E948F21F82FFC9DC001FD9DBB
:1026D000900D1124A0962EAD3FADA097820F931FB1
:1026E0000E948F218F70813019F1823009F051C022
:1026F0006A96EEADFFAD6A978081B701680F711DD4
:102700006E5F7F4F6896EEADFFAD68978685681B5C
:1027100071096C96EEADFFAD6C9780819801280F22
:10272000311DC9014AE353E102960E94801A31C06B
:102730006A96EEADFFAD6A9780813701680E711C15
:10274000F2E06F0E711C6896EEADFFAD689786855E
:10275000681A71086C96EEADFFAD6C9780814801E8
:10276000880E911C5401F2E0AF0EB11C27E0820EDE
:10277000911CA814B90469F025E0A301B5016E9677
:102780008EAD9FAD6E970E941F1A3FEFA31AB30A3A
:10279000F0CF3FEFC31AD30A88E0E80EF11C8DCFCB
:1027A0002394085F1F4F62CFF20111862394E82C17
:1027B0008501F12CC8010E948F2181116EC00F5F2D
:1027C0001F4FF7E0FF0E23E2F212F4CF6F963FADFA
:1027D0006F973F5F6F963FAF6F9788E0A80EB11C71
:1027E00098E0890E911C6F969FAD6F9793110EC064
:1027F000E12CF12C39E4632E33E0732E10E0F2016A
:102800003296A096FFAFEEAFA0978FC0840102571B
:102810001F4F040D151D7401FFE2EF1AFDEFFF0AB3
:102820006501C6010E948F21F80191918F018913E2
:10283000CDC1FFEFCF1ADF0AEC14FD0491F76A96C1
:10284000EEADFFAD6A97D080DA946896EEADFFAD3D
:1028500068976684712C719461947108A296EEADAC
:10286000FFADA29780818401080F111D7801FFEF51
:10287000EF1AFF0A085F1F4FE016F10609F494CF24
:102880002D2DA301B7016E968EAD9FAD6E970E9460
:102890001F1A2FEFE21AF20AEFCF6896EEADFFADE6
:1028A000689796853F2D391BA296EEADFFADA29796
:1028B00090819D5F8A3028F421E0813019F020E07A
:1028C00001C023E09E0D921BF2019683978330870F
:1028D000482F50E060E070E02AE0A4968EAD9FADF6
:1028E000A4970E9463176FE172E0A4968EAD9FAD2E
:1028F000A4970E944E1763CFF201118623949E2C59
:10290000630101E0A12CC6010E948F21811156C0F4
:10291000FFEFCF1ADF0A0B5F0A31A9F71F5F28E02C
:10292000620E711C38E0E30EF11C131509F46BC044
:102930006701EEE0CE0ED11CC40CD51C5701FFEA96
:10294000AF1AFCEFBF0A4301C4010E948F21F601B8
:1029500091916F0189133EC1FFEF8F1A9F0AA8144E
:10296000B90491F76C96EEADFFAD6C97C080CA9438
:102970006A96EEADFFAD6A9780815701A80EB11C33
:10298000FFEFAF1ABF0A6896EEADFFAD6897868578
:10299000A81AB108812C912CD12C8C149D040CF018
:1029A000ABCF27E0A501B4016E968EAD9FAD6E97BB
:1029B0000E941F1A2FEF821A920AEFCF8A3008F076
:1029C000A3946A96EEADFFAD6A9790819F5F68967B
:1029D000EEADFFAD68972685921B990D2A2D220F2B
:1029E000F02FF21B2F2FF201268327839087482F89
:1029F00050E060E070E02AE0A0968EAD9FADA09719
:102A00000E94631785CF312C812F90E0880F991F8A
:102A100082010E5E1E4F2816390669F481E0F80126
:102A2000808384EC91E00E948F2190E061E08753E5
:102A30009C4F0E949121F8018081882309F45BC09A
:102A4000F201ED5EFE4F8081803409F0C7C084EC56
:102A500091E00E948F21E82FF0E0EE0FFF1FE25F70
:102A6000FD4E85919491FC0114913196F490E3EE22
:102A7000F0E10491E4EEF0E1E490CC24C3942AEB7D
:102A80003FE045EE50E164E170E080E190E00E94BB
:102A90009F1F84EC91E00E948F21E82FF0E0EE0F61
:102AA000FF1FE25FFD4E45915491EF2DE69560E2E8
:102AB00070E06E1B7109169587E690E0811B910905
:102AC000CB59DF4F0FB6F894DEBF0FBECDBFDF91FD
:102AD000CF911F910F91FF90EF90DF90CF90BF901B
:102AE000AF909F908F907F906F905F904F903F90AE
:102AF0002F900C94801AA6968EAD9FADA69760E39A
:102B000070E00E94CA26893108F468C0F201058588
:102B10006A96EEADFFAD6A978081F8E00F9F800165
:102B20001124080F111D6896EEADFFAD68978685DC
:102B3000081B1109F201E4846C96EEADFFAD6C97B1
:102B40008081F8E0EF9E70011124E80EF11C003442
:102B5000110528F449E0B801C7010E944B1AB801D9
:102B6000685F7F4F6034710520F449E0C7010E941F
:102B70004B1A29E0A801B7016E968EAD9FAD6E97F6
:102B80000E941F1AB701685F7F4F29E0A8016E9667
:102B90008EAD9FAD6E97CB59DF4F0FB6F894DEBF69
:102BA0000FBECDBFDF91CF911F910F91FF90EF909E
:102BB000DF90CF90BF90AF909F908F907F906F905D
:102BC0005F904F903F902F900C941F1A21E0F201DC
:102BD0002187EDCD21E0F201218791CECB59DF4F46
:102BE0000FB6F894DEBF0FBECDBFDF91CF911F911E
:102BF0000F91FF90EF90DF90CF90BF90AF909F909C
:102C00008F907F906F905F904F903F902F9008959E
:102C10002F923F924F925F926F927F928F929F92EC
:102C2000AF92BF92CF92DF92EF92FF920F931F93DA
:102C3000CF93DF93CDB7DEB72C970FB6F894DEBFF6
:102C40000FBECDBF8C0185EC91E00E948F21F82E44
:102C500086EC91E00E948F21382E580182E0A80E68
:102C6000B11CEF2DF0E0FC87EB87C12CD12C212C7F
:102C7000CE0101964C01FE013996FA87E9872310AF
:102C80000DC00E571F4FE12C88E0482ECE01019653
:102C90006C014E0199E0890E911C5DC0F40188E041
:102CA00011928A95E9F7360197E3691A9EEF790A3E
:102CB000412C512CEE24EA944F1461F0C3010E9480
:102CC0008F218F70581649F08130A9F4E394E8E021
:102CD000EE1206C0F401D50114C0F1E05F120CC081
:102CE000F401EE0DF11DE7FCFA9580818F5F808382
:102CF0005524539401C0582E43948FEF681A780AD4
:102D0000DBCF81918D9389859A85E817F907C9F7FB
:102D1000239498E0A90EB11CEB85FC85CE0EDF1E36
:102D2000AECFC5017F9C800D911D11240E948F2183
:102D30008F70581222C0F1E05F1629F1739473145A
:102D400080F3F601D80181918D93E815F905D9F743
:102D5000E394085F1F4FEF1419F1F601842D1192CF
:102D60008A95E9F7712C512C66246A94AE2CB12C0B
:102D700097E3A91A9EEFB90AE2CF813079F4639400
:102D8000E8E06E16F1F2F601E60DF11D67FCFA952A
:102D900080818F5F808355245394D0CF582ECECF1F
:102DA0002C960FB6F894DEBF0FBECDBFDF91CF914A
:102DB0001F910F91FF90EF90DF90CF90BF90AF9059
:102DC0009F908F907F906F905F904F903F902F904B
:102DD00008951F93CF93DF93EC0187EC91E00E945D
:102DE0008F21182FFE01E25FFE4F808388EC91E077
:102DF0000E948F21FE01E15FFE4F80833296912F6A
:102E0000990F990F190F1D5F1083319797E0899FD4
:102E1000802D11248E5F808333961082319710822B
:102E20001C861D86CE010C96DF91CF911F910C94CC
:102E300008160895089508950895089508950C9426
:102E40007C270895CF92DF92EF92FF920F931F930A
:102E5000CF93DF936C017A018B01C0E0D0E0CE15F7
:102E6000DF0581F0D8016D918D01D601ED91FC91C6
:102E70000190F081E02DC6010995892B11F0219672
:102E8000EECF7E01C701DF91CF911F910F91FF908F
:102E9000EF90DF90CF9008950E94CB2861157105C7
:102EA00079F0FB0101900020E9F73197AF01461B53
:102EB000570BDC01ED91FC910280F381E02D099428
:102EC00080E090E008958F929F92AF92BF92EF9230
:102ED000FF920F931F93CF93DF93CDB7DEB7A197E8
:102EE0000FB6F894DEBF0FBECDBF7C01FA01CB0157
:102EF00019A2223008F42AE08E010F5D1F4F822EA6
:102F0000912CA12CB12CBF01A50194010E948D260A
:102F1000F901CA01015011096A3014F4605D01C061
:102F2000695CD8016C93232B242B252B61F7B80106
:102F3000C7010E944E17A1960FB6F894DEBF0FBED0
:102F4000CDBFDF91CF911F910F91FF90EF90BF9078
:102F5000AF909F908F9008952F923F924F925F92E3
:102F60006F927F928F929F92AF92BF92CF92DF9299
:102F7000EF92FF920F931F93CF93DF9300D000D077
:102F800000D0CDB7DEB7CD82FC01E00FF11D1E16DB
:102F90001F060CF0F5C0803891050CF0F1C0DB0184
:102FA000AE0DB11D1A161B060CF0EAC06034710597
:102FB0000CF0E6C04115510509F4E2C0A62FA77038
:102FC0007A2EDB0177FD179613E0B595A7951A9534
:102FD000E1F7FA2E77FF05C0772019F0FF24FA9465
:102FE000FA0E97FF05C0AA27BB27A81BB90B02C082
:102FF000A0E0B0E0E038F10524F060E8962E981AE1
:1030000001C0902E9A1A6F2D0F2C000C770BEFEF4A
:10301000FE161CF4E62FE09501C0E0E011E0FE2D65
:10302000F77009F410E0E694E694E694E10E6E0D74
:10303000711D693071051CF068E0E62EEF188E2EC8
:103040008F0C682D70E86703800D911D11248A0F85
:103050009B1F61E070E0072C02C0660F771F0A9487
:10306000E2F7FD81F33019F0BB24B39402C0F2E023
:10307000BF2EA02EA918AB9CA02C1124CB2CD12C98
:103080000E9FA00DB11D1124AC9DF001AD9DF00D62
:10309000BC9DF00D11248A010E0F1F1F2115310553
:1030A00009F0A901960121503109E20FF31F4E0FDB
:1030B0005F1FEFEFE69F9001E79F300D112429017C
:1030C000409450948A5D9D4FEF0CEE822A2D30E0A3
:1030D000B99C200D311D1124AE818A1609F450C00F
:1030E000DC015A017801612C961409F441C0F70102
:1030F0003490369EF001379EF00D1124FC83EB8353
:10310000E095F095FA83E983FD81F23019F45A8253
:10311000498211C0ED81EB3F19F41C821B820BC068
:10312000F5013490369EF001379EF00D1124E095A4
:10313000F095FA83E98387FC06C0F981EC91EF23CF
:10314000FB81EF2BEC93772061F0F6E0F8154CF063
:10315000FD01E058FF4F20803A8032202C80322839
:103160003082AC0CBD1CEC0CFD1C63941196BCCFE2
:103170008394020F131F420F531F80589F4FACCFF1
:1031800026960FB6F894DEBF0FBECDBFDF91CF916C
:103190001F910F91FF90EF90DF90CF90BF90AF9075
:1031A0009F908F907F906F905F904F903F902F9067
:1031B000089520912502211103C08FEF9FEF0895FC
:1031C0005FB7F89422E02093E9002091F20030E00C
:1031D0001216130614F421E030E0422FFC0184E6BD
:1031E000415038F02898809324029091F1009193F7
:1031F000F7CF2115310521F08091F200882319F0D5
:103200005FBFC90108958BE68093E800F9CF2FB71F
:10321000F89483E08093E9009091E800892F807210
:1032200095FF04C09091F20080E4891B2FBF0895A0
:10323000CF93DF931F92CDB7DEB76983DC01ED91A9
:10324000FC910280F381E02D41E050E0BE016F5F10
:103250007F4F09950F90DF91CF91089583E0809380
:10326000E9008091F200882319F08AE38093E80056
:1032700008950E94071990E00895CF93DF931F925D
:10328000CDB7DEB7FC018485958597FD05C02FEF8E
:103290003FEF358724870BC0CE0101960E94D918D5
:1032A000019719F4898190E002C08FEF9FEF0F9092
:1032B000DF91CF9108950F931F93CF93DF931F92C8
:1032C000CDB7DEB78C01FC018485958597FF0EC0D4
:1032D000CE0101960E94D918019719F4898190E0D6
:1032E00002C08FEF9FEFF80195878487F8018485EE
:1032F00095850F90DF91CF911F910F910895FC015B
:103300008485958597FD0BC09FB7F89482E08093E4
:10331000E9008091F2009FBF90E0019608959FB769
:10332000F89482E08093E9008091F2009FBF90E0E2
:1033300008958F929F92AF92BF92CF92DF92EF92B9
:10334000FF920F931F93CF93DF936C017B018A0150
:1033500080910701882309F45CC0809125028823AD
:1033600009F457C08091230280FF05C08091E000DE
:1033700082608093E000E801B12C8AEFA82E93E0F0
:10338000892E2AE3922E209711F4BB20D9F10E94B6
:10339000071981110AC0AA94AA20D9F161E070E04E
:1033A00080E090E00E949A1EEECF282F30E0C217F6
:1033B000D3070CF48C2F9FB7F8948092E9002091EA
:1033C000E80025FF1DC0282F30E0C21BD30BF701FA
:1033D000815020F041914093F100FACFE20EF31EAC
:1033E000BB2019F09092E8000AC08091E80085FDAA
:1033F00007C09092E800BB24B394209709F0B12C49
:103400009FBFC1CF5D9884E68093220210161106FB
:1034100044F081E090E0F6019383828380E090E0C5
:1034200001C0C801DF91CF911F910F91FF90EF90E4
:10343000DF90CF90BF90AF909F908F900895CF92E4
:10344000DF92EF92FF920F931F93CF93DF937C0154
:103450006B018A01020F111DEA0157FF02C0C0E093
:10346000D0E0C8010134110514F080E490E0C817E1
:10347000D90744F421E0AE01B601C7010E94A5219D
:103480002196EFCFDF91CF911F910F91FF90EF9099
:10349000DF90CF9008959C01240F311D1216130662
:1034A00074F5803891055CF597FF02C080E090E0EC
:1034B0002138310514F020E830E0281BAB014770BB
:1034C000552731E001C0330F4A95EAF777FF02C074
:1034D000695F7F4F43E0759567954A95E1F776956B
:1034E000762F662777956795860F971FFC01EA5D13
:1034F000FD4F215020F08081832B8193FACF0895D6
:10350000CF92EF920F934115510561F0FA010491AA
:103510003196E4904E5F5F4F2AEFC22E20E030E0FC
:103520000E949F1F0F91EF90CF900895FF920F93ED
:103530001F93CF93DF938C01F62E85EC91E00E94D0
:103540008F21F8019181C081D0E0C753DE4F989F51
:10355000C00DD11D1124CE010E948F218071682FD2
:103560006F29CE010E949121C801DF91CF911F9157
:103570000F91FF900C940816CF93DF93EC0185EC2C
:1035800091E00E948F219981288130E027533E4F9E
:10359000A901989F400D511D1124CA010E948F213D
:1035A0008F70DF91CF910895CF92DF92EF92FF92CB
:1035B0000F931F93CF93DF93EC016A017B01E881A6
:1035C000F9810190F081E02D6DE209958C0144278D
:1035D0005527BA014C195D096E097F092AE0CE0111
:1035E0000E946317800F911FDF91CF911F910F9160
:1035F000FF90EF90DF90CF900895AB01770F660BAF
:10360000770B77FD0C94D41A2AE00C946317CF92B1
:10361000EF920F934115510561F0FA010491319633
:10362000E4904E5F5F4F22E0C22E20E030E00E9427
:103630009F1F0F91EF90CF90089580918707811180
:103640000DC082E08093830784E08093840710920A
:1036500086071092850781E08093870783E897E0CB
:1036600008954091EB075091EC072091E9073091C4
:10367000EA0742175307B4F49091E8009570E1F31C
:103680009091E80092FD19C08093F1008091EB07C2
:103690009091EC0701968F739927892B19F48EEF7F
:1036A0008093E8008091EB079091EC07019690934E
:1036B000EC078093EB0781E0089580E00895DF92A6
:1036C000EF92FF920F931F93CF93DF93D82E8A012F
:1036D0007B01E40EF51EEB01CE15DF0571F0D7FE80
:1036E00003C0FE01849101C088810E94311B219694
:1036F0008111F2CF8FEF9FEF01C0C801DF91CF9111
:103700001F910F91FF90EF90DF900895615030F07E
:103710002091F100FC0120830196F8CF289884E6DF
:103720008093240208950F931F93CF93DF931F92EA
:10373000CDB7DEB782E0898342E450E064E075E112
:1037400080E80E945F1B0E941D1BDC0112960D91F8
:103750001C9113970115110589F0D801ED91FC9189
:103760000280F381E02DBE016F5F7F4FC801099594
:1037700097FD04C0F80100851185ECCF89810F9079
:10378000DF91CF911F910F9108951F920F920FB665
:103790000F9211248F939F938091E1009091E1000B
:1037A000937F9093E10083FF0FC01092E90091E0B6
:1037B0009093EB001092EC0092E39093ED00109246
:1037C000250298E09093F00082FF20C093E0909350
:1037D000E9009091F200992319F09AE39093E800A0
:1037E00090912202992339F0909122029150909366
:1037F0002202992389F190912402992339F0909122
:103800002402915090932402992341F184FF10C027
:103810008091E2008E7E81608093E2008091E100E1
:103820008F7E8093E100809123028E7E806111C0A3
:1038300080FF16C08091E2008E7E80618093E2005E
:103840008091E1008E7E8093E100809123028E7E44
:1038500081608093230204C05D9ACDCF289AD6CF91
:103860009F918F910F900FBE0F901F9018951F92F0
:103870000F920FB60F921124CF92DF92EF92FF9228
:103880000F931F932F933F934F935F936F937F9368
:103890008F939F93AF93BF93EF93FF93CF93DF9358
:1038A000CDB7DEB76C97DEBFCDBF1092E900809137
:1038B000E80083FFFBC168E0CE0145960E94861BAD
:1038C00082EF8093E8008D8987FF05C09091E80022
:1038D00090FFFCCF03C09EEF9093E800982F907666
:1038E00009F0C6C09E894F89588D2F89F88C911197
:1038F0000CC0803829F48091E3078093F10002C066
:103900001092F1001092F10045C1913051F48111F3
:1039100041C14130510509F03DC18091E3078D7FE0
:103920000BC0933061F4811135C14130510509F06C
:1039300031C18091E30782608093E3072BC195300A
:1039400049F48091E80080FFFCCF822F806880934B
:10395000E30020C1963009F05EC00B8D1C8D22E083
:103960001092E9001092EC071092EB07F21232C0AD
:103970001092EA071092E9070E94931B99E0BE019A
:103980006F5F7F4FDB01E92F1D92EA95E9F799837D
:10399000FA8291E09E8390EA98879AEF9987209126
:1039A000EB073091EC07275F3F4F3C832B838D83E0
:1039B0001092E9001092EC071092EB071093EA07BF
:1039C0000093E90749E050E080E00E945F1B0E94FD
:1039D000931BE0C01093EA070093E9070E941D1BA8
:1039E000DC0112960D911C9113970115110509F434
:1039F000BBC0D801ED91FC910480F581E02DBE01A2
:103A00006B5E7F4FC8010995009709F0C7C0F801A8
:103A100000851185EACF973009F445C1983021F42B
:103A200081E08093F100B6C0993009F0B3C0837093
:103A300009F039C1ECE0F2E081E031E096E3208169
:103A4000211109C08EE78093EA001092EA008F8965
:103A5000809325029FC08093E9003093EB00219171
:103A60002093EC009093ED008F5F873041F7EACF11
:103A70008B8D9C8D1092E9001092EC071092EB0751
:103A80009093EA078093E907898D811153C08E894D
:103A90009D89913A49F4813209F005C147E050E02F
:103AA00060E071E080E0BBC0913209F0FCC083327D
:103AB00069F48F89988DA0E0B0E08093080190931D
:103AC0000901A0930A01B0930B0164C0803269F42C
:103AD0008091E80082FFFCCF67E080E091E00E94E7
:103AE000861B8BEF8093E80055C0823209F052C0EC
:103AF0008F8980930701EEEFFFE7859194918B3FCB
:103B00009C4D19F0E0E0F8E002C0EEEFFAE08091A1
:103B1000000190910101A0910201B0910301803B4D
:103B20009440A105B10509F09EC08091070180FF76
:103B300079C099C00E941D1BFC01028113810115EF
:103B4000110509F4B0C0D801ED91FC910190F0810C
:103B5000E02DBE016B5E7F4FC801099581111AC02F
:103B6000F80100851185EBCFF1E0FF1609F44EC096
:103B7000F3E0FF1298C08F89882309F44AC082308D
:103B800089F440E860E188E695E10E9425258823D4
:103B900009F489C08EEF8093E80088C018161906D2
:103BA000CCF381C0813029F440E86BE08CE595E1ED
:103BB000ECCF833009F077C00E941D1BDC01129608
:103BC000ED90FC9013978E010F5F1F4F6801E11479
:103BD000F10479F0D701ED91FC910680F781E02D99
:103BE000B801C7010995080F111DF701E084F184A0
:103BF000EECFD8011C92F60101900020E9F7319731
:103C0000BF016C197D0940E0C601BFCF6AE475E1D0
:103C100002C066E475E1FB01449150E080E80E9437
:103C20005F1BB8CFEE3F2AE0F20751F0808191810F
:103C30008737A7E79A0721F09093FF0A8093FE0A3F
:103C400087E797E791838083809160008093ED07F9
:103C50009BE088E10FB6F894A895809360000FBEB2
:103C60009093600097CF808191818737974709F0C3
:103C700091CFA895809160008861809360008091C9
:103C8000ED0780936000EE3FBAE0FB0739F08091CA
:103C9000FE0A9091FF0A918380837CCF1092FF0AE5
:103CA0001092FE0A77CF81E28093EB006C960FB6FC
:103CB000F894DEBF0FBECDBFDF91CF91FF91EF91A2
:103CC000BF91AF919F918F917F916F915F914F9134
:103CD0003F912F911F910F91FF90EF90DF90CF9028
:103CE0000F900FBE0F901F9018953FB7F8948091DA
:103CF000E5079091E607A091E707B091E80726B5A0
:103D0000A89B05C02F3F19F00196A11DB11D3FBF13
:103D1000BA2FA92F982F8827820F911DA11DB11DA1
:103D2000BC01CD0142E0660F771F881F991F4A959D
:103D3000D1F708958F929F92AF92BF92CF92DF9268
:103D4000EF92FF926B017C010E94751E4B015C019A
:103D5000C114D104E104F104F1F00E94751EDC01EC
:103D6000CB0188199909AA09BB09883E9340A1058E
:103D7000B10570F321E0C21AD108E108F10888EE1C
:103D8000880E83E0981EA11CB11CC114D104E1046B
:103D9000F10419F7DDCFFF90EF90DF90CF90BF9047
:103DA000AF909F908F9008951F920F920FB60F9231
:103DB00011242F933F938F939F93AF93BF93809141
:103DC000DF079091E007A091E107B091E207309101
:103DD000E40723E0230F2D3720F40196A11DB11D28
:103DE00005C026E8230F0296A11DB11D2093E4070C
:103DF0008093DF079093E007A093E107B093E20779
:103E00008091E5079091E607A091E707B091E80758
:103E10000196A11DB11D8093E5079093E607A0933D
:103E2000E707B093E807BF91AF919F918F913F91C2
:103E30002F910F900FBE0F901F9018950895FC01C1
:103E4000DB0118968C91189719969C91199790956B
:103E5000982384FF14C08485803118F48F5F848791
:103E60000FC0F89487E78093000880930108A89515
:103E700088E18093600088E080936000FFCF148623
:103E80008585803410F48F5F858793FF03C082E0BF
:103E900050968C9308950895FC01DB0119968C913E
:103EA0001997809518969C911897892399F0848585
:103EB000882311F08CE78487948591110EC081E0EE
:103EC000848780E48093900081E49FE09093990040
:103ED0008093980094859923B1F09F5F94879530E3
:103EE00059F09D3761F0923071F480E596E490933B
:103EF000990080939800089510929000089581E0B1
:103F000050968C9308950895CF93DF93EC0142E986
:103F100056E16AEF7FEF80E090E00E94071B8D85FD
:103F2000803451F44EE456E165E370E080E390E0C4
:103F3000DF91CF910C94071BDF91CF9108954F92A1
:103F40005F926F927F928F929F92AF92BF92CF9229
:103F5000DF92EF92FF920F931F93CF93DF9300D0E6
:103F600000D0CDB7DEB7DC0139012C2DA02EB12C4D
:103F7000C5018A0F9B1F181619060CF0AEC1A03898
:103F8000B1050CF0AAC1FB01EE0DF11D1E161F06B6
:103F90000CF0A3C1603471050CF09FC141155105AF
:103FA00009F49BC1362F3770F32EFB0177FD37964E
:103FB00033E0F595E7953A95E1F73E2F77FF04C09A
:103FC000FF2011F03FEF3E0FB7FF05C0EE27FF27A0
:103FD000EA1BFB0B02C0E0E0F0E0803891051CF02A
:103FE00090E89A1B01C0902F9E1B632F032E000C9C
:103FF000770B3F3F1CF4162F109501C010E0DD2415
:10400000D3948E2D877009F4D12CE694E694E6942F
:10401000ED0C6E0D711D693071051CF088E0E82E05
:10402000E31AE11A310F60E83603A00DB11D112427
:10403000AE0FBF1F019FE00DF11D11244E0F5F1F3A
:1040400061E070E04B010F2C02C0880C991C0A94AF
:10405000E2F7233009F4FFC0B8F4213009F4B3C00B
:10406000223009F03AC18FEF889D8001899D100DA3
:104070001124009510951A8309832A81FD01EA5DB8
:10408000FD4F2F01E30E29C02A3FD1F12B3F09F04C
:1040900024C1FD01EA5DFD4F6F01E30E82C08491F2
:1040A000889D6001899DD00C1124DC82CB8237FD74
:1040B00005C0DB018C918023C82ACC92F11013C07B
:1040C00031966F5F7F4F8E2F841B891740F33F5FC0
:1040D0004A0D5B1DB0E84B0E511C3E1509F4FDC0A6
:1040E000B201FA01F0CF37305CF76B01B0E8CB0ECC
:1040F000D11CD6018C9182237C8087298C93E0CFC0
:10410000FD01EA5DFD4F6F01E30E3E1509F4E5C0C8
:104110008601FA018E2F841B8917F0F48491889D03
:10412000B001899D700D11247C836B8337FD04C021
:10413000D8018C91682B6C93FF2051F0373044F4F8
:10414000B80160587F4FDB012C918C81822B8C93BE
:1041500031960F5F1F4FDECF3F5F4A0D5B1DB0E80A
:10416000CB0ED11CD2CF8491889D8001899D100DEA
:1041700011241C830B8337FD05C00095DB018C9156
:1041800008230C93F11013C031966F5F7F4F8E2F71
:10419000841B891740F33F5F4A0D5B1DB0E8CB0ECF
:1041A000D11C3E1509F499C0B601FA01F0CF3730A1
:1041B0005CF78B0100581F4F8C818095D8012C91A2
:1041C00082238C93E1CFB3016E0F7F1FAA5DBD4F99
:1041D000E30E3E1509F481C08D01C12CD12CC91606
:1041E00090F5FB01EC0DFD1DE491E89D3001E99D8A
:1041F000700C1124609470947A826982FA01EC0D3B
:10420000FD1DE491E89D2001E99D500C11245C8284
:104210004B8237FD05C0F801808168224628408224
:10422000FF2059F037304CF4F801E058FF4F20815F
:104230008A8182232C81822B8083FFEFCF1ADF0AB1
:104240000F5F1F4FCCCF3F5F4A0D5B1D6A0D7B1D7B
:10425000A058BF4FBECFC92ED12CE40FF51FAA5DC9
:10426000BD4F00E810E00C191D09AC18BD08A501F0
:10427000440F551F792F2E2D792ECF93DF93ED010B
:10428000EF96EF962296A590C590FF2059F0A89C36
:104290005001C89C600137302CF4E880D094ED20A8
:1042A000EB28E99233233AF0EC90C094EC20EA2812
:1042B000ED920C945C2111967A9529F72A9551F08C
:1042C000772D33951124E40FF11DA00FB11DC00F00
:1042D000D11DD9CFDF91CF9111240F900F900F9066
:1042E0000F90DF91CF911F910F91FF90EF90DF9092
:1042F000CF90BF90AF909F908F907F906F905F9086
:104300004F900895BC0180E090E00C949A1E8FB10C
:104310008095807F669B88601C9B846008950C94C8
:10432000FC251F93CF93DF93EC01162F0E94FC25F1
:10433000181739F0612FCE01DF91CF911F910C94A6
:104340001626DF91CF911F91089560387105D0F442
:1043500040345105B8F4E4E9FAE180E1849FD001EA
:10436000A0781124A60F4770E40FF11D8491AA5D77
:10437000BD4F222319F06C91862B03C080956C9160
:1043800086238C930895EF92FF920F931F93CF9300
:10439000DF93EC017B0148E256E161E170E08FE2DE
:1043A00090E00E94071B4AE056E16AE170E08BE270
:1043B00090E00E94071B4AE056E16AE170E089E460
:1043C00090E00E94071B8C85811116C04AE056E1DF
:1043D0006AE170E08AE390E00E94071B4AEB55E136
:1043E0006EE270E08AE190E0DF91CF911F910F9132
:1043F000FF90EF900C94071B4CE955E16AE170E0E7
:104400008AE390E00E94071B49E755E16EE270E005
:104410008CE290E00E94071B8C856FE00E94BE2614
:10442000082F0370CFE4D0E010E083E0E80EF11C29
:10443000011751F021E041E350E0BE01C7010E94A5
:10444000A5211F5F2296F4CFDF91CF911F910F918D
:10445000FF90EF90089586E296E00C941E17FC0101
:104460008BE791E091838083158214828FE691E03F
:104470009383828387E0838781E082871782108617
:10448000168281870895789484B5826084BD84B54E
:10449000816084BD85B5826085BD85B5816085BD3F
:1044A00080916E00816080936E00109281008091F7
:1044B000810082608093810080918100816080937F
:1044C00081008091800081608093800080919100C4
:1044D000826080939100809191008160809391002F
:1044E000809190008160809390008091C1008460F1
:1044F0008093C1008091C10082608093C10080914F
:10450000C10081608093C1008091C300816080936D
:10451000C3008091C00082608093C0008091C2007F
:1045200081608093C20080917A00846080937A00D9
:1045300080917A00826080937A0080917A00816015
:1045400080937A0080917A00806880937A0010923C
:1045500025021092E307109223028091D700816018
:104560008093D70080EA8093D80089B5806189BDA7
:1045700089B5826089BD09B400FEFDCF61E070E0BD
:1045800080E090E00E949A1E8091D8008F7C80612C
:104590008093D8008091E000807F8093E00080913C
:1045A000E1008E7E8093E1008DE08093E200559AD9
:1045B000209A81EC80937C0085B1806F85B984B1AD
:1045C000877E84B984B1876E84B95E9A5F988AB118
:1045D000806D8AB9769A6E9881B3806F81BB899815
:1045E00080B38D7080BB80E58CBD81E08DBD85E0A2
:1045F00090E00E9482215F9A85E090E00E948221F3
:104600005E985C98E7EFF4E184918EBD00000DB4F4
:1046100007FEFDCF319685E1E430F807A9F75C9AF3
:1046200081E88093640080916500816080936500DB
:104630000E94872187FF24C05C9885EA8EBD000018
:104640000DB407FEFDCF5C9A2E982F982D9880917F
:10465000640080628093640081E083BF889513BE0C
:10466000FCCF2D980E9487218478843871F00E94B5
:10467000872184718431F9F088EC90E00E948221D6
:104680000E94872182FDEDCF2CC02D9A88EC90E00E
:104690000E9482212F986FEF82E090E00E9491218A
:1046A00084EF91E00E9482212F9A0E9487218478D2
:1046B0008438D9F3DCCF2D9A88EC90E00E948221D7
:1046C0002E9860E082E090E00E94912184EF91E0DA
:1046D0000E9482212E9A0E94872184718431D9F30D
:1046E000CBCF2D9A82E090E00E948F21882319F091
:1046F0003E9A3F9A02C03E983F9884E180933006EC
:10470000809164008E7F8093640080917A00806441
:1047100080937A0080917A0086FDFCCFC09178006A
:10472000D09179000E94751E8E0120E030E0980142
:1047300011270027600F711F821F931F61157105DC
:104740008105910511F00E94F3258091640081603C
:104750008093640082EC91E00E94FC25C82F83ECDA
:1047600091E00E94FC25C03579F4833469F41092FD
:104770003606C1E006E212E080E0E82E80E0F82E86
:10478000D1E092E0D92E2AC060E582EC91E00E944F
:10479000042663E483EC91E00E94042660E084EC4C
:1047A00091E00E940426C9ECD3E060E0CE010E94B3
:1047B00091212196C83C94E0D907B9F7D8CF9091C0
:1047C0003006891720F58F5F891718F4C3BF8895C5
:1047D00013BEE114F10411F00E9400008FB7F894A9
:1047E0004091DF075091E0076091E1077091E20787
:1047F0008FBF80913106942F981B892F909132069C
:104800009923E9F28093330610923206E2CFD093D7
:1048100032064093310680912C0690912D06019628
:1048200090932D0680932C0680912E0680932F0660
:104830000E94872180932E06809136068230B9F13E
:1048400028F4882351F08130E9F081C0833009F4E5
:104850004BC0843009F465C07AC080913506882346
:1048600021F0109228061092350666E276E085E483
:1048700096E00E944C1F66E276E085E496E00E9496
:10488000C32165C090913506913021F080932806B0
:104890008093350666E276E087E396E00E941F1F6C
:1048A00066E276E087E396E00E94841F50C0909114
:1048B0003506923061F08093280666E276E082E564
:1048C00096E00E94ED0E809136068093350666E2F2
:1048D00076E082E596E00E94821066E276E082E56C
:1048E00096E00E94980D33C090913506933061F0A8
:1048F0008093280666E276E080E696E00E94E9165C
:10490000809136068093350666E276E080E696E092
:104910000E94170F66E276E080E696E00E943A1267
:1049200016C090913506943031F080932806D092CD
:1049300082078093350666E276E084E797E00E947E
:104940007A0D66E276E084E797E00E94B80FF801FE
:1049500080E098E000800EBCC111012C019780FD21
:10496000FDCF0192B9F70DB434CFCF93DF93EFE8C9
:10497000F7E01382128288EE93E0A0E0B0E0848337
:104980009583A683B78387E991E0918380838FEF36
:104990009FEF95878487C6E2D6E01886198680E166
:1049A0008A871F821E821C8689EF91E09C838B83FD
:1049B0001E8687E092E09983888387E396E00E94D1
:1049C0002F2289EE91E09A8B898B1D8E1E8E85E4B5
:1049D00096E00E942F2289ED91E098A38F8F1BA66D
:1049E00082E596E00E942F2289EC91E09DA78CA79A
:1049F00019AE18AE80E696E00E942F2289EB91E076
:104A00009BAF8AAF10926C0610926D0610926E07E3
:104A100010926F0710927007109271071092720730
:104A20001092730784E797E00E942F2289EA91E0B1
:104A300090937507809374071092800710928107F6
:104A400010928207DF91CF910895DF92EF92FF924B
:104A50000F931F93CF93DF93D82EF92EE42E062FBA
:104A600010E0C8010196880F0E94311B83E00E946C
:104A7000311BCD2DDF2D0C0F1D1FC017D10789F065
:104A8000E7FE03C0FE01849101C088810E94311BB2
:104A9000F82E80E00E94311B8F2121968111EDCFED
:104AA00001C081E0DF91CF911F910F91FF90EF90B6
:104AB000DF9008958F929F92AF92BF92CF92DF9234
:104AC000EF92FF92CF93DF93EC01688179818A8125
:104AD0009B81611571058105910521F464E279EDF1
:104AE0008BE597E02DE133EF41E050E00E94242672
:104AF00049015A019B01AC01A7EAB1E40E94432697
:104B00006B017C01ACEEB4EFA50194010E9451262B
:104B1000DC01CB018C0D9D1DAE1DBF1DB7FF03C079
:104B20000197A109B04888839983AA83BB83BC01FC
:104B3000CD019F77DF91CF91FF90EF90DF90CF90E5
:104B4000BF90AF909F908F9008958F929F92AF9259
:104B5000BF92CF92DF92EF92FF9260910C01709121
:104B60000D0180910E0190910F0161157105810574
:104B7000910521F464E279ED8BE597E02DE133EFC7
:104B800041E050E00E94242649015A019B01AC01FA
:104B9000A7EAB1E40E9443266B017C01ACEEB4EFBE
:104BA000A50194010E945126DC01CB018C0D9D1DB5
:104BB000AE1DBF1DB7FF03C00197A109B048809388
:104BC0000C0190930D01A0930E01B0930F01BC0155
:104BD000CD019F77FF90EF90DF90CF90BF90AF9087
:104BE0009F908F90089560930C0170930D018093B6
:104BF0000E0190930F010895F999FECF92BD81BDEA
:104C0000F89A992780B50895262FF999FECF92BD7D
:104C100081BDF89A019700B4021639F01FBA20BD81
:104C20000FB6F894FA9AF99A0FBE0895262FF999BB
:104C3000FECF1FBA92BD81BD20BD0FB6F894FA9A7F
:104C4000F99A0FBE01960895052E97FB1EF4009465
:104C50000E943B2657FD07D00E948D2607FC03D0FB
:104C60004EF40C943B2650954095309521953F4F3E
:104C70004F4F5F4F089590958095709561957F4F48
:104C80008F4F9F4F08950E94AF26A59F900DB49F10
:104C9000900DA49F800D911D11240895B7FF0C94D1
:104CA00043260E944326821B930B08952F923F9226
:104CB0004F925F926F927F928F929F92AF92BF922C
:104CC000CF92DF92EF92FF920F931F93CF93DF93D8
:104CD000CDB7DEB7CA1BDB0B0FB6F894DEBF0FBE35
:104CE000CDBF09942A88398848885F846E847D8482
:104CF0008C849B84AA84B984C884DF80EE80FD8084
:104D00000C811B81AA81B981CE0FD11D0FB6F894F9
:104D1000DEBF0FBECDBFED010895A1E21A2EAA1B82
:104D2000BB1BFD010DC0AA1FBB1FEE1FFF1FA2175B
:104D3000B307E407F50720F0A21BB30BE40BF50B58
:104D4000661F771F881F991F1A9469F760957095E1
:104D5000809590959B01AC01BD01CF010895A29F64
:104D6000B001B39FC001A39F700D811D1124911D3F
:104D7000B29F700D811D1124911D0895991B79E03A
:104D800004C0991F961708F0961B881F7A95C9F7DB
:104D900080950895AA1BBB1B51E107C0AA1FBB1F2A
:104DA000A617B70710F0A61BB70B881F991F5A95B7
:104DB000A9F780959095BC01CD010895EE0FFF1FD6
:104DC0000590F491E02D09940F931F93CF93DF93F7
:104DD0008230910510F482E090E0E091F007F091CC
:104DE000F10720E030E0A0E0B0E0309719F1408119
:104DF00051810281138148175907C8F0841795071C
:104E000069F4109731F012960C93129713961C9335
:104E100027C00093F0071093F10722C02115310538
:104E200019F04217530718F49A01BD01EF01DF0191
:104E3000F801DBCF21153105F9F0281B390B24309F
:104E4000310580F48A819B816115710521F0FB0198
:104E50009383828304C09093F1078093F007FE014F
:104E6000329644C0FE01E20FF31F819391932250CA
:104E70003109398328833AC02091EE073091EF073A
:104E8000232B41F420911201309113013093EF074D
:104E90002093EE0720911001309111012115310569
:104EA00041F42DB73EB74091140150911501241BD8
:104EB000350BE091EE07F091EF07E217F307A0F44E
:104EC0002E1B3F0B2817390778F0AC014E5F5F4F60
:104ED0002417350748F04E0F5F1F5093EF0740939C
:104EE000EE078193919302C0E0E0F0E0CF01DF9103
:104EF000CF911F910F910895CF93DF93009709F4FD
:104F000081C0FC01329713821282A091F007B09108
:104F1000F107109781F420813181820F931F209136
:104F2000EE073091EF072817390751F5F093EF0797
:104F3000E093EE0767C0ED0120E030E0CE17DF0719
:104F400040F44A815B819E0141155105F1F0EA016F
:104F5000F5CFD383C28340815181840F951FC81739
:104F6000D90759F488819981840F951F02969183FE
:104F700080838A819B81938382832115310529F463
:104F8000F093F107E093F0073DC0E901FB83EA836A
:104F900049915991C40FD51FEC17FD0761F4808129
:104FA0009181840F951F0296E901998388838281FC
:104FB00093819B838A83E0E0F0E012968D919C912F
:104FC0001397009719F0FD01DC01F7CF8D919C91AB
:104FD00011979D012E5F3F4F820F931F2091EE0787
:104FE0003091EF072817390769F4309729F41092A8
:104FF000F1071092F00702C013821282B093EF07FC
:10500000A093EE07DF91CF910895A0E0B0E0EBE030
:10501000F8E20C945A26EC01009721F4CB010E948F
:10502000E426B4C0FC01E60FF71F9C0122503109B1
:10503000E217F30708F4A8C0D9010D911C9111974C
:1050400006171707B0F00530110508F49BC0C8011A
:1050500004978617970708F495C002501109061B9C
:10506000170B019311936D937C93CF010E947C27C2
:1050700089C05B01A01AB10A4C01800E911EA0915B
:10508000F007B091F107612C712CE12CF12C1097F5
:1050900009F446C08D919C911197A815B905B1F5F9
:1050A0006C0142E0C40ED11CCA14DB0478F14C013F
:1050B0008A189B08640142E0C40ED11C1296BC9071
:1050C00012971396AC91B5E0CB16D10440F0B282A2
:1050D000A38391828082D9016D937C9309C00E5F76
:1050E0001F4F800F911FF90191838083EB2DFA2FC1
:1050F000E114F10431F0D7011396FC93EE9312976B
:1051000041C0F093F107E093F0073CC068167906C0
:1051100008F43C017D0112960D90BC91A02DB7CFF3
:105120008091EE079091EF0788169906E1F46616D4
:105130007706C8F48091100190911101009741F415
:105140008DB79EB74091140150911501841B950BAA
:10515000E817F907C8F4F093EF07E093EE07F901B9
:10516000718360830FC0CB010E94E4267C0100970D
:1051700059F0A801BE010E94D028CE010E947C27D0
:10518000C70104C0CE0102C080E090E0CDB7DEB719
:10519000EEE00C94762681E090E0F8940C94E02800
:1051A000FB01DC0102C001900D9241505040D8F744
:1051B0000895FB01DC0101900D920020E1F70895B4
:1051C0001DE0CFE4DDE004C0FE010E94DE26219652
:0A51D000C035D107C9F7F894FFCFEE
:1051DA0000E1000000000000FFFFFFFF01000000E7
:1051EA000000F2078000000000000000000000003C
:1051FA00000200000000030000000004000000009C
:10520A00050000000003060000000700000000047B
:10521A00080000000306090000050A0000000B0050
:10522A0000000004080C00000D00000000070E003A
:10523A000000050A0F000004080C1000000000CC52
:10524A000F2217940D930D00000000000000009734
:10525A000D970D4C174C17000000004C172217949D
:10526A000D930D000000001819991939192E197F8C
:10527A00193D195B19000000001917AE0F8F0D9721
:10528A000D7A0DB80F000000001A17B00FE9169733
:10529A000D170F3A12000000001B17B20FED0E9700
:1052AA000D8210980D000000001C17B40F4B1F97B9
:1052BA000D4C1FC321000000001D17AC0F4B1F9798
:1052CA000D1F1F841F000000001E1F000000002188
:1052DA0017B60F000000001E171F1700C1808100BB
:1052EA000000300050757A7A6C6573200078000AE5
:0252FA000000B2
:00000001FF
