:100000000C94C8160C94F0160C94F0160C94F01680
:100010000C94F0160C94F0160C94F0160C94F01648
:100020000C94F0160C94F0160C94A31E0C94151F4F
:100030000C94F0160C94F0160C94F0160C94F01628
:100040000C94F0160C94F0160C94F0160C94F01618
:100050000C94F0160C94F0160C94F0160C948C275B
:100060000C94F0160C94F0160C94F0160C94F016F8
:100070000C94F0160C94F0160C94F0160C94F016E8
:100080000C94F0160C94F0160C94F0160C94F016D8
:100090000C94F0160C94F0160C94F0160C94F016C8
:1000A0000C94F0160C94F0160C94F016101001013C
:1000B0000000000000000000000000000000000040
:1000C0000000000000000000000000000000101010
:1000D00000FF01FD05F555555555545450F00000ED
:1000E000000F003F00FFD5D5D5FD05753517000081
:1000F0001010C02020107CC28109191A693688901E
:1001000090600031494945320A080808050509127E
:1001100009061010F0E83D9655D6AD7E7DAED55659
:10012000953EE8F0511BC63D6CD892D090D0986CAB
:100130003DC61B51101000008040A0A2D4F4E8F48A
:10014000726562C08000BC50AF5FBF3FBF39B03640
:10015000B93DBD5EAFF010100008F4FA3D3AC2FDA3
:10016000FE1E1DFA44BEC280001639717274FBDB9C
:10017000DBDAED6E7733171F1010000000F20D521E
:10018000A5369428289060800000000078C51A00E9
:10019000FD3B3BF900D3E03708000F0F80C0C07E65
:1001A000777EF8C0C0C08080E0F0800001013F771A
:1001B0003F0F01010100000307001010804050D0E4
:1001C0008040F95C5DF94080D05040800001012101
:1001D0006F21272C2C27216F210101001010000016
:1001E0000018A464220A02010638408000000000C2
:1001F00000000F907F84600004FF100F00001010BB
:10020000008070086432B9D9CD4DCD4DC9421CE093
:10021000C0CF50A74E181DB73326272607A651CEAC
:100220001010040A010A10208040E0E0C000000025
:10023000000000000000000307073E7DF3F3BFDF6E
:100240006E3C0C0C1E6786081020408000000000E9
:100250000000010202040408090E0E040C0C124AEC
:1002600029A595555595A5294A1200000104020AB1
:100270000A02040100000C0CF8663169E9B1A1E141
:10028000612166F8030F0A0F030202030F0A0F032E
:100290000C0C0609D12204080404629209070C0B15
:1002A0000804020101020C0403010C0C0804C2E161
:1002B000B214080281228408000400010307060E1C
:1002C0000C0C08080C0C3FCFC7333939C6C6CC38E4
:1002D00030C000000103060609090C0E0F0F0C0CBC
:1002E000FF0155015501FF00545204F80F000500AD
:1002F00005000F000505000F0C0C000000A0530FB7
:100300000F53A0000000000003060E0E0E0E0603A1
:1003100000000C0C22A4889B1B4824A2A0A020A0B3
:100320000504020409090504020405040C0CFB037E
:100330006461218D1D41616403FB0D0C0208080BF3
:100340000B0808020C0D0C0C03027F6B556BD5EBF0
:10035000556B557F0000060F0F060000060F0F06B5
:100360000C0CE0F8FFE6E43C3CE4E6FFF8E00100BA
:100370000B070B01010B070B00010C0C541494D458
:10038000C0FF0545555054540504010303010405FD
:10039000050505050C0CAA10C3F43EFAFFFA3EF45D
:1003A000C3080A00070700030703000707000C0C37
:1003B000F80432393D3DC1C1C1C204F8010204084C
:1003C00008080B0B090402010C0C008044DFFFDF5E
:1003D0004440401CFC1C0100000F0B030E080000F1
:1003E0000F000C0CFF015555555501FF040408F092
:1003F0000D0D010D0D0107010D0D01070C0C0C0079
:100400006D6D000C0C804C4C202C00000B0B000C74
:100410000300000000000C0CAA003C7E66FFFF6693
:10042000EECC00550A000307060F0F060703000570
:100430000C0C01FE06FA9A6A6A9AFA06FE0108078F
:10044000060505050505050607080C0CB8BCBE80A9
:10045000FF80B8BE80FF80800304080A080A080AEB
:10046000080402010C0C60F0F06006EFEF0660F08B
:10047000F0600000080C0E0F0F0E0C0800000C0CB2
:10048000009F90FC9A9C9AFC909F00AA000707018D
:10049000030703010707000A0C0C01CC9E3E7EFCFB
:1004A000F8F2E6CE9C0108030707060401030707DC
:1004B00003080B0B30C02E11151115112EC0300082
:1004C000050604060006040605000B0B0007FFFFE7
:1004D000FFFF777777070700070707070707000081
:1004E00000000B0BC0E0F0F0F0E4C2092412090197
:1004F000030707070301000000000B0B1C2241410A
:1005000041221C000808F800000007040404040449
:1005100004070B0BF8FFFECCC878C8CCFEFFF8012F
:10052000030705050505050703010B0B2030F83C03
:100530003EFF3E3CF8302000000704040707070791
:1005400000000B0B00F40A11151511110AF400003C
:10055000010204040404040201000B0B0810102122
:1005600026F82020705070000000000705070000EA
:1005700000000B0BFF01A10FA90AFC005555550700
:10058000040404040407000505050B0B0007CFE86D
:100590003EFEC80F0700000400050100030300042D
:1005A00000040B0BBF81A1A1212FE009090BF80763
:1005B000040407000203000101010B0BD54000FFFA
:1005C000818181818181FF07040404060004000405
:1005D00000040B0B003D60FD80FD80FD603D0000D0
:1005E000000004050705040000000B0B1C3E7C7096
:1005F000FEFFFE80FCFEFC0000000007070703036F
:1006000001000B0B008040281C987CFE5F0F070741
:10061000040402010000000000000B0B1F214191A7
:100620003972E44810A040000000000102040201F9
:1006300000000B0BF804525204F804525204F8075D
:10064000020101020702010102070B0B7CFEFFC33E
:10065000C37FC3C3FFFE7C00000707010701070734
:1006600000000B0B00EEFAEE20FE04F80020200044
:10067000070107000301000000000B0B607864E233
:10068000627E6000FF000002070200020702000312
:1006900002020B0BFF01DD5D5DDDDDDDDD01FF072E
:1006A000040704040707070704070B0BF0F89C0E68
:1006B0000300FF01FD01FF0103030606040102041C
:1006C00002010B0B40605048FE01FE4850604000A4
:1006D000000406050405060400000B0BE010FA6C8C
:1006E0007878786CFA10E000000001010001010048
:1006F00000000A0A007CFDFEFDFE7C0038000202BC
:1007000002020202020200000A0A0080C080387D54
:10071000EEBCEE79020301030302030100000A0AA2
:10072000080C14FEF4E0C000E01000000203030314
:10073000030200000A0A1C3870F8FEFBF9F9FBFE00
:10074000000000010303030303010A0A204080FCA8
:10075000C0FFE0FFC0FC000000010303030303012E
:100760000A0A484472C1F24448427F420000000134
:100770000303020000000A0A00FC0209BD8981028D
:10078000FC00000302020202020203000A0A78844B
:100790003231FDFD31328478000001020202020193
:1007A00000000A0A00FF555D55F735BDB5BF0003CF
:1007B00003030303000301000A0A00000E1FF9F9F6
:1007C0009F8E0000000000000303020200000A0ADE
:1007D000F1FACCCC7C7CCCCCFAF10301030103030D
:1007E000010301030A0A784651C6613E080808F869
:1007F000000203030101010203030A0A1018FC1E90
:10080000FF9F9EFC18100000030203030303000077
:100810000A0AC1673962C4386C446C3801030203A8
:100820000100000000000A0A0000FFA9F9A9F9A9C7
:10083000FF00000003020302030203000A0AE07043
:10084000B07EF2F272B67CF00001030100000103F9
:1008500001000A0A01FF45FC8249458902FC0003A8
:1008600000000000000001010A0A406070FC3F3FE8
:10087000FC706040000002000303000200000A0A4E
:1008800078FCFE8F05050D1B961C0000010303027A
:10089000020100000A0AFCB63331FFFF3133B6FC17
:1008A000000103020303020301000A0A0E1F5F9FF7
:1008B0000EC0242821C20102000000010202020130
:1008C0000A0AF03CEE3BBFBF3BEE3CF000000002EA
:1008D0000303020000000A0A90DEDE9E3E9ED4D48E
:1008E0009424010303010001030301000A0A0C1E02
:1008F0003F3F9E0C4090204000000000000102009D
:1009000001020909000F10A7CFA7100F0000000176
:100910000101010100000909048E5F0E44E0F4E2C8
:100920004101000000000001000009090C5ED380B5
:100930003F009FDE5C000000010101010000090989
:10094000004CDEDFDFF7F66400000000010101006B
:1009500000000909806018E6F3E6186080010100D4
:10096000000100000101090900DFB6A4B6DF6060E4
:10097000F8010100000001010001090982FD82BAAD
:10098000BABA827F8200010000000000010009095C
:1009900007091EBFFFBF1E09070000010101010179
:1009A00000000909C02070F86C3E1B0E0401010113
:1009B0000000000000000909CCEEA6F7B7F7A6EE8C
:1009C000CC01010001000100010109097CDA933327
:1009D0003B3393DA7C0000010101010100000909A9
:1009E0007CF6F3F1FF1F9FDE7C0000010101010195
:1009F0000000090910D6D600C700D6D610000000A6
:100A00000001000000000909008040201C1C1E0796
:100A10000301000000000000000009090E1B15374B
:100A20007AF0E0C0000000000000000101010909A7
:100A30007C9E33333F33339E7C0000010101010172
:100A40000000090900605876FD6E78600001010120
:100A5000010101010101090910FE9282D78292FE73
:100A6000100000000001000000000909C62929C685
:100A700010C62929C6000101000000010100090972
:100A8000C22E2ACE18C82A2CC8000101000000017D
:100A9000010009093CC2094D414D09C23C00000159
:100AA00001010101000009091E3F7FFFFEDF6F3BCE
:100AB0001E00000000010000000009097EF1F17134
:100AC000DF71F1F17E00010100010001010009095F
:100AD0004E5959899F8959594E0101010000000161
:100AE000010108083C3CDBFFFFDB3C3C0808DFDF82
:100AF000D8FFFF1BFBFB0808FF7E3C18FC5C7C1C3E
:100B00000808060F2FA6904C201808081E3360C254
:100B1000878ADC4808083C7EF3E1C0C460310808DD
:100B2000003872E1E17238000808001E3BF3F33B25
:100B30001E000808E0C0983C3C19030708083C2444
:100B4000E78181E7243C08081E3F7FFEDE6F331EED
:100B50000808060979BEBE7909060808DB5A182478
:100B6000242424180808619689A8A8899661080891
:100B7000C3990042420099C30808815A3C66663C0A
:100B80005A810808C0982442422419030808101802
:100B90009CFFFF9C181008081008E43F3FE4081071
:100BA00008083C638AA0A08A631C080803070E1C7F
:100BB0001820C0C0080800708DB1B18D7000080801
:100BC00060C0D8DCDCD8C0600808387CFCFD7BBC89
:100BD0007C3807073D78607A707D380707081C224B
:100BE00063221C080707080C7E7F7E0C0807071E7F
:100BF00079396F39791E07070E1F3F7E3F1F0E0799
:100C0000071F1D77535F447C07071C3E5F5F6F32F1
:100C10001C0707071527087254700707775D7722AE
:100C2000775D770707080C0E3F4E2C08070718045E
:100C30005F1D5F041807070822004D1022080707F0
:100C40007F69596959697F0707397F39383F613FA3
:100C500007076B41085D08416B07071C1477417754
:100C6000141C0707775D7505755D77070773517C61
:100C7000141F4567070704487A1F7A480407071EB0
:100C8000785C1C7F4F0607070036006300360007BC
:100C9000076363000800636307071C225549552258
:100CA0001C07071C22555155221C060610381C0D26
:100CB000010706060C123F213F0C0606041E2727DB
:100CC0001E0406062C3E0F0F3E2C0606071D270AA3
:100CD000122406060F09392F243C06063F002D2D4D
:100CE000003F06060002253D020006060F3C0C3FB1
:100CF0000F0606062B0B3807343506061B0F063B7E
:100D000019080606123300003312060633330000BA
:100D100033330606180C2633190C060602263F3F0D
:100D200026020606032438382403060621120C0C7A
:100D3000122106060C002D2D000C0606211E121293
:100D40001E2106063C220909223C06063F090F0F18
:100D50000F0F06063F0F0D0F311106060C12212151
:100D6000120C06060C1E3F3F1E0C05051B1B041B28
:100D70001B05050E1B1F1D0E050503061F0603059B
:100D8000051C1516151C05050C181E1E040505006E
:100D9000121D12000505021E020E1205051E1E1E62
:100DA0000A0E0505081A1F1A08050512191E191240
:100DB0000505001F0D1F00050504061F1604050587
:100DC000011E0B1E010505100E1B0E1005050E1F42
:100DD0001B110005051E0C0F1E0605051E181D1E05
:100DE0001C0505041E171E040505160D0F0D16051E
:100DF00005061D1F1D0605051E071F071E05051CF0
:100E00000E070E1C0505070F1E0F0705051F111104
:100E1000111F03081F051F1F151B1F11111F110E86
:100E20001F15111F05011F111D1F041F001F00109A
:100E3000101F1F041B1F10101F061F1F011F1F1153
:100E40001F1F05071F311F1F051B17151D011F0140
:100E50001F101F0F100F1F0C1F1B041B071C07194F
:100E600015130C121E1F120C1E12120C121F0C1A3C
:100E700014041F052E2A1E1F021C001D00201D0029
:100E80001F041A011F001E041E1E021E1E121E3EFB
:100E9000120C0C123E1E020614120A020F121E1031
:100EA0001E0E100E1E081E1A041A2E281E1A1216C6
:100EB0001F111F00001F1D151711151F07041F17F5
:100EC000151D1F151D01011F1F151F17151F0017C9
:100ED00000001000040404040E040229060A0000A5
:100EE00005051F1F0F07030505000E060200FEFF84
:100EF000FFFFFFFFFFFFFFFFFFFFFFFFFFFFFFFF02
:100F0000FFFFFFFFFFFFFFFFFFFFFFFFFFFFFFFFF1
:100F1000FFFFFFFFFFFFFFFFFFFFFFFFFFFFFFFFE1
:100F2000FFFFFFFFFFFFFFFFFFFFFFFFFFFFFFFFD1
:100F3000FFFFFFFFFFFFFFFFFFFFFFFFFFFFFFFFC1
:100F4000FFFFFFFFFFFFFFFFFFFFFFFFFEFFFFFFB2
:100F5000FFFFFFFFFFFFFFFFFFFFFFFFFFFFFFFFA1
:100F6000FFFFFFFFFFFFFFFFFFFFFFFFFFFFFFFF91
:100F7000FFFFFFFFFFFFFFFFFFFFFFFFFFFFFFFF81
:100F8000FFFFFFFFFFFFFFFFFFFFFFFFFFFFFFFF71
:100F9000FFFFFFFFFFFFFFFFFFFFFFFFFFFFFFFF61
:100FA000FFFFFFFFFFFFFFFFFFFFFFFF7FFFFFFFD1
:100FB000FFFFFFFFFFFFFFFFFFFFFFFFFFFFFFFF41
:100FC000FFFFFFFFFFFFFFFFFFFFFFFFFFFFFFFF31
:100FD000FFFFFFFFFFFFFFFFFFFFFFFFFFFFFFFF21
:100FE000FFFFFFFFFFFFFFFFFFFFFFFFFFFFFFFF11
:100FF000FFFFFFFFFFFFFFFFFFFFFFFFFFFFFFFF01
:10100000FFFFFFFFFFFFFFFFFFFF7F5F1800FC02F6
:1010100002020202828282820202020202020202B0
:1010200002020202020202020202020202020202A0
:101030000202020202020202020282828282820210
:101040000202020202020202020202020202020280
:1010500002020202020202020202020202828282F0
:1010600082828202020202020202FC0000FF0000F1
:1010700000000080FFFF8080E0007CFE92929E5C7A
:101080000064F69292FE7C803E7EC0C07E3E007C74
:10109000FE92929E5C0000007FFF808088F97900BC
:1010A00064F69292FE7C8002FEFE02FEFC02FEFCD2
:1010B000007CFE92929E5C00000000030300B8B822
:1010C000080F07000000000000FF00003F40404004
:1010D0004040404040404040404040404040404010
:1010E0004040404040404040404040404040404000
:1010F00040404040404040404040404040404040F0
:1011000040404040404040404040404040404040DF
:1011100040404040404040404040404040404040CF
:1011200040404040404040403F00FEFFFFFFFFFF87
:10113000FFFFFFFFFFFFFFFFFFFFFFFFFFFFFFFFBF
:10114000FFFFFFFFFFFFFFFFFFFFFFFFFFFFFFFFAF
:10115000FFFFFFFFFFFFFFFFFFFFFFFFFFFFFFFF9F
:10116000FFFFFFFFFFFFFFFFFFFFFFFFFFFFFFFF8F
:10117000FFFFFFFFFFFFFFFFFFFFFFFFFFFFFFFF7F
:10118000FFFFFFFFFFFFFFFFFFFFFFFFFEFFFFFF70
:10119000FFFFFFFFFFFFFFFFFFFFFFFFFFFFFFFF5F
:1011A000FFFFFFFFFFFFFFFFFFFFFFFFFFFFFFFF4F
:1011B000FFFFFFFFFFFFFFFFFFFFFFFFFFFFFFFF3F
:1011C000FFFFFFFFFFFFFFFFFFFFFFFFFFFFFFFF2F
:1011D000FFFFFFFFFFFFFFFFFFFFFFFFFFFFFFFF1F
:1011E000FFFFFFFFFFFFFFFFFFFFFFFFFFFFFFFF0F
:1011F0007FFFFFFFFFFFFFFFFFFFFFFFFFFFFFFF7F
:10120000FFFFFFFFFFFFFFFFFFFFFFFFFFFFFFFFEE
:10121000FFFFFFFFFFFFFFFFFFFFFFFFFFFFFFFFDE
:10122000FFFFFFFFFFFFFFFFFFFFFFFFFFFFFFFFCE
:10123000FFFFFFFFFFFFFFFFFFFFFFFFFFFFFFFFBE
:10124000FFFFFFFFFFFFFFFFFFFFFFFFFFFFFFFFAE
:10125000FFFF7F631800FC02020282820202028208
:10126000820202020202020282828282020202825E
:1012700082828202020202020282828282020202CE
:10128000020202020202020202020202020202023E
:10129000020202020202028282020202028282022E
:1012A000020202F20A0A0A0A0A0A0A0A0A0A0A0ACE
:1012B0000A0A0A0AF202FC0000FF0000001FFFE019
:1012C0001CE0FF1F007CFE92929E1C8080FFFF802E
:1012D00080008080FFFF808000000000FFFF80C151
:1012E0007F3E007CFE8282FE7C00FEFE0202FEFC4F
:1012F000007CFE92929E1C000007DFDF07000007C3
:10130000DFDF07000000FF00000000000000000019
:1013100000000000000000FF00FF00003F404040D0
:1013200040404040404040404040404040404040BD
:1013300040404040404040404040404040404040AD
:10134000404040404040404040404040404040409D
:10135000404040404040404040404040404040408D
:101360004040404040404040404F5050505050500E
:10137000505050505050505050504F403F000B0E66
:10138000040EFD0DF60DEF0DE80DE10DDA0DD30D98
:10139000CC0DC50DBE0DB70DB00DA90DE80DA20DFC
:1013A0009B0D940D8D0D860D7F0D780D710D6A0DC1
:1013B000620D5A0D520D4A0D420D3A0D320D2A0D95
:1013C000220D1A0D120D0A0D020DFA0CF20C3A0D37
:1013D000EA0CE20CDA0CD20CCA0CC20CBA0CB20C3D
:1013E000AA0CA10C980C8F0C860C7D0C740C6B0C49
:1013F000620C590C500C470C3E0C350C2C0C230C79
:10140000740C1A0C110C080CFF0BF60BED0BE40B13
:10141000DB0BD20BC80BBE0BB40BAA0BA00B960BAD
:101420008C0B820B780B6E0B640B5A0B500B460B1C
:101430003C0B960B320B280B1E0B140B0A0B000BEC
:10144000F60AEC0AE20ACE0ABA0AA60A920A7E0A4A
:101450006A0A560A420A2E0A1A0A060AF209DE091E
:10146000CA09B6096A0AA2098E097A0966095209E7
:101470003E092A0916090209EC08D608C008AA087C
:1014800094087E08680852083C0826081008FA07E5
:10149000E407CE07B8077E08A2078C077607600727
:1014A0004A0734071E070807F206DA06C206AA062C
:1014B00092067A0662064A0632061A060206EA050D
:1014C000D205BA05A2058A05620672055A054205CB
:1014D0002A051205FA04E204CA04B20498047E0440
:1014E00064044A0430041604FC03E203C803AE0398
:1014F00094037A03600346032C0316041203F802D4
:10150000DE02C402AA02900276025C024202DA06FD
:10151000C206AA0692067A0662064A0632061A062B
:101520000206EA05D205BA05A2058A056206720519
:101530005A0542052A051205FA04E204CA04B20457
:10154000DA06C206AA0692067A0662064A0632063B
:101550001A060206EA05D205BA05A2058A05620640
:1015600072055A0542052A051205FA04E204CA0466
:10157000B204DA06C206AA0692067A0662064A068D
:1015800032061A060206EA05D205BA05A2058A0540
:10159000620672055A0542052A051205FA04E2049C
:1015A000CA04B2042002FE01DC01BA019A017801EA
:1015B000560134011201F000CE00AC00BA05A205BC
:1015C0008A05620672055A0542052A051205FA04C3
:1015D000E204CA04B20405050A150A150AD5F08DFD
:1015E00014A1C881CFD9F1AF2000080B000202027C
:1015F000010009040000010202000005240010019E
:101600000524010101042402060524060001070542
:10161000810310004009040100020A0000000705D0
:101620000202400000070583024000000403090491
:1016300012010002EF020140412336800001010245
:10164000030141726475696E6F204C4C4300417216
:101650006475696E6F204C656F6E6172646F001007
:101660001001010000000000000000000000000068
:10167000000000000000000000000000000000006A
:1016800000101000FF01FD05F555555555545450F7
:10169000F00000000F003F00FFD5D5D5FD057535E2
:1016A0001700001010C02020107CC28109191A698F
:1016B00036889090600031494945320A080808058B
:1016C00005091209061010F0E83D9655D6AD7E7D4D
:1016D000AED556953EE8F0511BC63D6CD892D090E1
:1016E000D0986C3DC61B51101000008040A0A2D4C1
:1016F000F4E8F4726562C08000BC50AF5FBF3FBFCA
:1017000039B036B93DBD5EAFF010100008F4FA3DB7
:101710003AC2FDFE1E1DFA44BEC280001639717227
:1017200074FBDBDBDAED6E7733171F10100000005F
:10173000F20D52A5369428289060800000000078B1
:10174000C51A00FD3B3BF900D3E03708000F0F80BE
:10175000C0C07E777EF8C0C0C08080E0F08000010D
:10176000013F773F0F0101010000030700101080C7
:101770004050D08040F95C5DF94080D050408000FE
:101780000101216F21272C2C27216F21010100103D
:101790001000000018A464220A02010638408000EC
:1017A00000000000000F907F84600004FF100F0015
:1017B000001010008070086432B9D9CD4DCD4DC9EC
:1017C000421CE0C0CF50A74E181DB733262726076E
:1017D000A651CE1010040A010A10208040E0E0C09B
:1017E000000000000000000000000307073E7DF33A
:1017F000F3BFDF6E3C0C0C1E678608102040800093
:101800000000000000010202040408090E0E040C8E
:101810000C124A29A595555595A5294A1200000193
:1018200004020A0A02040100000C0CF8663169E99E
:10183000B1A1E1612166F8030F0A0F030202030F51
:101840000A0F030C0C0609D1220408040462920951
:10185000070C0B0804020101020C0403010C0C0824
:1018600004C2E1B2140802812284080004000103CA
:1018700007060E0C0C08080C0C3FCFC7333939C6CD
:10188000C6CC3830C000000103060609090C0E0F53
:101890000F0C0CFF0155015501FF00545204F80FC5
:1018A00000050005000F000505000F0C0C000000EE
:1018B000A0530F0F53A0000000000003060E0E0EF1
:1018C0000E060300000C0C22A4889B1B4824A2A037
:1018D000A020A00504020409090504020405040C63
:1018E0000CFB036461218D1D41616403FB0D0C023F
:1018F00008080B0B0808020C0D0C0C03027F6B553B
:101900006BD5EB556B557F0000060F0F06000006E8
:101910000F0F060C0CE0F8FFE6E43C3CE4E6FFF8B1
:10192000E001000B070B01010B070B00010C0C542D
:101930001494D4C0FF0545555054540504010303C5
:10194000010405050505050C0CAA10C3F43EFAFFB9
:10195000FA3EF4C3080A000707000307030007075D
:10196000000C0CF80432393D3DC1C1C1C204F8017C
:1019700002040808080B0B090402010C0C00804447
:10198000DFFFDF4440401CFC1C0100000F0B030E76
:101990000800000F000C0CFF015555555501FF04C0
:1019A0000408F00D0D010D0D0107010D0D01070CCF
:1019B0000C0C006D6D000C0C804C4C202C00000BAE
:1019C0000B000C0300000000000C0CAA003C7E661B
:1019D000FFFF66EECC00550A000307060F0F06074F
:1019E0000300050C0C01FE06FA9A6A6A9AFA06FED2
:1019F000010807060505050505050607080C0CB8CE
:101A0000BCBE80FF80B8BE80FF80800304080A0847
:101A10000A080A080402010C0C60F0F06006EFEFFF
:101A20000660F0F0600000080C0E0F0F0E0C0800AE
:101A3000000C0C009F90FC9A9C9AFC909F00AA00BE
:101A4000070701030703010707000A0C0C01CC9EDE
:101A50003E7EFCF8F2E6CE9C01080307070604016F
:101A600003070703080B0B30C02E11151115112E9B
:101A7000C03000050604060006040605000B0B0036
:101A800007FFFFFFFF7777770707000707070707BD
:101A900007000000000B0BC0E0F0F0F0E4C20924E6
:101AA000120901030707070301000000000B0B1CCC
:101AB00022414141221C000808F8000000070404EC
:101AC00004040404070B0BF8FFFECCC878C8CCFE56
:101AD000FFF801030705050505050703010B0B20AA
:101AE00030F83C3EFF3E3CF830200000070404077D
:101AF00007070700000B0B00F40A11151511110A56
:101B0000F40000010204040404040201000B0B08A9
:101B100010102126F82020705070000000000705EA
:101B200007000000000B0BFF01A10FA90AFC0055E4
:101B3000555507040404040407000505050B0B00B4
:101B400007CFE83EFEC80F070000040005010003B0
:101B500003000400040B0BBF81A1A1212FE00909A0
:101B60000BF807040407000203000101010B0BD569
:101B70004000FF818181818181FF07040404060008
:101B800004000400040B0B003D60FD80FD80FD603F
:101B90003D0000000004050705040000000B0B1CBD
:101BA0003E7C70FEFFFE80FCFEFC0000000007078C
:101BB00007030301000B0B008040281C987CFE5F8C
:101BC0000F0707040402010000000000000B0B1FB8
:101BD0002141913972E44810A04000000000010248
:101BE00004020100000B0BF804525204F804525294
:101BF00004F807020101020702010102070B0B7C36
:101C0000FEFFC3C37FC3C3FFFE7C000007070107BD
:101C100001070700000B0B00EEFAEE20FE04F800AF
:101C2000202000070107000301000000000B0B60EB
:101C30007864E2627E6000FF000002070200020793
:101C400002000302020B0BFF01DD5D5DDDDDDDDD6A
:101C500001FF07040704040707070704070B0BF03D
:101C6000F89C0E0300FF01FD01FF010303060604BB
:101C700001020402010B0B40605048FE01FE485077
:101C8000604000000406050405060400000B0BE09C
:101C900010FA6C7878786CFA10E00000000101000E
:101CA00001010000000A0A007CFDFEFDFE7C0038F8
:101CB00000020202020202020200000A0A0080C0C0
:101CC00080387DEEBCEE79020301030302030100BC
:101CD000000A0A080C14FEF4E0C000E01000000244
:101CE000030303030200000A0A1C3870F8FEFBF924
:101CF000F9FBFE000000010303030303010A0A20AD
:101D00004080FCC0FFE0FFC0FC00000001030303B3
:101D10000303010A0A484472C1F24448427F420068
:101D20000000010303020000000A0A00FC0209BDD2
:101D3000898102FC00000302020202020203000A7F
:101D40000A78843231FDFD313284780000010202CC
:101D500002020100000A0A00FF555D55F735BDB5C6
:101D6000BF000303030303000301000A0A00000E7F
:101D70001FF9F99F8E00000000000003030202001B
:101D8000000A0AF1FACCCC7C7CCCCCFAF10301033A
:101D9000010303010301030A0A784651C6613E08A4
:101DA0000808F8000203030101010203030A0A10F4
:101DB00018FC1EFF9F9EFC18100000030203030383
:101DC0000300000A0AC1673962C4386C446C3801E8
:101DD0000302030100000000000A0A0000FFA9F945
:101DE000A9F9A9FF00000003020302030203000A8D
:101DF0000AE070B07EF2F272B67CF00001030100DE
:101E000000010301000A0A01FF45FC8249458902DD
:101E1000FC000300000000000001010A0A4060709D
:101E2000FC3F3FFC70604000000200030300020022
:101E3000000A0A78FCFE8F05050D1B961C000001A8
:101E4000030302020100000A0AFCB63331FFFF312E
:101E500033B6FC000103020303020301000A0A0E69
:101E60001F5F9F0EC0242821C20102000000010252
:101E70000202010A0AF03CEE3BBFBF3BEE3CF00021
:101E80000000020303020000000A0A90DEDE9E3E0C
:101E90009ED4D49424010303010001030301000A2A
:101EA0000A0C1E3F3F9E0C409020400000000000A6
:101EB00001020001020909000F10A7CFA7100F00AF
:101EC0000000010101010100000909048E5F0E44B8
:101ED000E0F4E24101000000000001000009090CEB
:101EE0005ED3803F009FDE5C000000010101010025
:101EF000000909004CDEDFDFF7F664000000000196
:101F000001010000000909806018E6F3E61860800E
:101F1000010100000100000101090900DFB6A4B6BB
:101F2000DF6060F801010000000101000109098281
:101F3000FD82BABABA827F8200010000000000016F
:101F400000090907091EBFFFBF1E090700000101A4
:101F500001010100000909C02070F86C3E1B0E044D
:101F60000101010000000000000909CCEEA6F7B74E
:101F7000F7A6EECC01010001000100010109097C76
:101F8000DA93333B3393DA7C000001010101010055
:101F90000009097CF6F3F1FF1F9FDE7C00000101C0
:101FA0000101010000090910D6D600C700D6D610DD
:101FB0000000000001000000000909008040201C12
:101FC0001C1E070301000000000000000009090EAC
:101FD0001B15377AF0E0C00000000000000001018E
:101FE0000109097C9E33333F33339E7C000001019D
:101FF0000101010000090900605876FD6E7860005B
:10200000010101010101010101090910FE9282D7BC
:102010008292FE100000000001000000000909C6C5
:102020002929C610C62929C60001010000000101A6
:10203000000909C22E2ACE18C82A2CC800010100A6
:10204000000001010009093CC2094D414D09C23C93
:1020500000000101010101000009091E3F7FFFFE90
:10206000DF6F3B1E00000000010000000009097E38
:10207000F1F171DF71F1F17E000101000100010158
:102080000009094E5959899F8959594E010101008A
:10209000000001010108083C3CDBFFFFDB3C3C0881
:1020A00008DFDFD8FFFF1BFBFB0808FF7E3C18FCA6
:1020B0005C7C1C0808060F2FA6904C201808081EF0
:1020C0003360C2878ADC4808083C7EF3E1C0C46004
:1020D000310808003872E1E17238000808001E3B40
:1020E000F3F33B1E000808E0C0983C3C19030708C6
:1020F000083C24E78181E7243C08081E3F7FFEDE80
:102100006F331E0808060979BEBE7909060808DB88
:102110005A1824242424180808619689A8A88996A6
:10212000610808C3990042420099C30808815A3CDB
:1021300066663C5A810808C0982442422419030864
:102140000810189CFFFF9C181008081008E43F3F77
:10215000E4081008083C638AA0A08A631C080803EE
:10216000070E1C1820C0C0080800708DB1B18D701A
:1021700000080860C0D8DCDCD8C0600808387CFCE7
:10218000FD7BBC7C3807073D78607A707D38070797
:10219000081C2263221C080707080C7E7F7E0C089F
:1021A00007071E79396F39791E07070E1F3F7E3FDB
:1021B0001F0E07071F1D77535F447C07071C3E5FF8
:1021C0005F6F321C070707152708725470070777DF
:1021D0005D7722775D770707080C0E3F4E2C0807C6
:1021E0000718045F1D5F041807070822004D10221E
:1021F0000807077F69596959697F0707397F3938A7
:102200003F613F07076B41085D08416B07071C14DE
:10221000774177141C0707775D7505755D770707AC
:1022200073517C141F4567070704487A1F7A4804D6
:1022300007071E785C1C7F4F060707003600630007
:10224000360007076363000800636307071C225515
:102250004955221C07071C22555155221C06061001
:10226000381C0D010706060C123F213F0C06060420
:102270001E27271E0406062C3E0F0F3E2C060607BF
:102280001D270A122406060F09392F243C06063F93
:10229000002D2D003F06060002253D020006060F18
:1022A0003C0C3F0F0606062B0B3807343506061B81
:1022B0000F063B19080606123300003312060633D8
:1022C00033000033330606180C2633190C060602B9
:1022D000263F3F260206060324383824030606213B
:1022E000120C0C122106060C002D2D000C060621E6
:1022F0001E12121E2106063C220909223C06063F38
:10230000090F0F0F0F06063F0F0D0F311106060CB8
:10231000122121120C06060C1E3F3F1E0C05051B48
:102320001B041B1B05050E1B1F1D0E050503061FA9
:10233000060305051C1516151C05050C181E1E04A4
:10234000050500121D12000505021E020E120505EC
:102350001E1E1E0A0E0505081A1F1A080505121969
:102360001E19120505001F0D1F00050504061F1686
:10237000040505011E0B1E010505100E1B0E1005A0
:10238000050E1F1B110005051E0C0F1E0605051E60
:10239000181D1E1C0505041E171E040505160D0F2D
:1023A0000D160505061D1F1D0605051E071F071E28
:1023B00005051C0E070E1C0505070F1E0F0705055A
:1023C0001F1111111F070301030703050201070372
:1023D000040607060502041414000000000000C0F3
:1023E000E030303030E0C0000000000000000000AD
:1023F0000000000000006C6E0703010000000000F8
:1024000000000000000000000000000000000000CC
:1024100000000000001616FF010101010101010189
:1024200001010101010101010101FFAA54FF0000A6
:10243000000000000000000000000000000000009C
:10244000FFAA550F182818281828182818281828FF
:102450001828182818281F2A15BE23B723B023A927
:1024600023A2239B2394238D2386237F2378237108
:10247000236A2363235C239B2355234E2347234056
:1024800023392332232B2324231D2315230D230536
:1024900023FD22F522ED22E522DD22D522CD22C523
:1024A00022BD22B522AD22A522ED229D2295228DAC
:1024B0002285227D2275226D2265225D2254224BC7
:1024C0002242223922302227221E2215220C2203E8
:1024D00022FA21F121E821DF21D6212722CD21C4B2
:1024E00021BB21B221A921A02197218E2185217B09
:1024F00021712167215D21532149213F2135212B64
:1025000021212117210D210321F920EF204921E567
:1025100020DB20D120C720BD20B320A9209F2095FB
:102520002081206D205920452031201D200920F5D3
:102530001FE11FCD1FB91FA51F911F7D1F691F1D03
:1025400020551F411F2D1F191F051FF11EDD1EC91C
:102550001EB51E9F1E891E731E5D1E471E311E1B4B
:102560001E051EEF1DD91DC31DAD1D971D811D6BC1
:102570001D311E551D3F1D291D131DFD1CE71CD1BE
:102580001CBB1CA51C8D1C751C5D1C451C2D1C1525
:102590001CFD1BE51BCD1BB51B9D1B851B6D1B551A
:1025A0001B3D1B151C251B0D1BF51ADD1AC51AAD8D
:1025B0001A951A7D1A651A4B1A311A171AFD19E362
:1025C00019C919AF1995197B19611947192D1913D3
:1025D00019F918DF18C919C518AB18911877185DC3
:1025E00018431829180F18F5178D1C751C5D1C450C
:1025F0001C2D1C151CFD1BE51BCD1BB51B9D1B8538
:102600001B6D1B551B3D1B151C251B0D1BF51ADDDA
:102610001AC51AAD1A951A7D1A651A8D1C751C5D9E
:102620001C451C2D1C151CFD1BE51BCD1BB51B9D46
:102630001B851B6D1B551B3D1B151C251B0D1BF501
:102640001ADD1AC51AAD1A951A7D1A651A8D1C75F0
:102650001C5D1C451C2D1C151CFD1BE51BCD1BB555
:102660001B9D1B851B6D1B551B3D1B151C251B0D29
:102670001BF51ADD1AC51AAD1A951A7D1A651AD3FB
:1026800017B1178F176D174D172B170917E716C5B9
:1026900016A31681165F166D1B551B3D1B151C25B9
:1026A0001B0D1BF51ADD1AC51AAD1A951A7D1A6590
:1026B0001A80108080808080808080808080008070
:1026C000008040A0A0A0A0A0A0A0A0A0A0A0A0A02A
:1026D000A0A0A0A0A0A0A0A0A0A0A0A0A0A0A0A0FA
:1026E000A0A0A0A0A0A0A0A0A0A0A0A0A0A0A0A0EA
:1026F000A0A0A0A0A0A0A0A0A0A0A0A0A0A0A0A0DA
:10270000A0A0A0A0A0A0A0A0A0A0A0A0A0A0A0A0C9
:10271000A0A0A0A0A0A0A0A0A0A0A0A0A0A0A0A0B9
:10272000A0A0A0A040800080008080808080808069
:10273000808080FFFFFFFFFFFFFFFFFF7FAA5500A4
:10274000FF00FFFFB9B0B286C6FF8080B6B6BEBE3E
:10275000FF8080BFBFBFBFFF8080B6B6BEBEFFC1D7
:1027600080BEBEBEDDFFFEFE8080FEFEE7E7FFFF0F
:102770009FE3ECE0838FFFFFE7E7FFFF8080F6F049
:10278000F9FFC080BFBFBFC0FF9E86A2B0BCFF9E46
:1027900086A2B0BCFF8080BFBFBFBFFF8080B6B63F
:1027A000BEBEFFFFFF00FF0055AA7FFFFFFFFFFF38
:1027B000FFFFFF8010FFFFFFFFFFFFFF00FF000094
:1027C0003E0A0E003C203C0034242C0034242C0013
:1027D000023E0000183428002824140000000000E5
:1027E00000000000000000000000000000000000E9
:1027F00000000000000000000000000000000000D9
:102800000000000000000000FF00000000000000C9
:102810000000000000000000000000000000002296
:10282000100804220000000000000000FF00FFFF6D
:10283000FFFFFFFFFF2F2F2F2F2F2F2F2F2E2D2D9D
:102840002D2D2D2D2D2D2D2D2D2D2D2D2D2D2D2DB8
:102850002D2D2D2D2D2D2D2D2D2D2D2D2D2D2D2DA8
:102860002D2D2D2D2D2D2D2D2D2D2D2D2D2D2D2D98
:102870002D2D2D2D2D2D2D2D2D2D2D2D2D2D2D2D88
:102880002D2D2D2D2D2D2D2D2C2D2D2D2D2D2D2D79
:102890002D2D2D2D2D2D2D2D2D2D2D2D2D2D2D2D68
:1028A0002D2D2D2D2D2D2D2D2D2D2D2D2E2F2F2F51
:1028B0002F2F2F2F2F21080F0F08080006090B06B6
:1028C000000E03030E000F090F06000F0F000F028A
:1028D000030F000E0F090D000E10BEBDBEBDBEBD24
:1028E000BEBDBEBDBEBDBE000004000400040004A9
:1028F0000004000400004E080F0D0702000F050F32
:102900000A000F0D0900020B0D00020B0D00000064
:1029100000000F0D0702000F0F0808000E03030E42
:1029200000030E0E0300000006090B06000F020351
:102930000F00000000010F0F010E03030E000F0D2A
:102940000702000F0D090E10A7C7A7C7A7C7A7C783
:10295000A7C7A7C7A70007070707070707070707AE
:102960000707070024080E1F1F1F0E0000000000AD
:102970000000000000001F0E040000000000000026
:102980000000040E1F00040E1F0080400000000025
:10299000000000F800000000000000000000F80047
:1029A000000000000000000000F80000000000002F
:1029B00000000000F800000000000000000000F827
:1029C00000000000000000000000F800000000000F
:1029D00000000000000000000000000000000000F7
:1029E00000000000000000000000000000000000E7
:1029F00000000000000000000000000000000000D7
:102A00000000000000000000000000000000005175
:102A1000010501FF01050115015101010101FF013E
:102A2000050115015501050101FF011501450115BC
:102A300001150101FF01050115015101010101FF0E
:102A400001050115015501050101FF0100014500C6
:102A50001501000101000001000101000101010058
:102A6000010100010100000001000100010101015C
:102A70000000000000000000000000000000000056
:102A8000000000000000000000000000000000093D
:102A90000808080F080809080809080808080F08A6
:102AA0000908080809080908080F08090809080999
:102AB000080808080F080809080809080808080F86
:102AC000080908080809080908080F08000809008B
:102AD00009080008080000080008080008080800A5
:102AE0000808000808000000080008000808080896
:102AF00000000000000000000000000000000000D6
:102B000000000000000000000000000000000000C5
:102B1000000000000000000000000000FEFEFEFEBD
:102B2000CE8686CEFEFE787800009CBEBEBEBE9CE1
:102B3000000000F8F8FEFE060606061E1E18180025
:102B400000F0F0F0F060606060E0E0808000008005
:102B500080E0E060606060E0E0808000008080E015
:102B6000E0606060606060606000008080E0E06065
:102B700060606060606060000000000000000000B5
:102B80000000000000000000000000000000000045
:102B90000000000000000000000000007F7F7F7F39
:102BA00001010101010100000000617F7F7F7F7F43
:102BB0006000001F1F7F7F606060607878181800D9
:102BC000007F7F7F7F000000000101010100001FE6
:102BD0001F7F7F606060607F7F1F1F0000616167F3
:102BE00067666666667E7E181800006161676766C4
:102BF0006666667E7E1818000000703010000000C7
:102C000000000000000000000000000000000000C4
:102C100000000000000000000000000000000000B4
:102C20000000000000000010101010100010001034
:102C30000000001010001010001010100010100004
:102C400010000010100010900090100010F01010F4
:102C50009010901010109010F01010101090101094
:102C6000901010F010101010901090109010F010A4
:102C7000109010901010109010F010101010901074
:102C800010901010F01010109000000000000000D4
:102C90000000000000000000000000000000000034
:102CA0000000000000000000808080800080008024
:102CB0000000008080008080008080800080800094
:102CC00080000080800080A800A2800080FF8080BB
:102CD000A080AA80A880A080FF808080808A80A8B1
:102CE00080A080FF8080A880A880A280A880FF802C
:102CF00080A080AA80A880A080FF808080808A80B9
:102D0000A880A080FF80A0808A0000000000000052
:102D100000000000000000000000000000000000B3
:102D200000000000000000000000000000000000A3
:102D30000000000000000000000000000000000093
:102D4000000000000000000000000000001F000064
:102D500000000000000000001F0000000000000054
:102D60000000001F000000000000000000001F0025
:102D70000000000000000000001F00000000000034
:102D8000000000001F00000000000000512F852CF3
:102D900011241FBECFEFDAE0DEBFCDBF12E0A0E00E
:102DA000B1E0E2ECF6E602C005900D92AA31B1075F
:102DB000D9F727E0AAE1B2E001C01D92AE3EB2070A
:102DC000E1F716E1C7ECD6E104C02197FE010E94AD
:102DD0005231C63CD107C9F70E949D2C0C94543344
:102DE0000C940000DC01FB019185909520859223D5
:102DF00093FF0CC01E968C911E97811102C083E038
:102E0000808B1E968C91813009F4808B089522E08E
:102E1000FC0126870895089580E090E008950895C4
:102E20000C94F0310C94F0310C94F0310C94F0319E
:102E30000C94F0310C94F031CF93DF9361E070E0AB
:102E400080E090E00E947932EC01009721F064E18B
:102E500072E00E944D33CE01DF91CF910C94F0319E
:102E6000CF92EF920F931F93CF93DF93FC016A30C1
:102E700039F48581848396818185890F86839DC0FD
:102E8000A4816E3719F4AF5FA48397C0962FEF012A
:102E900066816F5F9A3380F4903310F59B3219F19D
:102EA00018F4913221F156C09D3209F459C09E3276
:102EB00009F050C01FE31CC09B3548F4913470F4F6
:102EC0009A3399F09F3309F045C012E411C08FE99D
:102ED000890F8A3108F03EC019EB03C01FEB01C017
:102EE00014E0190F05C011E403C013E401C01EE390
:102EF0008F81062E000C770B0A2E000CBB0B813045
:102F0000A1F5E2E1FEE00491E3E1FEE0E4901123AB
:102F100049F121E030E08E2D877011F420E030E09F
:102F20008E2D869586958695280F311D029FF0017E
:102F3000039FF00D11249F011203A001139F500D58
:102F400011244C5E514F9AEFC92E20E030E0CD01A4
:102F50000E94D62788858D5F9C81890F8C832DC028
:102F600010E4C6CF44E15EE0EECFE2E1FEE0049182
:102F7000E3E1FEE0E4901123D9F021E030E08E2D72
:102F8000877011F420E030E08E2D86958695869529
:102F9000280F311D029FF001039FF00D11249F01A6
:102FA0001203A001139F500D11244C5E514F02C01B
:102FB00044E15EE08BEFC82EC8CF81E090E0DF9166
:102FC000CF911F910F91EF90CF9008952F923F9244
:102FD0004F925F926F927F928F929F92AF92BF9229
:102FE000CF92DF92EF92FF920F931F93CF93DF93D5
:102FF000CDB7DEB72C970FB6F894DEBF0FBECDBFAE
:103000008C018AE990E00E94F32AF82E8BE990E087
:103010000E94F32A382E580182E0A80EB11CEF2D31
:10302000F0E0FC87EB87C12CD12C212CCE0101963E
:103030004C01FE013996FA87E98723100DC00E571F
:103040001F4FE12C88E0482ECE0101966C014E0105
:1030500099E0890E911C5DC0F40188E011928A9577
:10306000E9F736019EE9690E711C412C512CEE24C2
:10307000EA944F1461F0C3010E94F32A8F7058162E
:1030800051F08130B1F4E394E8E0EE1207C0FE01A4
:103090003196D50114C0F1E05F120CC0F401EE0DC1
:1030A000F11DE7FCFA9580818F5F8083552453944E
:1030B00001C0582E43948FEF681A780ADACF8191B5
:1030C0008D9389859A85E817F907C9F7239498E0C5
:1030D000A90EB11CEB85FC85CE0EDF1EAECFC5015F
:1030E0007F9C800D911D11240E94F32A8F7058122D
:1030F00021C0F1E05F1621F17394731480F3F6019F
:10310000D80181918D93E815F905D9F7E394085F0B
:103110001F4FEF1411F1F601842D11928A95E9F7F2
:10312000712C512C66246A94AE2CB12C9EE9A90E08
:10313000B11CE3CF813079F46394E8E06E16F9F2C4
:10314000F601E60DF11D67FCFA9580818F5F8083A3
:1031500055245394D1CF582ECFCF2C960FB6F89438
:10316000DEBF0FBECDBFDF91CF911F910F91FF90BA
:10317000EF90DF90CF90BF90AF909F908F907F9017
:103180006F905F904F903F902F9008951F93CF9333
:10319000DF93EC018CE990E00E94F32A182FFE01E6
:1031A000E25FFE4F80838DE990E00E94F32AFE01EA
:1031B000E15FFE4F80833296912F990F990F190F7F
:1031C0001D5F1083319797E0899F802D11248E5FBA
:1031D00080833396108233961082349710821C8637
:1031E0001D86CE010C96DF91CF911F910C94E617AE
:1031F000CF93DF9300D0CDB7DEB71A82198288E96A
:1032000090E00E946A30898389E990E00E946A30E8
:103210008A8389819A810F900F90DF91CF910895D1
:103220002F923F924F925F926F927F928F929F92D6
:10323000AF92BF92CF92DF92EF92FF920F931F93C4
:10324000CF93DF93CDB7DEB7C156D1090FB6F8944F
:10325000DEBF0FBECDBF3C018B010E94F818AC0150
:1032600060E070E02AE08DE296E00E94682162E171
:1032700072E08DE296E00E94532185E5E6E1F1E0FF
:10328000DE01119601900D928A95E1F7D80116960C
:103290000D90BC91A02DA296BFAFAEAFA2978AE9C8
:1032A00090E00E94F32A582E882E880C880C880EF5
:1032B00090E0019625E0289F5001299FB00C112431
:1032C000952C990C990C990CE12CF12CF301E05FF1
:1032D000FE4F6A96FFAFEEAF6A9793012B5E3E4FAB
:1032E00068963FAF2EAF6897C3018F5E9E4F6C9676
:1032F0009FAF8EAF6C9763019CEEC91A9EEFD90AFF
:10330000A8E0FA9E80011124482C842D90E08A15B3
:103310009B050CF048C0E1E0F0E0EC0FFD1FE80F6A
:10332000F91F80818F113DC06A96EEADFFAD6A979F
:10333000608170E06896AEADBFAD68978C91681BF8
:1033400071096C96EEADFFAD6C9780819801280FE6
:10335000311DD6019C91492DF901E91BF109CF01DD
:103360000E946D2B6A96AEADBFAD6A978C91B80185
:10337000680F711D6896EEADFFAD68978081681B80
:1033800071096034710568F46C96AEADBFAD6C9791
:103390008C9190E0F6012081492D821B91090E94B9
:1033A000932B4394B2CF6C96AEADBFAD6C970C919E
:1033B0000E0D6A96EEADFFAD6A9740806896AEAD91
:1033C000BFAD68978C91481A490C312C10E0632DE1
:1033D00070E041E0C8010E94F52A3394339443140D
:1033E000B0F76A96EEADFFAD6A9700816896AEAD14
:1033F000BFAD68978C91081B0E0D6C96EEADFFADBE
:103400006C973080390C412C10E041E0B801842DDC
:1034100090E00E94F52A439443943414B0F7F39457
:10342000F8E0EF0E5F1408F06BCFE12CF12C412C8B
:1034300093012C5E3E4F6E963FAF2EAF6E974510B8
:1034400016C0E12CF12C6EE9262E33243394912CF6
:10345000412CC3018C5E9E4F6E969FAF8EAF6E97D0
:10346000D3011296A096BFAFAEAFA097A6C0C12C55
:10347000D12CA12CB12C842D90E0FC01E256FF4F01
:10348000A096FFAFEEAFA097A51408F078C08AE928
:1034900090E00E94F32AF82FFA9DC001FB9D900D49
:1034A0001124A0962EAD3FADA097820F931F0E94CE
:1034B000F32A8F70813051F1823009F059C06A9639
:1034C000AEADBFAD6A978C91B601680F711D6E5F8E
:1034D0007F4F6896EEADFFAD68978081681B7109DC
:1034E0006C96AEADBFAD6C978C91F701E80FF11DF6
:1034F000CF0102966E96AEADBFAD6E972C9146EDA4
:1035000055E1821B91090E94C82B32C06A96AEAD6C
:10351000BFAD6A978C911601280E311CB2E02B0EBC
:10352000311C6896EEADFFAD68978081281A31088E
:103530006C96AEADBFAD6C978C918701080F111DD5
:103540000E5F1F4F6E96EEADFFAD6E978081081B2C
:1035500011094801F5E08F0E911C0815190541F07D
:1035600045E0B101C8010E946D2B0F5F1F4FF5CFE1
:10357000BFEFAB1ABB0AE8E0CE0ED11C85CF439457
:10358000F8E0EF0EF11C5BCFF30111864394CE2CD3
:103590008101D12CC8010E94F32A81116FC00F5FF5
:1035A0001F4FF7E0DF0E23E2D212F4CF939438E0FE
:1035B000230E311C88E0E80EF11C951016C0812CFA
:1035C000912C5EE1252E52E0352E10E001E09301B2
:1035D0002C5E3E4F6E963FAF2EAF6E97C3010296A4
:1035E000A0969FAF8EAFA0979AC0870102571F4F3A
:1035F000060D171D67019AE5C91A9EEFD90A5101F8
:10360000C5010E94F32AD8019D918D0189132FC213
:10361000BFEFAB1ABB0ACA14DB0491F76A96EEAD92
:10362000FFAD6A9780808A946896AEADBFAD68970B
:10363000AC90B12CB194A194B1086C96EEADFFADF5
:103640006C9780818701080F111D0F5F1F4F6E96C9
:10365000AEADBFAD6E978C91081B11096801B7E044
:10366000CB0ED11C0C151D0509F48ECF482DB501CC
:10367000C8010E946D2B0F5F1F4FF4CF6896AEAD4F
:10368000BFAD68979C913D2D391B6C96EEADFFAD9B
:103690006C9790819D5F8A3028F421E0813019F089
:1036A00020E001C023E06E96AEADBFAD6E974C91A9
:1036B000941B9C0D921BF301968397833087482FB0
:1036C00050E060E070E02AE0A0968EAD9FADA0973C
:1036D0000E94682163E172E0A0968EAD9FADA09735
:1036E0000E9453215CCFD30119961C924394B82CAD
:1036F0007101D12CC12CC7010E94F32A81115EC037
:10370000BFEFEB1AFB0AE5E0DE0EF9E1DF12F3CFC3
:103710001F5F28E0220E311C38E0830E911C151526
:1037200009F47DC064019EE0C90ED11CC60CD71CF3
:103730005401AAEDAA1AADEFBA0A7101C7010E949D
:10374000F32AF60191916F01891395C1FFEFEF1AEA
:10375000FF0AAE14BF0491F76C96EEADFFAD6C9707
:10376000E080EA946A96AEADBFAD6A978C91640131
:10377000C80ED11CBFEFCB1ADB0A6896EEADFFADC9
:1037800068978081C81AD1086E96AEADBFAD6E97AE
:103790008C9190E0AA24BB24A81AB90AF12CE81A4B
:1037A000F90AAE14BF040CF09ECF47E0B601C50184
:1037B0000E946D2B2FEFA21AB20AF3CF8A3008F0C5
:1037C000C3946A96EEADFFAD6A9790819F5F68964D
:1037D000AEADBFAD68972C91921B9B0D6E96EEAD72
:1037E000FFAD6E972081F02FF21B2F2F2D0D3C2D5A
:1037F000330F231BD30116962C93169717962C93F1
:10380000179718969C93482F50E060E070E02AE0EC
:10381000A0968EAD9FADA0970E94682171CF512CCC
:10382000812F90E0880F991F83010E5E1E4F48166E
:10383000590651F481E0D8018C930E94F81861E098
:1038400082569D4F0E947230F8018081F3018823D7
:1038500009F454C0ED5EFE4F8081803409F00FC141
:103860000E94F818880F991FFC01E258FC4E8591C0
:103870009491FC01F49031961491E3E5F2E1049106
:10388000E4E5F2E1E490CC24C3942AE231E145E599
:1038900052E164E170E08EE090E00E9403290E9412
:1038A000F818880F991FFC01E258FC4E459154917D
:1038B000E12FE69560E270E06E1B7109F69485E6F3
:1038C00090E08F199109CF59DF4F0FB6F894DEBF02
:1038D0000FBECDBFDF91CF911F910F91FF90EF9061
:1038E000DF90CF90BF90AF909F908F907F906F9020
:1038F0005F904F903F902F900C94C82BEA5EFE4F44
:103900008081803499F4EBE0F0E10491ECE0F0E1A7
:10391000E490CC24C3942EEE3EE04DE050E164E10F
:1039200070E080E190E00E940329A9C0A2968EADCC
:103930009FADA29760E370E00E943E31893108F4A8
:103940009EC0D3011D966C911D971C968C91E7EE3D
:10395000FEE00491E8EEFEE0E4906A96EEADFFAD85
:103960006A979081F8E06F9FB0011124690F711D73
:103970006896AEADBFAD68979C91691B71096C9656
:10398000EEADFFAD6C972081F8E08F9FC001112450
:10399000820F911D53012CEEA21A2EEFB20AD5010F
:1039A000EC91CC24C39420EE3EE049EE5EE08E1B09
:1039B00091090E940329F30105856A96AEADBFAD5A
:1039C0006A978C91B8E00B9F80011124080F111D9C
:1039D0006896EEADFFAD68978081081B1109D30191
:1039E0001C96EC906C96EEADFFAD6C978081F8E084
:1039F000EF9E70011124E80EF11CD5018C91E81A9C
:103A0000F1080034110528F449E0B801C7010E940B
:103A1000932BB801685F7F4F6034710520F449E053
:103A2000C7010E94932B49E0B801C7010E946D2B8A
:103A300049E0B801C7010896CF59DF4F0FB6F89497
:103A4000DEBF0FBECDBFDF91CF911F910F91FF90D1
:103A5000EF90DF90CF90BF90AF909F908F907F902E
:103A60006F905F904F903F902F900C946D2B21E0C2
:103A7000F30121878CCDD30119960C9338CECF5901
:103A8000DF4F0FB6F894DEBF0FBECDBFDF91CF91F1
:103A90001F910F91FF90EF90DF90CF90BF90AF906C
:103AA0009F908F907F906F905F904F903F902F905E
:103AB00008950895089508950895089508950C941B
:103AC000F03108950E943F33409122025091230229
:103AD000209120023091210242175307B4F49091B3
:103AE000E8009570E1F39091E80092FD19C0809391
:103AF000F100809122029091230201968F73992701
:103B0000892B19F48EEF8093E80080912202909126
:103B100023020196909323028093220281E008956C
:103B200080E00895DF92EF92FF920F931F93CF935F
:103B3000DF93D82E8A017B01E40EF51EEB01CE1532
:103B4000DF0571F0D7FE03C0FE01849101C08881BA
:103B50000E94641D21968111F2CF8FEF9FEF01C06B
:103B6000C801DF91CF911F910F91FF90EF90DF90EF
:103B70000895615030F02091F100FC0120830196FE
:103B8000F8CF289884E680932B020895CF92DF9295
:103B9000EF92FF920F931F93CF93DF936C017A0103
:103BA0008B01C0E0D0E0CE15DF0581F0D8016D912A
:103BB0008D01D601ED91FC910190F081E02DC601BF
:103BC0000995892B11F02196EECF7E01C701DF9177
:103BD000CF911F910F91FF90EF90DF90CF900895BC
:103BE000CF93DF931F92CDB7DEB76983DC01ED91F0
:103BF000FC910280F381E02D41E050E0BE016F5F57
:103C00007F4F09950F90DF91CF91089583E08093C6
:103C1000E9008091F200882319F08AE38093E8009C
:103C20000895FC018485958597FD0BC09FB7F89496
:103C300082E08093E9008091F2009FBF90E00196BE
:103C400008959FB7F89482E08093E9008091F20094
:103C50009FBF90E008950F931F93CF93DF931F9220
:103C6000CDB7DEB782E0898342E450E06AEE75E1C9
:103C700080E80E94921D0E94712CDC0112960D9129
:103C80001C9113970115110589F0D801ED91FC9154
:103C90000280F381E02DBE016F5F7F4FC80109955F
:103CA00097FD04C0F80100851185ECCF89810F9044
:103CB000DF91CF911F910F9108950E94602C90E0A9
:103CC00008950F931F93CF93DF931F92CDB7DEB765
:103CD0008C01FC018485958597FF0EC0CE0101966D
:103CE0000E94322C019719F4898190E002C08FEF75
:103CF0009FEFF80195878487F801848595850F905B
:103D0000DF91CF911F910F910895CF93DF931F9271
:103D1000CDB7DEB7FC018485958597FD05C02FEFF3
:103D20003FEF358724870BC0CE0101960E94322CCD
:103D3000019719F4898190E002C08FEF9FEF0F90F7
:103D4000DF91CF9108951F920F920FB60F92112419
:103D50008F939F938091E1009091E100937F9093E6
:103D6000E10083FF0FC01092E90091E09093EB0017
:103D70001092EC0092E39093ED0010922C0298E0E8
:103D80009093F00082FF20C093E09093E90090911F
:103D9000F200992319F09AE39093E800909125029C
:103DA000992339F0909125029150909325029923FF
:103DB00089F190912B02992339F090912B02915027
:103DC00090932B02992341F184FF10C08091E2006F
:103DD0008E7E81608093E2008091E1008F7E8093EF
:103DE000E10080911A028E7E806111C080FF16C0B2
:103DF0008091E2008E7E80618093E2008091E100FC
:103E00008E7E8093E10080911A028E7E8160809385
:103E10001A0204C05D9ACDCF289AD6CF9F918F9178
:103E20000F900FBE0F901F9018951F920F920FB614
:103E30000F921124CF92DF92EF92FF920F931F9374
:103E40002F933F934F935F936F937F938F939F93A2
:103E5000AF93BF93EF93FF93CF93DF93CDB7DEB7CD
:103E60006C97DEBFCDBF1092E9008091E80083FF20
:103E7000FBC168E0CE0145960E94B91D82EF809398
:103E8000E8008D8987FF05C09091E80090FFFCCF86
:103E900003C09EEF9093E800982F907609F0C6C07B
:103EA0009E894F89588D2F89F88C91110CC08038CC
:103EB00029F480911B028093F10002C01092F1005E
:103EC0001092F10045C1913051F4811141C141304E
:103ED000510509F03DC180911B028D7F0BC09330CD
:103EE00061F4811135C14130510509F031C1809132
:103EF0001B02826080931B022BC1953049F4809194
:103F0000E80080FFFCCF822F80688093E30020C10F
:103F1000963009F05EC00B8D1C8D22E01092E900F6
:103F20001092230210922202F21232C01092210249
:103F3000109220020E942B1E99E0BE016F5F7F4FFE
:103F4000DB01E92F1D92EA95E9F79983FA8291E066
:103F50009E8390EA98879AEF998720912202309168
:103F60002302275F3F4F3C832B838D831092E90010
:103F70001092230210922202109321020093200239
:103F800049E050E080E00E94921D0E942B1EE0C09C
:103F900010932102009320020E94712CDC011296E2
:103FA0000D911C9113970115110509F4BBC0D8019F
:103FB000ED91FC910480F581E02DBE016B5E7F4F99
:103FC000C8010995009709F0C7C0F801008511855F
:103FD000EACF973009F445C1983021F481E080930D
:103FE000F100B6C0993009F0B3C0837009F039C14F
:103FF000E8E8F1E081E031E096E32081211109C099
:104000008EE78093EA001092EA008F8980932C0259
:104010009FC08093E9003093EB0021912093EC0046
:104020009093ED008F5F873041F7EACF8B8D9C8DA9
:104030001092E90010922302109222029093210222
:1040400080932002898D811153C08E899D89913A78
:1040500049F4813209F005C147E050E064E071E0C5
:1040600080E0BBC0913209F0FCC0833269F48F89D3
:10407000988DA0E0B0E08093000190930101A0939F
:104080000201B093030164C0803269F48091E800BA
:1040900082FFFCCF67E084E091E00E94B91D8BEFC6
:1040A0008093E80055C0823209F052C08F89809316
:1040B0000B01EEEFFFE7859194918B3F9C4D19F03A
:1040C000E0E0F8E002C0EEEFFAE0809104019091A8
:1040D0000501A0910601B0910701803B9440A10524
:1040E000B10509F09EC080910B0180FF79C099C095
:1040F0000E94712CFC01028113810115110509F444
:10410000B0C0D801ED91FC910190F081E02DBE018D
:104110006B5E7F4FC801099581111AC0F8010085B7
:104120001185EBCFF1E0FF1609F44EC0F3E0FF126A
:1041300098C08F89882309F44AC0823089F440E806
:1041400060E18EE496E10E941C2F882309F489C067
:104150008EEF8093E80088C018161906CCF381C052
:10416000813029F440E86BE082E496E1ECCF8330C3
:1041700009F077C00E94712CDC011296ED90FC9042
:1041800013978E010F5F1F4F6801E114F10479F05E
:10419000D701ED91FC910680F781E02DB801C701B0
:1041A0000995080F111DF701E084F184EECFD801C5
:1041B0001C92F60101900020E9F73197BF016C19BC
:1041C0007D0940E0C601BFCF60E376E102C06CE24A
:1041D00076E1FB01449150E080E80E94921DB8CF47
:1041E000EE3F2AE0F20751F0808191818737A7E7FF
:1041F0009A0721F09093FF0A8093FE0A87E797E7DA
:104200009183808380916000809324029BE088E109
:104210000FB6F894A895809360000FBE909360004D
:1042200097CF808191818737974709F091CFA895E3
:104230008091600088618093600080912402809367
:104240006000EE3FBAE0FB0739F08091FE0A9091E2
:10425000FF0A918380837CCF1092FF0A1092FE0A9E
:1042600077CF81E28093EB006C960FB6F894DEBFB7
:104270000FBECDBFDF91CF91FF91EF91BF91AF9175
:104280009F918F917F916F915F914F913F912F916E
:104290001F910F91FF90EF90DF90CF900F900FBE86
:1042A0000F901F9018956115710579F0FB01019031
:1042B0000020E9F73197AF01461B570BDC01ED9168
:1042C000FC910280F381E02D099480E090E0089554
:1042D0008F929F92AF92BF92EF92FF920F931F9394
:1042E000CF93DF93CDB7DEB7A1970FB6F894DEBFBB
:1042F0000FBECDBF7C01FA01CB0119A2223008F418
:104300002AE08E010F5D1F4F822E912CA12CB12C23
:10431000BF01A50194010E940131F901CA010150B8
:1043200011096A3014F4605D01C0695CD8016C93B6
:10433000232B242B252B61F7B801C7010E945321A1
:10434000A1960FB6F894DEBF0FBECDBFDF91CF911F
:104350001F910F91FF90EF90BF90AF909F908F9023
:1043600008958F929F92AF92BF92CF92DF92EF9279
:10437000FF926B017C010E9467274B015C01C11415
:10438000D104E104F104F1F00E946727DC01CB01C4
:1043900088199909AA09BB09883E9340A105B1056E
:1043A00070F321E0C21AD108E108F10888EE880E06
:1043B00083E0981EA11CB11CC114D104E104F104D6
:1043C00019F7DDCFFF90EF90DF90CF90BF90AF90C7
:1043D0009F908F9008958F929F92AF92BF92CF92AD
:1043E000DF92EF92FF920F931F93CF93DF936C01B5
:1043F0007B018A0180910B01882309F45CC08091C4
:104400002C02882309F457C080911A0280FF05C04E
:104410008091E00082608093E000E801B12C8AEF97
:10442000A82E93E0892E2AE3922E209711F4BB2028
:10443000D9F10E94602C81110AC0AA94AA20D9F156
:1044400061E070E080E090E00E94B121EECF282F83
:1044500030E0C217D3070CF48C2F9FB7F8948092EA
:10446000E9002091E80025FF1DC0282F30E0C21B85
:10447000D30BF701815020F041914093F100FACF26
:10448000E20EF31EBB2019F09092E8000AC0809162
:10449000E80085FD07C09092E800BB24B394209704
:1044A00009F0B12C9FBFC1CF5D9884E680932502AF
:1044B0001016110644F081E090E0F60193838283A8
:1044C00080E090E001C0C801DF91CF911F910F9172
:1044D000FF90EF90DF90CF90BF90AF909F908F9024
:1044E00008952F923F924F925F926F927F928F9298
:1044F0009F92AF92BF92CF92DF92EF92FF920F9373
:104500001F93CF93DF93CDB7DEB729970FB6F894FB
:10451000DEBF0FBECDBF998788874B010E94F81878
:10452000AC0160E070E02AE08DE296E00E94682134
:1045300062E172E08DE296E00E945321A885B98580
:104540001C968D919C911D9769E170E00E943E310F
:104550008B01282F8230910520F03EEF732E780ECC
:1045600001C0712C7C82B7E0B70DBD83223018F4F6
:10457000672C680E03C022E0622E670C89E1809FE1
:104580006001819FD00C11247601E2E6EE1AEDEF76
:10459000FE0A5601F9E4AF1AFDEFBF0A512CC7011C
:1045A0000E94F32A813009F453943FEFE31AF30A8F
:1045B000EA14FB04A1F7550C550C598243EB57E262
:1045C00060E070E080E090E00E941C2C41EB56E23D
:1045D00060E370E080E090E00E941C2CD40116960D
:1045E0008D919C91179760E370E00E943E318F831C
:1045F0009BE0392EE885F98532967F01FD817F1693
:104600000CF07EC0872D072C000C990B9B838A83AE
:104610004C018C0C9D1CF401EE0FFF1FDF01A75A0B
:10462000BB4D2D01FD0185919491FC0124903196A3
:1046300034913E83A72C8C81A81A99E1A99E500140
:104640001124AF81A93110F4761441F045E154E210
:1046500064E170E0C50104960E94C82BC401825633
:104660009D4F0E94F32A813079F4F20145915491D3
:104670004E8046946EE170E064197109C5010E9692
:1046800026948219910906C047ED53E264E170E077
:10469000C50104960E94C82BE885F98536823782C9
:1046A0003BE2308788E087152CF065E172E0C701B6
:1046B0000E9453214A815B814F5F5F4F4F3F9FEFC5
:1046C000590791F4A885B9851296ED91FC9113973D
:1046D0000190F081E02D6DE2C70109952AE041E0EB
:1046E00050E060E070E005C0052E000C660B770B13
:1046F0002AE0C7010E9468217394B9E13B0E7ECF86
:104700008AE2E885F9858683878310864801F5E08B
:104710008F0E911CA12CB12C2AE0B501A401C70178
:104720000E94682167E172E0C7010E9453212AE0DC
:10473000B501A401C7010E9468218DE5A885B9854E
:1047400016968C93169717968C93179718961C921B
:10475000B981B43668F465E172E0C7010E94532163
:10476000E981EA3028F465E172E0C7010E94532133
:10477000F9814F2F50E060E070E02AE0C7010E940D
:1047800068210115110501F545EC53E262E070E086
:1047900089E490E029960FB6F894DEBF0FBECDBF36
:1047A000DF91CF911F910F91FF90EF90DF90CF900D
:1047B000BF90AF909F908F907F906F905F904F9041
:1047C0003F902F900C94C82B4EEC53E262E070E0C7
:1047D00081E490E00E94C82B0F301105A8F22996C1
:1047E0000FB6F894DEBF0FBECDBFDF91CF911F9102
:1047F0000F91FF90EF90DF90CF90BF90AF909F9080
:104800008F907F906F905F904F903F902F90089582
:104810002F923F924F925F926F927F928F929F92D0
:10482000AF92BF92CF92DF92EF92FF920F931F93BE
:10483000CF93DF93CDB7DEB762970FB6F894DEBFA4
:104840000FBECDBFFC017B01DB0119962C9119979E
:10485000209518968C91282304851585C80169E157
:1048600070E00E943E3125FF06C0882321F00150F0
:1048700011091587048726FF07C0883129F0848530
:10488000958501969587848727FF07C0662329F0C1
:104890008485958549979587848724FF07C06B3069
:1048A00028F48485958549969587848723FF5CC184
:1048B000FA8AE98A8F0188E990E00E94F32AF801D8
:1048C0006485758590E08617970709F448C1FB0158
:1048D000EE0FFF1FE75AFB4D85909490F401F49181
:1048E000F987F401319624912A87822F8770122F3D
:1048F00016951695169581111F5F88E990E00E9424
:10490000843069858AE990E00E9472306A858BE97B
:1049100090E00E9472308985282E312CD10193E0DD
:10492000AA0FBB1F9A95E1F7BC87AB87B2E08B0E4D
:10493000911C612C712CA12CB12CE12FF0E0F88B93
:10494000EF878F859889A816B90608F03EC000E069
:1049500010E0D301A256BF4FBE87AD8702151305E5
:1049600050F5F801E80DF91DE491CD84DE84C00E08
:10497000D11EE12CF12C4E2E512C81E090E00E2C1A
:1049800002C0880F991F0A94E2F784219521892B90
:1049900011F060E101C060E0C6010E947230BFEF1B
:1049A000EB1AFB0AC20CD31CE8E0EE16F10429F75F
:1049B0000F5F1F4FD3CFFFEFAF1ABF0A820C931CBC
:1049C0008B859C85680E791EBCCFE12CF12CC12C07
:1049D000D12C412C512CDE0111963D01BA85B41128
:1049E0000AC000E010E0712C612C88E0482EFE0126
:1049F00031967F017FC0D301E8E01D92EA95E9F787
:104A0000870102561F4F912CA12CBB24BA94F98523
:104A1000F915E9F0C8010E94F32A8A1539F08031AE
:104A200089F4B39428E0B21204C011C090E1A91235
:104A300009C0F301EB0DF11DB7FCFA9580818F5F82
:104A4000808380E193940F5F1F4FA82EE0CF530126
:104A500000E010E04601A3EE8A1AADEF9A0A980131
:104A6000F50161915F010F5F1F4F662331F0852DC6
:104A700090E0281739070CF0502EC401800F911FC9
:104A80000E9472300830110551F74394F8E0CF0EC0
:104A9000D11CE20CF31CA2CFC601A985BA9E800DE1
:104AA000911D11240E94F32A8915D9F18031A1F1B9
:104AB000B394982E2A85B21678F36701812C912C35
:104AC0005801F3E6AF1AFEEFBF0A9401D6016D91CB
:104AD0006D01BFEF8B1A9B0A611130C0C501880DB3
:104AE000991D0E947230E8E08E16910471F773945C
:104AF000085F1F4F2985271541F1D701E42D1D922D
:104B0000EA95E9F7B12C912CAA24AA94C72CD12CB0
:104B1000FEE9CF0ED11CCECFA394B8E0AB1204C0F7
:104B2000CCCFE0E19E12C4CFF701EA0DF11DA7FC46
:104B3000FA9580818F5F808380E1BACF862D90E0E7
:104B4000281739075CF2682CC9CF652D8CE990E0F5
:104B50000E947230662D8DE990E00E94723083E0F1
:104B6000A989BA8950968C9362960FB6F894DEBFE5
:104B70000FBECDBFDF91CF911F910F91FF90EF90AE
:104B8000DF90CF90BF90AF909F908F907F906F906D
:104B90005F904F903F902F9008950F931F93CF9366
:104BA000DF938C010E94F818EC01F8019587848747
:104BB00082569D4F0E94F32A813079F42196CC329F
:104BC000F1E0DF0750F4CE0182569D4F0E94F32A98
:104BD0008111F4CFF801D587C487DF91CF911F9160
:104BE0000F910895AF92BF92CF92DF92EF92FF9212
:104BF0000F931F93CF93DF93EC016B01FB010085B3
:104C000011851095102315FF11C08C85882371F034
:104C100081508C8713FD0AC003FF08C0FE01E95EC6
:104C2000FE4F6081CE010C960E94DE2B16FF1AC04B
:104C3000FC848AE990E00E94F32A2F2D30E090E076
:104C400001972817390774F4F394FC8613FD0AC002
:104C500003FF08C0FE01E95EFE4F6081CE010C96A5
:104C60000E94DE2B17FF11C08D85882371F08150C3
:104C70008D8713FD0AC003FF08C0FE01E95EFE4FE9
:104C80006081CE010C960E94DE2B14FF1AC0FD84B9
:104C90008AE990E00E94F32A2F2D30E090E00197FE
:104CA0002817390774F4F394FD8613FD0AC003FF37
:104CB00008C0FE01E95EFE4F6081CE010C960E94A5
:104CC000DE2BFE01EE5EFE4F80819E012A5E3E4F8E
:104CD0005901811157C0F9018081803408F05FC00B
:104CE0007E01FCE0EF0EF11C8C85FE01EF5EFE4FB5
:104CF000908128E0829F900D11242D85319780812D
:104D000038E0239F800D11243496973718F0975779
:104D1000908301C01082FE01EB5EFE4F873318F0D6
:104D20008753808301C0108213FF18C0C7010E94FF
:104D3000042C813061F010F0823081F461E0C70111
:104D40000E94DE2BC95EDE4F81E0888307C060E0F1
:104D5000C7010E94DE2BC95EDE4F188202FF06C02B
:104D6000F5018081803410F48F5F808312FF02C0D0
:104D7000F5011082F601818582FF36C0808582FDB3
:104D800033C01BC0CD5EDE4F8881803418F48F5F46
:104D9000888305C013FF03C082E0F601808BF50114
:104DA0008081803408F113FF03C082E0F601808B1C
:104DB00012FF1AC0F501108217C0C7010E94042C0F
:104DC000823010F462E003C0823071F460E0C70109
:104DD000DF91CF911F910F91FF90EF90DF90CF90D7
:104DE000BF90AF900C94DE2BDF91CF911F910F916C
:104DF000FF90EF90DF90CF90BF90AF90089508950F
:104E0000DC01FB01808591859095982384FF17C074
:104E10001C962C911C97203120F42F5F1C962C930C
:104E200010C0F89487E78093000880930108A89544
:104E300088E18093600088E080936000FFCF1C963B
:104E40001C9293FF02C082E0808B08950895FC01BC
:104E5000DB0119968C911997809518969C9118975B
:104E6000892399F08485882311F08CE784879485C1
:104E700091110EC081E0848780E48093900081E4EA
:104E80009FE0909399008093980094859923B1F0C6
:104E90009F5F9487953059F09D3761F0923071F49F
:104EA00080E596E49093990080939800089510927D
:104EB0009000089581E050968C93089508954AE8F3
:104EC00059E260E070E080E090E00C941C2C3FB769
:104ED000F8948091270290912802A0912902B09124
:104EE0002A0226B5A89B05C02F3F19F00196A11DE7
:104EF000B11D3FBFBA2FA92F982F8827820F911D70
:104F0000A11DB11DBC01CD0142E0660F771F881FB6
:104F1000991F4A95D1F708951F920F920FB60F92DD
:104F200011242F933F938F939F93AF93BF938091BF
:104F30001C0290911D02A0911E02B0911F0230919F
:104F4000260223E0230F2D3720F40196A11DB11D69
:104F500005C026E8230F0296A11DB11D209326024D
:104F600080931C0290931D02A0931E02B0931F0217
:104F70008091270290912802A0912902B0912A02E3
:104F80000196A11DB11D8093270290932802A09342
:104F90002902B0932A02BF91AF919F918F913F91C7
:104FA0002F910F900FBE0F901F9018952F923F9248
:104FB0004F925F926F927F928F929F92AF92BF9229
:104FC000CF92DF92EF92FF920F931F93CF93DF93D5
:104FD00000D000D000D0CDB7DEB7CD82FC01E00F0D
:104FE000F11D1E161F060CF0F5C0803891050CF05F
:104FF000F1C0DB01AE0DB11D1A161B060CF0EAC0A4
:10500000603471050CF0E6C04115510509F4E2C0A9
:10501000A62FA7707A2EDB0177FD179613E0B595C2
:10502000A7951A95E1F7FA2E77FF05C0772019F0BA
:10503000FF24FA94FA0E97FF05C0AA27BB27A81BE6
:10504000B90B02C0A0E0B0E0E038F10524F060E860
:10505000962E981A01C0902E9A1A6F2D0F2C000CC4
:10506000770BEFEFFE161CF4E62FE09501C0E0E0B1
:1050700011E0FE2DF77009F410E0E694E694E69452
:10508000E10E6E0D711D693071051CF068E0E62EB1
:10509000EF188E2E8F0C682D70E86703800D911D20
:1050A00011248A0F9B1F61E070E0072C02C0660F7D
:1050B000771F0A94E2F7FD81F33019F0BB24B39413
:1050C00002C0F2E0BF2EA02EA918AB9CA02C112488
:1050D000CB2CD12C0E9FA00DB11D1124AC9DF00145
:1050E000AD9DF00DBC9DF00D11248A010E0F1F1F08
:1050F0002115310509F0A901960121503109E20F6E
:10510000F31F4E0F5F1FEFEFE69F9001E79F300DFB
:105110001124290140945094835D9D4FEF0CEE8241
:105120002A2D30E0B99C200D311D1124AE818A1644
:1051300009F450C0DC015A017801612C961409F47D
:1051400041C0F7013490369EF001379EF00D1124D6
:10515000FC83EB83E095F095FA83E983FD81F230DF
:1051600019F45A82498211C0ED81EB3F19F41C8277
:105170001B820BC0F5013490369EF001379EF00D76
:105180001124E095F095FA83E98387FC06C0F98144
:10519000EC91EF23FB81EF2BEC93772061F0F6E0AD
:1051A000F8154CF0FD01E058FF4F20803A80322086
:1051B0002C8032283082AC0CBD1CEC0CFD1C63949E
:1051C0001196BCCF8394020F131F420F531F8058B8
:1051D0009F4FACCF26960FB6F894DEBF0FBECDBF63
:1051E000DF91CF911F910F91FF90EF90DF90CF90C3
:1051F000BF90AF909F908F907F906F905F904F90F7
:105200003F902F9008954F925F926F927F928F926E
:105210009F92AF92BF92CF92DF92EF92FF920F9345
:105220001F93CF93DF9300D000D0CDB7DEB7DC0162
:1052300039012C2DA02EB12CC5018A0F9B1F1816E9
:1052400019060CF0AEC1A038B1050CF0AAC1FB01E3
:10525000EE0DF11D1E161F060CF0A3C16034710582
:105260000CF09FC14115510509F49BC1362F3770D1
:10527000F32EFB0177FD379633E0F595E7953A95E8
:10528000E1F73E2F77FF04C0FF2011F03FEF3E0F04
:10529000B7FF05C0EE27FF27EA1BFB0B02C0E0E0CB
:1052A000F0E0803891051CF090E89A1B01C0902F27
:1052B0009E1B632F032E000C770B3F3F1CF4162F11
:1052C000109501C010E0DD24D3948E2D877009F471
:1052D000D12CE694E694E694ED0C6E0D711D6930C8
:1052E00071051CF088E0E82EE31AE11A310F60E83E
:1052F0003603A00DB11D1124AE0FBF1F019FE00D9D
:10530000F11D11244E0F5F1F61E070E04B010F2C67
:1053100002C0880C991C0A94E2F7233009F4FFC0FC
:10532000B8F4213009F4B3C0223009F03AC18FEF4C
:10533000889D8001899D100D1124009510951A8378
:1053400009832A81FD01E35DFD4F2F01E30E29C092
:105350002A3FD1F12B3F09F024C1FD01E35DFD4F50
:105360006F01E30E82C08491889D6001899DD00CFD
:105370001124DC82CB8237FD05C0DB018C918023B8
:10538000C82ACC92F11013C031966F5F7F4F8E2FD9
:10539000841B891740F33F5F4A0D5B1DB0E84B0E3D
:1053A000511C3E1509F4FDC0B201FA01F0CF3730AF
:1053B0005CF76B01B0E8CB0ED11CD6018C91822337
:1053C0007C8087298C93E0CFFD01E35DFD4F6F0169
:1053D000E30E3E1509F4E5C08601FA018E2F841B09
:1053E0008917F0F48491889DB001899D700D112476
:1053F0007C836B8337FD04C0D8018C91682B6C9340
:10540000FF2051F0373044F4B80160587F4FDB0182
:105410002C918C81822B8C9331960F5F1F4FDECFA6
:105420003F5F4A0D5B1DB0E8CB0ED11CD2CF8491FB
:10543000889D8001899D100D11241C830B8337FDED
:1054400005C00095DB018C9108230C93F11013C06B
:1054500031966F5F7F4F8E2F841B891740F33F5F1C
:105460004A0D5B1DB0E8CB0ED11C3E1509F499C066
:10547000B601FA01F0CF37305CF78B0100581F4FAF
:105480008C818095D8012C9182238C93E1CFB3013C
:105490006E0F7F1FA35DBD4FE30E3E1509F481C063
:1054A0008D01C12CD12CC91690F5FB01EC0DFD1D11
:1054B000E491E89D3001E99D700C11246094709492
:1054C0007A826982FA01EC0DFD1DE491E89D2001CC
:1054D000E99D500C11245C824B8237FD05C0F80118
:1054E0008081682246284082FF2059F037304CF4F2
:1054F000F801E058FF4F20818A8182232C81822B82
:105500008083FFEFCF1ADF0A0F5F1F4FCCCF3F5FC3
:105510004A0D5B1D6A0D7B1DA058BF4FBECFC92E23
:10552000D12CE40FF51FA35DBD4F00E810E00C196E
:105530001D09AC18BD08A501440F551F792F2E2D4C
:10554000792ECF93DF93ED01EF96EF962296A590FB
:10555000C590FF2059F0A89C5001C89C60013730CD
:105560002CF4E880D094ED20EB28E99233233AF034
:10557000EC90C094EC20EA28ED920C94C02A11968D
:105580007A9529F72A9551F0772D33951124E40F58
:10559000F11DA00FB11DC00FD11DD9CFDF91CF914B
:1055A00011240F900F900F900F90DF91CF911F91CA
:1055B0000F91FF90EF90DF90CF90BF90AF909F90B2
:1055C0008F907F906F905F904F900895BC0180E026
:1055D00090E00C94B1218FB18095807F669B8860AC
:1055E0001C9B846008950C946A3080389105B8F44F
:1055F00060347105A0F490E121E061FD24E060FDDC
:10560000220F62FD2295687F969FD0011124A80F7A
:10561000A35DBD4F8C91822B40FF82278C93089510
:105620000F931F93CF93DF93EC0144E659E261E1BE
:1056300070E08FE290E00E941C2C46E459E26AE19F
:1056400070E08BE290E00E941C2C46E459E26AE193
:1056500070E089E490E00E941C2C8C85811114C0BC
:1056600046E459E26AE170E08AE390E00E941C2C73
:1056700046EF58E26EE270E08AE190E0DF91CF9170
:105680001F910F910C941C2C48ED58E26AE170E0D8
:105690008AE390E00E941C2C45EB58E26EE270E039
:1056A0008CE290E00E941C2C8C856FE00E943231CD
:1056B000082F0370CFE4D0E010E0011749F041E07B
:1056C00061E370E0CE010E94F52A1F5F2296F5CFBC
:1056D000DF91CF911F910F910895EF92FF920F9359
:1056E0001F93CF93DF937C018B01040F111DEB01FE
:1056F00077FF02C0C0E0D0E0C8010134110514F00A
:1057000080E490E0C817D9073CF441E0BE01C7012E
:105710000E94F52A2196F0CFDF91CF911F910F9132
:10572000FF90EF9008959C01240F311D121613066F
:1057300074F5803891055CF597FF02C080E090E039
:105740002138310514F020E830E0281BAB01477008
:10575000552731E001C0330F4A95EAF777FF02C0C1
:10576000695F7F4F43E0759567954A95E1F77695B8
:10577000762F662777956795860F971FFC01E35D67
:10578000FD4F215020F08081832B8193FACF089523
:10579000CF92EF920F934115510561F0FA010491F8
:1057A0003196E4904E5F5F4F2AEFC22E20E030E04A
:1057B0000E9403290F91EF90CF900895FF920F93CD
:1057C0001F93CF93DF938C01F62E8AE990E00E941D
:1057D000F32AF8019181C081D0E0C256DF4F989F33
:1057E000C00DD11D1124CE010E94F32A8071682FB3
:1057F0006F29CE010E947230C801DF91CF911F91B5
:105800000F91FF900C94E617CF93DF93EC018AE998
:1058100090E00E94F32A9981288130E022563F4F80
:10582000A901989F400D511D1124CA010E94F32A1D
:105830008F70DF91CF910895CF92EF920F93411522
:10584000510561F0FA0104913196E4904E5F5F4F8B
:1058500022E0C22E20E030E00E9403290F91EF9059
:10586000CF90089520912C02211103C08FEF9FEF5C
:1058700008955FB7F89422E02093E9002091F200A8
:1058800030E01216130614F421E030E0422FFC0140
:1058900084E6415038F0289880932B029091F100D3
:1058A0009193F7CF2115310521F08091F2008823E3
:1058B00019F05FBFC90108958BE68093E800F9CF26
:1058C0002FB7F89483E08093E9009091E800892F46
:1058D000807295FF04C09091F20080E4891B2FBF75
:1058E00008958091E20781110DC082E08093DE0768
:1058F00084E08093DF071092E1071092E00781E0D7
:105900008093E2078EED97E008958DE796E00C9482
:105910005E1DFC018BE791E09183808315821482E8
:105920008FE691E09383828387E0838781E082879B
:1059300017821086168281870895789484B58260D4
:1059400084BD84B5816084BD85B5826085BD85B523
:10595000816085BD80916E00816080936E001092A1
:10596000810080918100826080938100809181001C
:1059700081608093810080918000816080938000AD
:10598000809191008260809391008091910081606C
:10599000809391008091900081608093900080912D
:1059A000C10084608093C1008091C10082608093B7
:1059B000C1008091C10081608093C1008091C300CB
:1059C00081608093C3008091C00082608093C0009A
:1059D0008091C20081608093C20080917A008460CF
:1059E00080937A0080917A00826080937A0080911F
:1059F0007A00816080937A0080917A008068809339
:105A00007A0010922C0210921B0210921A028091BE
:105A1000D70081608093D70080EA8093D80089B551
:105A2000806189BD89B5826089BD09B400FEFDCF62
:105A300061E070E080E090E00E94B1218091D800A8
:105A40008F7C80618093D8008091E000807F80937C
:105A5000E0008091E1008E7E8093E1008DE08093F4
:105A6000E200559A209A81EC80937C0085B1806F8A
:105A700085B984B1877E84B984B1876E84B95E9A12
:105A80005F988AB1806D8AB9769A6E9881B3806F7B
:105A900081BB899880B38D7080BB80E58CBD81E02F
:105AA0008DBD85E090E00E94E62A5F9A85E090E057
:105AB0000E94E62A5E985C98EDEDF5E184918EBD3A
:105AC00000000DB407FEFDCF319685E1EA3EF807F0
:105AD000A9F75C9A81E880936400809165008160F9
