:100000000C9432150C945A150C945A150C945A15DC
:100010000C945A150C945A150C945A150C945A15A4
:100020000C945A150C945A150C940D230C94952885
:100030000C945A150C945A150C945A150C945A1584
:100040000C945A150C945A150C945A150C945A1574
:100050000C945A150C945A150C945A150C940C24A3
:100060000C945A150C945A150C945A150C945A1554
:100070000C945A150C945A150C945A150C945A1544
:100080000C945A150C945A150C945A150C945A1534
:100090000C945A150C945A150C945A150C945A1524
:1000A0000C945A150C945A150C945A150C0C1E6786
:1000B00086081020408000000000000001020204B9
:1000C0000408090E0E040C0C124A29A595555595E5
:1000D000A5294A1200000104020A0A0204010000D4
:1000E0000C0CF8663169E9B1A1E1612166F8030FF2
:1000F0000A0F030202030F0A0F030C0C0609D12298
:1001000004080404629209070C0B080402010102AE
:100110000C0403010C0C0804C2E1B2140802812291
:100120008408000400010307060E0C0C08080C0CE0
:100130003FCFC7333939C6C6CC3830C000000103C1
:10014000060609090C0E0F0F0C0CFF015501550195
:10015000FF00545204F80F00050005000F000505CC
:10016000000F0C0C000000A0530F0F53A000000064
:10017000000003060E0E0E0E060300000C0C22A457
:10018000889B1B4824A2A0A020A005040204090902
:100190000504020405040C0CFB036461218D1D4160
:1001A000616403FB0D0C0208080B0B0808020C0D20
:1001B0000C0C03027F6B556BD5EB556B557F000024
:1001C000060F0F060000060F0F060C0CE0F8FFE606
:1001D000E43C3CE4E6FFF8E001000B070B01010BF7
:1001E000070B00010C0C541494D4C0FF0545555066
:1001F00054540504010303010405050505050C0C11
:10020000AA10C3F43EFAFFFA3EF4C3080A00070737
:1002100000030703000707000C0CF80432393D3DCA
:10022000C1C1C1C204F80102040808080B0B09048B
:1002300002010C0C008044DFFFDF4440401CFC1C2A
:100240000100000F0B030E0800000F000C0CFF0153
:100250005555555501FF040408F00D0D010D0D0114
:1002600007010D0D01070C0C0C006D6D000C0C80CE
:100270004C4C202C00000B0B000C03000000000075
:100280000C0CAA003C7E66FFFF66EECC00550A000F
:100290000307060F0F06070300050C0C01FE06FA04
:1002A0009A6A6A9AFA06FE01080706050505050519
:1002B000050607080C0CB8BCBE80FF80B8BE80FFE6
:1002C00080800304080A080A080A080402010C0CCA
:1002D00060F0F06006EFEF0660F0F0600000080CE0
:1002E0000E0F0F0E0C0800000C0C009F90FC9A9C47
:1002F0009AFC909F00AA0007070103070301070764
:10030000000A0C0C01CC9E3E7EFCF8F2E6CE9C016D
:100310000803070706040103070703080B0B30C097
:100320002E11151115112EC0300005060406000609
:10033000040605000B0B0007FFFFFFFF7777770729
:100340000700070707070707000000000B0BC0E0C6
:10035000F0F0F0E4C20924120901030707070301C2
:10036000000000000B0B1C22414141221C00080828
:10037000F800000007040404040404070B0BF8FF52
:10038000FECCC878C8CCFEFFF801030705050505BB
:10039000050703010B0B2030F83C3EFF3E3CF830D4
:1003A0002000000704040707070700000B0B00F4F8
:1003B0000A11151511110AF40000010204040404C5
:1003C000040201000B0B0810102126F820207050A9
:1003D0007000000000070507000000000B0BFF0184
:1003E000A10FA90AFC00555555070404040404078D
:1003F000000505050B0B0007CFE83EFEC80F070000
:100400000004000501000303000400040B0BBF817E
:10041000A1A1212FE009090BF8070404070002033A
:10042000000101010B0BD54000FF81818181818199
:10043000FF07040404060004000400040B0B003D45
:1004400060FD80FD80FD603D0000000004050705A3
:10045000040000000B0B1C3E7C70FEFFFE80FCFEC7
:10046000FC00000000070707030301000B0B0080DE
:1004700040281C987CFE5F0F07070404020100005F
:10048000000000000B0B1F2141913972E44810A0BD
:100490004000000000010204020100000B0BF80400
:1004A000525204F804525204F807020101020702F2
:1004B000010102070B0B7CFEFFC3C37FC3C3FFFE1A
:1004C0007C00000707010701070700000B0B00EE87
:1004D000FAEE20FE04F800202000070107000301C7
:1004E000000000000B0B607864E2627E6000FF0099
:1004F0000002070200020702000302020B0BFF01C9
:10050000DD5D5DDDDDDDDD01FF07040704040707B8
:10051000070704070B0BF0F89C0E0300FF01FD0119
:10052000FF01030306060401020402010B0B4060F5
:100530005048FE01FE4850604000000406050405D6
:10054000060400000B0BE010FA6C7878786CFA1057
:10055000E000000001010001010000000A0A007C27
:10056000FDFEFDFE7C0038000202020202020202D1
:1005700000000A0A0080C080387DEEBCEE790203DC
:1005800001030302030100000A0A080C14FEF4E050
:10059000C000E010000002030303030200000A0A87
:1005A0001C3870F8FEFBF9F9FBFE000000010303A4
:1005B000030303010A0A204080FCC0FFE0FFC0FCE7
:1005C000000000010303030303010A0A484472C147
:1005D000F24448427F420000000103030200000091
:1005E0000A0A00FC0209BD898102FC000003020224
:1005F0000202020203000A0A78843231FDFD313220
:100600008478000001020202020100000A0A00FFD1
:10061000555D55F735BDB5BF000303030303000364
:1006200001000A0A00000E1FF9F99F8E0000000069
:1006300000000303020200000A0AF1FACCCC7C7C21
:10064000CCCCFAF1030103010303010301030A0AFD
:10065000784651C6613E080808F80002030301010C
:10066000010203030A0A1018FC1EFF9F9EFC1810CB
:10067000000003020303030300000A0AC167396292
:10068000C4386C446C380103020301000000000010
:100690000A0A0000FFA9F9A9F9A9FF000000030256
:1006A0000302030203000A0AE070B07EF2F272B69F
:1006B0007CF0000103010000010301000A0A01FFB0
:1006C00045FC8249458902FC00030000000000004F
:1006D00001010A0A406070FC3F3FFC70604000006E
:1006E00002000303000200000A0A78FCFE8F0505E1
:1006F0000D1B961C000001030302020100000A0A00
:10070000FCB63331FFFF3133B6FC000103020303B3
:10071000020301000A0A0E1F5F9F0EC0242821C297
:10072000010200000001020202010A0AF03CEE3B55
:10073000BFBF3BEE3CF000000002030302000000DC
:100740000A0A90DEDE9E3E9ED4D494240103030167
:100750000001030301000A0A0C1E3F3F9E0C40905B
:100760002040000000000001020001020909000F02
:1007700010A7CFA7100F0000000101010101000028
:100780000909048E5F0E44E0F4E24101000000001C
:100790000001000009090C5ED3803F009FDE5C0071
:1007A00000000101010100000909004CDEDFDFF754
:1007B000F6640000000001010100000009098060EA
:1007C00018E6F3E618608001010000010000010155
:1007D000090900DFB6A4B6DF6060F801010000007F
:1007E00001010001090982FD82BABABA827F820042
:1007F0000100000000000100090907091EBFFFBF3A
:100800001E09070000010101010100000909C020C3
:1008100070F86C3E1B0E0401010100000000000096
:100820000909CCEEA6F7B7F7A6EECC01010001004E
:100830000100010109097CDA93333B3393DA7C0030
:10084000000101010101000009097CF6F3F1FF1F1D
:100850009FDE7C000001010101010000090910D6A2
:10086000D600C700D6D6100000000001000000002E
:100870000909008040201C1C1E0703010000000025
:100880000000000009090E1B15377AF0E0C00000D7
:10089000000000000001010109097C9E33333F3351
:1008A000339E7C0000010101010100000909006084
:1008B0005876FD6E7860000101010101010101011E
:1008C000090910FE9282D78292FE100000000001FA
:1008D000000000000909C62929C610C62929C6003A
:1008E00001010000000101000909C22E2ACE18C82A
:1008F0002A2CC800010100000001010009093CC2C6
:10090000094D414D09C23C000001010101010000F7
:1009100009091E3F7FFFFEDF6F3B1E000000000144
:100920000000000009097EF1F171DF71F1F17E0034
:10093000010100010001010009094E5959899F89EF
:1009400059594E01010100000001010108083C3C19
:10095000DBFFFFDB3C3C0808DFDFD8FFFF1BFBFBB6
:100960000808FF7E3C18FC5C7C1C0808060F2FA6BC
:10097000904C201808081E3360C2878ADC4808089B
:100980003C7EF3E1C0C460310808003872E1E172D6
:1009900038000808001E3BF3F33B1E000808E0C0C7
:1009A000983C3C19030708083C24E78181E7243C74
:1009B00008081E3F7FFEDE6F331E0808060979BE59
:1009C000BE7909060808DB5A1824242424180808CC
:1009D000619689A8A88996610808C39900424200D7
:1009E00099C30808815A3C66663C5A810808C09839
:1009F000244242241903080810189CFFFF9C181079
:100A000008081008E43F3FE4081008083C638AA087
:100A1000A08A631C080803070E1C1820C0C0080821
:100A200000708DB1B18D7000080860C0D8DCDCD8D2
:100A3000C0600808387CFCFD7BBC7C3807073D782B
:100A4000607A707D380707081C2263221C0807079C
:100A5000080C7E7F7E0C0807071E79396F39791ED6
:100A600007070E1F3F7E3F1F0E07071F1D77535FAF
:100A7000447C07071C3E5F5F6F321C070707152782
:100A8000087254700707775D7722775D770707084C
:100A90000C0E3F4E2C08070718045F1D5F04180753
:100AA000070822004D10220807077F695969596914
:100AB0007F0707397F39383F613F07076B41085D82
:100AC00008416B07071C14774177141C0707775DF3
:100AD0007505755D77070773517C141F4567070718
:100AE00004487A1F7A480407071E785C1C7F4F066B
:100AF000070700360063003600070763630008003D
:100B0000636307071C22554955221C07071C225501
:100B10005155221C060610381C0D010706060C1242
:100B20003F213F0C0606041E27271E0406062C3E06
:100B30000F0F3E2C0606071D270A122406060F0972
:100B4000392F243C06063F002D2D003F06060002EB
:100B5000253D020006060F3C0C3F0F0606062B0B38
:100B60003807343506061B0F063B190806061233F4
:100B70000000331206063333000033330606180C28
:100B80002633190C060602263F3F260206060324DA
:100B900038382403060621120C0C122106060C001C
:100BA0002D2D000C0606211E12121E2106063C22C7
:100BB0000909223C06063F090F0F0F0F06063F0FDB
:100BC0000D0F311106060C122121120C06060C1E07
:100BD0003F3F1E0C05051B1B041B1B05050E1B1FA1
:100BE0001D0E050503061F060305051C1516151C1D
:100BF00005050C181E1E04050500121D1200050532
:100C0000021E020E1205051E1E1E0A0E0505081AFA
:100C10001F1A08050512191E19120505001F0D1FC0
:100C200000050504061F16040505011E0B1E01051F
:100C300005100E1B0E1005050E1F1B110005051ECD
:100C40000C0F1E0605051E181D1E1C0505041E178B
:100C50001E040505160D0F0D160505061D1F1D06A4
:100C600005051E071F071E05051C0E070E1C0505A2
:100C7000070F1E0F0705051F1111111F03081F0580
:100C80001F1F151B1F11111F110E1F15111F05010D
:100C90001F111D1F041F001F0010101F1F041B1F0A
:100CA00010101F061F1F011F1F111F1F05071F31D7
:100CB0001F1F051B17151D011F011F101F0F100FF0
:100CC0001F0C1F1B041B071C071915130C121E1FDA
:100CD000120C1E12120C121F0C1A14041F052E2ABD
:100CE0001E1F021C001D00201D001F041A011F00F2
:100CF0001E041E1E021E1E121E3E120C0C123E1E52
:100D0000020614120A020F121E101E0E100E1E08EA
:100D10001E1A041A2E281E1A12161F111F00001F59
:100D20001D151711151F07041F17151D1F151D0170
:100D3000011F1F151F17151F0017000010000404C6
:100D400004040E040229060A000005051F1F0F07F0
:100D5000030505000E060200FEFFFFFFFFFFFFFF79
:100D6000FFFFFFFFFFFFFFFFFFFFFFFFFFFFFFFF93
:100D7000FFFFFFFFFFFFFFFFFFFFFFFFFFFFFFFF83
:100D8000FFFFFFFFFFFFFFFFFFFFFFFFFFFFFFFF73
:100D9000FFFFFFFFFFFFFFFFFFFFFFFFFFFFFFFF63
:100DA000FFFFFFFFFFFFFFFFFFFFFFFFFFFFFFFF53
:100DB000FFFFFFFFFFFFFEFFFFFFFFFFFFFFFFFF44
:100DC000FFFFFFFFFFFFFFFFFFFFFFFFFFFFFFFF33
:100DD000FFFFFFFFFFFFFFFFFFFFFFFFFFFFFFFF23
:100DE000FFFFFFFFFFFFFFFFFFFFFFFFFFFFFFFF13
:100DF000FFFFFFFFFFFFFFFFFFFFFFFFFFFFFFFF03
:100E0000FFFFFFFFFFFFFFFFFFFFFFFFFFFFFFFFF2
:100E1000FFFFFFFFFFFF7FFFFFFFFFFFFFFFFFFF62
:100E2000FFFFFFFFFFFFFFFFFFFFFFFFFFFFFFFFD2
:100E3000FFFFFFFFFFFFFFFFFFFFFFFFFFFFFFFFC2
:100E4000FFFFFFFFFFFFFFFFFFFFFFFFFFFFFFFFB2
:100E5000FFFFFFFFFFFFFFFFFFFFFFFFFFFFFFFFA2
:100E6000FFFFFFFFFFFFFFFFFFFFFFFFFFFFFFFF92
:100E7000FFFFFFFF7F5F1800FC0202020202828276
:100E80008282020202020202020202020202020242
:100E90000202020202020202020202020202020232
:100EA00002020202828282828202020202020202A2
:100EB0000202020202020202020202020202020212
:100EC0000202020202020282828282828202020202
:100ED00002020202FC0000FF000000000080FFFF91
:100EE0008080E0007CFE92929E5C0064F69292FE0E
:100EF0007C803E7EC0C07E3E007CFE92929E5C0066
:100F000000007FFF808088F9790064F69292FE7C71
:100F10008002FEFE02FEFC02FEFC007CFE92929E1F
:100F20005C00000000030300B8B8080F07000000D1
:100F3000000000FF00003F40404040404040404033
:100F400040404040404040404040404040404040A1
:100F50004040404040404040404040404040404091
:100F60004040404040404040404040404040404081
:100F70004040404040404040404040404040404071
:100F80004040404040404040404040404040404061
:100F900040403F00FEFFFFFFFFFFFFFFFFFFFFFF9F
:100FA000FFFFFFFFFFFFFFFFFFFFFFFFFFFFFFFF51
:100FB000FFFFFFFFFFFFFFFFFFFFFFFFFFFFFFFF41
:100FC000FFFFFFFFFFFFFFFFFFFFFFFFFFFFFFFF31
:100FD000FFFFFFFFFFFFFFFFFFFFFFFFFFFFFFFF21
:100FE000FFFFFFFFFFFFFFFFFFFFFFFFFFFFFFFF11
:100FF000FFFFFFFFFFFFFEFFFFFFFFFFFFFFFFFF02
:10100000FFFFFFFFFFFFFFFFFFFFFFFFFFFFFFFFF0
:10101000FFFFFFFFFFFFFFFFFFFFFFFFFFFFFFFFE0
:10102000FFFFFFFFFFFFFFFFFFFFFFFFFFFFFFFFD0
:10103000FFFFFFFFFFFFFFFFFFFFFFFFFFFFFFFFC0
:10104000FFFFFFFFFFFFFFFFFFFFFFFFFFFFFFFFB0
:10105000FFFFFFFFFFFFFFFFFFFF7FFFFFFFFFFF20
:10106000FFFFFFFFFFFFFFFFFFFFFFFFFFFFFFFF90
:10107000FFFFFFFFFFFFFFFFFFFFFFFFFFFFFFFF80
:10108000FFFFFFFFFFFFFFFFFFFFFFFFFFFFFFFF70
:10109000FFFFFFFFFFFFFFFFFFFFFFFFFFFFFFFF60
:1010A000FFFFFFFFFFFFFFFFFFFFFFFFFFFFFFFF50
:1010B000FFFFFFFFFFFFFFFFFFFFFFFF7F63180042
:1010C000FC02020282820202028282020202020206
:1010D00002028282828202020282828282020202F0
:1010E00002020282828282020202020202020202E0
:1010F00002020202020202020202020202020202D0
:1011000002828202020202828202020202F20A0ABF
:101110000A0A0A0A0A0A0A0A0A0A0A0A0A0AF2024F
:10112000FC0000FF0000001FFFE01CE0FF1F007C30
:10113000FE92929E1C8080FFFF8080008080FFFFD7
:10114000808000000000FFFF80C17F3E007CFE82A7
:1011500082FE7C00FEFE0202FEFC007CFE92929E5D
:101160001C000007DFDF07000007DFDF07000000CB
:10117000FF00000000000000000000000000000070
:1011800000FF00FF00003F404040404040404040E2
:10119000404040404040404040404040404040404F
:1011A000404040404040404040404040404040403F
:1011B000404040404040404040404040404040402F
:1011C000404040404040404040404040404040401F
:1011D0004040404F50505050505050505050505040
:1011E000505050504F403F00750C6E0C670C600C17
:1011F000590C520C4B0C440C3D0C360C2F0C280C8B
:10120000210C1A0C130C520C0C0C050CFE0BF70BDA
:10121000F00BE90BE20BDB0BD40BCC0BC40BBC0BC0
:10122000B40BAC0BA40B9C0B940B8C0B840B7C0BA6
:10123000740B6C0B640B5C0BA40B540B4C0B440B2E
:101240003C0B340B2C0B240B1C0B140B0B0B020B49
:10125000F90AF00AE70ADE0AD50ACC0AC30ABA0A72
:10126000B10AA80A9F0A960A8D0ADE0A840A7B0A36
:10127000720A690A600A570A4E0A450A3C0A320A8B
:10128000280A1E0A140A0A0A000AF609EC09E209E9
:10129000D809CE09C409BA09B009A609000A9C09EF
:1012A000920988097E0974096A09600956094C097E
:1012B000380924091009FC08E808D408C008AC085B
:1012C0009808840870085C08480834082008D40886
:1012D0000C08F807E407D007BC07A80794078007A5
:1012E0006C07560740072A071407FE06E806D206D1
:1012F000BC06A60690067A0664064E063806220646
:10130000E8060C06F605E005CA05B4059E05880545
:1013100072055C0544052C051405FC04E404CC04AA
:10132000B4049C0484046C0454043C0424040C049D
:10133000F403CC04DC03C403AC0394037C03640314
:101340004C0334031C030203E802CE02B4029A02E7
:10135000800266024C0232021802FE01E401CA0158
:10136000B001960180027C01620148012E01140146
:10137000FA00E000C600AC0044052C051405FC048E
:10138000E404CC04B4049C0484046C0454043C04BD
:1013900024040C04F403CC04DC03C403AC03940362
:1013A0007C0364034C0334031C0344052C0514051F
:1013B000FC04E404CC04B4049C0484046C045404CD
:1013C0003C0424040C04F403CC04DC03C403AC0389
:1013D00094037C0364034C0334031C0344052C0571
:1013E0001405FC04E404CC04B4049C0484046C04DC
:1013F00054043C0424040C04F403CC04DC03C403B0
:10140000AC0394037C0364034C0334031C03020306
:101410002C051405FC04E404CC04B4049C048404EA
:101420006C0454043C0424040C04F403CC04DC03D6
:10143000C403AC0394037C0364034C0334031C0314
:1014400005050A150A150AD5F08D14A1C881CFD952
:10145000F1AF20000C0C1E678608102040800000B1
:1014600000000000010202040408090E0E040C0C26
:10147000124A29A595555595A5294A12000001043F
:10148000020A0A02040100000C0CF8663169E9B195
:10149000A1E1612166F8030F0A0F030202030F0A9C
:1014A0000F030C0C0609D1220408040462920907F8
:1014B0000C0B0804020101020C0403010C0C0804CB
:1014C000C2E1B2140802812284080004000103076B
:1014D000060E0C0C08080C0C3FCFC7333939C6C6B2
:1014E000CC3830C000000103060609090C0E0F0FAE
:1014F0000C0CFF0155015501FF00545204F80F0078
:10150000050005000F000505000F0C0C000000A0F1
:10151000530F0F53A0000000000003060E0E0E0E26
:10152000060300000C0C22A4889B1B4824A2A0A048
:1015300020A00504020409090504020405040C0C9A
:10154000FB036461218D1D41616403FB0D0C0208E6
:10155000080B0B0808020C0D0C0C03027F6B556B7B
:10156000D5EB556B557F0000060F0F060000060FE8
:101570000F060C0CE0F8FFE6E43C3CE4E6FFF8E084
:1015800001000B070B01010B070B00010C0C54149D
:1015900094D4C0FF0545555054540504010303017C
:1015A0000405050505050C0CAA10C3F43EFAFFFA64
:1015B0003EF4C3080A0007070003070300070700FB
:1015C0000C0CF80432393D3DC1C1C1C204F801021E
:1015D000040808080B0B090402010C0C008044DF0E
:1015E000FFDF4440401CFC1C0100000F0B030E08F1
:1015F00000000F000C0CFF015555555501FF040468
:1016000008F00D0D010D0D0107010D0D01070C0C6A
:101610000C006D6D000C0C804C4C202C00000B0B52
:10162000000C0300000000000C0CAA003C7E66FFCA
:10163000FF66EECC00550A000307060F0F060703EE
:1016400000050C0C01FE06FA9A6A6A9AFA06FE0177
:101650000807060505050505050607080C0CB8BCB6
:10166000BE80FF80B8BE80FF80800304080A080A9D
:10167000080A080402010C0C60F0F06006EFEF06A7
:1016800060F0F0600000080C0E0F0F0E0C08000058
:101690000C0C009F90FC9A9C9AFC909F00AA00075B
:1016A0000701030703010707000A0C0C01CC9E3E4B
:1016B0007EFCF8F2E6CE9C0108030707060401034E
:1016C000070703080B0B30C02E11151115112EC082
:1016D0003000050604060006040605000B0B000793
:1016E000FFFFFFFF77777707070007070707070761
:1016F000000000000B0BC0E0F0F0F0E4C20924127F
:101700000901030707070301000000000B0B1C225F
:10171000414141221C000808F800000007040404AD
:10172000040404070B0BF8FFFECCC878C8CCFEFFFE
:10173000F801030705050505050703010B0B20301C
:10174000F83C3EFF3E3CF830200000070404070749
:10175000070700000B0B00F40A11151511110AF40C
:101760000000010204040404040201000B0B081031
:10177000102126F820207050700000000007050797
:10178000000000000B0BFF01A10FA90AFC0055553A
:101790005507040404040407000505050B0B0007A6
:1017A000CFE83EFEC80F0700000400050100030358
:1017B000000400040B0BBF81A1A1212FE009090B3C
:1017C000F807040407000203000101010B0BD540D8
:1017D00000FF818181818181FF07040404060004E8
:1017E000000400040B0B003D60FD80FD80FD603DAA
:1017F0000000000004050705040000000B0B1C3E60
:101800007C70FEFFFE80FCFEFC0000000007070766
:10181000030301000B0B008040281C987CFE5F0F27
:101820000707040402010000000000000B0B1F2149
:1018300041913972E44810A0400000000001020408
:10184000020100000B0BF804525204F80452520437
:10185000F807020101020702010102070B0B7CFEDF
:10186000FFC3C37FC3C3FFFE7C000007070107015E
:10187000070700000B0B00EEFAEE20FE04F8002034
:101880002000070107000301000000000B0B607837
:1018900064E2627E6000FF000002070200020702AD
:1018A000000302020B0BFF01DD5D5DDDDDDDDD010F
:1018B000FF07040704040707070704070B0BF0F8EA
:1018C0009C0E0300FF01FD01FF0103030606040156
:1018D000020402010B0B40605048FE01FE485060BC
:1018E0004000000406050405060400000B0BE01090
:1018F000FA6C7878786CFA10E000000001010001C1
:10190000010000000A0A007CFDFEFDFE7C0038009C
:10191000020202020202020200000A0A0080C080E3
:10192000387DEEBCEE7902030103030203010000DF
:101930000A0A080C14FEF4E0C000E01000000203E4
:101940000303030200000A0A1C3870F8FEFBF9F9D1
:10195000FBFE000000010303030303010A0A204009
:1019600080FCC0FFE0FFC0FC000000010303030394
:1019700003010A0A484472C1F24448427F4200000F
:1019800000010303020000000A0A00FC0209BD89ED
:101990008102FC00000302020202020203000A0AA2
:1019A00078843231FDFD3132847800000102020278
:1019B000020100000A0A00FF555D55F735BDB5BFAD
:1019C000000303030303000301000A0A00000E1FC3
:1019D000F9F99F8E000000000000030302020000DE
:1019E0000A0AF1FACCCC7C7CCCCCFAF103010301DD
:1019F0000303010301030A0A784651C6613E080841
:101A000008F8000203030101010203030A0A101887
:101A1000FC1EFF9F9EFC181000000302030303033B
:101A200000000A0AC1673962C4386C446C3801038B
:101A300002030100000000000A0A0000FFA9F9A942
:101A4000F9A9FF00000003020302030203000A0ACF
:101A5000E070B07EF2F272B67CF00001030100008B
:101A6000010301000A0A01FF45FC8249458902FC85
:101A7000000300000000000001010A0A406070FC41
:101A80003F3FFC70604000000200030300020000C2
:101A90000A0A78FCFE8F05050D1B961C0000010349
:101AA0000302020100000A0AFCB63331FFFF3133A2
:101AB000B6FC000103020303020301000A0A0E1F21
:101AC0005F9F0EC0242821C2010200000001020213
:101AD00002010A0AF03CEE3BBFBF3BEE3CF00000C7
:101AE00000020303020000000A0A90DEDE9E3E9E12
:101AF000D4D49424010303010001030301000A0A62
:101B00000C1E3F3F9E0C4090204000000000000152
:101B1000020001020909000F10A7CFA7100F000053
:101B200000010101010100000909048E5F0E44E07B
:101B3000F4E24101000000000001000009090C5E10
:101B4000D3803F009FDE5C00000001010101000026
:101B50000909004CDEDFDFF7F66400000000010138
:101B6000010000000909806018E6F3E618608001B2
:101B70000100000100000101090900DFB6A4B6DF81
:101B80006060F8010100000001010001090982FD07
:101B900082BABABA827F8200010000000000010010
:101BA000090907091EBFFFBF1E0907000001010147
:101BB000010100000909C02070F86C3E1B0E0401F1
:101BC00001010000000000000909CCEEA6F7B7F7FC
:101BD000A6EECC01010001000100010109097CDA37
:101BE00093333B3393DA7C000001010101010000D3
:101BF00009097CF6F3F1FF1F9FDE7C000001010163
:101C000001010000090910D6D600C700D6D6100081
:101C100000000001000000000909008040201C1C99
:101C20001E070301000000000000000009090E1B50
:101C300015377AF0E0C0000000000000000101014B
:101C400009097C9E33333F33339E7C000001010140
:101C500001010000090900605876FD6E78600001FE
:101C60000101010101010101090910FE9282D782DF
:101C700092FE100000000001000000000909C629C2
:101C800029C610C62929C600010100000001010073
:101C90000909C22E2ACE18C82A2CC800010100004A
:101CA0000001010009093CC2094D414D09C23C0037
:101CB000000101010101000009091E3F7FFFFEDF55
:101CC0006F3B1E00000000010000000009097EF1CA
:101CD000F171DF71F1F17E000101000100010100ED
:101CE00009094E5959899F8959594E01010100002E
:101CF0000001010108083C3CDBFFFFDB3C3C08081D
:101D0000DFDFD8FFFF1BFBFB0808FF7E3C18FC5CF5
:101D10007C1C0808060F2FA6904C201808081E33BC
:101D200060C2878ADC4808083C7EF3E1C0C46031A9
:101D30000808003872E1E17238000808001E3BF321
:101D4000F33B1E000808E0C0983C3C190307080854
:101D50003C24E78181E7243C08081E3F7FFEDE6FBC
:101D6000331E0808060979BEBE7909060808DB5A41
:101D70001824242424180808619689A8A889966143
:101D80000808C3990042420099C30808815A3C667A
:101D9000663C5A810808C098244242241903080866
:101DA00010189CFFFF9C181008081008E43F3FE43F
:101DB000081008083C638AA0A08A631C080803076F
:101DC0000E1C1820C0C0080800708DB1B18D7000C5
:101DD000080860C0D8DCDCD8C0600808387CFCFD8E
:101DE0007BBC7C3807073D78607A707D3807070830
:101DF0001C2263221C080707080C7E7F7E0C080744
:101E0000071E79396F39791E07070E1F3F7E3F1F66
:101E10000E07071F1D77535F447C07071C3E5F5F5B
:101E20006F321C0707071527087254700707775D84
:101E30007722775D770707080C0E3F4E2C080707BF
:101E400018045F1D5F041807070822004D102208C0
:101E500007077F69596959697F0707397F39383F13
:101E6000613F07076B41085D08416B07071C14774A
:101E70004177141C0707775D7505755D7707077354
:101E8000517C141F4567070704487A1F7A480407E6
:101E9000071E785C1C7F4F0607070036006300367C
:101EA0000007076363000800636307071C225549A6
:101EB00055221C07071C22555155221C06061038B6
:101EC0001C0D010706060C123F213F0C0606041EDE
:101ED00027271E0406062C3E0F0F3E2C0606071D64
:101EE000270A122406060F09392F243C06063F0054
:101EF0002D2D003F06060002253D020006060F3C80
:101F00000C3F0F0606062B0B3807343506061B0F51
:101F1000063B190806061233000033120606333357
:101F2000000033330606180C2633190C0606022669
:101F30003F3F2602060603243838240306062112F2
:101F40000C0C122106060C002D2D000C0606211E7D
:101F500012121E2106063C220909223C06063F09F0
:101F60000F0F0F0F06063F0F0D0F311106060C1253
:101F70002121120C06060C1E3F3F1E0C05051B1BE3
:101F8000041B1B05050E1B1F1D0E050503061F0662
:101F90000305051C1516151C05050C181E1E040549
:101FA0000500121D12000505021E020E1205051E77
:101FB0001E1E0A0E0505081A1F1A08050512191E0D
:101FC00019120505001F0D1F00050504061F160444
:101FD0000505011E0B1E010505100E1B0E10050543
:101FE0000E1F1B110005051E0C0F1E0605051E18F1
:101FF0001D1E1C0505041E171E040505160D0F0DDC
:10200000160505061D1F1D0605051E071F071E05D3
:10201000051C0E070E1C0505070F1E0F0705051FE3
:102020001111111F07030103070305020107030430
:102030000607060502041414000000000000C0E0BA
:1020400030303030E0C00000000000000000000030
:1020500000000000006C6E0703010000000000009B
:102060000000000000000000000000000000000070
:10207000000000001616FF0101010101010101012C
:10208000010101010101010101FFAA54FF0000004B
:10209000000000000000000000000000000000FF41
:1020A000AA550F182818281828182818281828188A
:1020B00028182818281F2A151D2016200F20082050
:1020C0000120FA1FF31FEC1FE51FDE1FD71FD01FD3
:1020D000C91FC21FBB1FFA1FB41FAD1FA61F9F1F22
:1020E000981F911F8A1F831F7C1F741F6C1F641F02
:1020F0005C1F541F4C1F441F3C1F341F2C1F241FE8
:102100001C1F141F0C1F041F4C1FFC1EF41EEC1E72
:10211000E41EDC1ED41ECC1EC41EBC1EB31EAA1E92
:10212000A11E981E8F1E861E7D1E741E6B1E621EB3
:10213000591E501E471E3E1E351E861E2C1E231E77
:102140001A1E111E081EFF1DF61DED1DE41DDA1DD1
:10215000D01DC61DBC1DB21DA81D9E1D941D8A1D2F
:10216000801D761D6C1D621D581D4E1DA81D441D31
:102170003A1D301D261D1C1D121D081DFE1CF41CC1
:10218000E01CCC1CB81CA41C901C7C1C681C541C9F
:10219000401C2C1C181C041CF01BDC1BC81B7C1CCA
:1021A000B41BA01B8C1B781B641B501B3C1B281BE7
:1021B000141BFE1AE81AD21ABC1AA61A901A7A1A16
:1021C000641A4E1A381A221A0C1AF619E019CA198A
:1021D000901AB4199E19881972195C194619301988
:1021E0001A190419EC18D418BC18A4188C187418EF
:1021F0005C1844182C181418FC17E417CC17B417E3
:102200009C17741884176C1754173C1724170C1755
:10221000F416DC16C416AA16901676165C1642162C
:1022200028160E16F415DA15C015A6158C1572159C
:1022300058153E15281624150A15F014D614BC148A
:10224000A21488146E145414EC18D418BC18A418D2
:102250008C1874185C1844182C181418FC17E41700
:10226000CC17B4179C17741884176C1754173C17A5
:1022700024170C17F416DC16C416EC18D418BC1866
:10228000A4188C1874185C1844182C181418FC170F
:10229000E417CC17B4179C17741884176C175417CD
:1022A0003C1724170C17F416DC16C416EC18D418B7
:1022B000BC18A4188C1874185C1844182C1814181E
:1022C000FC17E417CC17B4179C17741884176C17F5
:1022D00054173C1724170C17F416DC16C416AA164C
:1022E000D418BC18A4188C1874185C1844182C182E
:1022F0001418FC17E417CC17B4179C17741884171C
:102300006C1754173C1724170C17F416DC16C41658
:10231000801080808080808080808080800080002D
:102320008040A0A0A0A0A0A0A0A0A0A0A0A0A0A02D
:10233000A0A0A0A0A0A0A0A0A0A0A0A0A0A0A0A09D
:10234000A0A0A0A0A0A0A0A0A0A0A0A0A0A0A0A08D
:10235000A0A0A0A0A0A0A0A0A0A0A0A0A0A0A0A07D
:10236000A0A0A0A0A0A0A0A0A0A0A0A0A0A0A0A06D
:10237000A0A0A0A0A0A0A0A0A0A0A0A0A0A0A0A05D
:10238000A0A0A0408000800080808080808080802D
:102390008080FFFFFFFFFFFFFFFFFF7FAA5500FFC9
:1023A00000FFFFB9B0B286C6FF8080B6B6BEBEFFE2
:1023B0008080BFBFBFBFFF8080B6B6BEBEFFC180FA
:1023C000BEBEBEDDFFFEFE8080FEFEE7E7FFFF9F94
:1023D000E3ECE0838FFFFFE7E7FFFF8080F6F0F993
:1023E000FFC080BFBFBFC0FF9E86A2B0BCFF9E865D
:1023F000A2B0BCFF8080BFBFBFBFFF8080B6B6BEAB
:10240000BEFFFFFF00FF0055AA7FFFFFFFFFFFFF9A
:10241000FFFF8010FFFFFFFFFFFFFF00FF00003EF8
:102420000A0E003C203C0034242C0034242C0002F2
:102430003E0000183428002824140000000000008A
:10244000000000000000000000000000000000008C
:10245000000000000000000000000000000000007C
:1024600000000000000000FF00000000000000006D
:10247000000000000000000000000000000022102A
:102480000804220000000000000000FF00FFFFFF22
:10249000FFFFFFFF2F2F2F2F2F2F2F2F2E2D2D2D13
:1024A0002D2D2D2D2D2D2D2D2D2D2D2D2D2D2D2D5C
:1024B0002D2D2D2D2D2D2D2D2D2D2D2D2D2D2D2D4C
:1024C0002D2D2D2D2D2D2D2D2D2D2D2D2D2D2D2D3C
:1024D0002D2D2D2D2D2D2D2D2D2D2D2D2D2D2D2D2C
:1024E0002D2D2D2D2D2D2D2C2D2D2D2D2D2D2D2D1D
:1024F0002D2D2D2D2D2D2D2D2D2D2D2D2D2D2D2D0C
:102500002D2D2D2D2D2D2D2D2D2D2D2E2F2F2F2FF2
:102510002F2F2F2F21080F0F08080006090B060088
:102520000E03030E000F090F06000F0F000F02032A
:102530000F000E0F090D000E10BEBDBEBDBEBDBE0C
:10254000BDBEBDBEBDBE000004000400040004000A
:1025500004000400004E080F0D0702000F050F0ACB
:10256000000F0D0900020B0D00020B0D0000000012
:10257000000F0D0702000F0F0808000E03030E00E6
:10258000030E0E0300000006090B06000F02030FE6
:1025900000000000010F0F010E03030E000F0D07D6
:1025A00002000F0D090E10A7C7A7C7A7C7A7C7A787
:1025B000C7A7C7A7000707070707070707070707F2
:1025C00007070024080E1F1F1F0E00000000000058
:1025D00000000000001F0E040000000000000000CA
:1025E00000040E1F00040E1F0080400000000000C9
:1025F0000000F800000000000000000000F80000EB
:102600000000000000000000F800000000000000D2
:10261000000000F800000000000000000000F800CA
:10262000000000000000000000F8000000000000B2
:10263000000000000000000000000000000000009A
:10264000000000000000000000000000000000008A
:10265000000000000000000000000000000000007A
:102660000000000000000000000000000000510118
:102670000501FF01050115015101010101FF0105DE
:102680000115015501050101FF0115014501150164
:10269000150101FF01050115015101010101FF01B2
:1026A000050115015501050101FF01000145001556
:1026B0000100010100000100010100010101000110
:1026C0000100010100000001000100010101010001
:1026D00000000000000000000000000000000000FA
:1026E00000000000000000000000000000000908D9
:1026F00008080F080809080809080808080F080949
:1027000008080809080908080F080908090809083D
:102710000808080F080809080809080808080F0829
:102720000908080809080908080F0800080900092D
:102730000800080800000800080800080808000849
:102740000800080800000008000800080808080041
:102750000000000000000000000000000000000079
:102760000000000000000000000000000000000069
:102770000000000000000000000000FEFEFEFECE93
:102780008686CEFEFE787800009CBEBEBEBE9C0053
:102790000000F8F8FEFE060606061E1E18180000C9
:1027A000F0F0F0F060606060E0E080800000808029
:1027B000E0E060606060E0E0808000008080E0E059
:1027C000606060606060606000008080E0E0606089
:1027D00060606060606000000000000000000000B9
:1027E00000000000000000000000000000000000E9
:1027F00000000000000000000000007F7F7F7F01DC
:10280000010101010100000000617F7F7F7F7F6087
:1028100000001F1F7F7F60606060787818180000DC
:102820007F7F7F7F000000000101010100001F1F6A
:102830007F7F606060607F7F1F1F0000616167674E
:10284000666666667E7E1818000061616767666668
:1028500066667E7E181800000070301000000000D0
:102860000000000000000000000000000000000068
:102870000000000000000000000000000000000058
:1028800000000000000010101010100010001000D8
:102890000000101000101000101010001010001098
:1028A000000010100010900090100010F010109018
:1028B00010901010109010F0101010109010109038
:1028C0001010F010101010901090109010F01010C8
:1028D0009010901010109010F01010101090101018
:1028E000901010F010101090000000000000000088
:1028F00000000000000000000000000000000000D8
:1029000000000000000000808080800080008000C7
:1029100000008080008080008080800080800080B7
:10292000000080800080A800A2800080FF8080A03E
:1029300080AA80A880A080FF808080808A80A88074
:10294000A080FF8080A880A880A280A880FF8080CF
:10295000A080AA80A880A080FF808080808A80A834
:1029600080A080FF80A0808A00000000000000009E
:102970000000000000000000000000000000000057
:102980000000000000000000000000000000000047
:102990000000000000000000000000000000000037
:1029A0000000000000000000000000001F00000008
:1029B000000000000000001F0000000000000000F8
:1029C00000001F000000000000000000001F0000C9
:1029D00000000000000000001F00000000000000D8
:1029E0000000001F00000000000000080B000202B1
:1029F0000201000904000001020200000524001089
:102A00000105240101010424020605240600010732
:102A100005810310004009040100020A00000007BC
:102A2000050202400000070583024000000403097C
:102A30000412010002EF020140412336800001012F
:102A400002030141726475696E6F204C4C43004172
:102A5000726475696E6F204C656F6E6172646F0091
:102A60005D2DD32A11241FBECFEFDAE0DEBFCDBF2C
:102A700012E0A0E0B1E0E8E3F3E602C005900D92B9
:102A8000A831B107D9F727E0A8E1B2E001C01D9253
:102A9000AC3EB207E1F715E1C1E3D5E104C02197EF
:102AA000FE010E948D2FC033D107C9F70E94EB2A87
:102AB0000C948F310C940000DC01FB019185909502
:102AC0002085922393FF0CC01E968C911E97811136
:102AD00002C083E0808B1E968C91813009F4808B3C
:102AE000089522E0FC0126870895089580E090E093
:102AF000089508950C942B300C942B300C942B30AB
:102B00000C942B300C942B300C942B30CF93DF9300
:102B100061E070E080E090E00E94B430EC0100974A
:102B200021F063E172E00E948831CE01DF91CF9104
:102B30000C942B30CF92EF920F931F93CF93DF9390
:102B4000FC016A3039F48581848396818185890FFF
:102B500086839DC0A4816E3719F4AF5FA48397C0AC
:102B6000962FEF0166816F5F9A3380F4903310F5F2
:102B70009B3219F118F4913221F156C09D3209F4BB
:102B800059C09E3209F050C01FE31CC09B3548F469
:102B9000913470F49A3399F09F3309F045C012E4F0
:102BA00011C08FE9890F8A3108F03EC019EB03C0CC
:102BB0001FEB01C014E0190F05C011E403C013E4BA
:102BC00001C01EE38F81062E000C770B0A2E000C2D
:102BD000BB0B8130A1F5ECE7FCE00491EDE7FCE0F4
:102BE000E490112349F121E030E08E2D877011F43B
:102BF00020E030E08E2D869586958695280F311D34
:102C0000029FF001039FF00D11249F011203A00108
:102C1000139F500D11244258534F9AEFC92E20E0B4
:102C200030E0CD010E94562488858D5F9C81890FFC
:102C30008C832DC010E4C6CF4EE75CE0EECFECE70E
:102C4000FCE00491EDE7FCE0E4901123D9F021E0F1
:102C500030E08E2D877011F420E030E08E2D8695C7
:102C600086958695280F311D029FF001039FF00D78
:102C700011249F011203A001139F500D11244258EB
:102C8000534F02C04EE75CE08BEFC82EC8CF81E007
:102C900090E0DF91CF911F910F91EF90CF90089529
:102CA0002F923F924F925F926F927F928F929F925C
:102CB000AF92BF92CF92DF92EF92FF920F931F934A
:102CC000CF93DF93CDB7DEB7C156D1090FB6F894D5
:102CD000DEBF0FBECDBF3C0185E5E6E1F1E0DE01E0
:102CE000119601900D928A95E1F7DB0116960D90F1
:102CF000BC91A02DA296BFAFAEAFA29789E990E09C
:102D00000E947327582E882E880C880C880E90E01D
:102D1000019625E0289F5001299FB00C1124952C85
:102D2000990C990C990CE12CF12CF301E05FFE4F0A
:102D30006A96FFAFEEAF6A9793012B5E3E4F68969F
:102D40003FAF2EAF6897C3018F5E9E4F6C969FAFCB
:102D50008EAF6C9763019CEEC91A9EEFD90AA8E06A
:102D6000FA9E80011124482C842D90E08A159B0541
:102D70000CF048C0E1E0F0E0EC0FFD1FE80FF91F98
:102D800080818F113DC06A96EEADFFAD6A9760817C
:102D900070E06896AEADBFAD68978C91681B710905
:102DA0006C96EEADFFAD6C9780819801280F311DB8
:102DB000D6019C91492DF901E91BF109CF010E942F
:102DC00034226A96AEADBFAD6A978C91B801680F98
:102DD000711D6896EEADFFAD68978081681B710923
:102DE0006034710568F46C96AEADBFAD6C978C9194
:102DF00090E0F6012081492D821B91090E945A2200
:102E00004394B2CF6C96AEADBFAD6C970C910E0DE6
:102E10006A96EEADFFAD6A9740806896AEADBFADE5
:102E200068978C91481A490C312C10E0632D70E0A2
:102E300041E0C8010E948927339433944314B0F7CA
:102E40006A96EEADFFAD6A9700816896AEADBFADF4
:102E500068978C91081B0E0D6C96EEADFFAD6C97CC
:102E60003080390C412C10E041E0B801842D90E015
:102E70000E948927439443943414B0F7F394F8E004
:102E8000EF0E5F1408F06BCFE12CF12C412C930175
:102E90002C5E3E4F6E963FAF2EAF6E97451016C01C
:102EA000E12CF12C4DE9242E33243394912C412C28
:102EB000C3018C5E9E4F6E969FAF8EAF6E97D3010F
:102EC0001296A096BFAFAEAFA097A6C0C12CD12CD2
:102ED000A12CB12C842D90E0FC01E356FF4FA0966D
:102EE000FFAFEEAFA097A51408F078C089E990E095
:102EF0000E947327F82FFA9DC001FB9D900D1124AD
:102F0000A0962EAD3FADA097820F931F0E9473270E
:102F10008F70813051F1823009F059C06A96AEADA0
:102F2000BFAD6A978C91B601680F711D6E5F7F4FC0
:102F30006896EEADFFAD68978081681B71096C964D
:102F4000AEADBFAD6C978C91F701E80FF11DCF01CD
:102F500002966E96AEADBFAD6E972C9140E454E1F3
:102F6000821B91090E948F2232C06A96AEADBFAD1E
:102F70006A978C911601280E311CB2E02B0E311C81
:102F80006896EEADFFAD68978081281A31086C967F
:102F9000AEADBFAD6C978C918701080F111D0E5F10
:102FA0001F4F6E96EEADFFAD6E978081081B110925
:102FB0004801F5E08F0E911C0815190541F045E018
:102FC000B101C8010E9434220F5F1F4FF5CFBFEF40
:102FD000AB1ABB0AE8E0CE0ED11C85CF4394F8E0D3
:102FE000EF0EF11C5BCFF30111864394CE2C8101CF
:102FF000D12CC8010E94732781116FC00F5F1F4F32
:10300000F7E0DF0E23E2D212F4CF939438E0230EE0
:10301000311C88E0E80EF11C951016C0812C912C13
:103020003DE1232E32E0332E10E001E093012C5ECF
:103030003E4F6E963FAF2EAF6E97C3010296A0969D
:103040009FAF8EAFA0979AC0870102571F4F060D02
:10305000171D67019BE5C91A9EEFD90A5101C501E9
:103060000E947327D8019D918D01891338C2BFEF4B
:10307000AB1ABB0ACA14DB0491F76A96EEADFFAD3A
:103080006A9780808A946896AEADBFAD6897AC9021
:10309000B12CB194A194B1086C96EEADFFAD6C97D4
:1030A00080818701080F111D0F5F1F4F6E96AEAD17
:1030B000BFAD6E978C91081B11096801B7E0CB0E6C
:1030C000D11C0C151D0509F48ECF482DB501C80182
:1030D0000E9434220F5F1F4FF4CF6896AEADBFAD94
:1030E00068979C913D2D391B6C96EEADFFAD6C97AA
:1030F00090819D5F8A3028F421E0813019F020E032
:1031000001C023E06E96AEADBFAD6E974C91941B9F
:103110009C0D921BF301968397833087482F50E0D4
:1031200060E070E02AE0A0968EAD9FADA0970E946F
:10313000EC1B62E172E0A0968EAD9FADA0970E945D
:10314000D71B5CCFD30119961C924394B82C710104
:10315000D12CC12CC7010E94732781115EC0BFEF23
:10316000EB1AFB0AE5E0DE0EF9E1DF12F3CF1F5F99
:1031700028E0220E311C38E0830E911C151509F44D
:103180007DC064019EE0C90ED11CC60CD71C540141
:10319000ABEDAA1AADEFBA0A7101C7010E947327FD
:1031A000F60191916F0189139EC1FFEFEF1AFF0A9B
:1031B000AE14BF0491F76C96EEADFFAD6C97E08056
:1031C000EA946A96AEADBFAD6A978C916401C80E61
:1031D000D11CBFEFCB1ADB0A6896EEADFFAD689746
:1031E0008081C81AD1086E96AEADBFAD6E978C9136
:1031F00090E0AA24BB24A81AB90AF12CE81AF90A0B
:10320000AE14BF040CF09ECF47E0B601C5010E948A
:1032100034222FEFA21AB20AF3CF8A3008F0C394F7
:103220006A96EEADFFAD6A9790819F5F6896AEADEE
:10323000BFAD68972C91921B9B0D6E96EEADFFADC6
:103240006E972081F02FF21B2F2F2D0D3C2D330F69
:10325000231BD30116962C93169717962C9317972A
:1032600018969C93482F50E060E070E02AE0A0960A
:103270008EAD9FADA0970E94EC1B71CF512C812F7A
:1032800090E0880F991F83010E5E1E4F4816590665
:1032900069F481E0D8018C9388E990E00E9473275B
:1032A00090E061E083569D4F0E947527F801808170
:1032B000F301882309F45AC0ED5EFE4F808180340B
:1032C00009F015C188E990E00E947327E82FF0E02B
:1032D000EE0FFF1FE851FE4E85919491FC01149171
:1032E0003196F490EDEBF0E10491EEEBF0E1E49037
:1032F000CC24C39424E93FE04FEB50E164E170E05B
:103300008EE090E00E94832588E990E00E94732778
:10331000E82FF0E0EE0FFF1FE851FE4E459154916B
:10332000EF2DE69560E270E06E1B7109169585E65B
:1033300090E0811B9109CF59DF4F0FB6F894DEBFA3
:103340000FBECDBFDF91CF911F910F91FF90EF90F6
:10335000DF90CF90BF90AF909F908F907F906F90B5
:103360005F904F903F902F900C948F22EA5EFE4F1B
:103370008081803499F4E5E7FEE00491E6E7FEE021
:10338000E490CC24C39428E53DE047E75EE064E1A7
:1033900070E080E190E00E948325A9C0A2968EADE6
:1033A0009FADA29760E370E00E94792F893108F405
:1033B0009EC0D3011D966C911D971C968C91E1E5E2
:1033C000FDE00491E2E5FDE0E4906A96EEADFFAD2C
:1033D0006A979081F8E06F9FB0011124690F711D09
:1033E0006896AEADBFAD68979C91691B71096C96EC
:1033F000EEADFFAD6C972081F8E08F9FC0011124E6
:10340000820F911D53012CEEA21A2EEFB20AD501A4
:10341000EC91CC24C3942AE43DE043E55DE08E1BAF
:1034200091090E948325F30105856A96AEADBFAD73
:103430006A978C91B8E00B9F80011124080F111D31
:103440006896EEADFFAD68978081081B1109D30126
:103450001C96EC906C96EEADFFAD6C978081F8E019
:10346000EF9E70011124E80EF11CD5018C91E81A31
:10347000F1080034110528F449E0B801C7010E94A1
:103480005A22B801685F7F4F6034710520F449E02B
:10349000C7010E945A2249E0B801C7010E943422A4
:1034A00049E0B801C7010896CF59DF4F0FB6F8942D
:1034B000DEBF0FBECDBFDF91CF911F910F91FF9067
:1034C000EF90DF90CF90BF90AF909F908F907F90C4
:1034D0006F905F904F903F902F900C94342221E09A
:1034E000F301218783CDD30119960C932FCECF59A9
:1034F000DF4F0FB6F894DEBF0FBECDBFDF91CF9187
:103500001F910F91FF90EF90DF90CF90BF90AF9001
:103510009F908F907F906F905F904F903F902F90F3
:1035200008952F923F924F925F926F927F928F9267
:103530009F92AF92BF92CF92DF92EF92FF920F9342
:103540001F93CF93DF93CDB7DEB72C970FB6F894C8
:10355000DEBF0FBECDBF8C0189E990E00E947327CA
:10356000F82E8AE990E00E947327382E580182E0F5
:10357000A80EB11CEF2DF0E0FC87EB87C12CD12CFD
:10358000212CCE0101964C01FE013996FA87E9877C
:1035900023100DC00E571F4FE12C88E0482ECE019E
:1035A00001966C014E0199E0890E911C5CC0F401FA
:1035B00088E011928A95E9F736019DE9690E711C40
:1035C000412C512CEE24EA944F1461F0C3010E9467
:1035D00073278F70581649F08130A9F4E394E8E01E
:1035E000EE1206C0F401D50114C0F1E05F120CC068
:1035F000F401EE0DF11DE7FCFA9580818F5F808369
:103600005524539401C0582E43948FEF681A780ABA
:10361000DBCF81918D9389859A85E817F907C9F7E2
:10362000239498E0A90EB11CEB85FC85CE0EDF1E1D
:10363000AFCFC5017F9C800D911D11240E9473277F
:103640008F70581221C0F1E05F1621F1739473144A
:1036500080F3F601D80181918D93E815F905D9F72A
:10366000E394085F1F4FEF1411F1F601842D1192BE
:103670008A95E9F7712C512C66246A94AE2CB12CF2
:103680009DE9A90EB11CE3CF813079F46394E8E0A1
:103690006E16F9F2F601E60DF11D67FCFA958081D0
:1036A0008F5F808355245394D1CF582ECFCF2C9643
:1036B0000FB6F894DEBF0FBECDBFDF91CF911F9143
:1036C0000F91FF90EF90DF90CF90BF90AF909F90C1
:1036D0008F907F906F905F904F903F902F900895C4
:1036E0001F93CF93DF93EC018BE990E00E94732747
:1036F000182FFE01E25FFE4F80838CE990E00E946C
:103700007327FE01E15FFE4F80833296912F990F60
:10371000990F190F1D5F1083319797E0899F802DB6
:1037200011248E5F808333961082339610823497F3
:1037300010821C861D86CE010C96DF91CF911F91C1
:103740000C94911A08950895089508950895089580
:103750000C942B300895CF92DF92EF92FF920F934B
:103760001F93CF93DF936C017A018B01C0E0D0E00F
:10377000CE15DF0581F0D8016D918D01D601ED9157
:10378000FC910190F081E02DC6010995892B11F083
:103790002196EECF7E01C701DF91CF911F910F914E
:1037A000FF90EF90DF90CF9008950E947A316115DD
:1037B000710579F0FB0101900020E9F73197AF0125
:1037C000461B570BDC01ED91FC910280F381E02D4B
:1037D000099480E090E008958F929F92AF92BF92FB
:1037E000EF92FF920F931F93CF93DF93CDB7DEB786
:1037F000A1970FB6F894DEBF0FBECDBF7C01FA01D2
:10380000CB0119A2223008F42AE08E010F5D1F4F70
:10381000822E912CA12CB12CBF01A50194010E94F4
:103820003C2FF901CA01015011096A3014F4605D9E
:1038300001C0695CD8016C93232B242B252B61F7E5
:10384000B801C7010E94D71BA1960FB6F894DEBF3E
:103850000FBECDBFDF91CF911F910F91FF90EF90E1
:10386000BF90AF909F908F9008958F929F92AF924C
:10387000BF92CF92DF92EF92FF926B017C010E9488
:10388000E7234B015C01C114D104E104F104F1F020
:103890000E94E723DC01CB0188199909AA09BB0919
:1038A000883E9340A105B10570F321E0C21AD1080A
:1038B000E108F10888EE880E83E0981EA11CB11C77
:1038C000C114D104E104F10419F7DDCFFF90EF90AA
:1038D000DF90CF90BF90AF909F908F9008952F92E0
:1038E0003F924F925F926F927F928F929F92AF9290
:1038F000BF92CF92DF92EF92FF920F931F93CF93DD
:10390000DF93CDB7DEB729970FB6F894DEBF0FBEB1
:10391000CDBF998788876B01DC011C968D919C91A6
:103920001D9769E170E00E94792F8B01282F82306A
:10393000910520F03EEF732E780E01C0712C7C8231
:10394000B7E0B70DBD83223018F4672C680E03C0B2
:1039500022E0622E670C89E1809F4001819F900CDC
:1039600011247401E3E6EE1AEDEFFE0A5401FAE4C5
:10397000AF1AFDEFBF0A512CC7010E947327813097
:1039800009F453943FEFE31AF30AEA14FB04A1F796
:10399000550C550C598242E154E260E070E080E041
:1039A00090E00E94E32240E153E260E370E080E0B7
:1039B00090E00E94E322D60116968D919C91179774
:1039C00060E370E00E94792F8F839BE0392EE885B9
:1039D000F98532967F01FD817F160CF07EC0872D20
:1039E000072C000C990B9B838A835C01A80CB91CE3
:1039F000F501EE0FFF1FDF01A854BF4D2D01FD01A2
:103A000085919491FC012490319634913E83C72C8A
:103A10008C81C81A99E1C99E60011124AF81A93136
:103A200010F4761441F044E750E264E170E0C6011E
:103A300004960E948F22C50183569D4F0E947327D2
:103A4000813079F4F201459154914E8046946EE1B3
:103A500070E064197109C6010E96269482199109C5
:103A600006C046E350E264E170E0C60104960E949D
:103A70008F22E885F985368237823BE2308788E0FD
:103A800087152CF064E172E0C7010E94D71B4A81C0
:103A90005B814F5F5F4F4F3F9FEF590791F4A885C0
:103AA000B9851296ED91FC9113970190F081E02D6C
:103AB0006DE2C70109952AE041E050E060E070E066
:103AC00005C0052E000C660B770B2AE0C7010E948B
:103AD000EC1B7394B9E13B0E7ECF8AE2E885F98551
:103AE0008683878310864801F5E08F0E911CA12CF8
:103AF000B12C2AE0B501A401C7010E94EC1B66E1CC
:103B000072E0C7010E94D71B2AE0B501A401C701DA
:103B10000E94EC1B8DE5A885B98516968C931697A7
:103B200017968C93179718961C92B981B43668F43F
:103B300064E172E0C7010E94D71BE981EA3028F4F2
:103B400064E172E0C7010E94D71BF9814F2F50E05A
:103B500060E070E02AE0C7010E94EC1B011511052E
:103B600001F544E250E262E070E089E490E02996D9
:103B70000FB6F894DEBF0FBECDBFDF91CF911F917E
:103B80000F91FF90EF90DF90CF90BF90AF909F90FC
:103B90008F907F906F905F904F903F902F900C94FC
:103BA0008F224DE250E262E070E081E490E00E94FA
:103BB0008F220F301105A8F229960FB6F894DEBFB8
:103BC0000FBECDBFDF91CF911F910F91FF90EF906E
:103BD000DF90CF90BF90AF909F908F907F906F902D
:103BE0005F904F903F902F9008950F931F93CF9326
:103BF000DF938C0188E990E00E947327C82FD0E002
:103C0000F801D587C487CE0183569D4F0E94732744
:103C1000813089F42196CE0183569D4F0E947327EF
:103C2000811104C0F801D587C48705C02196CC3224
:103C3000F1E0DF0781F7DF91CF911F910F91089598
:103C4000AF92BF92CF92DF92EF92FF920F931F93AA
:103C5000CF93DF93EC016B01FB010085118510957B
:103C6000102315FF11C08C85882371F081508C873B
:103C700013FD0AC003FF08C0FE01E95EFE4F60812C
:103C8000CE010C960E94A52216FF1AC0FC8489E979
:103C900090E00E9473272F2D30E090E001972817C5
:103CA000390774F4F394FC8613FD0AC003FF08C0BF
:103CB000FE01E95EFE4F6081CE010C960E94A522B6
:103CC00017FF11C08D85882371F081508D8713FDFA
:103CD0000AC003FF08C0FE01E95EFE4F6081CE010D
:103CE0000C960E94A52214FF1AC0FD8489E990E079
:103CF0000E9473272F2D30E090E001972817390795
:103D000074F4F394FD8613FD0AC003FF08C0FE019E
:103D1000E95EFE4F6081CE010C960E94A522FE0155
:103D2000EE5EFE4F80819E012A5E3E4F5901811159
:103D300057C0F9018081803408F05FC07E01FCE04B
:103D4000EF0EF11C8C85FE01EF5EFE4F908128E0A6
:103D5000829F900D11242D853197808138E0239F1B
:103D6000800D11243496973718F09757908301C02F
:103D70001082FE01EB5EFE4F873318F0875380837D
:103D800001C0108213FF18C0C7010E94CB228130EE
:103D900061F010F0823081F461E0C7010E94A52239
:103DA000C95EDE4F81E0888307C060E0C7010E94E2
:103DB000A522C95EDE4F188202FF06C0F501808190
:103DC000803410F48F5F808312FF02C0F5011082EF
:103DD000F601818582FF36C0808582FD33C01BC01D
:103DE000CD5EDE4F8881803418F48F5F888305C0F4
:103DF00013FF03C082E0F601808BF50180818034DF
:103E000008F113FF03C082E0F601808B12FF1AC095
:103E1000F501108217C0C7010E94CB22823010F436
:103E200062E003C0823071F460E0C701DF91CF919E
:103E30001F910F91FF90EF90DF90CF90BF90AF90C8
:103E40000C94A522DF91CF911F910F91FF90EF90DD
:103E5000DF90CF90BF90AF9008952F923F924F92F6
:103E60005F926F927F928F929F92AF92BF92CF920A
:103E7000DF92EF92FF920F931F93CF93DF93CDB713
:103E8000DEB762970FB6F894DEBF0FBECDBFFC0160
:103E90007B01DB0119962C911997209518968C912E
:103EA000282304851585C80169E170E00E94792FF7
:103EB00025FF06C0882321F00150110915870487CA
:103EC00026FF07C0883129F084859585019695875E
:103ED000848727FF07C0662329F084859585499745
:103EE0009587848724FF07C06B3028F484859585E7
:103EF00049969587848723FF58C1FA8AE98A8F01FA
:103F000088E990E00E947327F8016485758590E048
:103F10008617970709F444C1FB01EE0FFF1FE85411
:103F2000FF4D05911491F801349031962490822D23
:103F30008770F22CF694F694F6948111F39488E944
:103F400090E00E947527632D89E990E00E94752713
:103F5000622D8AE990E00E947527832D90E09A8770
:103F6000898723E0880F991F2A95E1F79C878B8723
:103F70000E5F1F4FA12CB12CC12CD12CAF2DB0E066
:103F8000B88BAF87EF85F889E12CF12CCE16DF06D0
:103F900008F041C0C50183569F4F9E878D87A98534
:103FA000BA85EA16FB0658F5F701E00FF11FE49118
:103FB0004D845E844E0C5F1C98E0692E712C8E2E11
:103FC000912C81E090E0072C02C0880F991F0A9481
:103FD000E2F788219921892B11F060E101C060E0AE
:103FE000C201739C800D911D11240E94752773944A
:103FF0006A946110E6CFBFEFEB1AFB0AD0CFEFEF68
:10400000CE1ADE0A89859A85080F191FAB85BC85F3
:10401000AA0EBB1EB7CFC12CD12C412C512CFE01B6
:1040200031963F0124100AC000E010E0712C612C91
:1040300088E0482ECE0101967C017EC0D301E8E0E5
:104040001D92EA95E9F7870103561F4F912CA12C89
:10405000BB24BA943914E9F0C8010E9473278A1569
:1040600039F0803189F4B394F8E0BF1204C011C074
:1040700090E1A91209C0F301EB0DF11DB7FCFA950F
:1040800080818F5F808380E193940F5F1F4FA82E04
:10409000E1CF530100E010E04601A4EE8A1AADEF33
:1040A0009A0A9801F50161915F010F5F1F4F662326
:1040B00031F0852D90E0281739070CF0502EC401FF
:1040C000800F911F0E9475270830110551F7439406
:1040D000F8E0CF0ED11C89859A85E80EF91EA2CF93
:1040E000C601B39C800D911D11240E947327891570
:1040F000C9F1803191F1B394982EB21488F367011D
:10410000812C912C5801A4E6AA1AAEEFBA0A9401A8
:10411000F60161916F01FFEF8F1A9F0A61112FC0A5
:10412000C501880D991D0E94752788E088169104A5
:1041300071F77394085F1F4F371441F1D701E42DD5
:104140001D92EA95E9F7B12C912CAA24AA94C72CC8
:10415000D12CFDE9CF0ED11CD0CFA39488E0A812BA
:1041600004C0CDCF90E19912C6CFF701EA0DF11D41
:10417000A7FCFA9580818F5F808380E1BCCF862D7C
:1041800090E02817390764F2682CCACF652D8BE9B7
:1041900090E00E947527662D8CE990E00E947527BB
:1041A00083E0A989BA8950968C9362960FB6F894E9
:1041B000DEBF0FBECDBFDF91CF911F910F91FF905A
:1041C000EF90DF90CF90BF90AF909F908F907F90B7
:1041D0006F905F904F903F902F90089520911E0216
:1041E000211103C08FEF9FEF08955FB7F89422E08D
:1041F0002093E9002091F20030E01216130614F427
:1042000021E030E0422FFC0184E6415038F028984C
:1042100080931D029091F1009193F7CF2115310504
:1042200021F08091F200882319F05FBFC901089541
:104230008BE68093E800F9CF2FB7F89483E0809362
:10424000E9009091E800892F807295FF04C0909159
:10425000F20080E4891B2FBF0895CF93DF931F9254
:10426000CDB7DEB76983DC01ED91FC910280F3816B
:10427000E02D41E050E0BE016F5F7F4F09950F9048
:10428000DF91CF91089583E08093E9008091F2005F
:10429000882319F08AE38093E80008950E941C2186
:1042A00090E00895CF93DF931F92CDB7DEB7FC0166
:1042B0008485958597FD05C02FEF3FEF35872487CF
:1042C0000BC0CE0101960E94EE20019719F489815E
:1042D00090E002C08FEF9FEF0F90DF91CF91089594
:1042E0000F931F93CF93DF931F92CDB7DEB78C014F
:1042F000FC018485958597FF0EC0CE0101960E9432
:10430000EE20019719F4898190E002C08FEF9FEFB2
:10431000F80195878487F801848595850F90DF9152
:10432000CF911F910F910895FC018485958597FD8C
:104330000BC09FB7F89482E08093E9008091F2006F
:104340009FBF90E0019608959FB7F89482E0809314
:10435000E9008091F2009FBF90E008958F929F92B4
:10436000AF92BF92CF92DF92EF92FF920F931F9383
:10437000CF93DF936C017B018A0180910701882331
:1043800009F45CC080911E02882309F457C0809113
:104390001C0280FF05C08091E00082608093E000F5
:1043A000E801B12C8AEFA82E93E0892E2AE3922E01
:1043B000209711F4BB20D9F10E941C2181110AC061
:1043C000AA94AA20D9F161E070E080E090E00E9418
:1043D000351CEECF282F30E0C217D3070CF48C2FFA
:1043E0009FB7F8948092E9002091E80025FF1DC056
:1043F000282F30E0C21BD30BF701815020F04191F0
:104400004093F100FACFE20EF31EBB2019F0909218
:10441000E8000AC08091E80085FD07C09092E8009E
:10442000BB24B394209709F0B12C9FBFC1CF5D98F6
:1044300084E6809380071016110644F081E090E036
:10444000F6019383828380E090E001C0C801DF9190
:10445000CF911F910F91FF90EF90DF90CF90BF9081
:10446000AF909F908F900895EF92FF920F931F93BC
:10447000CF93DF937C018B01040F111DEB0177FFBC
:1044800002C0C0E0D0E0C8010134110514F080E49E
:1044900090E0C817D9073CF441E0BE01C7010E9473
:1044A00089272196F0CFDF91CF911F910F91FF9037
:1044B000EF9008959C01240F311D1216130674F518
:1044C000803891055CF597FF02C080E090E02138CC
:1044D000310514F020E830E0281BAB014770552768
:1044E00031E001C0330F4A95EAF777FF02C0695FF8
:1044F0007F4F43E0759567954A95E1F77695762F5E
:10450000662777956795860F971FFC01E15EFD4F43
:10451000215020F08081832B8193FACF0895CF9290
:10452000EF920F934115510561F0FA010491319614
:10453000E4904E5F5F4F2AEFC22E20E030E00E94F1
:1045400083250F91EF90CF900895FF920F931F93C3
:10455000CF93DF938C01F62E89E990E00E947327B8
:10456000F8019181C081D0E0C356DF4F989FC00D04
:10457000D11D1124CE010E9473278071682F6F29ED
:10458000CE010E947527C801DF91CF911F910F9135
:10459000FF900C94911ACF93DF93EC0189E990E09E
:1045A0000E9473279981288130E023563F4FA9014B
:1045B000989F400D511D1124CA010E9473278F70CE
:1045C000DF91CF910895CF92EF920F93411551054E
:1045D00061F0FA0104913196E4904E5F5F4F22E062
:1045E000C22E20E030E00E9483250F91EF90CF9003
:1045F00008958091850781110DC082E08093810725
:1046000084E080938207109284071092830781E0F0
:104610008093850781E897E008951F920F920FB667
:104620000F9211248F939F938091E1009091E1006C
:10463000937F9093E10083FF0FC01092E90091E017
:104640009093EB001092EC0092E39093ED001092A7
:104650001E0298E09093F00082FF20C093E09093B8
:10466000E9009091F200992319F09AE39093E80001
:1046700090918007992339F0909180079150909301
:104680008007992389F190911D02992339F0909127
:104690001D02915090931D02992341F184FF10C097
:1046A0008091E2008E7E81608093E2008091E10043
:1046B0008F7E8093E10080911C028E7E806111C00C
:1046C00080FF16C08091E2008E7E80618093E200C0
:1046D0008091E1008E7E8093E10080911C028E7EAD
:1046E000816080931C0204C05D9ACDCF289AD6CFFA
:1046F0009F918F910F900FBE0F901F901895089566
:10470000DC01FB01808591859095982384FF17C07B
:104710001C962C911C97203120F42F5F1C962C9313
:1047200010C0F89487E78093000880930108A8954B
:1047300088E18093600088E080936000FFCF1C9642
:104740001C9293FF02C082E0808B08950895FC01C3
:10475000DB0119968C911997809518969C91189762
:10476000892399F08485882311F08CE784879485C8
:1047700091110EC081E0848780E48093900081E4F1
:104780009FE0909399008093980094859923B1F0CD
:104790009F5F9487953059F09D3761F0923071F4A6
:1047A00080E596E490939900809398000895109284
:1047B0009000089581E050968C930895089549EEF5
:1047C00055E260E070E080E090E00C94E3223FB7B7
:1047D000F8948091DE079091DF07A091E007B091F7
:1047E000E10726B5A89B05C02F3F19F00196A11D32
:1047F000B11D3FBFBA2FA92F982F8827820F911D77
:10480000A11DB11DBC01CD0142E0660F771F881FBD
:10481000991F4A95D1F708951F920F920FB60F92E4
:1048200011242F933F938F939F93AF93BF938091C6
:10483000180290911902A0911A02B0911B023091B6
:10484000DD0723E0230F2D3720F40196A11DB11DB4
:1048500005C026E8230F0296A11DB11D2093DD0798
:104860008093180290931902A0931A02B0931B022E
:104870008091DE079091DF07A091E007B091E107FA
:104880000196A11DB11D8093DE079093DF07A093D1
:10489000E007B093E107BF91AF919F918F913F9156
:1048A0002F910F900FBE0F901F9018952F923F924F
:1048B0004F925F926F927F928F929F92AF92BF9230
:1048C000CF92DF92EF92FF920F931F93CF93DF93DC
:1048D00000D000D000D0CDB7DEB7CD82FC01E00F14
:1048E000F11D1E161F060CF0F5C0803891050CF066
:1048F000F1C0DB01AE0DB11D1A161B060CF0EAC0AB
:10490000603471050CF0E6C04115510509F4E2C0B0
:10491000A62FA7707A2EDB0177FD179613E0B595C9
:10492000A7951A95E1F7FA2E77FF05C0772019F0C1
:10493000FF24FA94FA0E97FF05C0AA27BB27A81BED
:10494000B90B02C0A0E0B0E0E038F10524F060E867
:10495000962E981A01C0902E9A1A6F2D0F2C000CCB
:10496000770BEFEFFE161CF4E62FE09501C0E0E0B8
:1049700011E0FE2DF77009F410E0E694E694E69459
:10498000E10E6E0D711D693071051CF068E0E62EB8
:10499000EF188E2E8F0C682D70E86703800D911D27
:1049A00011248A0F9B1F61E070E0072C02C0660F84
:1049B000771F0A94E2F7FD81F33019F0BB24B3941A
:1049C00002C0F2E0BF2EA02EA918AB9CA02C11248F
:1049D000CB2CD12C0E9FA00DB11D1124AC9DF0014C
:1049E000AD9DF00DBC9DF00D11248A010E0F1F1F0F
:1049F0002115310509F0A901960121503109E20F75
:104A0000F31F4E0F5F1FEFEFE69F9001E79F300D02
:104A10001124290140945094815E9D4FEF0CEE8249
:104A20002A2D30E0B99C200D311D1124AE818A164B
:104A300009F450C0DC015A017801612C961409F484
:104A400041C0F7013490369EF001379EF00D1124DD
:104A5000FC83EB83E095F095FA83E983FD81F230E6
:104A600019F45A82498211C0ED81EB3F19F41C827E
:104A70001B820BC0F5013490369EF001379EF00D7D
:104A80001124E095F095FA83E98387FC06C0F9814B
:104A9000EC91EF23FB81EF2BEC93772061F0F6E0B4
:104AA000F8154CF0FD01E058FF4F20803A8032208D
:104AB0002C8032283082AC0CBD1CEC0CFD1C6394A5
:104AC0001196BCCF8394020F131F420F531F8058BF
:104AD0009F4FACCF26960FB6F894DEBF0FBECDBF6A
:104AE000DF91CF911F910F91FF90EF90DF90CF90CA
:104AF000BF90AF909F908F907F906F905F904F90FE
:104B00003F902F9008954F925F926F927F928F9275
:104B10009F92AF92BF92CF92DF92EF92FF920F934C
:104B20001F93CF93DF9300D000D0CDB7DEB7DC0169
:104B300039012C2DA02EB12CC5018A0F9B1F1816F0
:104B400019060CF0AEC1A038B1050CF0AAC1FB01EA
:104B5000EE0DF11D1E161F060CF0A3C16034710589
:104B60000CF09FC14115510509F49BC1362F3770D8
:104B7000F32EFB0177FD379633E0F595E7953A95EF
:104B8000E1F73E2F77FF04C0FF2011F03FEF3E0F0B
:104B9000B7FF05C0EE27FF27EA1BFB0B02C0E0E0D2
:104BA000F0E0803891051CF090E89A1B01C0902F2E
:104BB0009E1B632F032E000C770B3F3F1CF4162F18
:104BC000109501C010E0DD24D3948E2D877009F478
:104BD000D12CE694E694E694ED0C6E0D711D6930CF
:104BE00071051CF088E0E82EE31AE11A310F60E845
:104BF0003603A00DB11D1124AE0FBF1F019FE00DA4
:104C0000F11D11244E0F5F1F61E070E04B010F2C6E
:104C100002C0880C991C0A94E2F7233009F4FFC003
:104C2000B8F4213009F4B3C0223009F03AC18FEF53
:104C3000889D8001899D100D1124009510951A837F
:104C400009832A81FD01E15EFD4F2F01E30E29C09A
:104C50002A3FD1F12B3F09F024C1FD01E15EFD4F58
:104C60006F01E30E82C08491889D6001899DD00C04
:104C70001124DC82CB8237FD05C0DB018C918023BF
:104C8000C82ACC92F11013C031966F5F7F4F8E2FE0
:104C9000841B891740F33F5F4A0D5B1DB0E84B0E44
:104CA000511C3E1509F4FDC0B201FA01F0CF3730B6
:104CB0005CF76B01B0E8CB0ED11CD6018C9182233E
:104CC0007C8087298C93E0CFFD01E15EFD4F6F0171
:104CD000E30E3E1509F4E5C08601FA018E2F841B10
:104CE0008917F0F48491889DB001899D700D11247D
:104CF0007C836B8337FD04C0D8018C91682B6C9347
:104D0000FF2051F0373044F4B80160587F4FDB0189
:104D10002C918C81822B8C9331960F5F1F4FDECFAD
:104D20003F5F4A0D5B1DB0E8CB0ED11CD2CF849102
:104D3000889D8001899D100D11241C830B8337FDF4
:104D400005C00095DB018C9108230C93F11013C072
:104D500031966F5F7F4F8E2F841B891740F33F5F23
:104D60004A0D5B1DB0E8CB0ED11C3E1509F499C06D
:104D7000B601FA01F0CF37305CF78B0100581F4FB6
:104D80008C818095D8012C9182238C93E1CFB30143
:104D90006E0F7F1FA15EBD4FE30E3E1509F481C06B
:104DA0008D01C12CD12CC91690F5FB01EC0DFD1D18
:104DB000E491E89D3001E99D700C11246094709499
:104DC0007A826982FA01EC0DFD1DE491E89D2001D3
:104DD000E99D500C11245C824B8237FD05C0F8011F
:104DE0008081682246284082FF2059F037304CF4F9
:104DF000F801E058FF4F20818A8182232C81822B89
:104E00008083FFEFCF1ADF0A0F5F1F4FCCCF3F5FCA
:104E10004A0D5B1D6A0D7B1DA058BF4FBECFC92E2A
:104E2000D12CE40FF51FA15EBD4F00E810E00C1976
:104E30001D09AC18BD08A501440F551F792F2E2D53
:104E4000792ECF93DF93ED01EF96EF962296A59002
:104E5000C590FF2059F0A89C5001C89C60013730D4
:104E60002CF4E880D094ED20EB28E99233233AF03B
:104E7000EC90C094EC20EA28ED920C944027119617
:104E80007A9529F72A9551F0772D33951124E40F5F
:104E9000F11DA00FB11DC00FD11DD9CFDF91CF9152
:104EA00011240F900F900F900F90DF91CF911F91D1
:104EB0000F91FF90EF90DF90CF90BF90AF909F90B9
:104EC0008F907F906F905F904F900895BC0180E02D
:104ED00090E00C94351C8FB18095807F669B886034
:104EE0001C9B846008950C94AB2E1F93CF93DF938B
:104EF000EC01162F0E94AB2E181739F0612FCE014E
:104F0000DF91CF911F910C94C52EDF91CF911F910E
:104F1000089580389105B8F460347105A0F490E1EB
:104F200021E061FD24E060FD220F62FD2295687F93
:104F3000969FD0011124A80FA15EBD4F8C91822BAA
:104F400040FF82278C9308950F931F93CF93DF9395
:104F5000EC0143EC55E261E170E08FE290E00E94E9
:104F6000E32245EA55E26AE170E08BE290E00E94BC
:104F7000E32245EA55E26AE170E089E490E00E94AC
:104F8000E3228C85811114C045EA55E26AE170E0A4
:104F90008AE390E00E94E32245E555E26EE270E08C
:104FA0008AE190E0DF91CF911F910F910C94E32261
:104FB00047E355E26AE170E08AE390E00E94E32271
:104FC00044E155E26EE270E08CE290E00E94E32260
:104FD0008C856FE00E946D2F082F0370CFE4D0E026
:104FE00010E0011749F041E061E370E0CE010E945A
:104FF00089271F5F2296F5CFDF91CF911F910F91E7
:1050000008954091E5075091E6072091E30730911C
:10501000E40742175307B4F49091E8009570E1F368
:105020009091E80092FD19C08093F1008091E5070E
:105030009091E60701968F739927892B19F48EEFCB
:105040008093E8008091E5079091E60701969093A0
:10505000E6078093E50781E0089580E00895DF92F8
:10506000EF92FF920F931F93CF93DF93D82E8A0175
:105070007B01E40EF51EEB01CE15DF0571F0D7FEC6
:1050800003C0FE01849101C088810E9401282196FD
:105090008111F2CF8FEF9FEF01C0C801DF91CF9157
:1050A0001F910F91FF90EF90DF900895615030F0C5
:1050B0002091F100FC0120830196F8CF289884E626
:1050C00080931D0208950F931F93CF93DF931F9238
:1050D000CDB7DEB782E0898342E450E06BEE79E23F
:1050E00080E80E942F280E94F922DC0112960D917F
:1050F0001C9113970115110589F0D801ED91FC91D0
:105100000280F381E02DBE016F5F7F4FC8010995DA
:1051100097FD04C0F80100851185ECCF89810F90BF
:10512000DF91CF911F910F9108951F920F920FB6AB
:105130000F921124CF92DF92EF92FF920F931F9361
:105140002F933F934F935F936F937F938F939F938F
:10515000AF93BF93EF93FF93CF93DF93CDB7DEB7BA
:105160006C97DEBFCDBF1092E9008091E80083FF0D
:10517000FBC168E0CE0145960E94562882EF8093DD
:10518000E8008D8987FF05C09091E80090FFFCCF73
:1051900003C09EEF9093E800982F907609F0C6C068
:1051A0009E894F89588D2F89F88C91110CC08038B9
:1051B00029F48091E2078093F10002C01092F1007F
:1051C0001092F10045C1913051F4811141C141303B
:1051D000510509F03DC18091E2078D7F0BC09330EE
:1051E00061F4811135C14130510509F031C180911F
:1051F000E20782608093E2072BC1953049F48091E9
:10520000E80080FFFCCF822F80688093E30020C1FC
:10521000963009F05EC00B8D1C8D22E01092E900E3
:105220001092E6071092E507F21232C01092E407DE
:105230001092E3070E94632899E0BE016F5F7F4FE1
:10524000DB01E92F1D92EA95E9F79983FA8291E053
:105250009E8390EA98879AEF99872091E50730918D
:10526000E607275F3F4F3C832B838D831092E90035
:105270001092E6071092E5071093E4070093E30706
:1052800049E050E080E00E942F280E946328E0C09F
:105290001093E4070093E3070E94F922DC011296C1
:1052A0000D911C9113970115110509F4BBC0D8018C
:1052B000ED91FC910480F581E02DBE016B5E7F4F86
:1052C000C8010995009709F0C7C0F801008511854C
:1052D000EACF973009F445C1983021F481E08093FA
:1052E000F100B6C0993009F0B3C0837009F039C13C
:1052F000ECE0F2E081E031E096E32081211109C089
:105300008EE78093EA001092EA008F8980931E0254
:105310009FC08093E9003093EB0021912093EC0033
:105320009093ED008F5F873041F7EACF8B8D9C8D96
:105330001092E9001092E6071092E5079093E407B7
:105340008093E307898D811153C08E899D89913A9D
:1053500049F4813209F005C147E050E060E071E0B6
:1053600080E0BBC0913209F0FCC0833269F48F89C0
:10537000988DA0E0B0E08093080190930901A0937C
:105380000A01B0930B0164C0803269F48091E80097
:1053900082FFFCCF67E080E091E00E9456288BEF0F
:1053A0008093E80055C0823209F052C08F89809303
:1053B0000701EEEFFFE7859194918B3F9C4D19F02B
:1053C000E0E0F8E002C0EEEFFAE080910001909199
:1053D0000101A0910201B0910301803B9440A1051D
:1053E000B10509F09EC08091070180FF79C099C086
:1053F0000E94F922FC01028113810115110509F4B3
:10540000B0C0D801ED91FC910190F081E02DBE017A
:105410006B5E7F4FC801099581111AC0F8010085A4
:105420001185EBCFF1E0FF1609F44EC0F3E0FF1257
:1054300098C08F89882309F44AC0823089F440E8F3
:1054400060E18FE49AE20E94D42D882309F489C098
:105450008EEF8093E80088C018161906CCF381C03F
:10546000813029F440E86BE083E49AE2ECCF8330AA
:1054700009F077C00E94F922DC011296ED90FC90B1
:1054800013978E010F5F1F4F6801E114F10479F04B
:10549000D701ED91FC910680F781E02DB801C7019D
:1054A0000995080F111DF701E084F184EECFD801B2
:1054B0001C92F60101900020E9F73197BF016C19A9
:1054C0007D0940E0C601BFCF61E37AE202C06DE230
:1054D0007AE2FB01449150E080E80E942F28B8CF87
:1054E000EE3F2AE0F20751F0808191818737A7E7EC
:1054F0009A0721F09093FF0A8093FE0A87E797E7C7
:1055000091838083809160008093E7079BE088E12E
:105510000FB6F894A895809360000FBE909360003A
:1055200097CF808191818737974709F091CFA895D0
:10553000809160008861809360008091E70780938C
:105540006000EE3FBAE0FB0739F08091FE0A9091CF
:10555000FF0A918380837CCF1092FF0A1092FE0A8B
:1055600077CF81E28093EB006C960FB6F894DEBFA4
:105570000FBECDBFDF91CF91FF91EF91BF91AF9162
:105580009F918F917F916F915F914F913F912F915B
:105590001F910F91FF90EF90DF90CF900F900FBE73
:1055A0000F901F9018958FE196E00C94A71BFC01BB
:1055B0008BE791E091838083158214828FE691E0DE
:1055C0009383828387E0838781E0828717821086B6
:1055D000168281870895789484B5826084BD84B5ED
:1055E000816084BD85B5826085BD85B5816085BDDE
:1055F00080916E00816080936E0010928100809196
:10560000810082608093810080918100816080931D
:105610008100809180008160809380008091910062
:1056200082608093910080919100816080939100CD
:10563000809190008160809390008091C10084608F
:105640008093C1008091C10082608093C1008091ED
:10565000C10081608093C1008091C300816080930C
:10566000C3008091C00082608093C0008091C2001E
:1056700081608093C20080917A00846080937A0078
:1056800080917A00826080937A0080917A008160B4
:1056900080937A0080917A00806880937A001092DB
:1056A0001E021092E20710921C028091D7008160C6
:1056B0008093D70080EA8093D80089B5806189BD46
:1056C00089B5826089BD09B400FEFDCF61E070E05C
:1056D00080E090E00E94351C8091D8008F7C806132
:1056E0008093D8008091E000807F8093E0008091DB
:1056F000E1008E7E8093E1008DE08093E200559A78
:10570000209A81EC80937C0085B1806F85B984B14B
:10571000877E84B984B1876E84B95E9A5F988AB1B6
:10572000806D8AB9769A6E9881B3806F81BB8998B3
:1057300080B38D7080BB80E58CBD81E08DBD85E040
:1057400090E00E9466275F9A85E090E00E946627BD
:105750005E985C98E7E4F4E184918EBD00000DB49E
:1057600007FEFDCF319684E1E435F807A9F75C9A8E
:1057700081E880936400809165008160809365007A
:105780000E946B2787FF24C05C9885EA8EBD0000CD
:105790000DB407FEFDCF5C9A2E982F982D9880911E
:1057A000640080628093640081E083BF889513BEAB
:1057B000FCCF2D980E946B278478843871F00E946A
:1057C0006B2784718431F9F088EC90E00E946627A1
:1057D0000E946B2782FDEDCF2CC02D9A88EC90E0C3
:1057E0000E9466272F986FEF82E090E00E94752755
:1057F00084EF91E00E9466272F9A0E946B2784789D
:105800008438D9F3DCCF2D9A88EC90E00E9466278B
:105810002E9860E082E090E00E94752784EF91E08E
:105820000E9466272E9A0E946B2784718431D9F3D7
:10583000CBCF2D9A82E090E00E947327882319F045
:105840003E9A3F9A02C03E983F9884E18093290691
:10585000809164008E7F8093640080917A008064E0
:1058600080937A0080917A0086FDFCCFC091780009
:10587000D09179000E94E7238E0120E030E098016A
:1058800011270027600F711F821F931F2091640052
:10589000216020936400611571058105910511F067
:1058A0000E94A22E86E990E00E94AB2EC82F87E9C5
:1058B00090E00E94AB2EC03579F4833469F41092E5
:1058C0002F06C1E00FE112E080E0E82E80E0F82E24
:1058D000D1E092E0D92E2AC060E586E990E00E94EE
:1058E000B32E63E487E990E00E94B32E60E088E97C
:1058F00090E00E94B32ECDE9D2E060E0CE010E949C
:1059000075272196CC3993E0D907B9F7D8CF909174
:105910002906891720F58F5F891718F4C3BF88956A
:1059200013BEE114F10411F00E9400008FB7F89447
:10593000409118025091190260911A0270911B0255
:105940008FBF80912A06942F981B892F90912B0648
:105950009923E9F280932C0610922B06E2CFD09384
:105960002B0640932A0680912506909126060196E3
:10597000909326068093250680912706809328061B
:105980000E946B278093270680912F068230B9F101
:1059900028F4882351F08130E9F081C0833009F484
:1059A0004BC0843009F465C07AC080912E068823EC
:1059B00021F01092210610922E066FE176E08EE320
:1059C00096E00E94A7236FE176E08EE396E00E94C6
:1059D000A42765C090912E06913021F08093210676
:1059E00080932E066FE176E080E396E00E948023AC
:1059F0006FE176E080E396E00E94DF2350C0909153
:105A00002E06923061F0809321066FE176E08BE400
:105A100096E00E94F51D80912F0680932E066FE17F
:105A200076E08BE496E00E942D1F6FE176E08BE438
:105A300096E00E946F1C33C090912E06933061F067
:105A4000809321066FE176E089E596E00E94701B65
:105A500080912F0680932E066FE176E089E596E02F
:105A60000E94201E6FE176E089E596E00E945016C4
:105A700016C090912E06943031F080932106D0927A
:105A80007F0780932E066FE176E081E797E00E9422
:105A90005C156FE176E081E797E00E948615F801DA
:105AA00080E098E000800EBCC111012C019780FDC0
:105AB000FDCF0192B9F70DB434CFCF93DF93EDE86A
:105AC000F7E01382128288EE93E0A0E0B0E08483D6
:105AD0009583A683B78387E991E0918380838FEFD5
