:100000000C94671E0C948F1E0C948F1E0C948F1EE4
:100010000C948F1E0C948F1E0C948F1E0C948F1EAC
:100020000C948F1E0C948F1E0C948F1E0C948F1E9C
:100030000C948F1E0C948F1E0C948F1E0C948F1E8C
:100040000C948F1E0C948F1E0C948F1E0C948F1E7C
:100050000C948F1E0C948F1E0C948F1E0C94FE2DEE
:100060000C948F1E0C948F1E0C948F1E0C948F1E5C
:100070000C948F1E0C948F1E0C948F1E0C948F1E4C
:100080000C948F1E0C948F1E0C948F1E0C948F1E3C
:100090000C948F1E0C948F1E0C948F1E0C948F1E2C
:1000A0000C948F1E0C948F1E0C948F1ED5F08D1403
:1000B000A1C881CFD9F1AF200003081F051F1F156C
:1000C0001B1F11111F110E1F15111F05011F111DDF
:1000D0001F041F001F0010101F1F041B1F10101FE4
:1000E000061F1F011F1F111F1F05071F311F1F059F
:1000F0001B17151D011F011F101F0F100F1F0C1FB5
:100100001B041B071C071915130C121E1F120C1EB3
:1001100012120C121F0C1A14041F052E2A1E1F0285
:100120001C001D00201D001F041A011F001E041EBC
:100130001E021E1E121E3E120C0C123E1E02061441
:10014000120A020F121E101E0E100E1E081E1A0496
:100150001A2E281E1A12161F111F00001F1D151718
:1001600011151F07041F17151D1F151D01011F1F46
:10017000151F17151F001700001000040404040EBB
:10018000040229060A00001010010100000000000E
:10019000000000000000000000000000000000005F
:1001A000000000000000000000101001010000002D
:1001B000000000000000000000000000000000003F
:1001C000000000000000000000000010100101000D
:1001D000000000000000000000000000000000001F
:1001E00000000000000000000000000000101001EE
:1001F00001000000000000000000000000000000FE
:1002000000000000000000000000000000000010DE
:100210001000FF01FD05F555555555545450F0009B
:1002200000000F003F00FFD5D5D5FD05753517003F
:10023000001010C02020107CC28109191A6936886C
:100240009090600031494945320A080808050509BF
:100250001209061010F0E83D9655D6AD7E7DAED55C
:1002600056953EE8F0511BC63D6CD892D090D09880
:100270006C3DC61B51101000008040A0A2D4F4E8D1
:10028000F4726562C08000BC50AF5FBF3FBF39B041
:1002900036B93DBD5EAFF010100008F4FA3D3AC229
:1002A000FDFE1E1DFA44BEC280001639717274FB39
:1002B000DBDBDAED6E7733171F1010000000F20D54
:1002C00052A5369428289060800000000078C51A56
:1002D00000FD3B3BF900D3E03708000F0F80C0C0A2
:1002E0007E777EF8C0C0C08080E0F0800001013FD2
:1002F000773F0F01010100000307001010E010C854
:1003000024904000808000409024C810E00708132B
:100310002409020001010002092413080710103803
:100320003C383838F8387838F878F878F0800000B9
:100330000000000000010101030D1A352A353F10AD
:100340001000382828EF01EF2828B880E020E0804E
:1003500080E0B0F0D0FF70FFD0F073E2BEE07EE24C
:10036000C3101000FF01FD05F55555555554545067
:10037000F00000000F003F00FFD5D5D5FD05753515
:100380001700001010C02020107CC28109191A69C2
:1003900036889090600031494945320A08080805BE
:1003A00005091209061010F0E83D9655D6AD7E7D80
:1003B000AED556953EE8F0511BC63D6CD892D09014
:1003C000D0986C3DC61B51101000008040A0A2D4F4
:1003D000F4E8F4726562C08000BC50AF5FBF3FBFFD
:1003E00039B036B93DBD5EAFF010100008F4FA3DEB
:1003F0003AC2FDFE1E1DFA44BEC28000163971725B
:1004000074FBDBDBDAED6E7733171F101000000092
:10041000F20D52A5369428289060800000000078E4
:10042000C51A00FD3B3BF900D3E03708000F0F80F1
:10043000C0C07E777EF8C0C0C08080E0F080000140
:10044000013F773F0F0101010000030700101080FA
:100450004050D08040F95C5DF94080D05040800031
:100460000101216F21272C2C27216F210101001070
:100470001000000018A464220A020106384080001F
:1004800000000000000F907F84600004FF100F0048
:10049000001010008070086432B9D9CD4DCD4DC91F
:1004A000421CE0C0CF50A74E181DB73326272607A1
:1004B000A651CE1010040A010A10208040E0E0C0CE
:1004C000000000000000000000000307073E7DF36D
:1004D000F3BFDF6E3C0E0EE0A0A2A5A9AAB4AAA9A4
:1004E000A9A5A2A0E0003F202A242A242A242A2405
:1004F000203F000E0E0000FC02F9F9F9F9F9F902AB
:10050000FC000000000F1023232B2B2323100F00CF
:10051000000E0E0F31C10912A244A40890204080A1
:100520000000000001020408121112080413200E3A
:100530000E00E110090805040504090811E0012F67
:100540000F2F00200020002000200F2F0F0E0E0282
:10055000F1F2F1F2F11211121112F1E20120112166
:1005600011211121112111211120100E0EF000F87E
:10057000FCFCFEFDFDFDFDFEFCFCF8070813171753
:100580001717171717171707030E0EFCFEAFABABA5
:10059000ABBBABAFEBABAFFEFC010307063E1E0EE1
:1005A000070606060703010E0E70303030F7FFF71E
:1005B000F0F0F080C0C0C03F3E3E3E3F2303233FEB
:1005C0003F000101010E0EFC3E2A3F2AAA2E2EBE3C
:1005D000BEBF3E3EFC1F202020292F2820282A2F86
:1005E00020201F0E0EFF01017D555D55755D557D67
:1005F0000101FF0F10203F21213F3F3F3F3F2020BF
:100600003F0E0E00000088542A5D5D5D2A5488006C
:1006100000000E11202020202020202020110E0E6E
:100620000E84C46232121E32E22221A1513810110E
:10063000223C24243C26230201000000000E0EE090
:1006400018040202010D8D81C6FEFCF8E0010608C7
:10065000101E3F33333F1F1F0F07010E0EFF9B91EC
:100660005B3F9FCFE7F3FB7B7B7B330C1E1E1E1F84
:100670000F2733393C3E3F3F3F0E0E18F81C0C4EFF
:10068000260707264E0C1CF818000708103C3A3DB8
:100690003D3A3C100807000E0EE884F281E284C85F
:1006A00090A884E284C8900000060F0F0F1F1F1F40
:1006B0003F3D3C30000E0E4060F0F8FC7E3F3F7E38
:1006C000FCF8F0604000003F3F1F202020201F3F2B
:1006D0003F00000E0E00000080601B01011B6080C7
:1006E0000000000006091016262E2E2616100906F8
:1006F000000E0EF0082804E20A8A422428488808DE
:10070000F00F1010101F10111214141211100F0EF0
:100710000EF0F1C2C4C8D0C0C0D0C8C4C2F1F0034A
:10072000231008040200000204081023030E0EE048
:10073000180422F20105E51112E20418E00106088E
:1007400012132228292212110806010E0EF9F2E4D2
:1007500009E337171737E309E4F2F92713092431BE
:100760003B3A3A3B31240913270E0E99BDBD99C37C
:1007700099BDBD99C399BDBD990C1E1E0C210C1EBF
:100780001E0C210C1E1E0C0E0E00EE8000E0988F39
:100790008F98E00080EE000327150007072A2A073C
:1007A00007001527030E0E708874DAAA4A94140AFB
:1007B0000A8A74887000000102050B16150A0502EA
:1007C0000100000D0DFF01F96DE5BDE56DF901FFBB
:1007D000AA54070C150C150C150C150C170A150D41
:1007E0000D0E1195514E2098C484080000000000A1
:1007F00001020000000103070E1C180D0DE7B0D424
:10080000E201E010C82828C810E0070F1D18181BC7
:100810001C1918191C1A110D0D0E03230981C8E0AB
:10082000703E9E181A000803030F0F0100101410E9
:10083000180E070D0D0FFFFFFFFB8BC0C0C0C0805F
:10084000000012131B13131313131B131308040DAF
:100850000DAAFA04F299FD0DFD19F204FAAA0A1F75
:10086000001F121F101F101F001F0A0D0D78401EC1
:10087000BF2DA92FA92DBF1E407807010C07101FFF
:10088000001F10070C01070D0DFF00808000F8F815
:1008900000FFFF00E0E01F101717101717101717C1
:1008A0001017170D0DFFBB1B5B1BBBBBB1B5B1BB5D
:1008B000BBFF1F1B1B1B1B1B1B1115111B1B1F0D24
:1008C0000D108888840402610C81424448900F0610
:1008D00006060F001B0007030303070D0DFC02B102
:1008E000B505B5B102FC0000B0B01F000D0D000D44
:1008F0000D001F020117170D0D008040208E1FFFF5
:100900001F8E2040800001020409131615161309DA
:100910000402010D0DC00060797A6C7C6C7A7960FC
:1009200000C01F001F001F001F001F001F001F0D21
:100930000DFC1E0F4F6F6F074767670F0EFC070810
:1009400010101214141515141008070D0DAF0181A5
:10095000412091482590492501AF1E101412011421
:100960000211001010101E0D0DFFAAFF42524A5234
:10097000424242FFAAFF1F0A1F08080A090A080884
:100980001F0A1F0D0DE0A0100EE1F5F5F5E10E10A8
:10099000A0E00000010E10151515100E0100000D4D
:1009A0000D304A48B6797979B6484A30800000015E
:1009B00000010202020518060F0F070D0D1C3C78FE
:1009C000F142ECECEC42F1783C1C1C1E0F07020FCC
:1009D0001F0F02070B161C0D0D001010303037FDD5
:1009E0003730301010000306060C0C181F180C0CC2
:1009F0000606030D0D0301B0B81C0C000C1CB8B0AA
:100A00000103181001030706000607030110180D63
:100A10000D000F11E302D341D302E3110F000808C8
:100A20000807101F181F10070808080D0D00F00810
:100A30007C02297D69B90142BC000102041A001F31
:100A400007071F0003180F0D0D3A79FCC1F04D5038
:100A50004DF0C1FC793A1207070F03050505030F96
:100A60000707120D0D09BDA1D975E5FDE5F5D9A161
:100A7000BD09121710131516151717131017120C9E
:100A80000C1E678608102040800000000000000156
:100A90000202040408090E0E040C0C124A29A59542
:100AA000555595A5294A1200000104020A0A0204BC
:100AB0000100000C0CF8663169E9B1A1E161216621
:100AC000F8030F0A0F030202030F0A0F030C0C06B0
:100AD00009D12204080404629209070C0B080402DD
:100AE0000101020C0403010C0C0804C2E1B2140859
:100AF0000281228408000400010307060E0C0C0882
:100B0000080C0C3FCFC7333939C6C6CC3830C000CB
:100B1000000103060609090C0E0F0F0C0CFF01550E
:100B2000015501FF00545204F80F00050005000FA5
:100B3000000505000F0C0C000000A0530F0F53A080
:100B4000000000000003060E0E0E0E060300000C4F
:100B50000C22A4889B1B4824A2A0A020A00504026C
:100B60000409090504020405040C0C04DE50FCFA17
:100B7000FEFEFAFC50DE0401030000010101010049
:100B80000003010C0CFB036461218D1D41616403B2
:100B9000FB0D0C0208080B0B0808020C0D0C0C03D3
:100BA000027F6B556BD5EB556B557F0000060F0F21
:100BB000060000060F0F060C0CE0F8FFE6E43C3CD4
:100BC000E4E6FFF8E001000B070B01010B070B0047
:100BD000010C0C541494D4C0FF05455550545405D1
:100BE00004010303010405050505050C0CAA10C347
:100BF000F43EFAFFFA3EF4C3080A000707000307B1
:100C000003000707000C0CF80432393D3DC1C1C197
:100C1000C204F80102040808080B0B090402010CC5
:100C20000C008044DFFFDF4440401CFC1C0100003E
:100C30000F0B030E0800000F000C0CFF015555555B
:100C40005501FF040408F00D0D010D0D0107010D04
:100C50000D01070C0C0C006D6D000C0C804C4C2031
:100C60002C00000B0B000C0300000000000C0CAA71
:100C7000003C7E66FFFF66EECC00550A00030706C7
:100C80000F0F06070300050C0C01FE06FA9A6A6AAC
:100C90009AFA06FE0108070605050505050506077B
:100CA000080C0CB8BCBE80FF80B8BE80FF808003FB
:100CB00004080A080A080A080402010C0C60F0F093
:100CC0006006EFEF0660F0F0600000080C0E0F0FFA
:100CD0000E0C0800000C0C009F90FC9A9C9AFC9053
:100CE0009F00AA00070701030703010707000A0C7A
:100CF0000C01CC9E3E7EFCF8F2E6CE9C0108030778
:100D00000706040103070703080B0B30C02E11155B
:100D10001115112EC0300005060406000604060554
:100D2000000B0B0007FFFFFFFF7777770707000730
:100D30000707070707000000000B0BC0E0F0F0F00A
:100D4000E4C2092412090103070707030100000098
:100D5000000B0B1C22414141221C000808F8000036
:100D60000007040404040404070B0BF8FFFECCC8BE
:100D700078C8CCFEFFF80103070505050505070344
:100D8000010B0B2030F83C3EFF3E3CF830200000C9
:100D90000704040707070700000B0B00F40A1115EE
:100DA0001511110AF40000010204040404040201F4
:100DB000000B0B0810102126F82020705070000046
:100DC0000000070507000000000B0BFF01A10FA9A1
:100DD0000AFC0055555507040404040407000505E2
:100DE000050B0B77770777707777077777770707A4
:100DF0000707000707070707070B0B0007CFE83EA9
:100E0000FEC80F07000004000501000303000400F2
:100E1000040B0BBF81A1A1212FE009090BF80704E6
:100E20000407000203000101010B0BD54000FF8104
:100E30008181818181FF070404040600040004000D
:100E4000040B0B003D60FD80FD80FD603D00000057
:100E50000004050705040000000B0B1C3E7C70FE1F
:100E6000FFFE80FCFEFC00000000070707030301F3
:100E7000000B0B008040281C987CFE5F0F070704C6
:100E80000402010000000000000B0B1F21419139FA
:100E900072E44810A04000000000010204020100BA
:100EA000000B0BF804525204F804525204F80702E3
:100EB0000101020702010102070B0B7CFEFFC3C305
:100EC0007FC3C3FFFE7C000007070107010707007F
:100ED000000B0B00EEFAEE20FE04F80020200007C5
:100EE0000107000301000000000B0B607864E26260
:100EF0007E6000FF000002070200020702000302FA
:100F0000020B0BFF01DD5D5DDDDDDDDD01FF0704B3
:100F10000704040707070704070B0BF0F89C0E03F0
:100F200000FF01FD01FF01030306060401020402A4
:100F3000010B0B40605048FE01FE4850604000002D
:100F40000406050405060400000B0BE010FA6C789B
:100F500078786CFA10E00000000101000101000047
:100F6000000A0A007CFDFEFDFE7C00380002020241
:100F7000020202020200000A0A0080C080387DEEF0
:100F8000BCEE79020301030302030100000A0A0810
:100F90000C14FEF4E0C000E01000000203030303A1
:100FA0000200000A0A1C3870F8FEFBF9F9FBFE008B
:100FB0000000010303030303010A0A204080FCC070
:100FC000FFE0FFC0FC000000010303030303010A6C
:100FD0000A484472C1F24448427F420000000103C3
:100FE00003020000000A0A00FC0209BD898102FC1C
:100FF00000000302020202020203000A0A7884329D
:1010000031FDFD313284780000010202020201004C
:10101000000A0A00FF555D55F735BDB5BF00030353
:10102000030303000301000A0A060F0F3640AA92C9
:10103000AA4438000000000000030000000A0A0073
:10104000000E1FF9F99F8E0000000000000303024C
:101050000200000A0AF1FACCCC7C7CCCCCFAF10379
:101060000103010303010301030A0A784651C66123
:101070003E080808F8000203030101010203030A05
:101080000A1018FC1EFF9F9EFC18100000030203AC
:1010900003030300000A0AC1673962C4386C446C58
:1010A00038010302030100000000000A0A0000FFEB
:1010B000A9F9A9F9A9FF0000000302030203020332
:1010C000000A0AE070B07EF2F272B67CF000010312
:1010D000010000010301000A0A01FF45FC824945A5
:1010E0008902FC000300000000000001010A0A4020
:1010F0006070FC3F3FFC7060400000020003030092
:101100000200000A0A78FCFE8F05050D1B961C00E4
:101110000001030302020100000A0AFCB63331FF9A
:10112000FF3133B6FC000103020303020301000A8E
:101130000A0E1F5F9F0EC0242821C201020000007A
:1011400001020202010A0AF03CEE3BBFBF3BEE3C4B
:10115000F0000000020303020000000A0A90DEDE35
:101160009E3E9ED4D4942401030301000103030195
:10117000000A0A0C1E3F3F9E0C40902040000000D9
:10118000000001020001020909000F10A7CFA710FB
:101190000F000000010101010100000909048E5F38
:1011A0000E44E0F4E24101000000000001000009EB
:1011B000090C5ED3803F009FDE5C0000000101014E
:1011C0000100000909004CDEDFDFF7F664000000D3
:1011D000000101010000000909806018E6F3E6182B
:1011E0006080010100000100000101090900DFB673
:1011F000A4B6DF6060F801010000000101000109F0
:101200000982FD82BABABA827F8200010000000022
:10121000000100090907091EBFFFBF1E09070000E2
:10122000010101010100000909C02070F86C3E1B9A
:101230000E04010101000000000000090938FE133E
:10124000D31FD313FE380001010101010101000980
:1012500009CCEEA6F7B7F7A6EECC0101000100011C
:1012600000010109097CDA93333B3393DA7C0000F7
:101270000101010101000009097CF6F3F1FF1F9F44
:10128000DE7C000001010101010000090910D6D631
:1012900000C700D6D61000000000010000000009C1
:1012A00009008040201C1C1E0703010000000000F4
:1012B00000000009090E1B15377AF0E0C00000009D
:1012C0000000000001010109097C9E33333F3333E4
:1012D0009E7C000001010101010000090900605825
:1012E00076FD6E7860000101010101010101010933
:1012F0000910FE9282D78292FE10000000000100C9
:101300000000000909C62929C610C62929C60001FE
:10131000010000000101000909C22E2ACE18C82AC6
:101320002CC800010100000001010009093CC209AC
:101330004D414D09C23C00000101010101000009BD
:10134000091E3F7FFFFEDF6F3B1E00000000010013
:1013500000000009097EF1F171DF71F1F17E0001F9
:101360000100010001010009094E5959899F89595D
:10137000594E01010100000001010108083C3CDB5D
:10138000FFFFDB3C3C0808DFDFD8FFFF1BFBFB084F
:1013900008FF7E3C18FC5C7C1C0808060F2FA690FA
:1013A0004C201808081E3360C2878ADC4808083CB5
:1013B0007EF3E1C0C460310808003872E1E17238A0
:1013C000000808001E3BF3F33B1E000808E0C0982D
:1013D0003C3C19030708083C02B9BDBD9D403C08D0
:1013E000083C24E78181E7243C08081E3F7FFEDE9D
:1013F0006F331E0808060979BEBE7909060808DBA6
:101400005A1824242424180808619689A8A88996C3
:10141000610808C3990042420099C30808815A3CF8
:1014200066663C5A810808C0982442422419030881
:101430000810189CFFFF9C181008081008E43F3F94
:10144000E4081008083C638AA0A08A631C0808030B
:10145000070E1C1820C0C0080800708DB1B18D7037
:1014600000080860C0D8DCDCD8C0600808387CFC04
:10147000FD7BBC7C3807073D78607A707D380707B4
:10148000081C2263221C080707080C7E7F7E0C08BC
:1014900007071E79396F39791E07070E1F3F7E3FF8
:1014A0001F0E07071F1D77535F447C07071C3E5F15
:1014B0005F6F321C070707152708725470070777FC
:1014C0005D7722775D770707705C7603765C70073F
:1014D00007080C0E3F4E2C08070718045F1D5F0419
:1014E0001807070822004D10220807077F6959696D
:1014F00059697F0707397F39383F613F07076B41DB
:10150000085D08416B07071C14774177141C070717
:10151000775D7505755D77070773517C141F456707
:10152000070704487A1F7A480407071E785C1C7F67
:101530004F060707003600630036000707636300A5
:101540000800636307071C22554955221C07071C26
:1015500022555155221C060610381C0D010706069F
:101560000C123F213F0C0606041E27271E04060608
:101570002C3E0F0F3E2C0606071D270A12240606D6
:101580000F09392F243C06063F002D2D003F06068B
:101590000002253D020006060F3C0C3F0F06060622
:1015A000011E3A3A1E0106062B0B38073435060693
:1015B0001B0F063B190806061233000033120606FD
:1015C0003333000033330606180C2633190C060695
:1015D00002263F3F26020606032438382403060667
:1015E00021120C0C122106060C002D2D000C0606F3
:1015F000211E12121E2106063C220909223C060663
:101600003F090F0F0F0F06063F0F0D0F3111060692
:101610000C122121120C06060C1E3F3F1E0C050564
:101620001B1B041B1B05050E1B1F1D0E05050306BA
:101630001F060305051C1516151C05050C181E1E96
:1016400004050500121D12000505021E020E1205FA
:10165000051E1E1E0A0E0505081A1F1A0805051587
:101660000E1B0E15050512191E19120505001F0D7A
:101670001F00050504061F16040505011E0B1E01AB
:101680000505100E1B0E1005050E1F1B110005058C
:101690001E0C0F1E0605051E181D1E1C0505041E2A
:1016A000171E040505160D0F0D160505061D1F1D39
:1016B0000605051E071F071E05051C0E070E1C0547
:1016C00005070F1E0F0705051F1111111F05051F27
:1016D0001F0F07030505000E060200FEFFFFFFFFB8
:1016E000FFFFFFFFFFFFFFFFFFFFFFFFFFFFFFFF0A
:1016F000FFFFFFFFFFFFFFFFFFFFFFFFFFFFFFFFFA
:10170000FFFFFFFFFFFFFFFFFFFFFFFFFFFFFFFFE9
:10171000FFFFFFFFFFFFFFFFFFFFFFFFFFFFFFFFD9
:10172000FFFFFFFFFFFFFFFFFFFFFFFFFFFFFFFFC9
:10173000FFFFFFFFFFFFFFFFFFFEFFFFFFFFFFFFBA
:10174000FFFFFFFFFFFFFFFFFFFFFFFFFFFFFFFFA9
:10175000FFFFFFFFFFFFFFFFFFFFFFFFFFFFFFFF99
:10176000FFFFFFFFFFFFFFFFFFFFFFFFFFFFFFFF89
:10177000FFFFFFFFFFFFFFFFFFFFFFFFFFFFFFFF79
:10178000FFFFFFFFFFFFFFFFFFFFFFFFFFFFFFFF69
:10179000FFFFFFFFFFFFFFFFFF7FFFFFFFFFFFFFD9
:1017A000FFFFFFFFFFFFFFFFFFFFFFFFFFFFFFFF49
:1017B000FFFFFFFFFFFFFFFFFFFFFFFFFFFFFFFF39
:1017C000FFFFFFFFFFFFFFFFFFFFFFFFFFFFFFFF29
:1017D000FFFFFFFFFFFFFFFFFFFFFFFFFFFFFFFF19
:1017E000FFFFFFFFFFFFFFFFFFFFFFFFFFFFFFFF09
:1017F000FFFFFFFFFFFFFF7F5F1800FC02020202F6
:1018000002828282820202020202020202020202B8
:1018100002020202020202020202020202020202A8
:101820000202020202020282828282820202020218
:101830000202020202020202020202020202020288
:101840000202020202020202020282828282828278
:1018500002020202020202FC0000FF00000000007F
:1018600080FFFF8080E0007CFE92929E5C0064F628
:101870009292FE7C803E7EC0C07E3E007CFE9292B4
:101880009E5C0000007FFF808088F9790064F692FA
:1018900092FE7C8002FEFE02FEFC02FEFC007CFE4C
:1018A00092929E5C00000000030300B8B8080F0786
:1018B000000000000000FF00003F4040404040406A
:1018C0004040404040404040404040404040404018
:1018D0004040404040404040404040404040404008
:1018E00040404040404040404040404040404040F8
:1018F00040404040404040404040404040404040E8
:1019000040404040404040404040404040404040D7
:1019100040404040403F00FEFFFFFFFFFFFFFFFF52
:10192000FFFFFFFFFFFFFFFFFFFFFFFFFFFFFFFFC7
:10193000FFFFFFFFFFFFFFFFFFFFFFFFFFFFFFFFB7
:10194000FFFFFFFFFFFFFFFFFFFFFFFFFFFFFFFFA7
:10195000FFFFFFFFFFFFFFFFFFFFFFFFFFFFFFFF97
:10196000FFFFFFFFFFFFFFFFFFFFFFFFFFFFFFFF87
:10197000FFFFFFFFFFFFFFFFFFFEFFFFFFFFFFFF78
:10198000FFFFFFFFFFFFFFFFFFFFFFFFFFFFFFFF67
:10199000FFFFFFFFFFFFFFFFFFFFFFFFFFFFFFFF57
:1019A000FFFFFFFFFFFFFFFFFFFFFFFFFFFFFFFF47
:1019B000FFFFFFFFFFFFFFFFFFFFFFFFFFFFFFFF37
:1019C000FFFFFFFFFFFFFFFFFFFFFFFFFFFFFFFF27
:1019D000FFFFFFFFFFFFFFFFFFFFFFFFFF7FFFFF97
:1019E000FFFFFFFFFFFFFFFFFFFFFFFFFFFFFFFF07
:1019F000FFFFFFFFFFFFFFFFFFFFFFFFFFFFFFFFF7
:101A0000FFFFFFFFFFFFFFFFFFFFFFFFFFFFFFFFE6
:101A1000FFFFFFFFFFFFFFFFFFFFFFFFFFFFFFFFD6
:101A2000FFFFFFFFFFFFFFFFFFFFFFFFFFFFFFFFC6
:101A3000FFFFFFFFFFFFFFFFFFFFFFFFFFFFFF7F36
:101A4000631800FC02020282820202028282020207
:101A50000202020202828282820202028282828266
:101A60000202020202028282828202020202020256
:101A70000202020202020202020202020202020246
:101A80000202020282820202020282820202020236
:101A9000F20A0A0A0A0A0A0A0A0A0A0A0A0A0A0ABE
:101AA0000AF202FC0000FF0000001FFFE01CE0FF44
:101AB0001F007CFE92929E1C8080FFFF8080008031
:101AC00080FFFF808000000000FFFF80C17F3E009C
:101AD0007CFE8282FE7C00FEFE0202FEFC007CFE9A
:101AE00092929E1C000007DFDF07000007DFDF0780
:101AF000000000FF000000000000000000000000E7
:101B000000000000FF00FF00003F40404040404018
:101B100040404040404040404040404040404040C5
:101B200040404040404040404040404040404040B5
:101B300040404040404040404040404040404040A5
:101B40004040404040404040404040404040404095
:101B50004040404040404F505050505050505050E6
:101B6000505050505050504F403F00C616BF16B80E
:101B700016B116AA16A3169C1695168E16871680F1
:101B800016791672166B1664165D1656164F1648A1
:101B90001641163A1633162C1625161E1616160E54
:101BA000160616FE15F615EE15E615DE15D615CE3B
:101BB00015C615BE15B615AE15A6159E1596158E2D
:101BC0001586157E1576156E1566155E1556154D1E
:101BD0001544153B1532152915201517150E150539
:101BE00015FC14F314EA14E114D814CF14C614BD70
:101BF00014B414AB14A2149914901487147E1475A1
:101C0000146B14611457144D14431439142F1425F4
:101C1000141B1411140714FD13F313E913DF13D568
:101C200013CB13C113B713AD13A31399138F1385DC
:101C3000137B13671353133F132B1317130313EF64
:101C400012DB12C712B3129F128B12771263124F5C
:101C5000123B1227121312FF11EB11D711C311AF50
:101C6000119B11871171115B1145112F111911036E
:101C700011ED10D710C110AB1095107F10691053E3
:101C8000103D1027101110FB0FE50FCF0FB90FA358
:101C90000F8D0F770F610F490F310F190F010FE9EA
:101CA0000ED10EB90EA10E890E710E590E410E29DC
:101CB0000E110EF90DE10DC90DB10D990D810D69D2
:101CC0000D510D390D210D090DEF0CD50CBB0CA1DB
:101CD0000C870C6D0C530C390C1F0C050CEB0BD145
:101CE0000BB70B9D0B830B690B4F0B350B1B0B01BC
:101CF0000BE70ACD0AB30A990A7F0A630A470A2B3F
:101D00000A0F0AF309D709BB099F09830967094B21
:101D1000092F091309F708DB08BF08A30887086B18
:101D2000084F0833081708FB07DF07C307A5078715
:101D30000769074B072D070F07F106D306B506976E
:101D40000679065B063D061F060106E305C505A7E5
:101D50000589056B054D052F051105F304D50449CB
:101D60000F310F190F010FE90ED10EB90EA10E8917
:101D70000E710E590E410E290E110EF90DE10DC90D
:101D80000DB10D990D810D690D510D390D210D0903
:101D90000DB30491046F044D042D040B04E903C733
:101DA00003A503830361033F031D03FB02DB02B9A9
:101DB0000297027502530231020F02ED01CB01A915
:101DC00001870105050A150A150A07030103070320
:101DD00005020107030406070605020414100000AB
:101DE00000000000C0E030303030E0C000000000F3
:101DF00000000000000000000000006C6E070301FE
:101E00000000000000001616FF01010101010101A0
:101E10000101010101010101010101FFAA54FF00BB
:101E200000000000000000000000000000000000B2
:101E300000FFAA550F18281828182818281828183D
:101E4000281828182818281F2A15801080808080BC
:101E5000808080808080800080008040A0A0A0A042
:101E6000A0A0A0A0A0A0A0A0A0A0A0A0A0A0A0A072
:101E7000A0A0A0A0A0A0A0A0A0A0A0A0A0A0A0A062
:101E8000A0A0A0A0A0A0A0A0A0A0A0A0A0A0A0A052
:101E9000A0A0A0A0A0A0A0A0A0A0A0A0A0A0A0A042
:101EA000A0A0A0A0A0A0A0A0A0A0A0A0A0A0A0A032
:101EB000A0A0A0A0A0A0A0A0A0A0A0A0A040800042
:101EC000800080808080808080808080FFFFFFFF96
:101ED000FFFFFFFFFF7FAA5500FF00FFFFB9B0B271
:101EE00086C6FF8080B6B6BEBEFF8080BFBFBFBFC4
:101EF000FF8080B6B6BEBEFFC180BEBEBEDDFFFEA7
:101F0000FE8080FEFEE7E7FFFF9FE3ECE0838FFFAC
:101F1000FFE7E7FFFF8080F6F0F9FFC080BFBFBF9B
:101F2000C0FF9E86A2B0BCFF9E86A2B0BCFF808090
:101F3000BFBFBFBFFF8080B6B6BEBEFFFFFF00FFC2
:101F40000055AA7FFFFFFFFFFFFFFFFF8010FFFF8D
:101F5000FFFFFFFFFF00FF00003E0A0E003C203C99
:101F60000034242C0034242C00023E0000183428B5
:101F70000028241400000000000000000000000001
:101F80000000000000000000000000000000000051
:101F90000000000000000000000000000000000041
:101FA00000FF000000000000000000000000000032
:101FB00000000000000000002210080422000000C1
:101FC0000000000000FF00FFFFFFFFFFFFFF2F2FBB
:101FD0002F2F2F2F2F2F2E2D2D2D2D2D2D2D2D2D24
:101FE0002D2D2D2D2D2D2D2D2D2D2D2D2D2D2D2D21
:101FF0002D2D2D2D2D2D2D2D2D2D2D2D2D2D2D2D11
:102000002D2D2D2D2D2D2D2D2D2D2D2D2D2D2D2D00
:102010002D2D2D2D2D2D2D2D2D2D2D2D2D2D2D2DF0
:102020002D2C2D2D2D2D2D2D2D2D2D2D2D2D2D2DE1
:102030002D2D2D2D2D2D2D2D2D2D2D2D2D2D2D2DD0
:102040002D2D2D2D2D2E2F2F2F2F2F2F2F2F2108E0
:102050000F0F08080006090B06000E03030E000F01
:10206000090F06000F0F000F02030F000E0F090DDE
:10207000000E10BEBDBEBDBEBDBEBDBEBDBEBDBEA2
:102080000000040004000400040004000400004EEA
:10209000080F0D0702000F050F0A000F0D090002BF
:1020A0000B0D00020B0D00000000000F0D070200D9
:1020B0000F0F0808000E03030E00030E0E030000AE
:1020C0000006090B06000F02030F00000000010FBD
:1020D0000F010E03030E000F0D0702000F0D090E76
:1020E00010A7C7A7C7A7C7A7C7A7C7A7C7A700079E
:1020F0000707070707070707070707070024080E52
:102100001F1F1F0E00000000000000000000001F45
:102110000E04000000000000000000040E1F000478
:102120000E1F00804000000000000000F8000000CA
:1021300000000000000000F80000000000000000A7
:102140000000F800000000000000000000F800009F
:102150000000000000000000F80000000000000087
:10216000000000F800000000000000000000000077
:10217000000000000000000000000000000000005F
:10218000000000000000000000000000000000004F
:10219000000000000000000000000000000000003F
:1021A000000000000000000051010501FF010501D1
:1021B00015015101010101FF01050115015501053D
:1021C0000101FF01150145011501150101FF01057F
:1021D0000115015101010101FF0105011501550121
:1021E000050101FF0100014500150100010100008A
:1021F00001000101000101010001010001010000D5
:1022000000010001000101010100000000000000C8
:1022100000000000000000000000000000000000BE
:102220000000000000000000090808080F08080965
:10223000080809080808080F080908080809080913
:1022400008080F080908090809080808080F0808FD
:1022500009080809080808080F08090808080908F3
:102260000908080F0800080900090800080800000C
:10227000080008080008080800080800080800000E
:10228000000800080008080808000000000000001E
:10229000000000000000000000000000000000003E
:1022A000000000000000000000000000000000002E
:1022B0000000000000FEFEFEFECE8686CEFEFE780A
:1022C0007800009CBEBEBEBE9C000000F8F8FEFE7A
:1022D000060606061E1E18180000F0F0F0F06060FA
:1022E0006060E0E0808000008080E0E0606060602E
:1022F000E0E0808000008080E0E06060606060601E
:10230000606000008080E0E060606060606060604D
:1023100000000000000000000000000000000000BD
:1023200000000000000000000000000000000000AD
:1023300000000000007F7F7F7F010101010101009B
:10234000000000617F7F7F7F7F6000001F1F7F7F15
:10235000606060607878181800007F7F7F7F0000E1
:1023600000000101010100001F1F7F7F60606060AD
:102370007F7F1F1F000061616767666666667E7EFD
:102380001818000061616767666666667E7E1818C9
:10239000000000703010000000000000000000008D
:1023A000000000000000000000000000000000002D
:1023B000000000000000000000000000000000001D
:1023C000101010101000100010000000101000106D
:1023D000100010101000101000100000101000105D
:1023E000900090100010F0101090109010101090AD
:1023F00010F010101010901010901010F01010101D
:1024000010901090109010F010109010901010106C
:102410009010F010101010901010901010F010107C
:10242000109000000000000000000000000000000C
:10243000000000000000000000000000000000009C
:10244000008080808000800080000000808000800C
:10245000800080808000808000800000808000807C
:10246000A800A2800080FF8080A080AA80A880A011
:1024700080FF808080808A80A880A080FF8080A8E4
:1024800080A880A280A880FF8080A080AA80A880E9
:10249000A080FF808080808A80A880A080FF80A0AC
:1024A000808A000000000000000000000000000022
:1024B000000000000000000000000000000000001C
:1024C000000000000000000000000000000000000C
:1024D00000000000000000000000000000000000FC
:1024E0000000000000001F000000000000000000CD
:1024F000001F000000000000000000001F0000009E
:10250000000000000000001F0000000000000000AC
:1025100000001F000000000000000000001F00007D
:10252000000000000001020408102040801010018B
:10253000010000000000000000000000000000009A
:10254000000000000000000000000000000000107B
:102550001001010000000000000000000000000069
:10256000000000000000000000000000000000006B
:102570000010100101000000000000000000000039
:10258000000000000000000000000000000000004B
:102590000000001010010100000000000000000019
:1025A000000000000000000000000000000000002B
:1025B0000000000000101000FF01FD05F555555505
:1025C00055545450F00000000F003F00FFD5D5D502
:1025D000FD0575351700001010C02020107CC28149
:1025E00009191A6936889090600031494945320AC4
:1025F0000808080505091209061010F0E83D96556F
:10260000D6AD7E7DAED556953EE8F0511BC63D6CED
:10261000D892D090D0986C3DC61B5110100000800D
:1026200040A0A2D4F4E8F4726562C08000BC50AF50
:102630005FBF3FBF39B036B93DBD5EAFF01010008F
:1026400008F4FA3D3AC2FDFE1E1DFA44BEC28000E7
:102650001639717274FBDBDBDAED6E7733171F10FE
:1026600010000000F20D52A53694282890608000DA
:1026700000000078C51A00FD3B3BF900D3E03708A5
:10268000000F0F80C0C07E777EF8C0C0C08080E0A1
:10269000F0800001013F773F0F01010100000307B7
:1026A000001010E010C8249040008080004090246A
:1026B000C810E007081324090200010100020924E0
:1026C0001308071010383C383838F8387838F8785C
:1026D000F878F08000000000000000010101030D07
:1026E0001A352A353F101000382828EF01EF282826
:1026F000B880E020E08080E0B0F0D0FF70FFD0F044
:1027000073E2BEE07EE2C3101000FF01FD05F55547
:10271000555555545450F00000000F003F00FFD5B0
:10272000D5D5FD0575351700001010C02020107C90
:10273000C28109191A69368890906000314949456B
:10274000320A0808080505091209061010F0E83DCC
:102750009655D6AD7E7DAED556953EE8F0511BC65A
:102760003D6CD892D090D0986C3DC61B5110100093
:10277000008040A0A2D4F4E8F4726562C08000BC7E
:1027800050AF5FBF3FBF39B036B93DBD5EAFF0104F
:10279000100008F4FA3D3AC2FDFE1E1DFA44BEC206
:1027A00080001639717274FBDBDBDAED6E7733175C
:1027B0001F1010000000F20D52A5369428289060DA
:1027C000800000000078C51A00FD3B3BF900D3E013
:1027D0003708000F0F80C0C07E777EF8C0C0C08071
:1027E00080E0F0800001013F773F0F010101000010
:1027F0000307001010804050D08040F95C5DF94024
:1028000080D0504080000101216F21272C2C2721EE
:102810006F21010100101000000018A464220A02B8
:1028200001063840800000000000000F907F8460A7
:102830000004FF100F00001010008070086432B90F
:10284000D9CD4DCD4DC9421CE0C0CF50A74E181D6B
:10285000B73326272607A651CE1010040A010A1006
:10286000208040E0E0C00000000000000000000008
:102870000307073E7DF3F3BFDF6E3C0E0EE0A0A220
:10288000A5A9AAB4AAA9A9A5A2A0E0003F202A242C
:102890002A242A242A24203F000E0E0000FC02F9DC
:1028A000F9F9F9F9F902FC000000000F1023232BBD
:1028B0002B2323100F00000E0E0F31C10912A2446A
:1028C000A4089020408000000000010204081211BA
:1028D00012080413200E0E00E11009080504050477
:1028E000090811E0012F0F2F0020002000200020F8
:1028F0000F2F0F0E0E02F1F2F1F2F112111211125E
:10290000F1E20120112111211121112111211120A8
:10291000100E0EF000F8FCFCFEFDFDFDFDFEFCFCC3
:10292000F807081317171717171717171707030EA6
:102930000EFCFEAFABABABBBABAFEBABAFFEFC018A
:102940000307063E1E0E070606060703010E0E705D
:10295000303030F7FFF7F0F0F080C0C0C03F3E3EAF
:102960003E3F2303233F3F000101010E0EFC3E2AA0
:102970003F2AAA2E2EBEBEBF3E3EFC1F202020298D
:102980002F2820282A2F20201F0E0EFF01017D5501
:102990005D55755D557D0101FF0F10203F21213FE1
:1029A0003F3F3F3F20203F0E0E00000088542A5D2D
:1029B0005D5D2A54880000000E1120202020202078
:1029C000202020110E0E0E84C46232121E32E2222A
:1029D00021A151381011223C24243C26230201005D
:1029E0000000000E0EE018040202010D8D81C6FEEB
:1029F000FCF8E0010608101E3F33333F1F1F0F078E
:102A0000010E0EFF9B915B3F9FCFE7F3FB7B7B7B30
:102A1000330C1E1E1E1F0F2733393C3E3F3F3F0E17
:102A20000E18F81C0C4E260707264E0C1CF8180032
:102A30000708103C3A3D3D3A3C100807000E0EE8EE
:102A400084F281E284C890A884E284C890000006E1
:102A50000F0F0F1F1F1F3F3D3C30000E0E4060F058
:102A6000F8FC7E3F3F7EFCF8F0604000003F3F1FD7
:102A7000202020201F3F3F00000E0E00000080603D
:102A80001B01011B60800000000006091016262EA5
:102A90002E2616100906000E0EF0082804E20A8AF7
:102AA000422428488808F00F1010101F101112142B
:102AB000141211100F0E0EF0F1C2C4C8D0C0C0D055
:102AC000C8C4C2F1F0032310080402000002040885
:102AD0001023030E0EE0180422F20105E51112E2A4
:102AE0000418E001060812132228292212110806F0
:102AF000010E0EF9F2E409E337171737E309E4F2A0
:102B0000F927130924313B3A3A3B31240913270EA4
:102B10000E99BDBD99C399BDBD99C399BDBD990C11
:102B20001E1E0C210C1E1E0C210C1E1E0C0E0E0057
:102B3000EE8000E0988F8F98E00080EE000327156C
:102B40000007072A2A0707001527030E0E7088744E
:102B5000DAAA4A94140A0A8A7488700000010205ED
:102B60000B16150A05020100000D0DFF01F96DE5B8
:102B7000BDE56DF901FFAA54070C150C150C150CD9
:102B8000150C170A150D0D0E1195514E2098C48481
:102B900008000000000001020000000103070E1CF5
:102BA000180D0DE7B0D4E201E010C82828C810E0E5
:102BB000070F1D18181B1C1918191C1A110D0D0EC2
:102BC00003230981C8E0703E9E181A000803030F12
:102BD0000F0100101410180E070D0D0FFFFFFFFB63
:102BE0008BC0C0C0C080000012131B13131313133B
:102BF0001B131308040D0DAAFA04F299FD0DFD191B
:102C0000F204FAAA0A1F001F121F101F101F001F34
:102C10000A0D0D78401EBF2DA92FA92DBF1E40788B
:102C200007010C07101F001F10070C01070D0DFFF7
:102C300000808000F8F800FFFF00E0E01F10171789
:102C40001017171017171017170D0DFFBB1B5B1B65
:102C5000BBBBB1B5B1BBBBFF1F1B1B1B1B1B1B11A0
:102C600015111B1B1F0D0D108888840402610C8137
:102C7000424448900F0606060F001B00070303039B
:102C8000070D0DFC02B1B505B5B102FC0000B0B0F6
:102C90001F000D0D000D0D001F020117170D0D0077
:102CA0008040208E1FFF1F8E2040800001020409FB
:102CB0001316151613090402010D0DC00060797A70
:102CC0006C7C6C7A796000C01F001F001F001F0021
:102CD0001F001F001F0D0DFC1E0F4F6F6F07476772
:102CE000670F0EFC070810101214141515141008A5
:102CF000070D0DAF0181412091482590492501AF75
:102D00001E10141201140211001010101E0D0DFFE0
:102D1000AAFF42524A52424242FFAAFF1F0A1F081C
:102D2000080A090A08081F0A1F0D0DE0A0100EE18D
:102D3000F5F5F5E10E10A0E00000010E10151515D7
:102D4000100E0100000D0D304A48B6797979B64869
:102D50004A308000000100010202020518060F0F30
:102D6000070D0D1C3C78F142ECECEC42F1783C1C78
:102D70001C1E0F07020F1F0F02070B161C0D0D0064
:102D80001010303037FD3730301010000306060CBD
:102D90000C181F180C0C0606030D0D0301B0B81C0F
:102DA0000C000C1CB8B00103181001030706000644
:102DB00007030110180D0D000F11E302D341D302D8
:102DC000E3110F0008080807101F181F1007080854
:102DD000080D0D00F0087C02297D69B90142BC0094
:102DE0000102041A001F07071F0003180F0D0D3AF8
:102DF00079FCC1F04D504DF0C1FC793A1207070F34
:102E000003050505030F0707120D0D09BDA1D975AF
:102E1000E5FDE5F5D9A1BD09121710131516151713
:102E200017131017120C0C1E678608102040800024
:102E30000000000000010202040408090E0E040C48
:102E40000C124A29A595555595A5294A120000014D
:102E500004020A0A02040100000C0CF8663169E958
:102E6000B1A1E1612166F8030F0A0F030202030F0B
:102E70000A0F030C0C0609D122040804046292090B
:102E8000070C0B0804020101020C0403010C0C08DE
:102E900004C2E1B214080281228408000400010384
:102EA00007060E0C0C08080C0C3FCFC7333939C687
:102EB000C6CC3830C000000103060609090C0E0F0D
:102EC0000F0C0CFF0155015501FF00545204F80F7F
:102ED00000050005000F000505000F0C0C000000A8
:102EE000A0530F0F53A0000000000003060E0E0EAB
:102EF0000E060300000C0C22A4889B1B4824A2A0F1
:102F0000A020A00504020409090504020405040C1C
:102F10000C04DE50FCFAFEFEFAFC50DE0401030055
:102F20000001010101000003010C0CFB036461219D
:102F30008D1D41616403FB0D0C0208080B0B080892
:102F4000020C0D0C0C03027F6B556BD5EB556B55CA
:102F50007F0000060F0F060000060F0F060C0CE0A6
:102F6000F8FFE6E43C3CE4E6FFF8E001000B070B69
:102F700001010B070B00010C0C541494D4C0FF0585
:102F80004555505454050401030301040505050586
:102F9000050C0CAA10C3F43EFAFFFA3EF4C3080A6B
:102FA00000070700030703000707000C0CF80432B2
:102FB000393D3DC1C1C1C204F80102040808080B33
:102FC0000B090402010C0C008044DFFFDF44404089
:102FD0001CFC1C0100000F0B030E0800000F000C6E
:102FE0000CFF015555555501FF040408F00D0D0166
:102FF0000D0D0107010D0D01070C0C0C006D6D008E
:103000000C0C804C4C202C00000B0B000C0300001F
:103010000000000C0CAA003C7E66FFFF66EECC00B0
:10302000550A000307060F0F06070300050C0C01E5
:10303000FE06FA9A6A6A9AFA06FE0108070605056C
:10304000050505050607080C0CB8BCBE80FF80B856
:10305000BE80FF80800304080A080A080A080402E8
:10306000010C0C60F0F06006EFEF0660F0F060001D
:1030700000080C0E0F0F0E0C0800000C0C009F90A7
:10308000FC9A9C9AFC909F00AA0007070103070383
:10309000010707000A0C0C01CC9E3E7EFCF8F2E60C
:1030A000CE9C010803070706040103070703080B6A
:1030B0000B30C02E11151115112EC030000506045D
:1030C000060006040605000B0B0007FFFFFFFF7755
:1030D0007777070700070707070707000000000BBF
:1030E0000BC0E0F0F0F0E4C2092412090103070765
:1030F000070301000000000B0B1C22414141221C70
:10310000000808F800000007040404040404070B86
:103110000BF8FFFECCC878C8CCFEFFF8010307050A
:10312000050505050703010B0B2030F83C3EFF3E6B
:103130003CF8302000000704040707070700000BD5
:103140000B00F40A11151511110AF4000001020414
:10315000040404040201000B0B0810102126F820BF
:103160002070507000000000070507000000000BF1
:103170000BFF01A10FA90AFC0055555507040404D3
:10318000040407000505050B0B7777077770777741
:103190000777777707070707000707070707070B72
:1031A0000B0007CFE83EFEC80F0700000400050132
:1031B000000303000400040B0BBF81A1A1212FE039
:1031C00009090BF807040407000203000101010BC1
:1031D0000BD54000FF818181818181FF07040404B8
:1031E000060004000400040B0B003D60FD80FD8020
:1031F000FD603D0000000004050705040000000B11
:103200000B1C3E7C70FEFFFE80FCFEFC00000000FC
:10321000070707030301000B0B008040281C987C64
:10322000FE5F0F0707040402010000000000000B0E
:103230000B1F2141913972E44810A04000000000AA
:10324000010204020100000B0BF804525204F804BE
:10325000525204F807020101020702010102070BA2
:103260000B7CFEFFC3C37FC3C3FFFE7C00000707C8
:10327000010701070700000B0B00EEFAEE20FE0429
:10328000F800202000070107000301000000000BE8
:103290000B607864E2627E6000FF000002070200BB
:1032A000020702000302020B0BFF01DD5D5DDDDDA5
:1032B000DDDD01FF07040704040707070704070B08
:1032C0000BF0F89C0E0300FF01FD01FF0103030654
:1032D000060401020402010B0B40605048FE01FE8F
:1032E0004850604000000406050405060400000B79
:1032F0000BE010FA6C7878786CFA10E000000001AE
:10330000010001010000000A0A007CFDFEFDFE7CB8
:10331000003800020202020202020200000A0A0051
:1033200080C080387DEEBCEE790203010303020306
:103330000100000A0A080C14FEF4E0C000E01000CE
:103340000002030303030200000A0A1C3870F8FE9F
:10335000FBF9F9FBFE000000010303030303010A6C
:103360000A204080FCC0FFE0FFC0FC000000010319
:1033700003030303010A0A484472C1F24448427F2E
:1033800042000000010303020000000A0A00FC02E0
:1033900009BD898102FC000003020202020202034D
:1033A000000A0A78843231FDFD3132847800000150
:1033B000020202020100000A0A00FF555D55F735BE
:1033C000BDB5BF000303030303000301000A0A069F
:1033D0000F0F3640AA92AA443800000000000003F4
:1033E0000000000A0A00000E1FF9F99F8E0000007D
:1033F0000000000303020200000A0AF1FACCCC7CB0
:103400007CCCCCFAF1030103010303010301030A9D
:103410000A784651C6613E080808F8000203030115
:1034200001010203030A0A1018FC1EFF9F9EFC18EC
:1034300010000003020303030300000A0AC16739F6
:1034400062C4386C446C38010302030100000000C0
:10345000000A0A0000FFA9F9A9F9A9FF000000036A
:10346000020302030203000A0AE070B07EF2F27265
:10347000B67CF0000103010000010301000A0A010B
:10348000FF45FC8249458902FC0003000000000062
:103490000001010A0A406070FC3F3FFC7060400080
:1034A0000002000303000200000A0A78FCFE8F05F8
:1034B000050D1B961C000001030302020100000A17
:1034C0000AFCB63331FFFF3133B6FC0001030203BF
:1034D00003020301000A0A0E1F5F9F0EC024282169
:1034E000C2010200000001020202010A0AF03CEEE1
:1034F0003BBFBF3BEE3CF0000000020303020000B4
:10350000000A0A90DEDE9E3E9ED4D494240103037A
:10351000010001030301000A0A0C1E3F3F9E0C40FC
:103520009020400000000000010200010209090093
:103530000F10A7CFA7100F0000000101010101002B
:10354000000909048E5F0E44E0F4E241010000002E
:10355000000001000009090C5ED3803F009FDE5C83
:103560000000000101010100000909004CDEDFDF5D
:10357000F7F6640000000001010100000009098065
:103580006018E6F3E6186080010100000100000108
:1035900001090900DFB6A4B6DF6060F80101000090
:1035A0000001010001090982FD82BABABA827F8254
:1035B000000100000000000100090907091EBFFF0B
:1035C000BF1E09070000010101010100000909C037
:1035D0002070F86C3E1B0E04010101000000000089
:1035E00000090938FE13D31FD313FE38000101016F
:1035F00001010101000909CCEEA6F7B7F7A6EECC50
:1036000001010001000100010109097CDA93333B4B
:103610003393DA7C00000101010101000009097CFB
:10362000F6F3F1FF1F9FDE7C0000010101010100A4
:1036300000090910D6D600C700D6D6100000000039
:1036400001000000000909008040201C1C1E070327
:1036500001000000000000000009090E1B15377A68
:10366000F0E0C00000000000000001010109097C39
:103670009E33333F33339E7C000001010101010082
:1036800000090900605876FD6E78600001010101B3
:103690000101010101090910FE9282D78292FE10F8
:1036A0000000000001000000000909C62929C61019
:1036B000C62929C60001010000000101000909C254
:1036C0002E2ACE18C82A2CC80001010000000101D2
:1036D0000009093CC2094D414D09C23C00000101ED
:1036E000010101000009091E3F7FFFFEDF6F3B1E45
:1036F00000000000010000000009097EF1F171DF07
:1037000071F1F17E00010100010001010009094E83
:103710005959899F8959594E010101000000010141
:103720000108083C3CDBFFFFDB3C3C0808DFDFD83E
:10373000FFFF1BFBFB0808FF7E3C18FC5C7C1C08A1
:1037400008060F2FA6904C201808081E3360C28769
:103750008ADC4808083C7EF3E1C0C46031080800F8
:103760003872E1E17238000808001E3BF3F33B1E9B
:10377000000808E0C0983C3C19030708083C02B95F
:10378000BDBD9D403C08083C24E78181E7243C08FE
:10379000081E3F7FFEDE6F331E0808060979BEBE95
:1037A0007909060808DB5A1824242424180808611B
:1037B0009689A8A88996610808C399004242009991
:1037C000C30808815A3C66663C5A810808C09824A0
:1037D0004242241903080810189CFFFF9C18100887
:1037E000081008E43F3FE4081008083C638AA0A0E2
:1037F0008A631C080803070E1C1820C0C0080800B4
:10380000708DB1B18D7000080860C0D8DCDCD8C004
:10381000600808387CFCFD7BBC7C3807073D78607D
:103820007A707D380707081C2263221C08070708E6
:103830000C7E7F7E0C0807071E79396F39791E07C9
:10384000070E1F3F7E3F1F0E07071F1D77535F4464
:103850007C07071C3E5F5F6F321C070707152708B0
:103860007254700707775D7722775D770707705C82
:103870007603765C700707080C0E3F4E2C0807078E
:1038800018045F1D5F041807070822004D10220866
:1038900007077F69596959697F0707397F39383FB9
:1038A000613F07076B41085D08416B07071C1477F0
:1038B0004177141C0707775D7505755D77070773FA
:1038C000517C141F4567070704487A1F7A4804078C
:1038D000071E785C1C7F4F06070700360063003622
:1038E0000007076363000800636307071C2255494C
:1038F00055221C07071C22555155221C060610385C
:103900001C0D010706060C123F213F0C0606041E83
:1039100027271E0406062C3E0F0F3E2C0606071D09
:10392000270A122406060F09392F243C06063F00F9
:103930002D2D003F06060002253D020006060F3C25
:103940000C3F0F060606011E3A3A1E0106062B0B17
:103950003807343506061B0F063B190806061233D6
:103960000000331206063333000033330606180C0A
:103970002633190C060602263F3F260206060324BC
:1039800038382403060621120C0C122106060C00FE
:103990002D2D000C0606211E12121E2106063C22A9
:1039A0000909223C06063F090F0F0F0F06063F0FBD
:1039B0000D0F311106060C122121120C06060C1EE9
:1039C0003F3F1E0C05051B1B041B1B05050E1B1F83
:1039D0001D0E050503061F060305051C1516151CFF
:1039E00005050C181E1E04050500121D1200050514
:1039F000021E020E1205051E1E1E0A0E0505081ADD
:103A00001F1A080505150E1B0E15050512191E199E
:103A1000120505001F0D1F00050504061F160405ED
:103A200005011E0B1E010505100E1B0E1005050ECF
:103A30001F1B110005051E0C0F1E0605051E181D77
:103A40001E1C0505041E171E040505160D0F0D1678
:103A50000505061D1F1D0605051E071F071E05057A
:103A60001C0E070E1C0505070F1E0F0705051F116D
:103A700011111F6C3A653A5E3A573A503A493A4248
:103A80003A3B3A343A2D3A263A1F3A183A113A0A52
:103A90003A033AFC39F539EE39E739E039D939D208
:103AA00039CB39C439BC39B439AC39A4399C3994CF
:103AB000398C3984397C3974396C3964395C3954BE
:103AC000394C3944393C3934392C3924391C3914AE
:103AD000390C390439FC38F338EA38E138D838CFB2
:103AE00038C638BD38B438AB38A2389938903887E2
:103AF000387E3875386C3863385A38513848383F12
:103B00003836382D3824381B3811380738FD37F34C
:103B100037E937DF37D537CB37C137B737AD37A3BD
:103B20003799378F3785377B37713767375D37532D
:103B30003749373F3735372B3721370D37F936E5DA
:103B400036D136BD36A936953681366D365936456D
:103B50003631361D360936F535E135CD35B935A561
:103B60003591357D356935553541352D351735015B
:103B700035EB34D534BF34A93493347D34673451B4
:103B8000343B3425340F34F933E333CD33B733A129
:103B9000338B3375335F33493333331D330733EF9F
:103BA00032D732BF32A7328F3277325F3247322F6D
:103BB000321732FF31E731CF31B7319F3187316F63
:103BC0003157313F3127310F31F730DF30C730AF58
:103BD0003095307B30613047302D301330F92FDF96
:103BE0002FC52FAB2F912F772F5D2F432F292F0F0D
:103BF0002FF52EDB2EC12EA72E8D2E732E592E3F84
:103C00002E252E092EED2DD12DB52D992D7D2D6131
:103C10002D452D292D0D2DF12CD52CB92C9D2C8128
:103C20002C652C492C2D2C112CF52BD92BBD2BA11F
:103C30002B852B692B4B2B2D2B0F2BF12AD32AB540
:103C40002A972A792A5B2A3D2A1F2A012AE329C5B5
:103C500029A72989296B294D292F291129F328D52D
:103C600028B72899287B28EF32D732BF32A7328F66
:103C70003277325F3247322F321732FF31E731CF9E
:103C800031B7319F3187316F3157313F3127310F94
:103C900031F730DF30C730AF30592837281528F3D7
:103CA00027D327B1278F276D274B2729270727E5FC
:103CB00026C326A12681265F263D261B26F925D769
:103CC00025B525932571254F252D2500D32F1124AA
:103CD0001FBECFEFDAE0DEBFCDBF11E0A0E0B1E064
:103CE000E2E8FCE602C005900D92A03DB107D9F7CD
:103CF00027E0A0EDB1E001C01D92A032B207E1F7CC
:103D00001EE1C7E6DEE104C02197FE010E943D34BA
:103D1000C636D107C9F70E9434300C943F360C9454
:103D20000000DC01FB01918590952085922393FF93
:103D30000CC014968C911497811102C083E0808B83
:103D400014968C91813009F4808B089522E0FC0157
:103D500024830895089580E090E0089508950895DB
:103D60000895089508950895089508950C94DB34F6
:103D70000C94DB340C94DB340C94DB340C94DB3487
:103D80000C94DB340C94DB34CF93DF9361E070E070
:103D900080E090E00E946435EC01009721F06AEC2D
:103DA00071E00E943836CE01DF91CF910C94DB3464
:103DB000CF92EF920F931F93CF93DF93FC016A3062
:103DC00039F48581848396818185890F86839DC09E
:103DD000A4816E3719F4AF5FA48397C0962FEF01CB
:103DE00066816F5F9A3380F4903310F59B3219F13E
:103DF00018F4913221F156C09D3209F459C09E3217
:103E000009F050C01FE31CC09B3548F4913470F496
:103E10009A3399F09F3309F045C012E411C08FE93D
:103E2000890F8A3108F03EC019EB03C01FEB01C0B7
:103E300014E0190F05C011E403C013E401C01EE330
:103E40008F81062E000C770B0A2E000CBB0B8130E5
:103E5000A1F5E9EBF0E00491EAEBF0E0E490112346
:103E600049F121E030E08E2D877011F420E030E040
:103E70008E2D869586958695280F311D029FF0011F
:103E8000039FF00D11249F011203A001139F500DF9
:103E9000112445545F4F9AEFC92E20E030E0CD0148
:103EA0000E94A62E88858D5F9C81890F8C832DC0F2
:103EB00010E4C6CF4BEB50E0EECFE9EBF0E004911D
:103EC000EAEBF0E0E4901123D9F021E030E08E2D10
:103ED000877011F420E030E08E2D869586958695CA
:103EE000280F311D029FF001039FF00D11249F0147
:103EF0001203A001139F500D112445545F4F02C0BF
:103F00004BEB50E08BEFC82EC8CF81E090E0DF9103
:103F1000CF911F910F91EF90CF9008952F923F92E4
:103F20004F925F926F927F928F929F92AF92BF92C9
:103F3000CF92DF92EF92FF920F931F93CF93DF9375
:103F4000CDB7DEB72C970FB6F894DEBF0FBECDBF4E
:103F50008C018AE990E00E943F33582E8BE990E073
:103F60000E943F338C87680182E0C80ED11C652C0B
:103F7000712CE12CF12C412CFE0131965F01CE0118
:103F800009969A8789879C8549120EC00E571F4F44
:103F9000E12CF12C88E0282EFE0131966F01CE0134
:103FA00009969A8789875FC0F50188E011928A9502
:103FB000E9F747019EE9890E911C312C212CEFEF86
:103FC000EB87351469F0C4010E943F338F702816C7
:103FD00051F08130B9F4FB85FF5FFB87F83031F495
:103FE000F501D60115C081E028120DC0F5019B85B1
:103FF000E90FF11D97FDFA9580818F5F8083222460
:10400000239401C0282E3394EFEF8E1A9E0AD9CF45
:1040100081918D9389859A85E817F907C9F74394AB
:1040200098E0C90ED11CE60CF71CADCFC5010E946B
:104030003F338F70881227C081E0881651F1339486
:10404000A60CB71CEC853E12F1CFF601D801819188
:104050008D9389859A85E817F907C9F79FEFE91AC3
:10406000F90A085F1F4FE51408F5F601822D119239
:104070008A95E9F757019EE9A90EB11C312C812CD4
:1040800099249A94DFCF813079F49394F8E09F16C5
:10409000E1F2F601E90DF11D97FCFA9580818F5F41
:1040A000808388248394CBCF882EC9CF2C960FB6DB
:1040B000F894DEBF0FBECDBFDF91CF911F910F915E
:1040C000FF90EF90DF90CF90BF90AF909F908F9038
:1040D0007F906F905F904F903F902F900895AF9298
:1040E000BF92CF92DF92EF92FF920F931F93CF93E5
:1040F000DF93EC016B01FB01008511851095102306
:1041000015FF11C08C85882371F081508C8713FDB9
:104110000AC003FF08C0FE01E95EFE4F6081CE01C8
:104120000C960E94042C16FF1AC0FC848AE990E0C9
:104130000E943F332F2D30E090E001972817390778
:1041400074F4F394FC8613FD0AC003FF08C0FE015B
:10415000E95EFE4F6081CE010C960E94042C17FF91
:1041600011C08D85882371F081508D8713FD0AC0A1
:1041700003FF08C0FE01E95EFE4F6081CE010C9690
:104180000E94042C14FF1AC0FD848AE990E00E946A
:104190003F332F2D30E090E001972817390774F452
:1041A000F394FD8613FD0AC003FF08C0FE01E95E1B
:1041B000FE4F6081CE010C960E94042CFE01EE5E43
:1041C000FE4F80819E012A5E3E4F5901811157C0EA
:1041D000F9018081803408F05FC07E01FCE0EF0EC1
:1041E000F11C8C85FE01EF5EFE4F908128E0829FDE
:1041F000900D11242D853197808138E0239F800D0B
:1042000011243496973718F09757908301C0108285
:10421000FE01EB5EFE4F873318F08753808301C0A9
:10422000108213FF18C0C7010E942A2C813061F050
:1042300010F0823081F461E0C7010E94042CC95E55
:10424000DE4F81E0888307C060E0C7010E94042C34
:10425000C95EDE4F188202FF06C0F50180818034FE
:1042600010F48F5F808312FF02C0F5011082F60107
:10427000818582FF36C0808582FD33C01BC0CD5E44
:10428000DE4F8881803418F48F5F888305C013FF68
:1042900003C082E0F601808BF5018081803408F153
:1042A00013FF03C082E0F601808B12FF1AC0F501F4
:1042B000108217C0C7010E942A2C823010F462E0DD
:1042C00003C0823071F460E0C701DF91CF911F918C
:1042D0000F91FF90EF90DF90CF90BF90AF900C9434
:1042E000042CDF91CF911F910F91FF90EF90DF9001
:1042F000CF90BF90AF9008952F923F924F925F92D0
:104300006F927F928F929F92AF92BF92CF92DF92E5
:10431000EF92FF920F931F93CF93DF93CDB7DEB74A
:10432000C856D1090FB6F894DEBF0FBECDBF2C0121
:104330008B0185E5E4E7F1E09E012F5F3F4F5901D6
:10434000D90101900D928A95E1F7DB0116960D9047
:10435000BC91A02DA796BFAFAEAFA7978AE990E01A
:104360000E943F336D968FAF6D97C82ECC0CCC0C4E
:10437000C80E90E0019625E0289F4001299F900CEF
:1043800011246D96DFAC6D97DD0CDD0CDD0CE12C9E
:10439000F12CF201E05FFE4F6A96FFAFEEAF6A9735
:1043A00092012B5E3E4F68963FAF2EAF6897C201D9
:1043B0008F5E9E4F6C969FAF8EAF6C97D201AC5EB6
:1043C000BE4FA596BFAFAEAFA5971801B3E02B0EB9
:1043D000311CE8E0FE9E800111247C2C872D90E0AA
:1043E000881599050CF04AC0F501E80FF91F808186
:1043F0008F1142C06A96AEADBFAD6A974C9150E046
:104400006896EEADFFAD68978081481B51096C96A8
:10441000AEADBFAD6C978C91B801680F711DA596BC
:10442000EEADFFADA5978081681B71092D2DC101EF
:104430000E948D2B6A96AEADBFAD6A978C91B80184
:10444000680F711D6896EEADFFAD68978081681B9F
:1044500071096034710580F46C96AEADBFAD6C9798
:104460008C9190E0A596EEADFFADA59720814D2DE6
:10447000821B91090E94B92B7394B0CF6C96AEAD9C
:10448000BFAD6C970C91A596EEADFFADA597808161
:10449000081B0E0D6A96AEADBFAD6A977C9068960C
:1044A000EEADFFAD68978081781A7D0C612C10E02D
:1044B000462D50E021E0B801C1010E94DB2A63943F
:1044C00063947614A8F76A96AEADBFAD6A970C9167
:1044D0006896EEADFFAD68978081081B0E0D6C9657
:1044E000AEADBFAD6C976C906D0C712C10E0672D6C
:1044F00070E021E0A801C1010E94DB2A739473944B
:104500006714A8F7F394B8E0EB0E6D96EFAD6D97D6
:10451000EF1508F05ECFE12CF12C912C92012C5E6E
:104520003E4F6F963FAF2EAF6F976D963FAD6D9735
:1045300093121FC0812C912C6EE9662E7724739400
:10454000D12C6E961FAE6E97C2018C5E9E4FA196C7
:104550009FAF8EAFA197D201AF5EBE4FA996BFAFFE
:10456000AEAFA997F2013296A396FFAFEEAFA39735
:10457000B7C0C12CD12CA12CB12C892D90E09C016D
:1045800022563F4FA3963FAF2EAFA3976D963FADF8
:104590006D97A31608F080C08AE990E00E943F332F
:1045A000A82FAA9DC001AB9D900D1124A396EEAD3E
:1045B000FFADA3978E0F9F1F0E943F338F708130F6
:1045C00051F1823009F061C06A96AEADBFAD6A9715
:1045D0008C91B601680F711D6E5F7F4F6896EEADCE
:1045E000FFAD68978081681B71096C96AEADBFAD59
:1045F0006C978C91F701E80FF11DCF0102966F9631
:10460000AEADBFAD6F972C9143EC5DE1821B91097C
:104610000E94EE2B3AC06A96AEADBFAD6A978C9100
:104620003601680E711CB2E06B0E711C6896EEAD1F
:10463000FFAD68978081681A71086C96AEADBFAD0A
:104640006C978C918701080F111D0E5F1F4F6F969D
:10465000EEADFFAD6F978081081B110998012B5FAC
:104660003F4FA1963FAF2EAFA197A1968EAD9FADC4
:10467000A1970817190749F025E0A301B801C10166
:104680000E948D2B0F5F1F4FF0CFBFEFAB1ABB0AFD
:10469000E8E0CE0ED11C7ACF9394F8E0EF0EF11C37
:1046A00044CFF20111866E96FFAD6E97FF5F6E9656
:1046B000FFAF6E97E82C8301F12CC8010E943F33B5
:1046C000811173C00F5F1F4FF7E0FF0E28E3F21256
:1046D000F4CFD39438E0630E711C88E0880E911CEF
:1046E0006D962FAD6D97D21216C0812C912C5EE184
:1046F000652E52E0752E10E001E0C2018C5E9E4FE7
:10470000A1969FAF8EAFA197D2011296A396BFAF8D
:10471000AEAFA397A1C07401BEE8EB0EF11CE40C90
:10472000F51C5401EAE5AE1AEEEFBE0A8301C8019A
:104730000E943F33D7019D917D01891347C20F5FCE
:104740001F4FA016B10699F76A96EEADFFAD6A97B6
:10475000C080CA946896AEADBFAD6897EC90F12C5E
:10476000F194E194F1086C96EEADFFAD6C97808109
:104770008401080F111D0F5F1F4FA196AEADBFAD95
:10478000A1978C91081B11095801B7E0AB0EB11C21
:104790000A151B0509F485CF2C2DA701B801C1010D
:1047A0000E948D2B0F5F1F4FF3CF6896AEADBFAD4C
:1047B00068979C913F2D391BA996EEADFFADA99747
:1047C00090819D5F8A3028F421E0813019F020E04B
:1047D00001C023E0A196AEADBFADA1974C91941B53
:1047E0009E0D921BF201968397833087482F50E0ED
:1047F00060E070E02AE0A3968EAD9FADA3970E9483
:104800005D2E69EC71E0A3968EAD9FADA3970E94DB
:10481000482E58CFD20119961C926E96BFAD6E9756
:10482000BF5F6E96BFAF6E97B82C7301D12CC12CB1
:10483000C7010E943F33811162C0BFEFEB1AFB0A30
:10484000E5E0DE0EF8E2DF12F3CF1F5F28E0620E34
:10485000711C38E0830E911C6D969FAD6D971917F2
:1048600009F47EC06401AEE0CA0ED11CC40CD51C94
:104870005401BAEDAB1ABDEFBB0A7301C7010E9428
:104880003F33F60191916F018913A4C1FFEFEF1A35
:10489000FF0AAE14BF0491F76C96EEADFFAD6C97B6
:1048A000E080EA946A96AEADBFAD6A978C916401E0
:1048B000C80ED11CBFEFCB1ADB0A6896EEADFFAD78
:1048C00068978081C81AD108A196AEADBFADA197F7
:1048D0008C9190E0AA24BB24A81AB90AF12CE81AFA
:1048E000F90AAE14BF040CF095CF27E0A601B5017C
:1048F000C1010E948D2B2FEFA21AB20AF2CF8A308B
:1049000008F0C3946A96EEADFFAD6A9790819F5F01
:104910006896AEADBFAD68972C91921B9B0DA1968A
:10492000EEADFFADA1972081F02FF21B2F2F2D0DA3
:104930003C2D330F231BD20116962C9316971796F6
:104940002C93179718969C93482F50E060E070E0E6
:104950002AE0A3968EAD9FADA3970E945D2E6DCFEA
:104960006E968FAD6E97282F30E0812F90E0880FE4
:10497000991F82010E5E1E4F2817390761F481E0EE
:10498000D8018C9388E990E00E94473361E0825619
:104990009D4F0E944D33F8018081F201882309F474
:1049A00058C0ED5EFE4F8081803409F017C188E960
:1049B00090E00E944733880F991FFC01E559F44E9F
:1049C00085919491FC01F49031961491E0E4FAE120
:1049D0000491E1E4FAE1E490CC24C39427E139E1C5
:1049E00042E45AE164E170E08EE090E00E948D289C
:1049F00088E990E00E944733880F991FFC01E55930
:104A0000F44E45915491E12FE69560E270E06E1B03
:104A10007109F69485E690E08F199109C859DF4F26
:104A20000FB6F894DEBF0FBECDBFDF91CF911F91BF
:104A30000F91FF90EF90DF90CF90BF90AF909F903D
:104A40008F907F906F905F904F903F902F900C943D
:104A5000EE2BEA5EFE4F8081803499F4E8EFF7E1B7
:104A60000491E9EFF7E1E490CC24C3942BED36E117
:104A70004AEF57E164E170E080E190E00E948D2808
:104A8000ADC0A7968EAD9FADA79760E370E00E9482
:104A90002934893108F4A2C0D2011D966C911D976A
:104AA0001C968C91E4EDF6E10491E5EDF6E1E490DD
:104AB0006A96EEADFFAD6A979081F8E06F9FB00106
:104AC0001124690F711D6896AEADBFAD68979C91BA
:104AD000691B71096C96EEADFFAD6C972081F8E013
:104AE0008F9FC0011124820F911DA596AEADBFAD61
:104AF000A597EC91CC24C3942DEC36E146ED56E11C
:104B00008E1B91090E948D28F20105856A96AEAD33
:104B1000BFAD6A978C91B8E00B9F80011124080FFC
:104B2000111D6896EEADFFAD68978081081B1109D5
:104B3000D2011C96EC906C96EEADFFAD6C97808127
:104B4000F8E0EF9E70011124E80EF11CA596AEADC1
:104B5000BFADA5978C91E81AF1080034110528F42F
:104B600049E0B801C7010E94B92BB801685F7F4FC7
:104B70006034710520F449E0C7010E94B92B29E097
:104B8000A801B701C1010E948D2BB701685F7F4F5B
:104B900029E0A801C101C859DF4F0FB6F894DEBF64
:104BA0000FBECDBFDF91CF911F910F91FF90EF907E
:104BB000DF90CF90BF90AF909F908F907F906F903D
:104BC0005F904F903F902F900C948D2B21E0F2013D
:104BD000218770CDD20119960C9326CEC859DF4F8C
:104BE0000FB6F894DEBF0FBECDBFDF91CF911F91FE
:104BF0000F91FF90EF90DF90CF90BF90AF909F907C
:104C00008F907F906F905F904F903F902F9008957E
:104C10001F93CF93DF93EC018CE990E00E943F3328
:104C2000182FFE01E25FFE4F80838DE990E00E9425
:104C30003F33FE01E15FFE4F80833296912F990F43
:104C4000990F190F1D5F1083319797E0899F802D71
:104C500011248E5F808333961082339610823497AE
:104C600010821C861D86CE010C96DF91CF911F917C
:104C70000C948E1F08950895FC01DB0119968C9108
:104C80001997809518969C911897892399F082819D
:104C9000882311F08CE78283928191110EC081E00C
:104CA000828380E48093900081E49FE09093990058
:104CB0008093980092819923B1F09F5F9283953001
:104CC00059F09D3761F0923071F480E596E490934D
:104CD000990080939800089510929000089581E0C3
:104CE00050968C930895089543E251E260E070E09D
:104CF00080E090E00C94422C2F923F924F925F9272
:104D00006F927F928F929F92AF92BF92CF92DF92DB
:104D1000EF92FF920F931F93CF93DF93CDB7DEB740
:104D200029970FB6F894DEBF0FBECDBF998788874D
:104D30006B01DC011C968D919C911D9769E170E0DF
:104D40000E9429348B01282F8230910530F0863162
:104D500030F44EEF742E780E04C0712C02C034E192
:104D6000732E7C82B5E0B70DBD83223018F4672C1A
:104D7000680E08C0273118F08451682E02C022E066
:104D8000622E670C89E1809F4001819F900C112465
:104D90007401E2E6EE1AEDEFFE0A5401F9E4AF1AEF
:104DA000FDEFBF0A512CC7010E943F33813009F447
:104DB00053943FEFE31AF30AEA14FB04A1F7550CEE
:104DC000550C59824CE45FE160E070E080E090E0D7
:104DD0000E94422C4AE45EE160E370E080E090E0F3
:104DE0000E94422CD60116968D919C91179760E3F4
:104DF00070E00E9429348F839BE0392EE885F98585
:104E000032966F01FD817F160CF07EC0872D072C36
:104E1000000C990B9B838A835C01A80CB91CF501DB
:104E2000EE0FFF1FDF01AD58B54C2D01FD0185913F
:104E30009491FC012490319634913E83E72C8C812F
:104E4000E81A99E1E99E70011124AF81A93110F4AB
:104E5000761441F046E05EE164E170E0C70104963B
:104E60000E94EE2BC50182569D4F0E943F33813038
:104E700079F4F201459154914E8046946EE170E0D0
:104E800064197109C7010E9626948219910906C00A
:104E90004CED5DE164E170E0C70104960E94EE2BE9
:104EA000E885F985368237823BE2308788E08715CE
:104EB0002CF06BEC71E0C6010E94482E4A815B81A8
:104EC0004F5F5F4F4F3F9FEF590791F4A885B9851A
:104ED0001296ED91FC9113970190F081E02D6DE217
:104EE000C60109952AE041E050E060E070E005C0AD
:104EF000052E000C660B770B2AE0C6010E945D2E82
:104F00007394B9E13B0E7ECF8AE2E885F98586830A
:104F1000878310864801F5E08F0E911CA12CB12CDF
:104F20002AE0B501A401C6010E945D2E6DEC71E07E
:104F3000C6010E94482E2AE0B501A401C6010E94C4
:104F40005D2E8DE5A885B98516968C9316971796D4
:104F50008C93179718961C92B981B43668F46BEC51
:104F600071E0C6010E94482EE981EA3028F46BEC1A
:104F700071E0C6010E94482EF9814F2F50E060E099
:104F800070E02AE0C6010E945D2E0115110501F5B1
:104F90004AEC5DE162E070E089E490E029960FB6AA
:104FA000F894DEBF0FBECDBFDF91CF911F910F915F
:104FB000FF90EF90DF90CF90BF90AF909F908F9039
:104FC0007F906F905F904F903F902F900C94EE2BBE
:104FD00043ED5DE162E070E081E490E00E94EE2B41
:104FE0000F301105A8F229960FB6F894DEBF0FBE58
:104FF000CDBFDF91CF911F910F91FF90EF90DF9088
:10500000CF90BF90AF909F908F907F906F905F9068
:105010004F903F902F9008950F931F93CF93DF935E
:10502000FC01EB01298520958885282304851585B9
:10503000C80169E170E00E94293425FF06C0882379
:1050400021F0015011091587048726FF07C0883118
:1050500029F08485958501969587848727FF07C069
:10506000662329F08485958549979587848724FF51
:1050700007C06B3028F48485958549969587848789
:1050800023FF12C08E01EF0188E990E00E943F33B8
:10509000282F8C859D8530E02817390711F00E9454
:1050A000582C83E0F801808BDF91CF911F910F91F5
:1050B00008950F931F93CF93DF938C0188E990E0BD
:1050C0000E944733F801958784878BE990E00E941E
:1050D0003F33811104C080E090E00E94582CF80119
:1050E000C485D585CE0182569D4F0E943F338130C5
:1050F00079F42196CC32F1E0DF0750F4CE018256EC
:105100009D4F0E943F338111F4CFF801D587C487AA
:10511000DF91CF911F910F9108954F925F926F92FF
:105120007F928F929F92AF92BF92CF92DF92EF9237
:10513000FF920F931F93CF93DF9300D000D0CDB792
:10514000DEB7DC0139012C2DA02EB12CC5018A0F50
:105150009B1F181619060CF0AEC1A038B1050CF053
:10516000AAC1FB01EE0DF11D1E161F060CF0A3C116
:10517000603471050CF09FC14115510509F49BC1C4
:10518000362F3770F32EFB0177FD379633E0F59518
:10519000E7953A95E1F73E2F77FF04C0FF2011F025
:1051A0003FEF3E0FB7FF05C0EE27FF27EA1BFB0BC3
:1051B00002C0E0E0F0E0803891051CF090E89A1B16
:1051C00001C0902F9E1B632F032E000C770B3F3FD7
:1051D0001CF4162F109501C010E0DD24D3948E2D01
:1051E000877009F4D12CE694E694E694ED0C6E0DEC
:1051F000711D693071051CF088E0E82EE31AE11A90
:10520000310F60E83603A00DB11D1124AE0FBF1F92
:10521000019FE00DF11D11244E0F5F1F61E070E052
:105220004B010F2C02C0880C991C0A94E2F7233022
:1052300009F4FFC0B8F4213009F4B3C0223009F0FA
:105240003AC18FEF889D8001899D100D1124009532
:1052500010951A8309832A81FD01E95EFC4F2F0115
:10526000E30E29C02A3FD1F12B3F09F024C1FD01F3
:10527000E95EFC4F6F01E30E82C08491889D60015E
:10528000899DD00C1124DC82CB8237FD05C0DB0167
:105290008C918023C82ACC92F11013C031966F5F95
:1052A0007F4F8E2F841B891740F33F5F4A0D5B1D94
:1052B000B0E84B0E511C3E1509F4FDC0B201FA01D5
:1052C000F0CF37305CF76B01B0E8CB0ED11CD601C4
:1052D0008C9182237C8087298C93E0CFFD01E95E4D
:1052E000FC4F6F01E30E3E1509F4E5C08601FA019B
:1052F0008E2F841B8917F0F48491889DB001899DBD
:10530000700D11247C836B8337FD04C0D8018C9110
:10531000682B6C93FF2051F0373044F4B80160588B
:105320007F4FDB012C918C81822B8C9331960F5F08
:105330001F4FDECF3F5F4A0D5B1DB0E8CB0ED11C87
:10534000D2CF8491889D8001899D100D11241C83EA
:105350000B8337FD05C00095DB018C9108230C936E
:10536000F11013C031966F5F7F4F8E2F841B89170A
:1053700040F33F5F4A0D5B1DB0E8CB0ED11C3E15DC
:1053800009F499C0B601FA01F0CF37305CF78B0110
:1053900000581F4F8C818095D8012C9182238C93CB
:1053A000E1CFB3016E0F7F1FA95EBC4FE30E3E1528
:1053B00009F481C08D01C12CD12CC91690F5FB01D7
:1053C000EC0DFD1DE491E89D3001E99D700C112468
:1053D000609470947A826982FA01EC0DFD1DE4916B
:1053E000E89D2001E99D500C11245C824B8237FD21
:1053F00005C0F8018081682246284082FF2059F0CC
:1054000037304CF4F801E058FF4F20818A81822325
:105410002C81822B8083FFEFCF1ADF0A0F5F1F4F93
:10542000CCCF3F5F4A0D5B1D6A0D7B1DA058BF4F5F
:10543000BECFC92ED12CE40FF51FA95EBC4F00E8EA
:1054400010E00C191D09AC18BD08A501440F551F2B
:10545000792F2E2D792ECF93DF93ED01EF96EF96D6
:105460002296A590C590FF2059F0A89C5001C89C99
:10547000600137302CF4E880D094ED20EB28E992DD
:1054800033233AF0EC90C094EC20EA28ED920C948F
:105490004A2A11967A9529F72A9551F0772D339556
:1054A0001124E40FF11DA00FB11DC00FD11DD9CFE4
:1054B000DF91CF9111240F900F900F900F90DF91FB
:1054C000CF911F910F91FF90EF90DF90CF90BF9001
:1054D000AF909F908F907F906F905F904F900895C6
:1054E000F89487E78093000880930108A89588E1E5
:1054F0008093600088E080936000FFCFDC01FB01B7
:10550000808591859095982384FF0BC012962C91ED
:105510001297203120F42F5F12962C9304C00E9422
:10552000702A12961C9293FF02C082E0808B08952D
:105530008F929F92AF92BF92CF92DF92EF92FF92A3
:105540006C01E12CF12C0E94D92D4B015C01C1149E
:10555000D104E104F104F1F00E94D92DDC01CB016A
:1055600088199909AA09BB09883E9340A105B1058C
:1055700070F321E0C21AD108E108F10888EE880E24
:1055800083E0981EA11CB11CC114D104E104F104F4
:1055900019F7DDCFFF90EF90DF90CF90BF90AF90E5
:1055A0009F908F9008958FB18095807F669B8860D3
:1055B0001C9B8460089560387105D0F44034510517
:1055C000B8F4E5E2F5E280E1849FD001A0781124EF
:1055D000A60F4770E40FF11D8491A95EBC4F2223F2
:1055E00019F06C91862B03C080956C9186238C9367
:1055F0000895EF92FF920F931F93CF93DF93EC01E7
:105600007B014DEF50E261E170E08FE290E00E949B
:10561000422C4FED50E26AE170E08BE290E00E9494
:10562000422C4FED50E26AE170E089E490E00E9484
:10563000422C8A81811116C04FED50E26AE170E080
:105640008AE390E00E94422C4FE850E26EE270E064
:105650008AE190E0DF91CF911F910F91FF90EF9041
:105660000C94422C41E750E26AE170E08AE390E05A
:105670000E94422C4EE450E26EE270E08CE290E038
:105680000E94422C8A816FE00E941D34082F037013
:10569000CFE4D0E010E083E0E80EF11C011751F0F8
:1056A00021E041E350E0BE01C7010E94DB2A1F5FF9
:1056B0002296F4CFDF91CF911F910F91FF90EF9041
:1056C0000895CF92DF92EF92FF920F931F93CF93A3
:1056D000DF936C017A018B01C0E0D0E0CE15DF05CD
:1056E00081F0D8016D918D01D601ED91FC91019071
:1056F000F081E02DC6010995892B11F02196EECF9E
:105700007E01C701DF91CF911F910F91FF90EF9024
:10571000DF90CF9008950E942A36CF92DF92EF92C9
:10572000FF920F931F93CF93DF937C016B018A014C
:10573000020F111DEA0157FF02C0C0E0D0E0C8010E
:105740000134110514F080E490E0C817D90744F43F
:1057500021E0AE01B601C7010E94DB2A2196EFCFFE
:10576000DF91CF911F910F91FF90EF90DF90CF903D
:1057700008959C01240F311D1216130674F580380C
:1057800091055CF597FF02C080E090E0213831057B
:1057900014F020E830E0281BAB014770552731E0BA
:1057A00001C0330F4A95EAF777FF02C0695F7F4F68
:1057B00043E0759567954A95E1F77695762F6627CC
:1057C00077956795860F971FFC01E95EFC4F215086
:1057D00020F08081832B8193FACF0895CF92EF92AE
:1057E0000F934115510561F0FA0104913196E4904F
:1057F0004E5F5F4F2AEFC22E20E030E00E948D28DE
:105800000F91EF90CF900895FF920F931F93CF9336
:10581000DF938C01F62E8AE990E00E943F33F80175
:105820009181C081D0E0C256DF4F989FC00DD11D3D
:105830001124CE010E943F338071682F6F29CE0161
:105840000E944D33C801DF91CF911F910F91FF90BE
:105850000C948E1FCF93DF93EC018AE990E00E94B5
:105860003F339981288130E022563F4FA901989F0C
:10587000400D511D1124CA010E943F338F70DF91EA
:10588000CF910895CF92EF920F934115510561F09A
:10589000FA0104913196E4904E5F5F4F22E0C22EF0
:1058A00020E030E00E948D280F91EF90CF90089576
:1058B0002F923F924F925F926F927F928F929F9220
:1058C000AF92BF92CF92DF92EF92FF920F931F930E
:1058D000CF93DF93CDB7DEB760970FB6F894DEBFF6
:1058E0000FBECDBFFC01EE0FFF1FED58F54C6590CC
:1058F0007490F301249031963490232D2770F32C6B
:10590000F694F694F6942111F394BC0188E990E0A2
:105910000E945F33622D8AE990E00E944D33632D2F
:105920008BE990E00E944D33022D10E0980183E056
:10593000220F331F8A95E1F73A87298732E0630EF9
:10594000711C412C512CA12CB12C8F2D90E0988BE7
:105950008F87EF85F889AE16BF0608F043C0E12CAB
:10596000F12C920122563F4F3E872D87E016F1061B
:1059700078F5F701E60DF71DE4918D849E848E0C79
:105980009F1CC12CD12C8E2F90E09C878B8781E0AF
:1059900090E00C2C02C0880F991F0A94E2F7EB8567
:1059A000FC858E239F23892B11F060E101C060E00C
:1059B000C4010E944D33FFEFCF1ADF0A800E911E03
:1059C00028E0C216D10419F73FEFE31AF30ACECF4D
:1059D0004FEFA41AB40A600E711E89859A85480E8D
:1059E000591EB7CF612C712CC12CD12C19861B8666
:1059F000FE0131962F01F9853F120AC0612C712CEE
:105A0000C12CD12C19869E012F5F3F4F290184C0E4
:105A1000F20128E011922A95E9F773013EE9E30EBD
:105A2000F11C912CA12CBB24BA942914F1F0C701CC
:105A30000E943F338A1539F0803189F4B39448E0ED
:105A4000B41204C012C090E1A91209C0F201EB0D1A
:105A5000F11DB7FCFA9580818F5F808380E193947C
:105A6000EFEFEE1AFE0AA82EE0CF5201E12CF12C46
:105A70004601F3EE8F1AFDEF9F0A9701F501619140
:105A80005F01FFEFEF1AFF0A662339F04B85842F81
:105A900090E0281739070CF0EB86C4018E0D9F1D8E
:105AA0000E944D3388E0E816F10439F799859F5F2D
:105AB0009987E8E0CE0ED11C600E711E9CCFC70105
:105AC0000E943F338A15E9F18031B1F19394E00EE1
:105AD000F11EA82E3910F3CF5201E12CF12C430115
