:100000000C9416200C943E200C943E200C943E2020
:100010000C943E200C943E200C943E200C943E20E8
:100020000C943E200C943E200C943E200C943E20D8
:100030000C943E200C943E200C943E200C943E20C8
:100040000C943E200C943E200C943E200C943E20B8
:100050000C943E200C943E200C943E200C94D22F05
:100060000C943E200C943E200C943E200C943E2098
:100070000C943E200C943E200C943E200C943E2088
:100080000C943E200C943E200C943E200C943E2078
:100090000C943E200C943E200C943E200C943E2068
:1000A0000C943E200C943E200C943E20D5F08D14F0
:1000B000A1C881CFD9F1AF200003081F051F1F156C
:1000C0001B1F11111F110E1F15111F05011F111DDF
:1000D0001F041F001F0010101F1F041B1F10101FE4
:1000E000061F1F011F1F111F1F05071F311F1F059F
:1000F0001B17151D011F011F101F0F100F1F0C1FB5
:100100001B041B071C071915130C121E1F120C1EB3
:1001100012120C121F0C1A14041F052E2A1E1F0285
:100120001C001D00201D001F041A011F001E041EBC
:100130001E021E1E121E3E120C0C123E1E02061441
:10014000120A020F121E101E0E100E1E081E1A0496
:100150001A2E281E1A12161F111F00001F1D151718
:1001600011151F07041F17151D1F151D01011F1F46
:10017000151F17151F001700001000040404040EBB
:10018000040229060A0000101000C0403CC67A464E
:10019000C6C6C6DED25C40C00000FF8000FF9EBF26
:1001A000FFF9E1F9FFBF9EFF001010000080402022
:1001B000908884424549F22428F000A0409F55953C
:1001C0004AAA4AA555A553AA52AB501010000818C8
:1001D000FCFAFEFAFE7E7D434060F00000C0C08065
:1001E000A397CFCFCCCB9BAB85C2C1C0C0101000B2
:1001F000000080C0204080C0E0702E1913160C4013
:10020000803FAF37BB3CBC198A44A050A050A0101F
:1002100010000000D8DCFDFEFDEEEDFCF800000053
:10022000000000000F17367EDF5F3E1E0F0000004B
:1002300000101055001118ED54A95CA54495040D4B
:10024000F801AAA108983877090A890A890A85035A
:100250008100AA101000000000E0F8FC86020232C3
:10026000240810E000003030F0FF1F1F1F1D1A1C73
:100270000C0C06030010100000FCFEFF8F9FFFFF18
:100280009F8FFFFEFC000000007FFF7F3F7FFF7F0E
:100290003F7FFF7F3F00001010003C0E6100E03008
:1002A000E6E630E000610E3C0000003F7F82024243
:1002B00042424202827F3F0000101011EEAAAAAE15
:1002C000B1BDBDBDBDB1AEAAAAEE1193ACB83E465C
:1002D0007E86DEDE867E463EB8AC931010E0F47873
:1002E000C7BE68DCFEFEDC68BEC738F4E0011C0F48
:1002F000CB61F73F1F1F3FF761CB0F1C011010E0D0
:1003000010C824904000808000409024C810E0076E
:100310000813240902000101000209241308071030
:1003200010383C383838F8387838F878F878F08071
:1003300000000000000000010101030D1A352A35FC
:100340003F101000382828EF01EF2828B880E0205F
:10035000E08080E0B0F0D0FF70FFD0F073E2BEE04C
:100360007EE2C3101000FF01FD05F55555555554AB
:100370005450F00000000F003F00FFD5D5D5FD051B
:1003800075351700001010C02020107CC28109199B
:100390001A6936889090600031494945320A080848
:1003A000080505091209061010F0E83D9655D6AD6E
:1003B0007E7DAED556953EE8F0511BC63D6CD89279
:1003C000D090D0986C3DC61B51101000008040A00A
:1003D000A2D4F4E8F4726562C08000BC50AF5FBF85
:1003E0003FBF39B036B93DBD5EAFF010100008F424
:1003F000FA3D3AC2FDFE1E1DFA44BEC28000163907
:10040000717274FBDBDBDAED6E7733171F101000AF
:100410000000F20D52A5369428289060800000005C
:100420000078C51A00FD3B3BF900D3E03708000F08
:100430000F80C0C07E777EF8C0C0C08080E0F080B2
:100440000001013F773F0F01010100000307001089
:1004500010804050D08040F95C5DF94080D0504021
:1004600080000101216F21272C2C27216F21010100
:1004700000101000000018A464220A02010638408F
:10048000800000000000000F907F84600004FF10D7
:100490000F00001010008070086432B9D9CD4DCD26
:1004A0004DC9421CE0C0CF50A74E181DB7332627B8
:1004B0002607A651CE1010040A010A10208040E041
:1004C000E0C0000000000000000000000307073E3D
:1004D0007DF3F3BFDF6E3C0F0F0EE5F6F5E6CD9E24
:1004E0003D9ECDE6F5F6E50E3853375733593C5E61
:1004F0003C5933573753380F0FFCC299BDBD99C3D0
:10050000FFC399BDBD99C2FC1F214C5E5E4C617F4B
:10051000614C5E5E4C211F0F0FE0F81C02000E9F25
:10052000FF9F0E00021CF8E0030F1E3C3C7E7F7F05
:100530007F7E3C3C1E0F030F0F0000F008040706EF
:10054000F506070408F0C0000000070810705030DE
:10055000517210080701000F0FE018040202018118
:10056000FF810102020418E0030C18242241407F9D
:1005700040412224180C030F0F00000000003049F6
:100580008680314E408000007070707070707070A6
:10059000707171027401760F0F2000408218E080A4
:1005A000FD80E018824000100000003F7F5F55553D
:1005B000555F7F3F0000000F0F00000F1123C22383
:1005C0000123C223110F0000006058444A414841F2
:1005D00048414A445860000F0F0000002050DE439D
:1005E0004143DE502000000000406058464140403A
:1005F000404146586040000F0F25293325293F010F
:1006000001013F2925332925524A66524A7E40403E
:10061000407E4A52664A520F0F80A0A4E8F0FEF8CE
:10062000FFF8FEF0E8A4A0800002120B073F0F7F46
:100630000F3F070B1202000F0FFCFDFC01C1E1F19F
:10064000F1F1E1C101FCFDFC1F5F1F404143474741
:10065000474341401F5F1F0F0FE11A25F21592F526
:1006600022F51295F2251AE11F2040112121292C93
:100670002921211140201F0F0F3878F8F878B8D8B9
:10068000E8B0D87CB61B0F0718186C761F0D061B38
:100690003D7E7F7F0000000F0FE0F0F8FCFC04F8C7
:1006A0008404041404F8000007013F7F6747020731
:1006B0003F7F7F400F58700F0FFF1FDFDFEFF7FB0B
:1006C00001FFDF37ED1BF70F7F7C7D7D7B776F4070
:1006D0007F7D765B6C77780F0F55AA0178FCCE860C
:1006E00086CEFC7801AA55AA552A411A58197F7F4F
:1006F00019581A412A552A0F0F2A95CAD5CAD5CAA0
:10070000856071399D4F873F1E3F71606060713F0A
:100710001F00552A552A550F0F0000FE013D352DAB
:10072000352D353D01FE500000001F20226732703C
:10073000306221603F55000F0F003040202000073D
:100740007CF0DF7040000000000E3F0E004C4F4177
:1007500013234B404E10000F0F2103870E1E3D7DCB
:10076000FBFBF777AFEF07032200480022004800A9
:10077000210048002100480F0F307878405E57571D
:100780005757575E407878300000031F204151547E
:100790005141201F0300000F0F0F88E1F2FACA4AEF
:1007A0007A7A32228A09080720630F172F1E2C1C21
:1007B0002C1809222908610F0F02040644743E65B3
:1007C00077259E8486840200441A561A44185000E5
:1007D0005D1D59195D1D400F0F80A0A8A80026308F
:1007E00087302600A8A8A08000020A2A2A00465EB8
:1007F00046002A2A0A02000E0EE0A0A2A5A9AAB469
:10080000AAA9A9A5A2A0E0003F202A242A242A24DC
:100810002A24203F000E0E0000FC02F9F9F9F9F934
:10082000F902FC000000000F1023232B2B232310C0
:100830000F00000E0E0F31C10912A244A40890202F
:100840004080000000000102040812111208041385
:10085000200E0E00E110090805040504090811E046
:10086000012F0F2F00200020002000200F2F0F0E3F
:100870000E02F1F2F1F2F11211121112F1E2012065
:10088000112111211121112111211120100E0EF021
:1008900000F8FCFCFEFDFDFDFDFEFCFCF807081366
:1008A00017171717171717171707030E0EFCFEAFAA
:1008B000ABABABBBABAFEBABAFFEFC010307063E94
:1008C0001E0E070606060703010E0E70303030F7C5
:1008D000FFF7F0F0F080C0C0C03F3E3E3E3F230334
:1008E000233F3F000101010E0EFC3E2A3F2AAA2EA3
:1008F0002EBEBEBF3E3EFC1F202020292F282028D0
:100900002A2F20201F0E0EFF01017D555D55755DBC
:10091000557D0101FF0F10203F21213F3F3F3F3F09
:1009200020203F0E0E00000088542A5D5D5D2A5491
:10093000880000000E1120202020202020202011DF
:100940000E0E0E84C46232121E32E22221A15138F0
:100950001011223C24243C26230201000000000E3A
:100960000EE018040202010D8D81C6FEFCF8E001C4
:100970000608101E3F33333F1F1F0F07010E0EFFE7
:100980009B915B3F9FCFE7F3FB7B7B7B330C1E1E72
:100990001E1F0F2733393C3E3F3F3F0E0E18F81CF9
:1009A0000C4E260707264E0C1CF818000708103CB2
:1009B0003A3D3D3A3C100807000E0EE884F281E211
:1009C00084C890A884E284C8900000060F0F0F1F0F
:1009D0001F1F3F3D3C30000E0E4060F0F8FC7E3F94
:1009E0003F7EFCF8F0604000003F3F1F20202020A9
:1009F0001F3F3F00000E0E00000080601B01011B26
:100A000060800000000006091016262E2E26161003
:100A10000906000E0EF0082804E20A8A422428483B
:100A20008808F00F1010101F10111214141211105A
:100A30000F0E0EF0F1C2C4C8D0C0C0D0C8C4C2F1FD
:100A4000F003231008040200000204081023030E20
:100A50000EE0180422F20105E51112E20418E0018B
:100A6000060812132228292212110806010E0EF977
:100A7000F2E409E337171737E309E4F2F92713091A
:100A800024313B3A3A3B31240913270E0E99BDBD60
:100A900099C399BDBD99C399BDBD990C1E1E0C216A
:100AA0000C1E1E0C210C1E1E0C0E0E00EE8000E013
:100AB000988F8F98E00080EE000327150007072A23
:100AC0002A0707001527030E0E708874DAAA4A94C5
:100AD000140A0A8A74887000000102050B16150AB0
:100AE00005020100000D0DFF01F96DE5BDE56DF991
:100AF00001FFAA54070C150C150C150C150C170A40
:100B0000150D0D0E1195514E2098C484080000005B
:100B1000000001020000000103070E1C180D0DE784
:100B2000B0D4E201E010C82828C810E0070F1D1853
:100B3000181B1C1918191C1A110D0D0E03230981FD
:100B4000C8E0703E9E181A000803030F0F01001042
:100B50001410180E070D0D0FFFFFFFFB8BC0C0C058
:100B6000C080000012131B13131313131B1313085D
:100B7000040D0DAAFA04F299FD0DFD19F204FAAA6A
:100B80000A1F001F121F101F101F001F0A0D0D78D3
:100B9000401EBF2DA92FA92DBF1E407807010C07AD
:100BA000101F001F10070C01070D0DFF00808000B3
:100BB000F8F800FFFF00E0E01F10171710171710DC
:100BC00017171017170D0DFFBB1B5B1BBBBBB1B578
:100BD000B1BBBBFF1F1B1B1B1B1B1B1115111B1BC1
:100BE0001F0D0D108888840402610C8142444890D6
:100BF0000F0606060F001B0007030303070D0DFC7D
:100C000002B1B505B5B102FC0000B0B01F000D0D7A
:100C1000000D0D001F020117170D0D008040208EE2
:100C20001FFF1F8E204080000102040913161516B5
:100C300013090402010D0DC00060797A6C7C6C7A96
:100C4000796000C01F001F001F001F001F001F0051
:100C50001F0D0DFC1E0F4F6F6F074767670F0EFCD0
:100C6000070810101214141515141008070D0DAFF5
:100C70000181412091482590492501AF1E10141291
:100C800001140211001010101E0D0DFFAAFF425298
:100C90004A52424242FFAAFF1F0A1F08080A090AD5
:100CA00008081F0A1F0D0DE0A0100EE1F5F5F5E193
:100CB0000E10A0E00000010E10151515100E010019
:100CC000000D0D304A48B6797979B6484A3080002F
:100CD000000100010202020518060F0F070D0D1C8E
:100CE0003C78F142ECECEC42F1783C1C1C1E0F0706
:100CF000020F1F0F02070B161C0D0D0010103030D5
:100D000037FD3730301010000306060C0C181F1882
:100D10000C0C0606030D0D0301B0B81C0C000C1CD6
:100D2000B8B00103181001030706000607030110FD
:100D3000180D0D000F11E302D341D302E3110F0090
:100D400008080807101F181F10070808080D0D00D5
:100D5000F0087C02297D69B90142BC000102041A35
:100D6000001F07071F0003180F0D0D3A79FCC1F093
:100D70004D504DF0C1FC793A1207070F03050505E8
:100D8000030F0707120D0D09BDA1D975E5FDE5F5A6
:100D9000D9A1BD091217101315161517171310171F
:100DA000120C0C1E67860810204080000000000016
:100DB00000010202040408090E0E040C0C124A2958
:100DC000A595555595A5294A1200000104020A0A65
:100DD00002040100000C0CF8663169E9B1A1E1617F
:100DE0002166F8030F0A0F030202030F0A0F030C18
:100DF0000C0609D12204080404629209070C0B08AE
:100E000004020101020C0403010C0C0804C2E1B24B
:100E100014080281228408000400010307060E0C56
:100E20000C08080C0C3FCFC7333939C6C6CC383054
:100E3000C000000103060609090C0E0F0F0C0CFF81
:100E40000155015501FF00545204F80F000500053B
:100E5000000F000505000F0C0C000000A0530F0F41
:100E600053A0000000000003060E0E0E0E06030045
:100E7000000C0C22A4889B1B4824A2A0A020A00543
:100E800004020409090504020405040C0C04DE50E4
:100E9000FCFAFEFEFAFC50DE040103000001010131
:100EA00001000003010C0CFB036461218D1D4161F5
:100EB0006403FB0D0C0208080B0B0808020C0D0C58
:100EC0000C03027F6B556BD5EB556B557F0000060D
:100ED0000F0F060000060F0F060C0CE0F8FFE6E40B
:100EE0003C3CE4E6FFF8E001000B070B01010B07B7
:100EF0000B00010C0C541494D4C0FF0545555054FC
:100F0000540504010303010405050505050C0CAA9D
:100F100010C3F43EFAFFFA3EF4C3080A00070700C4
:100F2000030703000707000C0CF80432393D3DC1EC
:100F3000C1C1C204F80102040808080B0B0904022D
:100F4000010C0C008044DFFFDF4440401CFC1C010E
:100F500000000F0B030E0800000F000C0CFF0155E2
:100F600055555501FF040408F00D0D010D0D010745
:100F7000010D0D01070C0C0C006D6D000C0C804C6C
:100F80004C202C00000B0B000C0300000000000C98
:100F90000CAA003C7E66FFFF66EECC00550A0003FB
:100FA00007060F0F06070300050C0C01FE06FA9A50
:100FB0006A6A9AFA06FE0108070605050505050591
:100FC0000607080C0CB8BCBE80FF80B8BE80FF804E
:100FD000800304080A080A080A080402010C0C60CD
:100FE000F0F06006EFEF0660F0F0600000080C0E15
:100FF0000F0F0E0C0800000C0C009F90FC9A9C9A9E
:10100000FC909F00AA0007070103070301070700E0
:101010000A0C0C01CC9E3E7EFCF8F2E6CE9C010848
:1010200003070706040103070703080B0B30C02E54
:1010300011151115112EC030000506040600060416
:101040000605000B0B0007FFFFFFFF777777070709
:1010500000070707070707000000000B0BC0E0F0C0
:10106000F0F0E4C209241209010307070703010095
:101070000000000B0B1C22414141221C000808F813
:1010800000000007040404040404070B0BF8FFFE2F
:10109000CCC878C8CCFEFFF8010307050505050597
:1010A0000703010B0B2030F83C3EFF3E3CF830209C
:1010B00000000704040707070700000B0B00F40AF1
:1010C00011151511110AF4000001020404040404AE
:1010D0000201000B0B0810102126F8202070507020
:1010E00000000000070507000000000B0BFF01A136
:1010F0000FA90AFC00555555070404040404070011
:101100000505050B0B777707777077770777777784
:1011100007070707000707070707070B0B0007CF9D
:10112000E83EFEC80F0700000400050100030300AD
:101130000400040B0BBF81A1A1212FE009090BF8CA
:1011400007040407000203000101010B0BD5400056
:10115000FF818181818181FF07040404060004006E
:101160000400040B0B003D60FD80FD80FD603D0030
:1011700000000004050705040000000B0B1C3E7C6A
:1011800070FEFFFE80FCFEFC000000000707070366
:101190000301000B0B008040281C987CFE5F0F07AA
:1011A00007040402010000000000000B0B1F214196
:1011B000913972E44810A0400000000001020402CE
:1011C0000100000B0BF804525204F804525204F8C8
:1011D00007020101020702010102070B0B7CFEFF5F
:1011E000C3C37FC3C3FFFE7C0000070701070107DD
:1011F0000700000B0B00EEFAEE20FE04F8002020A2
:1012000000070107000301000000000B0B60786479
:10121000E2627E6000FF0000020702000207020097
:101220000302020B0BFF01DD5D5DDDDDDDDD01FF96
:1012300007040704040707070704070B0BF0F89CD3
:101240000E0300FF01FD01FF010303060604010276
:101250000402010B0B40605048FE01FE4850604004
:1012600000000406050405060400000B0BE010FA5C
:101270006C7878786CFA10E0000000010100010140
:101280000000000A0A007CFDFEFDFE7C0038000222
:101290000202020202020200000A0A0080C0803834
:1012A0007DEEBCEE79020301030302030100000A94
:1012B0000A080C14FEF4E0C000E010000002030372
:1012C00003030200000A0A1C3870F8FEFBF9F9FB60
:1012D000FE000000010303030303010A0A2040800B
:1012E000FCC0FFE0FFC0FC00000001030303030398
:1012F000010A0A484472C1F24448427F4200000099
:10130000010303020000000A0A00FC0209BD8981F2
:1013100002FC00000302020202020203000A0A7831
:10132000843231FDFD313284780000010202020274
:101330000100000A0A00FF555D55F735BDB5BF0035
:101340000303030303000301000A0A060F0F3640DC
:10135000AA92AA4438000000000000030000000A1E
:101360000A00000E1FF9F99F8E0000000000000324
:1013700003020200000A0AF1FACCCC7C7CCCCCFA45
:10138000F1030103010303010301030A0A78465133
:10139000C6613E080808F8000203030101010203C8
:1013A000030A0A1018FC1EFF9F9EFC181000000381
:1013B000020303030300000A0AC1673962C4386CE0
:1013C000446C38010302030100000000000A0A0017
:1013D00000FFA9F9A9F9A9FF000000030203020315
:1013E0000203000A0AE070B07EF2F272B67CF000EE
:1013F0000103010000010301000A0A01FF45FC820C
:1014000049458902FC000300000000000001010AB8
:101410000A406070FC3F3FFC706040000002000327
:1014200003000200000A0A78FCFE8F05050D1B96DA
:101430001C000001030302020100000A0AFCB6338B
:1014400031FFFF3133B6FC00010302030302030145
:10145000000A0A0E1F5F9F0EC0242821C20102004D
:10146000000001020202010A0AF03CEE3BBFBF3B52
:10147000EE3CF0000000020303020000000A0A90A4
:10148000DEDE9E3E9ED4D4942401030301000103BA
:101490000301000A0A0C1E3F3F9E0C4090204000B2
:1014A0000000000001020001020909000F10A7CF8F
:1014B000A7100F000000010101010100000909044B
:1014C0008E5F0E44E0F4E2410100000000000100E4
:1014D0000009090C5ED3803F009FDE5C0000000124
:1014E00001010100000909004CDEDFDFF7F66400AE
:1014F0000000000101010000000909806018E6F306
:10150000E6186080010100000100000101090900E6
:10151000DFB6A4B6DF6060F8010100000001010041
:1015200001090982FD82BABABA827F8200010000F5
:101530000000000100090907091EBFFFBF1E0907BF
:101540000000010101010100000909C02070F86CD0
:101550003E1B0E04010101000000000000090938D3
:10156000FE13D31FD313FE38000101010101010155
:10157000000909CCEEA6F7B7F7A6EECC01010001F1
:10158000000100010109097CDA93333B3393DA7CD3
:1015900000000101010101000009097CF6F3F1FFDF
:1015A0001F9FDE7C000001010101010000090910FC
:1015B000D6D600C700D6D6100000000001000000FB
:1015C000000909008040201C1C1E070301000000C8
:1015D000000000000009090E1B15377AF0E0C0007A
:1015E00000000000000001010109097C9E33333F27
:1015F00033339E7C00000101010101000009090054
:10160000605876FD6E786000010101010101010161
:1016100001090910FE9282D78292FE10000000009C
:1016200001000000000909C62929C610C62929C6DB
:101630000001010000000101000909C22E2ACE1894
:10164000C82A2CC800010100000001010009093C62
:10165000C2094D414D09C23C0000010101010100D8
:101660000009091E3F7FFFFEDF6F3B1E00000000E8
:10167000010000000009097EF1F171DF71F1F17ED6
:1016800000010100010001010009094E5959899F1B
:101690008959594E01010100000001010108083C6F
:1016A0003CDBFFFFDB3C3C0808DFDFD8FFFF1BFB18
:1016B000FB0808FF7E3C18FC5C7C1C0808060F2F0A
:1016C000A6904C201808081E3360C2878ADC4808A0
:1016D000083C7EF3E1C0C460310808003872E1E1E3
:1016E0007238000808001E3BF3F33B1E000808E0B8
:1016F000C0983C3C19030708083C02B9BDBD9D4099
:101700003C08083C24E78181E7243C08081E3F7F11
:10171000FEDE6F331E0808060979BEBE7909060889
:1017200008DB5A1824242424180808619689A8A8DC
:101730008996610808C3990042420099C30808814C
:101740005A3C66663C5A810808C0982442422419D3
:1017500003080810189CFFFF9C181008081008E4E4
:101760003F3FE4081008083C638AA0A08A631C0875
:101770000803070E1C1820C0C0080800708DB1B106
:101780008D7000080860C0D8DCDCD8C0600808385C
:101790007CFCFD7BBC7C3807073D78607A707D3827
:1017A0000707081C2263221C080707080C7E7F7E9F
:1017B0000C0807071E79396F39791E07070E1F3F7E
:1017C0007E3F1F0E07071F1D77535F447C07071CD2
:1017D0003E5F5F6F321C07070715270872547007BA
:1017E00007775D7722775D770707705C7603765C15
:1017F000700707080C0E3F4E2C08070718045F1DE2
:101800005F041807070822004D10220807077F69A8
:10181000596959697F0707397F39383F613F0707A1
:101820006B41085D08416B07071C14774177141C56
:101830000707775D7505755D77070773517C141F82
:101840004567070704487A1F7A480407071E785C33
:101850001C7F4F060707003600630036000707634A
:1018600063000800636307071C22554955221C07C3
:10187000071C22555155221C060610381C0D010765
:1018800006060C123F213F0C0606041E27271E04E5
:1018900006062C3E0F0F3E2C0606071D270A1224B3
:1018A00006060F09392F243C06063F002D2D003F68
:1018B00006060002253D020006060F3C0C3F0F06FF
:1018C0000606011E3A3A1E0106062B0B3807343570
:1018D00006061B0F063B19080606123300003312DA
:1018E00006063333000033330606180C2633190C72
:1018F000060602263F3F2602060603243838240344
:10190000060621120C0C122106060C002D2D000CCF
:101910000606211E12121E2106063C220909223C3F
:1019200006063F090F0F0F0F06063F0F0D0F31116F
:1019300006060C122121120C06060C1E3F3F1E0C3F
:1019400005051B1B041B1B05050E1B1F1D0E050596
:1019500003061F060305051C1516151C05050C18A6
:101960001E1E04050500121D12000505021E020EB2
:101970001205051E1E1E0A0E0505081A1F1A080567
:1019800005150E1B0E15050512191E191205050069
:101990001F0D1F00050504061F16040505011E0B7B
:1019A0001E010505100E1B0E1005050E1F1B110054
:1019B00005051E0C0F1E0605051E181D1E1C05051F
:1019C000041E171E040505160D0F0D160505061D30
:1019D0001F1D0605051E071F071E05051C0E070E09
:1019E0001C0505070F1E0F0705051F1111111F0507
:1019F000051F1F0F07030505000E060200631800F0
:101A0000FC020202020202028282828202020202BC
:101A100002020202020202020202020202020202A6
:101A20000202020202020202020202020202828296
:101A30008282820202020202020202020202020206
:101A40000202020202020202020202020202020276
:101A50000282828282828202020202020202020266
:101A6000FC0000FF0000000000000080FFFF8080FD
:101A7000E0007CFE92929E5C0064F69292FE7C8076
:101A80003E7EC0C07E3E007CFE92929E5C000000C6
:101A90007FFF808088F9790064F69292FE7C800254
:101AA000FEFE02FEFC02FEFC007CFE92929E5C00AA
:101AB000000000030300B8B8080F07000000000092
:101AC000000000FF00003F40404040404040404098
:101AD0004040404040404040404040404040404006
:101AE00040404040404040404040404040404040F6
:101AF00040404040404040404040404040404040E6
:101B000040404040404040404040404040404040D5
:101B100040404040404040404040404040404040C5
:101B20004040404040403F00FEFFFFFFFFFFFFFFFF
:101B3000FFFFFFFFFFFFFFFFFFFFFFFFFFFFFFFFB5
:101B4000FFFFFFFFFFFFFFFFFFFFFFFFFFFFFFFFA5
:101B5000FFFFFFFFFFFFFFFFFFFFFFFFFFFFFFFF95
:101B6000FFFFFFFFFFFFFFFFFFFFFFFFFFFFFFFF85
:101B7000FFFFFFFFFFFFFFFFFFFFFFFFFFFFFFFF75
:101B8000FFFFFFFFFFFFFFFFFFFFFEFFFFFFFFFF66
:101B9000FFFFFFFFFFFFFFFFFFFFFFFFFFFFFFFF55
:101BA000FFFFFFFFFFFFFFFFFFFFFFFFFFFFFFFF45
:101BB000FFFFFFFFFFFFFFFFFFFFFFFFFFFFFFFF35
:101BC000FFFFFFFFFFFFFFFFFFFFFFFFFFFFFFFF25
:101BD000FFFFFFFFFFFFFFFFFFFFFFFFFFFFFFFF15
:101BE000FFFFFFFFFFFFFFFFFFFFFFFFFFFF7FFF85
:101BF000FFFFFFFFFFFFFFFFFFFFFFFFFFFFFFFFF5
:101C0000FFFFFFFFFFFFFFFFFFFFFFFFFFFFFFFFE4
:101C1000FFFFFFFFFFFFFFFFFFFFFFFFFFFFFFFFD4
:101C2000FFFFFFFFFFFFFFFFFFFFFFFFFFFFFFFFC4
:101C3000FFFFFFFFFFFFFFFFFFFFFFFFFFFFFFFFB4
:101C4000FFFFFFFFFFFFFFFFFFFFFFFFFFFFFFFFA4
:101C50007F631800FC020202828202020282820278
:101C600002020202020282828282020202828282D4
:101C700082020202020202828282820202020202C4
:101C80000202020202020202020202020202020234
:101C90000202020202828202020202828202020224
:101CA00002F20A0A0A0A0A0A0A0A0A0A0A0A0A0AB4
:101CB0000A0AF202FC0000FF0000001FFFE01CE027
:101CC000FF1F007CFE92929E1C8080FFFF808000A0
:101CD0008080FFFF808000000000FFFF80C17F3E0A
:101CE000007CFE8282FE7C00FEFE0202FEFC007C86
:101CF000FE92929E1C000007DFDF07000007DFDF77
:101D000007000000FF0000000000000000000000CD
:101D10000000000000FF00FF00003F404040404046
:101D200040404040404040404040404040404040B3
:101D300040404040404040404040404040404040A3
:101D40004040404040404040404040404040404093
:101D50004040404040404040404040404040404083
:101D6000404040404040404F5050505050505050E4
:101D700050505050505050504F403F00E819E1191A
:101D8000DA19D319CC19C519BE19B719B019A9197F
:101D9000A2199B1994198D1986197F19781971192F
:101DA0006A1963195C1955194E19471940193819E0
:101DB0003019281920191819101908190019F818BC
:101DC000F018E818E018D818D018C818C018B818B3
:101DD000B018A818A01898189018881880187818A3
:101DE0006F1866185D1854184B18421839183018B7
:101DF00027181E1815180C180318FA17F117E817EA
:101E0000DF17D617CD17C417BB17B217A917A0171E
:101E100097178D17831779176F1765175B1751176A
:101E200047173D17331729171F1715170B170117DA
:101E3000F716ED16E316D916CF16C516BB16B11652
:101E4000A7169D168916751661164D163916251694
:101E50001116FD15E915D515C115AD159915851581
:101E600071155D154915351521150D15F914E51474
:101E7000D114BD14A91493147D14671451143B1488
:101E800025140F14F913E313CD13B713A1138B13F8
:101E900075135F13491333131D130713F112DB126C
:101EA000C512AF12991283126B1253123B122312F6
:101EB0000B12F311DB11C311AB1193117B116311E1
:101EC0004B1133111B110311EB10D310BB10A310D6
:101ED0008B1073105B1043102B101110F70FDD0FD8
:101EE000C30FA90F8F0F750F5B0F410F270F0D0F3A
:101EF000F30ED90EBF0EA50E8B0E710E570E3D0EB2
:101F0000230E090EEF0DD50DBB0DA10D850D690D2D
:101F10004D0D310D150DF90CDD0CC10CA50C890C06
:101F20006D0C510C350C190CFD0BE10BC50BA90BFD
:101F30008D0B710B550B390B1D0B010BE50AC70AF5
:101F4000A90A8B0A6D0A4F0A310A130AF509D70943
:101F5000B9099B097D095F09410923090509E708BA
:101F6000C908AB088D086F08510833081508F70732
:101F7000D707B70797077707570737071707F706F2
:101F8000D706B70697067706570637061706F705EA
:101F9000D705B70597057705570537051705F704E2
:101FA000D704B504930471044F042F040D04EB030C
:101FB000C903A7038503630341031F03FD02DB027B
:101FC000B90297027502530231020F02ED01CB01F3
:101FD000A901870105050A150A150A070301030768
:101FE000030502010703040607060502040810C0E2
:101FF000E030303030E0C00000006C6E07030116A6
:1020000016FF0101010101010101010101010101AD
:1020100001010101FFAA54FF0000000000000000C0
:1020200000000000000000000000FFAA550F182863
:1020300018281828182818281828182818281828A0
:102040001F2A158010808080808080808080808022
:102050000080008040A0A0A0A0A0A0A0A0A0A0A060
:10206000A0A0A0A0A0A0A0A0A0A0A0A0A0A0A0A070
:10207000A0A0A0A0A0A0A0A0A0A0A0A0A0A0A0A060
:10208000A0A0A0A0A0A0A0A0A0A0A0A0A0A0A0A050
:10209000A0A0A0A0A0A0A0A0A0A0A0A0A0A0A0A040
:1020A000A0A0A0A0A0A0A0A0A0A0A0A0A0A0A0A030
:1020B000A0A0A0A0A0A040800080008080808080A0
:1020C0008080808080FFFFFFFFFFFFFFFFFF7FAA70
:1020D0005500FF00FFFFB9B0B286C6FF8080B6B6DC
:1020E000BEBEFF8080BFBFBFBFFF8080B6B6BEBE92
:1020F000FFC180BEBEBEDDFFFEFE8080FEFEE7E7C4
:10210000FFFF9FE3ECE0838FFFFFE7E7FFFF8080A7
:10211000F6F0F9FFC080BFBFBFC0FF9E86A2B0BC73
:10212000FF9E86A2B0BCFF8080BFBFBFBFFF808084
:10213000B6B6BEBEFFFFFF00FF0055AA7FFFFFFF40
:10214000FFFFFFFFFF8010FFFFFFFFFFFFFF00FF0C
:1021500000003E0A0E003C203C0034242C003424B5
:102160002C00023E0000183428002824140000002F
:10217000000000000000000000000000000000005F
:10218000000000000000000000000000000000004F
:1021900000000000000000000000FF000000000040
:1021A000000000000000000000000000000000002F
:1021B0000022100804220000000000000000FF00C0
:1021C000FFFFFFFFFFFFFF2F2F2F2F2F2F2F2F2E70
:1021D0002D2D2D2D2D2D2D2D2D2D2D2D2D2D2D2D2F
:1021E0002D2D2D2D2D2D2D2D2D2D2D2D2D2D2D2D1F
:1021F0002D2D2D2D2D2D2D2D2D2D2D2D2D2D2D2D0F
:102200002D2D2D2D2D2D2D2D2D2D2D2D2D2D2D2DFE
:102210002D2D2D2D2D2D2D2D2D2D2C2D2D2D2D2DEF
:102220002D2D2D2D2D2D2D2D2D2D2D2D2D2D2D2DDE
:102230002D2D2D2D2D2D2D2D2D2D2D2D2D2D2E2FCB
:102240002F2F2F2F2F2F2F21080F0F0808000609DF
:102250000B06000E03030E000F090F06000F0F0000
:102260000F02030F000E0F090D000E10BEBDBEBD04
:10227000BEBDBEBDBEBDBEBDBE00000400040004A8
:1022800000040004000400004E080F0D0702000FB8
:10229000050F0A000F0D0900020B0D00020B0D00C7
:1022A000000000000F0D0702000F0F0808000E03CA
:1022B000030E00030E0E0300000006090B06000FBC
:1022C00002030F00000000010F0F010E03030E00B8
:1022D0000F0D0702000F0D090E10A7C7A7C7A7C74C
:1022E000A7C7A7C7A7C7A7000707070707070707C5
:1022F00007070707070024080E1F1F1F0E00000016
:1023000000000000000000001F0E0400000000009C
:1023100000000000040E1F00040E1F0062100101E7
:1023200001010100010001000000010100010100A4
:10233000010101000101000100000101000189000B
:1023400029010001FF01010901A90181010901FF22
:1023500001010101A90181090101FF010181018937
:102360000129018901FF01010901A9018101090177
:10237000FF01010101A90181090101FF010101A979
:102380000008080808000800080000000808000805
:1023900008000808080008080008000008080008ED
:1023A0000A000A080008FF08080A080A080A080ABA
:1023B00008FF0808080808080A080A08FF08080AA9
:1023C000080A080A080A08FF08080A080A080A088A
:1023D0000A08FF0808080808080A080A08FF080A87
:1023E0000808610EFFFFFFFFE7C3C3E7FFFF3C3CA8
:1023F0000000CEDFDFDFDFCE000000FCFCFFFF03CC
:102400000303030F0F0C0C0000F8F8F8F83030301D
:1024100030F0F0C0C00000C0C0F0F030303030F01C
:10242000F0C0C00000C0C0F0F0303030303030308C
:10243000300000C0C0F0F03030303030303030008C
:1024400000000000003F3F3F3F0000000000000090
:10245000000000303F3F3F3F3F3000000F0F3F3F45
:10246000303030303C3C0C0C00003F3F3F3F000020
:1024700000000000000000000F0F3F3F3030303000
:102480003F3F0F0F000030303333333333333F3FA0
:102490000C0C000030303333333333333F3F0C0CFC
:1024A000000000381808611010105010FF10501074
:1024B00050101010101010FF1050105010501050ED
:1024C0001010FF10501050105010501010FF1050EE
:1024D0001050101010101010FF105010501050100D
:1024E000501010FF1000105000501000101000008D
:1024F000100010100010101000101000101000003C
:1025000000100010001010101095808080FF808057
:102510009081809580808080FF80908081809580F0
:10252000908080FF80918094809180818080FF8066
:10253000809081809580808080FF809080818095D0
:1025400080908080FF8000809400918000808000D7
:10255000008000808000808080008080008080007B
:1025600000008000800080808080101000C0403C0F
:10257000C67A46C6C6C6DED25C40C00000FF8000F8
:10258000FF9EBFFFF9E1F9FFBF9EFF0010100000A2
:10259000804020908884424549F22428F000A040E1
:1025A0009F55954AAA4AA555A553AA52AB5010105B
:1025B000000818FCFAFEFAFE7E7D434060F0000041
:1025C000C0C080A397CFCFCCCB9BAB85C2C1C0C0CE
:1025D000101000000080C0204080C0E0702E191351
:1025E000160C40803FAF37BB3CBC198A44A050A0BA
:1025F00050A01010000000D8DCFDFEFDEEEDFCF850
:10260000000000000000000F17367EDF5F3E1E0F47
:1026100000000000101055001118ED54A95CA544ED
:1026200095040DF801AAA108983877090A890A8942
:102630000A85038100AA101000000000E0F8FC8663
:10264000020232240810E000003030F0FF1F1F1F8C
:102650001D1A1C0C0C06030010100000FCFEFF8F5E
:102660009FFFFF9F8FFFFEFC000000007FFF7F3F6A
:102670007FFF7F3F7FFF7F3F00001010003C0E6117
:1026800000E030E6E630E000610E3C0000003F7FF5
:1026900082024242424202827F3F0000101011EE4D
:1026A000AAAAAEB1BDBDBDBDB1AEAAAAEE1193AC92
:1026B000B83E467E86DEDE867E463EB8AC9310107F
:1026C000E0F478C7BE68DCFEFEDC68BEC738F4E024
:1026D000011C0FCB61F73F1F1F3FF761CB0F1C01A0
:1026E0001010E010C824904000808000409024C862
:1026F00010E0070813240902000101000209241355
:1027000008071010383C383838F8387838F878F836
:1027100078F08000000000000000010101030D1AA4
:10272000352A353F101000382828EF01EF2828B847
:1027300080E020E08080E0B0F0D0FF70FFD0F07348
:10274000E2BEE07EE2C3101000FF01FD05F5555525
:102750005555545450F00000000F003F00FFD5D5F0
:10276000D5FD0575351700001010C02020107CC263
:102770008109191A693688909060003149494532BB
:102780000A0808080505091209061010F0E83D9628
:1027900055D6AD7E7DAED556953EE8F0511BC63D73
:1027A0006CD892D090D0986C3DC61B511010000090
:1027B0008040A0A2D4F4E8F4726562C08000BC50EE
:1027C000AF5FBF3FBF39B036B93DBD5EAFF010104F
:1027D0000008F4FA3D3AC2FDFE1E1DFA44BEC28056
:1027E000001639717274FBDBDBDAED6E7733171F7D
:1027F0001010000000F20D52A53694282890608039
:102800000000000078C51A00FD3B3BF900D3E0371B
:1028100008000F0F80C0C07E777EF8C0C0C08080E7
:10282000E0F0800001013F773F0F0101010000034C
:1028300007001010804050D08040F95C5DF9408066
:10284000D0504080000101216F21272C2C27216FBF
:1028500021010100101000000018A464220A0201E6
:10286000063840800000000000000F907F84600068
:1028700004FF100F00001010008070086432B9D9F6
:10288000CD4DCD4DC9421CE0C0CF50A74E181DB74D
:102890003326272607A651CE1010040A010A10205D
:1028A0008040E0E0C00000000000000000000003E5
:1028B00007073E7DF3F3BFDF6E3C0F0F0EE5F6F525
:1028C000E6CD9E3D9ECDE6F5F6E50E3853375733FF
:1028D000593C5E3C5933573753380F0FFCC299BDF2
:1028E000BD99C3FFC399BDBD99C2FC1F214C5E5E5B
:1028F0004C617F614C5E5E4C211F0F0FE0F81C02A3
:10290000000E9FFF9F0E00021CF8E0030F1E3C3CD0
:102910007E7F7F7F7E3C3C1E0F030F0F0000F00880
:10292000040706F506070408F0C0000000070810B9
:10293000705030517210080701000F0FE0180402A8
:10294000020181FF810102020418E0030C18242215
:1029500041407F40412224180C030F0F000000006B
:102960000030498680314E40800000707070707079
:10297000707070707171027401760F0F20004082C8
:1029800018E080FD80E018824000100000003F7FCA
:102990005F5555555F7F3F0000000F0F00000F117E
:1029A00023C2230123C223110F0000006058444AB0
:1029B00041484148414A445860000F0F0000002040
:1029C00050DE434143DE5020000000004060584686
:1029D000414040404146586040000F0F25293325B3
:1029E000293F0101013F2925332925524A66524AD0
:1029F0007E4040407E4A52664A520F0F80A0A4E8B3
:102A0000F0FEF8FFF8FEF0E8A4A0800002120B0729
:102A10003F0F7F0F3F070B1202000F0FFCFDFC0161
:102A2000C1E1F1F1F1E1C101FCFDFC1F5F1F40417B
:102A3000434747474341401F5F1F0F0FE11A25F2ED
:102A40001592F522F51295F2251AE11F2040112169
:102A500021292C2921211140201F0F0F3878F8F847
:102A600078B8D8E8B0D87CB61B0F0718186C761F5A
:102A70000D061B3D7E7F7F0000000F0FE0F0F8FC8D
:102A8000FC04F88404041404F8000007013F7F6785
:102A90004702073F7F7F400F58700F0FFF1FDFDF98
:102AA000EFF7FB01FFDF37ED1BF70F7F7C7D7D7BB1
:102AB000776F407F7D765B6C77780F0F55AA017832
:102AC000FCCE8686CEFC7801AA55AA552A411A5812
:102AD000197F7F19581A412A552A0F0F2A95CAD5EE
:102AE000CAD5CA856071399D4F873F1E3F716060AE
:102AF00060713F1F00552A552A550F0F0000FE0137
:102B00003D352D352D353D01FE500000001F2022A2
:102B1000673270306221603F55000F0F0030402057
:102B20002000077CF0DF7040000000000E3F0E0028
:102B30004C4F4113234B404E10000F0F2103870EC3
:102B40001E3D7DFBFBF777AFEF0703220048002215
:102B5000004800210048002100480F0F30787840DD
:102B60005E57575757575E407878300000031F2054
:102B70004151545141201F0300000F0F0F88E1F213
:102B8000FACA4A7A7A32228A09080720630F172F75
:102B90001E2C1C2C1809222908610F0F0204064460
:102BA000743E6577259E8486840200441A561A4432
:102BB0001850005D1D59195D1D400F0F80A0A8A879
:102BC00000263087302600A8A8A08000020A2A2A02
:102BD00000465E46002A2A0A02000E0EE0A0A2A5C8
:102BE000A9AAB4AAA9A9A5A2A0E0003F202A242A44
:102BF000242A242A24203F000E0E0000FC02F9F9AA
:102C0000F9F9F9F902FC000000000F1023232B2B27
:102C10002323100F00000E0E0F31C10912A244A48D
:102C200008902040800000000001020408121112E8
:102C3000080413200E0E00E110090805040504091C
:102C40000811E0012F0F2F00200020002000200F8E
:102C50002F0F0E0E02F1F2F1F2F11211121112F118
:102C6000E201201121112111211121112111201026
:102C70000E0EF000F8FCFCFEFDFDFDFDFEFCFCF878
:102C800007081317171717171717171707030E0E2D
:102C9000FCFEAFABABABBBABAFEBABAFFEFC010332
:102CA00007063E1E0E070606060703010E0E7030CD
:102CB0003030F7FFF7F0F0F080C0C0C03F3E3E3E3E
:102CC0003F2303233F3F000101010E0EFC3E2A3F3C
:102CD0002AAA2E2EBEBEBF3E3EFC1F202020292F3A
:102CE0002820282A2F20201F0E0EFF01017D555D70
:102CF00055755D557D0101FF0F10203F21213F3F9C
:102D00003F3F3F20203F0E0E00000088542A5D5DAB
:102D10005D2A54880000000E112020202020202051
:102D20002020110E0E0E84C46232121E32E22221C5
:102D3000A151381011223C24243C2623020100001A
:102D400000000E0EE018040202010D8D81C6FEFC8B
:102D5000F8E0010608101E3F33333F1F1F0F070125
:102D60000E0EFF9B915B3F9FCFE7F3FB7B7B7B339B
:102D70000C1E1E1E1F0F2733393C3E3F3F3F0E0ED9
:102D800018F81C0C4E260707264E0C1CF8180007D6
:102D900008103C3A3D3D3A3C100807000E0EE8840E
:102DA000F281E284C890A884E284C8900000060FF3
:102DB0000F0F1F1F1F3F3D3C30000E0E4060F0F80C
:102DC000FC7E3F3F7EFCF8F0604000003F3F1F204C
:102DD0002020201F3F3F00000E0E00000080601BDF
:102DE00001011B60800000000006091016262E2E2F
:102DF0002616100906000E0EF0082804E20A8A4280
:102E00002428488808F00F1010101F1011121414F5
:102E10001211100F0E0EF0F1C2C4C8D0C0C0D0C83D
:102E2000C4C2F1F0032310080402000002040810D9
:102E300023030E0EE0180422F20105E51112E2044C
:102E400018E001060812132228292212110806018F
:102E50000E0EF9F2E409E337171737E309E4F2F944
:102E600027130924313B3A3A3B31240913270E0E2C
:102E700099BDBD99C399BDBD99C399BDBD990C1E9E
:102E80001E0C210C1E1E0C210C1E1E0C0E0E00EE24
:102E90008000E0988F8F98E00080EE0003271500F7
:102EA00007072A2A0707001527030E0E708874DA11
:102EB000AA4A94140A0A8A74887000000102050B59
:102EC00016150A05020100000D0DFF01F96DE5BDA3
:102ED000E56DF901FFAA54070C150C150C150C151E
:102EE0000C170A150D0D0E1195514E2098C484082B
:102EF000000000000001020000000103070E1C1882
:102F00000D0DE7B0D4E201E010C82828C810E00792
:102F10000F1D18181B1C1918191C1A110D0D0E0362
:102F2000230981C8E0703E9E181A000803030F0FA2
:102F30000100101410180E070D0D0FFFFFFFFB8B83
:102F4000C0C0C0C080000012131B13131313131B47
:102F5000131308040D0DAAFA04F299FD0DFD19F2E0
:102F600004FAAA0A1F001F121F101F101F001F0AB9
:102F70000D0D78401EBF2DA92FA92DBF1E4078072B
:102F8000010C07101F001F10070C01070D0DFF009B
:102F9000808000F8F800FFFF00E0E01F1017171016
:102FA00017171017171017170D0DFFBB1B5B1BBB57
:102FB000BBB1B5B1BBBBFF1F1B1B1B1B1B1B1115E3
:102FC000111B1B1F0D0D108888840402610C8142A7
:102FD0004448900F0606060F001B00070303030773
:102FE0000D0DFC02B1B505B5B102FC0000B0B01F7B
:102FF000000D0D000D0D001F020117170D0D0080B3
:1030000040208E1FFF1F8E20408000010204091304
:1030100016151613090402010D0DC00060797A6CB3
:103020007C6C7A796000C01F001F001F001F001F0A
:10303000001F001F0D0DFC1E0F4F6F6F07476767C6
:103040000F0EFC07081010121414151514100807A1
:103050000D0DAF0181412091482590492501AF1EFA
:1030600010141201140211001010101E0D0DFFAAF1
:10307000FF42524A52424242FFAAFF1F0A1F08085B
:103080000A090A08081F0A1F0D0DE0A0100EE1F53D
:10309000F5F5E10E10A0E00000010E101515151059
:1030A0000E0100000D0D304A48B6797979B6484ACC
:1030B000308000000100010202020518060F0F0710
:1030C0000D0D1C3C78F142ECECEC42F1783C1C1C00
:1030D0001E0F07020F1F0F02070B161C0D0D00100D
:1030E00010303037FD3730301010000306060C0C5E
:1030F000181F180C0C0606030D0D0301B0B81C0CAC
:10310000000C1CB8B00103181001030706000607E5
:10311000030110180D0D000F11E302D341D302E398
:10312000110F0008080807101F181F1007080808CB
:103130000D0D00F0087C02297D69B90142BC000137
:1031400002041A001F07071F0003180F0D0D3A791C
:10315000FCC1F04D504DF0C1FC793A1207070F0346
:10316000050505030F0707120D0D09BDA1D975E56A
:10317000FDE5F5D9A1BD091217101315161517177E
:10318000131017120C0C1E678608102040800000D8
:1031900000000000010202040408090E0E040C0CD9
:1031A000124A29A595555595A5294A1200000104F2
:1031B000020A0A02040100000C0CF8663169E9B148
:1031C000A1E1612166F8030F0A0F030202030F0A4F
:1031D0000F030C0C0609D1220408040462920907AB
:1031E0000C0B0804020101020C0403010C0C08047E
:1031F000C2E1B2140802812284080004000103071E
:10320000060E0C0C08080C0C3FCFC7333939C6C664
:10321000CC3830C000000103060609090C0E0F0F60
:103220000C0CFF0155015501FF00545204F80F002A
:10323000050005000F000505000F0C0C000000A0A4
:10324000530F0F53A0000000000003060E0E0E0ED9
:10325000060300000C0C22A4889B1B4824A2A0A0FB
:1032600020A00504020409090504020405040C0C4D
:1032700004DE50FCFAFEFEFAFC50DE0401030000FE
:1032800001010101000003010C0CFB036461218DAD
:103290001D41616403FB0D0C0208080B0B080802BA
:1032A0000C0D0C0C03027F6B556BD5EB556B557FEA
:1032B0000000060F0F060000060F0F060C0CE0F8CA
:1032C000FFE6E43C3CE4E6FFF8E001000B070B01FD
:1032D000010B070B00010C0C541494D4C0FF0545DE
:1032E0005550545405040103030104050505050563
:1032F0000C0CAA10C3F43EFAFFFA3EF4C3080A000D
:10330000070700030703000707000C0CF804323915
:103310003D3DC1C1C1C204F80102040808080B0BFD
:10332000090402010C0C008044DFFFDF4440401C14
:10333000FC1C0100000F0B030E0800000F000C0C1A
:10334000FF015555555501FF040408F00D0D010D01
:103350000D0107010D0D01070C0C0C006D6D000C2B
:103360000C804C4C202C00000B0B000C03000000C8
:1033700000000C0CAA003C7E66FFFF66EECC0055F8
:103380000A000307060F0F06070300050C0C01FED9
:1033900006FA9A6A6A9AFA06FE0108070605050502
:1033A0000505050607080C0CB8BCBE80FF80B8BE3A
:1033B00080FF80800304080A080A080A0804020142
:1033C0000C0C60F0F06006EFEF0660F0F0600000BB
:1033D000080C0E0F0F0E0C0800000C0C009F90FC48
:1033E0009A9C9AFC909F00AA00070701030703011B
:1033F0000707000A0C0C01CC9E3E7EFCF8F2E6CEDC
:103400009C010803070706040103070703080B0BC9
:1034100030C02E11151115112EC0300005060406FE
:103420000006040605000B0B0007FFFFFFFF777780
:1034300077070700070707070707000000000B0BC7
:10344000C0E0F0F0F0E4C209241209010307070705
:103450000301000000000B0B1C22414141221C0013
:103460000808F800000007040404040404070B0B18
:10347000F8FFFECCC878C8CCFEFFF80103070505AD
:103480000505050703010B0B2030F83C3EFF3E3CD1
:10349000F8302000000704040707070700000B0BA3
:1034A00000F40A11151511110AF4000001020404B8
:1034B0000404040201000B0B0810102126F8202040
:1034C00070507000000000070507000000000B0BA3
:1034D000FF01A10FA90AFC00555555070404040477
:1034E0000407000505050B0B7777077770777707DB
:1034F00077777707070707000707070707070B0B0B
:103500000007CFE83EFEC80F0700000400050100D9
:103510000303000400040B0BBF81A1A1212FE009CC
:10352000090BF807040407000203000101010B0B5B
:10353000D54000FF818181818181FF070404040659
:103540000004000400040B0B003D60FD80FD80FDC5
:10355000603D0000000004050705040000000B0B9F
:103560001C3E7C70FEFFFE80FCFEFC00000000079D
:103570000707030301000B0B008040281C987CFE0A
:103580005F0F0707040402010000000000000B0B9E
:103590001F2141913972E44810A040000000000151
:1035A0000204020100000B0BF804525204F804520A
:1035B0005204F807020101020702010102070B0B86
:1035C0007CFEFFC3C37FC3C3FFFE7C00000707016F
:1035D0000701070700000B0B00EEFAEE20FE04F8CF
:1035E00000202000070107000301000000000B0B72
:1035F000607864E2627E6000FF0000020702000261
:103600000702000302020B0BFF01DD5D5DDDDDDD66
:10361000DD01FF07040704040707070704070B0B76
:10362000F0F89C0E0300FF01FD01FF0103030606F5
:103630000401020402010B0B40605048FE01FE48E9
:1036400050604000000406050405060400000B0B52
:10365000E010FA6C7878786CFA10E0000000010154
:103660000001010000000A0A007CFDFEFDFE7C0056
:103670003800020202020202020200000A0A00806E
:10368000C080387DEEBCEE79020301030302030122
:1036900000000A0A080C14FEF4E0C000E01000006C
:1036A00002030303030200000A0A1C3870F8FEFB41
:1036B000F9F9FBFE000000010303030303010A0AFA
:1036C000204080FCC0FFE0FFC0FC000000010303BD
:1036D000030303010A0A484472C1F24448427F428C
:1036E000000000010303020000000A0A00FC0209B6
:1036F000BD898102FC0000030202020202020300F3
:103700000A0A78843231FDFD3132847800000102EA
:103710000202020100000A0A00FF555D55F735BD9F
:10372000B5BF000303030303000301000A0A060FE9
:103730000F3640AA92AA443800000000000003009F
:1037400000000A0A00000E1FF9F99F8E0000000019
:1037500000000303020200000A0AF1FACCCC7C7CD0
:10376000CCCCFAF1030103010303010301030A0AAC
:10377000784651C6613E080808F8000203030101BB
:10378000010203030A0A1018FC1EFF9F9EFC18107A
:10379000000003020303030300000A0AC167396241
:1037A000C4386C446C3801030203010000000000BF
:1037B0000A0A0000FFA9F9A9F9A9FF000000030205
:1037C0000302030203000A0AE070B07EF2F272B64E
:1037D0007CF0000103010000010301000A0A01FF5F
:1037E00045FC8249458902FC0003000000000000FE
:1037F00001010A0A406070FC3F3FFC70604000001D
:1038000002000303000200000A0A78FCFE8F05058F
:103810000D1B961C000001030302020100000A0AAE
:10382000FCB63331FFFF3133B6FC00010302030362
:10383000020301000A0A0E1F5F9F0EC0242821C246
:10384000010200000001020202010A0AF03CEE3B04
:10385000BFBF3BEE3CF0000000020303020000008B
:103860000A0A90DEDE9E3E9ED4D494240103030116
:103870000001030301000A0A0C1E3F3F9E0C40900A
:103880002040000000000001020001020909000FB1
:1038900010A7CFA7100F00000001010101010000D7
:1038A0000909048E5F0E44E0F4E2410100000000CB
:1038B0000001000009090C5ED3803F009FDE5C0020
:1038C00000000101010100000909004CDEDFDFF703
:1038D000F664000000000101010000000909806099
:1038E00018E6F3E618608001010000010000010104
:1038F000090900DFB6A4B6DF6060F801010000002E
:1039000001010001090982FD82BABABA827F8200F0
:103910000100000000000100090907091EBFFFBFE8
:103920001E09070000010101010100000909C02072
:1039300070F86C3E1B0E0401010100000000000045
:10394000090938FE13D31FD313FE3800010101010A
:10395000010101000909CCEEA6F7B7F7A6EECC01EC
:10396000010001000100010109097CDA93333B33B6
:1039700093DA7C00000101010101000009097CF6D5
:10398000F3F1FF1F9FDE7C00000101010101000037
:10399000090910D6D600C700D6D6100000000001D5
:1039A000000000000909008040201C1C1E070301C4
:1039B000000000000000000009090E1B15377AF016
:1039C000E0C00000000000000001010109097C9E28
:1039D00033333F33339E7C000001010101010000BD
:1039E000090900605876FD6E78600001010101014F
:1039F00001010101090910FE9282D78292FE100096
:103A000000000001000000000909C62929C610C6EF
:103A10002929C60001010000000101000909C22E88
:103A20002ACE18C82A2CC80001010000000101009C
:103A300009093CC2094D414D09C23C000001010188
:103A40000101000009091E3F7FFFFEDF6F3B1E00E2
:103A5000000000010000000009097EF1F171DF7132
:103A6000F1F17E00010100010001010009094E5938
:103A700059899F8959594E01010100000001010136
:103A800008083C3CDBFFFFDB3C3C0808DFDFD8FFDD
:103A9000FF1BFBFB0808FF7E3C18FC5C7C1C080835
:103AA000060F2FA6904C201808081E3360C2878A84
:103AB000DC4808083C7EF3E1C0C4603108080038E7
:103AC00072E1E17238000808001E3BF3F33B1E0070
:103AD0000808E0C0983C3C19030708083C02B9BD3F
:103AE000BD9D403C08083C24E78181E7243C080850
:103AF0001E3F7FFEDE6F331E0808060979BEBE79C1
:103B000009060808DB5A182424242418080861969A
:103B100089A8A88996610808C3990042420099C300
:103B20000808815A3C66663C5A810808C0982442BD
:103B300042241903080810189CFFFF9C181008085D
:103B40001008E43F3FE4081008083C638AA0A08AFC
:103B5000631C080803070E1C1820C0C0080800706A
:103B60008DB1B18D7000080860C0D8DCDCD8C060B1
:103B70000808387CFCFD7BBC7C3807073D78607A00
:103B8000707D380707081C2263221C080707080CF1
:103B90007E7F7E0C0807071E79396F39791E07076B
:103BA0000E1F3F7E3F1F0E07071F1D77535F447C8C
:103BB00007071C3E5F5F6F321C0707071527087257
:103BC00054700707775D7722775D770707705C761B
:103BD00003765C700707080C0E3F4E2C0807071889
:103BE000045F1D5F041807070822004D1022080714
:103BF000077F69596959697F0707397F39383F61FC
:103C00003F07076B41085D08416B07071C147741AC
:103C100077141C0707775D7505755D770707735186
:103C20007C141F4567070704487A1F7A4804070772
:103C30001E785C1C7F4F06070700360063003600C5
:103C400007076363000800636307071C2255495593
:103C5000221C07071C22555155221C060610381C31
:103C60000D010706060C123F213F0C0606041E2715
:103C7000271E0406062C3E0F0F3E2C0606071D27A6
:103C80000A122406060F09392F243C06063F002D90
:103C90002D003F06060002253D020006060F3C0CE3
:103CA0003F0F060606011E3A3A1E0106062B0B3888
:103CB00007343506061B0F063B19080606123300AB
:103CC00000331206063333000033330606180C2681
:103CD00033190C060602263F3F2602060603243847
:103CE000382403060621120C0C122106060C002DA6
:103CF0002D000C0606211E12121E2106063C22096A
:103D000009223C06063F090F0F0F0F06063F0F0D55
:103D10000F311106060C122121120C06060C1E3F53
:103D20003F1E0C05051B1B041B1B05050E1B1F1D41
:103D30000E050503061F060305051C1516151C05B3
:103D4000050C181E1E04050500121D1200050502B3
:103D50001E020E1205051E1E1E0A0E0505081A1F5C
:103D60001A080505150E1B0E15050512191E191248
:103D70000505001F0D1F00050504061F1604050597
:103D8000011E0B1E010505100E1B0E1005050E1F52
:103D90001B110005051E0C0F1E0605051E181D1E15
:103DA0001C0505041E171E040505160D0F0D16052E
:103DB00005061D1F1D0605051E071F071E05051C00
:103DC0000E070E1C0505070F1E0F0705051F111115
:103DD000111FCB3DC43DBD3DB63DAF3DA83DA13D0E
:103DE0009A3D933D8C3D853D7E3D773D703D693DDF
:103DF000623D5B3D543D4D3D463D3F3D383D313D8F
:103E00002A3D233D1B3D133D0B3D033DFB3CF33C55
:103E1000EB3CE33CDB3CD33CCB3CC33CBB3CB33C4A
:103E2000AB3CA33C9B3C933C8B3C833C7B3C733C3A
:103E30006B3C633C5B3C523C493C403C373C2E3C39
:103E4000253C1C3C133C0A3C013CF83BEF3BE63B69
:103E5000DD3BD43BCB3BC23BB93BB03BA73B9E3B9E
:103E6000953B8C3B833B7A3B703B663B5C3B523BD8
:103E7000483B3E3B343B2A3B203B163B0C3B023B42
:103E8000F83AEE3AE43ADA3AD03AC63ABC3AB23ABA
:103E9000A83A9E3A943A8A3A803A6C3A583A443A66
:103EA000303A1C3A083AF439E039CC39B839A439F7
:103EB00090397C396839543940392C3918390439EA
:103EC000F038DC38C838B438A0388C3876386038E8
:103ED0004A3834381E380838F237DC37C637B0373E
:103EE0009A3784376E37583742372C3716370037B2
:103EF000EA36D436BE36A83692367C3666364E362C
:103F000036361E360636EE35D635BE35A6358E35F6
:103F100076355E3546352E351635FE34E634CE34EC
:103F2000B6349E3486346E3456343E3426340E34E1
:103F3000F433DA33C033A6338C33723358333E3321
:103F400024330A33F032D632BC32A23288326E3297
:103F500054323A3220320632EC31D231B8319E310D
:103F6000843168314C3130311431F830DC30C030BC
:103F7000A43088306C30503034301830FC2FE02FB3
:103F8000C42FA82F8C2F702F542F382F1C2F002FA9
:103F9000E42EC82EAA2E8C2E6E2E502E322E142ECB
:103FA000F62DD82DBA2D9C2D7E2D602D422D242D41
:103FB000062DE82CCA2CAC2C8E2C702C522C342CB8
:103FC000162CF82BDA2BBA2B9A2B7A2B5A2B3A2B4E
:103FD0001A2BFA2ADA2ABA2A9A2A7A2A5A2A3A2A40
:103FE0001A2AFA29DA29BA299A297A295A293A2938
:103FF0001A29FA28DA28BA28982876285428322844
:104000001228F027CE27AC278A276827462724279F
:104010000227E026BE269C267A2658263626142617
:10402000F225D025AE258C256A25493111241FBEE5
:10403000CFEFDAE0DEBFCDBF11E0A0E0B1E0E2E01B
:10404000FDE602C005900D92A03CB107D9F727E02C
:10405000A0ECB1E001C01D92AA30B207E1F710E276
:10406000C6E1D0E204C02197FE010E945335C5315C
:10407000D107C9F70E949E310C947F360C94000042
:10408000089580E090E008950895089508950895B2
:10409000089508950895CF92EF920F931F93CF93B1
:1040A000DF93FC016A3039F48581848396818185B0
:1040B000890F86839DC0A4816E3719F4AF5FA483F6
:1040C00097C0962FEF0166816F5F9A3380F490332B
:1040D00010F59B3219F118F4913221F156C09D323E
:1040E00009F459C09E3209F050C01FE31CC09B3533
:1040F00048F4913470F49A3399F09F3309F045C035
:1041000012E411C08FE9890F8A3108F03EC019EB23
:1041100003C01FEB01C014E0190F05C011E403C078
:1041200013E401C01EE38F81062E000C770B0A2ECC
:10413000000CBB0B8130A1F5E9EBF0E00491EAEB58
:10414000F0E0E490112349F121E030E08E2D8770FA
:1041500011F420E030E08E2D869586958695280F07
:10416000311D029FF001039FF00D11249F011203E6
:10417000A001139F500D112445545F4F9AEFC92E93
:1041800020E030E0CD010E941C3088858D5F9C814D
:10419000890F8C832DC010E4C6CF4BEB50E0EECFDF
:1041A000E9EBF0E00491EAEBF0E0E4901123D9F0C0
:1041B00021E030E08E2D877011F420E030E08E2D6C
:1041C000869586958695280F311D029FF001039FE5
:1041D000F00D11249F011203A001139F500D112413
:1041E00045545F4F02C04BEB50E08BEFC82EC8CF59
:1041F00081E090E0DF91CF911F910F91EF90CF90F0
:1042000008950C94F1350C94F1350C94F1350C941F
:10421000F1350C94F1350C94F1352F923F924F9279
:104220005F926F927F928F929F92AF92BF92CF9246
:10423000DF92EF92FF920F931F93CF93DF93CDB74F
:10424000DEB72C970FB6F894DEBF0FBECDBF8C0142
:104250008AE990E00E948C34582E8BE990E00E940D
:104260008C348C87680182E0C80ED11C652C712CBF
:10427000E12CF12C412CFE0131965F01CE01099613
:104280009A8789879C8549120EC00E571F4FE12CD3
:10429000F12C88E0282EFE0131966F01CE0109969F
:1042A0009A8789875FC0F50188E011928A95E9F7BE
:1042B00047019EE9890E911C312C212CEFEFEB87F1
:1042C000351469F0C4010E948C348F70281651F0A7
:1042D0008130B9F4FB85FF5FFB87F83031F4F501DD
:1042E000D60115C081E028120DC0F5019B85E90FAC
:1042F000F11D97FDFA9580818F5F8083222423949E
:1043000001C0282E3394EFEF8E1A9E0AD9CF8191E7
:104310008D9389859A85E817F907C9F7439498E042
:10432000C90ED11CE60CF71CADCFC5010E948C3420
:104330008F70881227C081E0881651F13394A60C43
:10434000B71CEC853E12F1CFF601D80181918D9317
:1043500089859A85E817F907C9F79FEFE91AF90ADD
:10436000085F1F4FE51408F5F601822D11928A951A
:10437000E9F757019EE9A90EB11C312C812C992433
:104380009A94DFCF813079F49394F8E09F16E1F2AC
:10439000F601E90DF11D97FCFA9580818F5F80830E
:1043A00088248394CBCF882EC9CF2C960FB6F8944F
:1043B000DEBF0FBECDBFDF91CF911F910F91FF9058
:1043C000EF90DF90CF90BF90AF909F908F907F90B5
:1043D0006F905F904F903F902F900895AF92BF9253
:1043E000CF92DF92EF92FF920F931F93CF93DF93C1
:1043F000EC015B01FB01008511851095102315FF71
:1044000017C08AE990E00E948C349C85911101C00C
:104410008C878C8581508C8713FD0AC003FF08C0F0
:10442000FE01E95EFE4F6081CE010C960E947A2D5E
:1044300016FF17C08AE990E00E948C349C859F5F2C
:10444000891711F09C8701C01C8613FD0AC003FF69
:1044500008C0FE01E95EFE4F6081CE010C960E940D
:104460007A2D17FF17C08BE990E00E948C349D8550
:10447000911101C08D878D8581508D8713FD0AC0F4
:1044800003FF08C0FE01E95EFE4F6081CE010C967D
:104490000E947A2D14FF17C08BE990E00E948C34A3
:1044A0009D859F5F891711F09D8701C01D8613FDB3
:1044B0000AC003FF08C0FE01E95EFE4F6081CE0125
:1044C0000C960E947A2DFE01EE5EFE4F80819E01C9
:1044D0002A5E3E4F6901811157C0F9018081803405
:1044E00008F05FC07E01FCE0EF0EF11C8C85FE0140
:1044F000EF5EFE4F908128E0829F900D11242D8564
:104500003197808138E0239F800D112434969737AE
:1045100018F09757908301C01082FE01EB5EFE4FAA
:10452000873318F08753808301C0108213FF18C0AF
:10453000C7010E94A02D813061F010F0823081F41B
:1045400061E0C7010E947A2DC95EDE4F81E0888359
:1045500007C060E0C7010E947A2DC95EDE4F188255
:1045600002FF06C0F6018081803410F48F5F8083E3
:1045700012FF02C0F6011082F501818582FF36C06C
:10458000808582FD33C01BC0CD5EDE4F88818034C4
:1045900018F48F5F888305C013FF03C082E0F50124
:1045A0008787F6018081803408F113FF03C082E021
:1045B000F501878712FF1AC0F601108217C0C701E4
:1045C0000E94A02D823010F462E003C0823071F4AA
:1045D00060E0C701DF91CF911F910F91FF90EF90A5
:1045E000DF90CF90BF90AF900C947A2DDF91CF9158
:1045F0001F910F91FF90EF90DF90CF90BF90AF9001
:1046000008952F923F924F925F926F927F928F9276
:104610009F92AF92BF92CF92DF92EF92FF920F9351
:104620001F93CF93DF93CDB7DEB7C556D1090FB631
:10463000F894DEBF0FBECDBF2C0185E5E4E6F1E0C6
:10464000DE01119601900D928A95E1F7DB01169635
:104650000D90BC91A02DA696BFAFAEAFA6978AE9EC
:1046600090E00E948C34382EA82EAA0CAA0CA80E1A
:1046700090E0019625E0289F6001299FD00C11242D
:10468000B32CBB0CBB0CBB0CE12CF12CF201E05F9A
:10469000FE4F6A96FFAFEEAF6A9792012B5E3E4FD8
:1046A00068963FAF2EAF6897C2018F5E9E4F6C96A3
:1046B0009FAF8EAF6C97D201AC5EBE4F6E96BFAF10
:1046C000AEAF6E97B8E0FB9E800111249A2C892D25
:1046D00090E08C159D050CF04EC0E1E0F0E0EC0F91
:1046E000FD1FE80FF91F80818F1143C06A96EEAD60
:1046F000FFAD6A97608170E06896AEADBFAD689718
:104700008C91681B71096C96EEADFFAD6C97808142
:104710009801280F311D6E96AEADBFAD6E979C917E
:104720004B2DF901E91BF109CF010E94092D6A9671
:10473000AEADBFAD6A978C91B801680F711D6896D8
:10474000EEADFFAD68978081681B7109603471051B
:1047500080F46C96AEADBFAD6C978C9190E06E9688
:10476000EEADFFAD6E9720814B2D821B91090E940B
:104770002F2D9394ACCF6C96AEADBFAD6C970C91D2
:104780006E96EEADFFAD6E978081081B0E0D6A969A
:10479000AEADBFAD6A979C906896EEADFFAD6897E1
:1047A0008081981A9B0C812C10E0682D70E041E00C
:1047B000C8010E94652C839483949814B0F76A967C
:1047C000AEADBFAD6A970C916896EEADFFAD689740
:1047D0008081081B0E0D6C96AEADBFAD6C978C90B2
:1047E0008B0C912C10E041E0B801892D90E00E94E3
:1047F000652C939493948914B0F7F394B8E0EB0E7E
:104800003F1408F05FCFE12CF12C212C23101BC0AA
:10481000812C912C6EE9662E77247394B12C6F96BF
:104820001FAE6F9722242394F201EC5EFE4FA296F6
:10483000FFAFEEAFA29792012E5F3F4FA4963FAF1E
:104840002EAFA497ADC0C12CD12CA12CB12C822DA0
:1048500090E0DC01A256BF4FA096BFAFAEAFA097CD
:10486000A31408F078C08AE990E00E948C34B82F35
:10487000BA9DC001BB9D900D1124A096EEADFFAD79
:10488000A0978E0F9F1F0E948C348F70813051F142
:10489000823009F059C06A96AEADBFAD6A978C916F
:1048A000B601680F711D6E5F7F4F6896EEADFFAD6C
:1048B00068978081681B71096C96AEADBFAD6C972F
:1048C0008C91F701E80FF11DCF0102966E96AEAD07
:1048D000BFAD6E972C9144ED5FE1821B91090E9460
:1048E000642D32C06A96AEADBFAD6A978C91360129
:1048F000680E711CB2E06B0E711C6896EEADFFADD8
:1049000068978081681A71086C96AEADBFAD6C97E0
:104910008C918701080F111D0E5F1F4F6E96EEAD33
:10492000FFAD6E978081081B11094801F5E08F0EDD
:10493000911C0815190541F045E0B301C8010E941A
:10494000092D0F5F1F4FF5CFBFEFAB1ABB0AE8E091
:10495000CE0ED11C85CF2394F8E0EF0EF11C56CF7C
:10496000D20119961C926F96BFAD6F97BF5F6F967D
:10497000BFAF6F97E82C8301F12CC8010E948C34E3
:1049800081116FC00F5F1F4FB7E0FB0EE8E3FE120F
:10499000F4CFB394F8E06F0E711C28E0820E911CE6
:1049A000B31016C0812C912C5EE1652E52E0752E5D
:1049B00010E001E092012C5E3E4FA2963FAF2EAF79
:1049C000A297C2010296A4969FAF8EAFA497A5C0EE
:1049D00074019EE8E90EF11CE40CF51C6401AAE5E3
:1049E000CA1AAEEFDA0A8301C8010E948C34F701BB
:1049F00091917F01891344C20F5F1F4FC016D106EA
:104A000099F76A96EEADFFAD6A97A080AA94689672
:104A1000AEADBFAD6897CC90D12CD194C194D108E4
:104A20006C96EEADFFAD6C9780818401080F111D6F
:104A30000F5F1F4FA296AEADBFADA2978C91081B22
:104A400011097801B7E0EB0EF11C0E151F0509F4F2
:104A500087CF4A2DB601C8010E94092D0F5F1F4F55
:104A6000F4CF6896EEADFFAD689790813F2D391B6E
:104A70006C96AEADBFAD6C979C919D5F8A3028F46B
:104A800021E0813019F020E001C023E0A296EEADD4
:104A9000FFADA2974081941B9E0D921BD2011696EA
:104AA0009C93169717969C93179718963C93482FAC
:104AB00050E060E070E02AE0A4968EAD9FADA49730
:104AC0000E94642F69EB71E0A4968EAD9FADA49710
:104AD0000E944F2F57CFD20119961C926F96BFADEF
:104AE0006F97BF5F6F96BFAF6F97B82C7301D12CD4
:104AF000C12CC7010E948C3481115EC0BFEFEB1A3C
:104B0000FB0AE5E0DE0EF8E2DF12F3CF1F5F28E0DC
:104B1000620E711C38E0830E911C131509F47DC0E0
:104B200064013EE0C30ED11CC40CD51C54018AEDB7
:104B3000A81A8DEFB80A7301C7010E948C34D60100
:104B40009D916D0189139FC1BFEFEB1AFB0AAE1453
:104B5000BF0491F76C96EEADFFAD6C97E080EA94E0
:104B60006A96AEADBFAD6A978C916401C80ED11C38
:104B7000BFEFCB1ADB0A6896EEADFFAD6897808178
:104B8000C81AD108A296AEADBFADA2978C9190E0A5
:104B9000AA24BB24A81AB90AF12CE81AF90AAE14FF
:104BA000BF040CF098CF47E0B601C5010E94092D63
:104BB000EFEFAE1ABE0AF3CF8A3008F0C3946A96BC
:104BC000EEADFFAD6A9790819F5F6896AEADBFADC9
:104BD00068972C91921B9B0D6E96EEADFFAD6E9774
:104BE0002081F02FF21B2F2F2D0D3C2D330F231B77
:104BF000D20116962C93169717962C931797189602
:104C00009C93482F50E060E070E02AE0A4968EADBF
:104C10009FADA4970E94642F71CF6F968FAD6F9751
:104C2000282F30E0812F90E0880F991F82010E5EBF
:104C30001E4F2817390761F481E0D8018C9388E969
:104C400090E00E94943461E082569D4F0E949A3415
:104C5000F8018081F201882309F458C0ED5EFE4F0F
:104C60008081803409F013C188E990E00E94943477
:104C7000880F991FFC01E458F24E85919491FC0134
:104C8000F49031961491E1E5FCE10491E2E5FCE158
:104C9000E490CC24C39428E23BE143E55CE164E189
:104CA00070E08EE090E00E94172A88E990E00E9470
:104CB0009434880F991FFC01E458F24E45915491A9
:104CC000E12FE69560E270E06E1B7109F69485E6CF
:104CD00090E08F199109CB59DF4F0FB6F894DEBFE2
:104CE0000FBECDBFDF91CF911F910F91FF90EF903D
:104CF000DF90CF90BF90AF909F908F907F906F90FC
:104D00005F904F903F902F900C94642DEA5EFE4F81
:104D10008081803499F4EDEFF9E10491EEEFF9E14F
:104D2000E490CC24C39428E23BE14FEF59E164E1E5
:104D300070E08EE090E00E94172AA9C0A6968EAD82
:104D40009FADA69760E370E00E943F35893108F47B
:104D50009EC0D2011D966C911D971C968C91E6EF1A
:104D6000F9E10491E7EFF9E1E4906A96EEADFFAD69
:104D70006A979081F8E06F9FB0011124690F711D4F
:104D80006896AEADBFAD68979C91691B71096C9632
:104D9000EEADFFAD6C972081F8E08F9FC00111242C
:104DA000820F911D6E96AEADBFAD6E97EC91CC2487
:104DB000C3942FEE39E148EF59E18E1B91090E940F
:104DC000172AF20105856A96AEADBFAD6A978C9140
:104DD000B8E00B9F80011124080F111D6896EEADFD
:104DE000FFAD68978081081B1109D2011C96EC90D9
:104DF0006C96EEADFFAD6C978081F8E0EF9E700190
:104E00001124E80EF11C6E96AEADBFAD6E978C917D
:104E1000E81AF1080034110528F449E0B801C70187
:104E20000E942F2DB801685F7F4F6034710520F418
:104E300049E0C7010E942F2D49E0B801C7010E9437
:104E4000092D49E0B801C7010896CB59DF4F0FB6CD
:104E5000F894DEBF0FBECDBFDF91CF911F910F91B0
:104E6000FF90EF90DF90CF90BF90AF909F908F908A
:104E70007F906F905F904F903F902F900C94092DF2
:104E8000F201218677CDD20119960C932ECECB5903
:104E9000DF4F0FB6F894DEBF0FBECDBFDF91CF91CD
:104EA0001F910F91FF90EF90DF90CF90BF90AF9048
:104EB0009F908F907F906F905F904F903F902F903A
:104EC00008951F93CF93DF93EC018CE990E00E944B
:104ED0008C34182FFE01E25FFE4F80838DE990E055
:104EE0000E948C34FE01E15FFE4F80833296912F49
:104EF000990F990F190F1D5F1083319797E0899FC4
:104F0000802D11248E5F8083339610823396108219
:104F1000349710821C861D86CE010C96DF91CF91AE
:104F20001F910C940D2108950895FC01DB01199641
:104F30008C911997809518969C911897892399F0D0
:104F40008281882311F08CE78283928191110EC0B7
:104F500081E0828380E48093900081E49FE09093DD
:104F600099008093980092819923B1F09F5F92837A
:104F7000953059F09D3761F0923071F480E596E4F8
:104F8000909399008093980008951092900008954E
:104F900081E01F968C930895089546EA54E264E0F8
:104FA00070E083E090E00E94B82D46EA54E263E0AE
:104FB00070E083E090E00E94B82D42EE53E269E198
:104FC00070E080E190E00E94B82D4CE153E26DE288
:104FD00070E08BE190E00E94B82D4CE153E26CE26E
:104FE00070E08BE190E00C94B82D2F923F924F929D
:104FF0005F926F927F928F929F92AF92BF92CF9269
:10500000DF92EF92FF920F931F93CF93DF93CDB771
:10501000DEB729970FB6F894DEBF0FBECDBF9987D4
:1050200088876B01DC011C968D919C911D9769E12D
:1050300070E00E943F358B01282F8230910530F0BF
:10504000863130F44EEF742E780E04C0712C02C0FD
:1050500034E1732E7C82B5E0B70DBD83223018F4A5
:10506000672C680E08C0273118F08451682E02C0E2
:1050700022E0622E670C89E1809F4001819F900CA5
:1050800011247401E2E6EE1AEDEFFE0A5401F9E490
:10509000AF1AFDEFBF0A512CC7010E948C3481303A
:1050A00009F453943FEFE31AF30AEA14FB04A1F75F
:1050B000550C550C598245E451E260E070E080E007
:1050C00090E00E94B82D43E450E260E370E080E09D
:1050D00090E00E94B82DD60116968D919C9117975D
:1050E00060E370E00E943F358F839BE0392EE885B6
:1050F000F98532966F01FD817F160CF07EC0872DF9
:10510000072C000C990B9B838A835C01A80CB91CAB
:10511000F501EE0FFF1FDF01AE52B24C2D01FD0174
:1051200085919491FC012490319634913E83E72C33
:105130008C81E81A99E1E99E70011124AF81A931AF
:1051400010F4761441F04FEF5FE164E170E0C701C5
:1051500004960E94642DC50182569D4F0E948C3496
:10516000813079F4F201459154914E8046946EE17C
:1051700070E064197109C7010E962694821991098D
:1051800006C04DEE5FE164E170E0C7010A960E943F
:10519000642DE885F985368237823BE2308788E0E6
:1051A00087152CF06BEB71E0C6010E944F2F4A81EE
:1051B0005B814F5F5F4F4F3F9FEF590791F4A88589
:1051C000B9851296ED91FC9113970190F081E02D35
:1051D0006DE2C60109952AE041E050E060E070E030
:1051E00005C0052E000C660B770B2AE0C6010E9455
:1051F000642F7394B9E13B0E7ECF8AE2E885F9858E
:105200008683878310864801F5E08F0E911CA12CC0
:10521000B12C2AE0B501A401C6010E94642F6DEBF8
:1052200071E0C6010E944F2F2AE0B501A401C6011A
:105230000E94642F8DE5A885B98516968C931697E4
:1052400017968C93179718961C92B981B43668F408
:105250006BEB71E0C6010E944F2FE981EA3028F420
:105260006BEB71E0C6010E944F2FF9814F2F50E088
:1052700060E070E02AE0C6010E94642F011511056C
:1052800001F54BED5FE162E070E089E490E0299682
:105290000FB6F894DEBF0FBECDBFDF91CF911F9147
:1052A0000F91FF90EF90DF90CF90BF90AF909F90C5
:1052B0008F907F906F905F904F903F902F900C94C5
:1052C000642D44EE5FE162E070E081E490E00E94D2
:1052D000642D0F301105A8F229960FB6F894DEBFA1
:1052E0000FBECDBFDF91CF911F910F91FF90EF9037
:1052F000DF90CF90BF90AF909F908F907F906F90F6
:105300005F904F903F902F900895EF92FF920F93F0
:105310001F93CF93DF93FC01EB01298520958885AE
:10532000282304851585C80169E170E00E943F3596
:1053300025FF06C0882321F0015011091587048735
:1053400026FF07C0883129F08485958501969587C9
:10535000848727FF07C0662329F0848595854997B0
:105360009587848724FF07C06B3028F48485958552
:1053700049969587848723FF1FC07E01EF0188E946
:1053800090E00E948C34082F10E08C859D850817D2
:10539000190769F402561D4FC8010E948C348130F0
:1053A00041F460E0C8010E949A348C859D850E947A
:1053B000CE2D83E0F7018787DF91CF911F910F9169
:1053C000FF90EF9008950F931F93CF93DF938C017D
:1053D00088E990E00E949434F801958784878BE9EE
:1053E00090E00E948C34811104C080E090E00E9423
:1053F000CE2DF801C485D585CE0182569D4F0E94E1
:105400008C34813079F42196CC32F1E0DF0750F40E
:10541000CE0182569D4F0E948C348111F4CFF80149
:10542000D587C487DF91CF911F910F9108954F9237
:105430005F926F927F928F929F92AF92BF92CF9224
:10544000DF92EF92FF920F931F93CF93DF9300D0E1
:1054500000D0CDB7DEB7DC0139012C2DA02EB12C48
:10546000C5018A0F9B1F181619060CF0AEC1A03893
:10547000B1050CF0AAC1FB01EE0DF11D1E161F06B1
:105480000CF0A3C1603471050CF09FC141155105AA
:1054900009F49BC1362F3770F32EFB0177FD379649
:1054A00033E0F595E7953A95E1F73E2F77FF04C095
:1054B000FF2011F03FEF3E0FB7FF05C0EE27FF279B
:1054C000EA1BFB0B02C0E0E0F0E0803891051CF025
:1054D00090E89A1B01C0902F9E1B632F032E000C97
:1054E000770B3F3F1CF4162F109501C010E0DD2410
:1054F000D3948E2D877009F4D12CE694E694E6942B
:10550000ED0C6E0D711D693071051CF088E0E82E00
:10551000E31AE11A310F60E83603A00DB11D112422
:10552000AE0FBF1F019FE00DF11D11244E0F5F1F35
:1055300061E070E04B010F2C02C0880C991C0A94AA
:10554000E2F7233009F4FFC0B8F4213009F4B3C006
:10555000223009F03AC18FEF889D8001899D100D9E
:105560001124009510951A8309832A81FD01EF5FAC
:10557000FC4F2F01E30E29C02A3FD1F12B3F09F048
:1055800024C1FD01EF5FFC4F6F01E30E82C08491E7
:10559000889D6001899DD00C1124DC82CB8237FD6F
:1055A00005C0DB018C918023C82ACC92F11013C076
:1055B00031966F5F7F4F8E2F841B891740F33F5FBB
:1055C0004A0D5B1DB0E84B0E511C3E1509F4FDC0A1
:1055D000B201FA01F0CF37305CF76B01B0E8CB0EC7
:1055E000D11CD6018C9182237C8087298C93E0CFBB
:1055F000FD01EF5FFC4F6F01E30E3E1509F4E5C0BE
:105600008601FA018E2F841B8917F0F48491889DFE
:10561000B001899D700D11247C836B8337FD04C01C
:10562000D8018C91682B6C93FF2051F0373044F4F3
:10563000B80160587F4FDB012C918C81822B8C93B9
:1056400031960F5F1F4FDECF3F5F4A0D5B1DB0E805
:10565000CB0ED11CD2CF8491889D8001899D100DE5
:1056600011241C830B8337FD05C00095DB018C9151
:1056700008230C93F11013C031966F5F7F4F8E2F6C
:10568000841B891740F33F5F4A0D5B1DB0E8CB0ECA
:10569000D11C3E1509F499C0B601FA01F0CF37309C
:1056A0005CF78B0100581F4F8C818095D8012C919D
:1056B00082238C93E1CFB3016E0F7F1FAF5FBC4F8E
:1056C000E30E3E1509F481C08D01C12CD12CC91601
:1056D00090F5FB01EC0DFD1DE491E89D3001E99D85
:1056E000700C1124609470947A826982FA01EC0D36
:1056F000FD1DE491E89D2001E99D500C11245C8280
:105700004B8237FD05C0F80180816822462840821F
:10571000FF2059F037304CF4F801E058FF4F20815A
:105720008A8182232C81822B8083FFEFCF1ADF0AAC
:105730000F5F1F4FCCCF3F5F4A0D5B1D6A0D7B1D76
:10574000A058BF4FBECFC92ED12CE40FF51FAF5FBD
:10575000BC4F00E810E00C191D09AC18BD08A501EC
:10576000440F551F792F2E2D792ECF93DF93ED0106
:10577000EF96EF962296A590C590FF2059F0A89C31
:105780005001C89C600137302CF4E880D094ED20A3
:10579000EB28E99233233AF0EC90C094EC20EA280D
:1057A000ED920C94D42B11967A9529F72A9551F005
:1057B000772D33951124E40FF11DA00FB11DC00FFB
:1057C000D11DD9CFDF91CF9111240F900F900F9061
:1057D0000F90DF91CF911F910F91FF90EF90DF908D
:1057E000CF90BF90AF909F908F907F906F905F9081
:1057F0004F900895F89487E78093000880930108FC
:10580000A89588E18093600088E080936000FFCFD6
:10581000DC01FB01808591859095982384FF0BC066
:1058200012962C911297203120F42F5F12962C9310
:1058300004C00E94FA2B12961C9293FF02C082E0D1
:10584000878708958F929F92AF92BF92CF92DF92F7
:10585000EF92FF926C01E12CF12C0E94AD2F4B01D5
:105860005C01C114D104E104F104F1F00E94AD2FF8
:10587000DC01CB0188199909AA09BB09883E93402C
:10588000A105B10570F321E0C21AD108E108F108C1
:1058900088EE880E83E0981EA11CB11CC114D104AF
:1058A000E104F10419F7DDCFFF90EF90DF90CF9086
:1058B000BF90AF909F908F9008958FB18095807F1B
:1058C000669B88601C9B8460089580389105B8F4BD
:1058D00060347105A0F490E121E061FD24E060FDF9
:1058E000220F62FD2295687F969FD0011124A80F98
:1058F000AF5FBC4F8C91822B40FF82278C93089521
:105900000F931F93CF93DF93EC0146EF52E261E1D7
:1059100070E08FE290E00E94B82D48ED52E26AE11B
:1059200070E08BE290E00E94B82D48ED52E26AE10F
:1059300070E089E490E00E94B82D8A81811114C042
:1059400048ED52E26AE170E08AE390E00E94B82DEF
:1059500048E852E26EE270E08AE190E0DF91CF9198
:105960001F910F910C94B82D4AE652E26AE170E063
:105970008AE390E00E94B82D47E452E26EE270E0C4
:105980008CE290E00E94B82D8A816FE00E9433354E
:10599000082F0370CFE4D0E010E0011749F041E098
:1059A00061E370E0CE010E94652C1F5F2296F5CF67
:1059B000DF91CF911F910F910895CF92DF92EF92D7
:1059C000FF920F931F93CF93DF936C017A018B01AA
:1059D000C0E0D0E0CE15DF0581F0D8016D918D01DA
:1059E000D601ED91FC910190F081E02DC601099561
:1059F000892B11F02196EECF7E01C701DF91CF9167
:105A00001F910F91FF90EF90DF90CF9008950E942B
:105A10007A36EF92FF920F931F93CF93DF937C011F
:105A20008B01040F111DEB0177FF02C0C0E0D0E035
:105A3000C8010134110514F080E490E0C817D907BB
:105A40003CF441E0BE01C7010E94652C2196F0CFD5
:105A5000DF91CF911F910F91FF90EF9008959C01DE
:105A6000240F311D1216130674F5803891055CF56C
:105A700097FF02C080E090E02138310514F020E863
:105A800030E0281BAB014770552731E001C0330FD0
:105A90004A95EAF777FF02C0695F7F4F43E075954B
:105AA00067954A95E1F77695762F662777956795FE
:105AB000860F971FFC01EF5FFC4F215020F0808183
:105AC000832B8193FACF0895CF92EF920F934115D4
:105AD000510561F0FA0104913196E4904E5F5F4FF9
