:100000000C94751B0C949D1B0C949D1B0C949D1BB8
:100010000C949D1B0C949D1B0C949D1B0C949D1B80
:100020000C949D1B0C949D1B0C949D1B0C949D1B70
:100030000C949D1B0C949D1B0C949D1B0C949D1B60
:100040000C949D1B0C949D1B0C949D1B0C949D1B50
:100050000C949D1B0C949D1B0C949D1B0C942A2BA3
:100060000C949D1B0C949D1B0C949D1B0C949D1B30
:100070000C949D1B0C949D1B0C949D1B0C949D1B20
:100080000C949D1B0C949D1B0C949D1B0C949D1B10
:100090000C949D1B0C949D1B0C949D1B0C949D1B00
:1000A0000C949D1B0C949D1B0C949D1BD5F08D14E2
:1000B000A1C881CFD9F1AF200003081F051F1F156C
:1000C0001B1F11111F110E1F15111F05011F111DDF
:1000D0001F041F001F0010101F1F041B1F10101FE4
:1000E000061F1F011F1F111F1F05071F311F1F059F
:1000F0001B17151D011F011F101F0F100F1F0C1FB5
:100100001B041B071C071915130C121E1F120C1EB3
:1001100012120C121F0C1A14041F052E2A1E1F0285
:100120001C001D00201D001F041A011F001E041EBC
:100130001E021E1E121E3E120C0C123E1E02061441
:10014000120A020F121E101E0E100E1E081E1A0496
:100150001A2E281E1A12161F111F00001F1D151718
:1001600011151F07041F17151D1F151D01011F1F46
:10017000151F17151F001700001000040404040EBB
:10018000040229060A00001010010100000000000E
:10019000000000000000000000000000000000005F
:1001A000000000000000000000101001010000002D
:1001B000000000000000000000000000000000003F
:1001C000000000000000000000000010100101000D
:1001D000000000000000000000000000000000001F
:1001E00000000000000000000000000000101001EE
:1001F00001000000000000000000000000000000FE
:1002000000000000000000000000000000000010DE
:100210001000FF01FD05F555555555545450F0009B
:1002200000000F003F00FFD5D5D5FD05753517003F
:10023000001010C02020107CC28109191A6936886C
:100240009090600031494945320A080808050509BF
:100250001209061010F0E83D9655D6AD7E7DAED55C
:1002600056953EE8F0511BC63D6CD892D090D09880
:100270006C3DC61B51101000008040A0A2D4F4E8D1
:10028000F4726562C08000BC50AF5FBF3FBF39B041
:1002900036B93DBD5EAFF010100008F4FA3D3AC229
:1002A000FDFE1E1DFA44BEC280001639717274FB39
:1002B000DBDBDAED6E7733171F1010000000F20D54
:1002C00052A5369428289060800000000078C51A56
:1002D00000FD3B3BF900D3E03708000F0F80C0C0A2
:1002E0007E777EF8C0C0C08080E0F0800001013FD2
:1002F000773F0F01010100000307001010804050FC
:10030000D08040F95C5DF94080D050408000010110
:10031000216F21272C2C27216F21010100101000B3
:10032000000018A464220A02010638408000000080
:100330000000000F907F84600004FF100F00001089
:10034000100101000000000000000000000000009B
:10035000000000000000000000000000000000009D
:1003600000101000FF01FD05F5555555555454502A
:10037000F00000000F003F00FFD5D5D5FD05753515
:100380001700001010C02020107CC28109191A69C2
:1003900036889090600031494945320A08080805BE
:1003A00005091209061010F0E83D9655D6AD7E7D80
:1003B000AED556953EE8F0511BC63D6CD892D09014
:1003C000D0986C3DC61B51101000008040A0A2D4F4
:1003D000F4E8F4726562C08000BC50AF5FBF3FBFFD
:1003E00039B036B93DBD5EAFF010100008F4FA3DEB
:1003F0003AC2FDFE1E1DFA44BEC28000163971725B
:1004000074FBDBDBDAED6E7733171F101000000092
:10041000F20D52A5369428289060800000000078E4
:10042000C51A00FD3B3BF900D3E03708000F0F80F1
:10043000C0C07E777EF8C0C0C08080E0F080000140
:10044000013F773F0F0101010000030700101080FA
:100450004050D08040F95C5DF94080D05040800031
:100460000101216F21272C2C27216F210101001070
:100470001000000018A464220A020106384080001F
:1004800000000000000F907F84600004FF100F0048
:10049000001010008070086432B9D9CD4DCD4DC91F
:1004A000421CE0C0CF50A74E181DB73326272607A1
:1004B000A651CE1010040A010A10208040E0E0C0CE
:1004C000000000000000000000000307073E7DF36D
:1004D000F3BFDF6E3C0D0DFF01F96DE5BDE56DF974
:1004E00001FFAA54070C150C150C150C150C170A56
:1004F000150D0D0E1195514E2098C4840800000072
:10050000000001020000000103070E1C180D0DE79A
:10051000B0D4E201E010C82828C810E0070F1D1869
:10052000181B1C1918191C1A110D0D0E0323098113
:10053000C8E0703E9E181A000803030F0F01001058
:100540001410180E070D0D0FFFFFFFFB8BC0C0C06E
:10055000C080000012131B13131313131B13130873
:10056000040D0DAAFA04F299FD0DFD19F204FAAA80
:100570000A1F001F121F101F101F001F0A0D0D78E9
:10058000401EBF2DA92FA92DBF1E407807010C07C3
:10059000101F001F10070C01070D0DFF00808000C9
:1005A000F8F800FFFF00E0E01F10171710171710F2
:1005B00017171017170D0DFFBB1B5B1BBBBBB1B58E
:1005C000B1BBBBFF1F1B1B1B1B1B1B1115111B1BD7
:1005D0001F0D0D108888840402610C8142444890EC
:1005E0000F0606060F001B0007030303070D0DFC93
:1005F00002B1B505B5B102FC0000B0B01F000D0D91
:10060000000D0D001F020117170D0D008040208EF8
:100610001FFF1F8E204080000102040913161516CB
:1006200013090402010D0DC00060797A6C7C6C7AAC
:10063000796000C01F001F001F001F001F001F0067
:100640001F0D0DFC1E0F4F6F6F074767670F0EFCE6
:10065000070810101214141515141008070D0DAF0B
:100660000181412091482590492501AF1E101412A7
:1006700001140211001010101E0D0DFFAAFF4252AE
:100680004A52424242FFAAFF1F0A1F08080A090AEB
:1006900008081F0A1F0D0DE0A0100EE1F5F5F5E1A9
:1006A0000E10A0E00000010E10151515100E01002F
:1006B000000D0D304A48B6797979B6484A30800045
:1006C000000100010202020518060F0F070D0D1CA4
:1006D0003C78F142ECECEC42F1783C1C1C1E0F071C
:1006E000020F1F0F02070B161C0D0D0010103030EB
:1006F00037FD3730301010000306060C0C181F1899
:100700000C0C0606030D0D0301B0B81C0C000C1CEC
:10071000B8B0010318100103070600060703011013
:10072000180D0D000F11E302D341D302E3110F00A6
:1007300008080807101F181F10070808080D0D00EB
:10074000F0087C02297D69B90142BC000102041A4B
:10075000001F07071F0003180F0D0D3A79FCC1F0A9
:100760004D504DF0C1FC793A1207070F03050505FE
:10077000030F0707120D0D09BDA1D975E5FDE5F5BC
:10078000D9A1BD0912171013151615171713101735
:10079000120C0C1E6786081020408000000000002C
:1007A00000010202040408090E0E040C0C124A296E
:1007B000A595555595A5294A1200000104020A0A7B
:1007C00002040100000C0CF8663169E9B1A1E16195
:1007D0002166F8030F0A0F030202030F0A0F030C2E
:1007E0000C0609D12204080404629209070C0B08C4
:1007F00004020101020C0403010C0C0804C2E1B262
:1008000014080281228408000400010307060E0C6C
:100810000C08080C0C3FCFC7333939C6C6CC38306A
:10082000C000000103060609090C0E0F0F0C0CFF97
:100830000155015501FF00545204F80F0005000551
:10084000000F000505000F0C0C000000A0530F0F57
:1008500053A0000000000003060E0E0E0E0603005B
:10086000000C0C22A4889B1B4824A2A0A020A00559
:1008700004020409090504020405040C0C04DE50FA
:10088000FCFAFEFEFAFC50DE040103000001010147
:1008900001000003010C0CFB036461218D1D41610B
:1008A0006403FB0D0C0208080B0B0808020C0D0C6E
:1008B0000C03027F6B556BD5EB556B557F00000623
:1008C0000F0F060000060F0F060C0CE0F8FFE6E421
:1008D0003C3CE4E6FFF8E001000B070B01010B07CD
:1008E0000B00010C0C541494D4C0FF054555505412
:1008F000540504010303010405050505050C0CAAB4
:1009000010C3F43EFAFFFA3EF4C3080A00070700DA
:10091000030703000707000C0CF80432393D3DC102
:10092000C1C1C204F80102040808080B0B09040243
:10093000010C0C008044DFFFDF4440401CFC1C0124
:1009400000000F0B030E0800000F000C0CFF0155F8
:1009500055555501FF040408F00D0D010D0D01075B
:10096000010D0D01070C0C0C006D6D000C0C804C82
:100970004C202C00000B0B000C0300000000000CAE
:100980000CAA003C7E66FFFF66EECC00550A000311
:1009900007060F0F06070300050C0C01FE06FA9A66
:1009A0006A6A9AFA06FE01080706050505050505A7
:1009B0000607080C0CB8BCBE80FF80B8BE80FF8064
:1009C000800304080A080A080A080402010C0C60E3
:1009D000F0F06006EFEF0660F0F0600000080C0E2B
:1009E0000F0F0E0C0800000C0C009F90FC9A9C9AB4
:1009F000FC909F00AA0007070103070301070700F7
:100A00000A0C0C01CC9E3E7EFCF8F2E6CE9C01085E
:100A100003070706040103070703080B0B30C02E6A
:100A200011151115112EC03000050604060006042C
:100A30000605000B0B0007FFFFFFFF77777707071F
:100A400000070707070707000000000B0BC0E0F0D6
:100A5000F0F0E4C2092412090103070707030100AB
:100A60000000000B0B1C22414141221C000808F829
:100A700000000007040404040404070B0BF8FFFE45
:100A8000CCC878C8CCFEFFF80103070505050505AD
:100A90000703010B0B2030F83C3EFF3E3CF83020B2
:100AA00000000704040707070700000B0B00F40A07
:100AB00011151511110AF4000001020404040404C4
:100AC0000201000B0B0810102126F8202070507036
:100AD00000000000070507000000000B0BFF01A14C
:100AE0000FA90AFC00555555070404040404070027
:100AF0000505050B0B77770777707777077777779B
:100B000007070707000707070707070B0B0007CFB3
:100B1000E83EFEC80F0700000400050100030300C3
:100B20000400040B0BBF81A1A1212FE009090BF8E0
:100B300007040407000203000101010B0BD540006C
:100B4000FF818181818181FF070404040600040084
:100B50000400040B0B003D60FD80FD80FD603D0046
:100B600000000004050705040000000B0B1C3E7C80
:100B700070FEFFFE80FCFEFC00000000070707037C
:100B80000301000B0B008040281C987CFE5F0F07C0
:100B900007040402010000000000000B0B1F2141AC
:100BA000913972E44810A0400000000001020402E4
:100BB0000100000B0BF804525204F804525204F8DE
:100BC00007020101020702010102070B0B7CFEFF75
:100BD000C3C37FC3C3FFFE7C0000070701070107F3
:100BE0000700000B0B00EEFAEE20FE04F8002020B8
:100BF00000070107000301000000000B0B60786490
:100C0000E2627E6000FF00000207020002070200AD
:100C10000302020B0BFF01DD5D5DDDDDDDDD01FFAC
:100C200007040704040707070704070B0BF0F89CE9
:100C30000E0300FF01FD01FF01030306060401028C
:100C40000402010B0B40605048FE01FE485060401A
:100C500000000406050405060400000B0BE010FA72
:100C60006C7878786CFA10E0000000010100010156
:100C70000000000A0A007CFDFEFDFE7C0038000238
:100C80000202020202020200000A0A0080C080384A
:100C90007DEEBCEE79020301030302030100000AAA
:100CA0000A080C14FEF4E0C000E010000002030388
:100CB00003030200000A0A1C3870F8FEFBF9F9FB76
:100CC000FE000000010303030303010A0A20408021
:100CD000FCC0FFE0FFC0FC000000010303030303AE
:100CE000010A0A484472C1F24448427F42000000AF
:100CF000010303020000000A0A00FC0209BD898109
:100D000002FC00000302020202020203000A0A7847
:100D1000843231FDFD31328478000001020202028A
:100D20000100000A0A00FF555D55F735BDB5BF004B
:100D30000303030303000301000A0A060F0F3640F2
:100D4000AA92AA4438000000000000030000000A34
:100D50000A00000E1FF9F99F8E000000000000033A
:100D600003020200000A0AF1FACCCC7C7CCCCCFA5B
:100D7000F1030103010303010301030A0A78465149
:100D8000C6613E080808F8000203030101010203DE
:100D9000030A0A1018FC1EFF9F9EFC181000000397
:100DA000020303030300000A0AC1673962C4386CF6
:100DB000446C38010302030100000000000A0A002D
:100DC00000FFA9F9A9F9A9FF00000003020302032B
:100DD0000203000A0AE070B07EF2F272B67CF00004
:100DE0000103010000010301000A0A01FF45FC8222
:100DF00049458902FC000300000000000001010ACF
:100E00000A406070FC3F3FFC70604000000200033D
:100E100003000200000A0A78FCFE8F05050D1B96F0
:100E20001C000001030302020100000A0AFCB633A1
:100E300031FFFF3133B6FC0001030203030203015B
:100E4000000A0A0E1F5F9F0EC0242821C201020063
:100E5000000001020202010A0AF03CEE3BBFBF3B68
:100E6000EE3CF0000000020303020000000A0A90BA
:100E7000DEDE9E3E9ED4D4942401030301000103D0
:100E80000301000A0A0C1E3F3F9E0C4090204000C8
:100E90000000000001020001020909000F10A7CFA5
:100EA000A7100F0000000101010101000009090461
:100EB0008E5F0E44E0F4E2410100000000000100FA
:100EC0000009090C5ED3803F009FDE5C000000013A
:100ED00001010100000909004CDEDFDFF7F66400C4
:100EE0000000000101010000000909806018E6F31C
:100EF000E6186080010100000100000101090900FD
:100F0000DFB6A4B6DF6060F8010100000001010057
:100F100001090982FD82BABABA827F82000100000B
:100F20000000000100090907091EBFFFBF1E0907D5
:100F30000000010101010100000909C02070F86CE6
:100F40003E1B0E04010101000000000000090938E9
:100F5000FE13D31FD313FE3800010101010101016B
:100F6000000909CCEEA6F7B7F7A6EECC0101000107
:100F7000000100010109097CDA93333B3393DA7CE9
:100F800000000101010101000009097CF6F3F1FFF5
:100F90001F9FDE7C00000101010101000009091012
:100FA000D6D600C700D6D610000000000100000011
:100FB000000909008040201C1C1E070301000000DE
:100FC000000000000009090E1B15377AF0E0C00090
:100FD00000000000000001010109097C9E33333F3D
:100FE00033339E7C0000010101010100000909006A
:100FF000605876FD6E786000010101010101010178
:1010000001090910FE9282D78292FE1000000000B2
:1010100001000000000909C62929C610C62929C6F1
:101020000001010000000101000909C22E2ACE18AA
:10103000C82A2CC800010100000001010009093C78
:10104000C2094D414D09C23C0000010101010100EE
:101050000009091E3F7FFFFEDF6F3B1E00000000FE
:10106000010000000009097EF1F171DF71F1F17EEC
:1010700000010100010001010009094E5959899F31
:101080008959594E01010100000001010108083C85
:101090003CDBFFFFDB3C3C0808DFDFD8FFFF1BFB2E
:1010A000FB0808FF7E3C18FC5C7C1C0808060F2F20
:1010B000A6904C201808081E3360C2878ADC4808B6
:1010C000083C7EF3E1C0C460310808003872E1E1F9
:1010D0007238000808001E3BF3F33B1E000808E0CE
:1010E000C0983C3C19030708083C02B9BDBD9D40AF
:1010F0003C08083C24E78181E7243C08081E3F7F28
:10110000FEDE6F331E0808060979BEBE790906089F
:1011100008DB5A1824242424180808619689A8A8F2
:101120008996610808C3990042420099C308088162
:101130005A3C66663C5A810808C0982442422419E9
:1011400003080810189CFFFF9C181008081008E4FA
:101150003F3FE4081008083C638AA0A08A631C088B
:101160000803070E1C1820C0C0080800708DB1B11C
:101170008D7000080860C0D8DCDCD8C06008083872
:101180007CFCFD7BBC7C3807073D78607A707D383D
:101190000707081C2263221C080707080C7E7F7EB5
:1011A0000C0807071E79396F39791E07070E1F3F94
:1011B0007E3F1F0E07071F1D77535F447C07071CE8
:1011C0003E5F5F6F321C07070715270872547007D0
:1011D00007775D7722775D770707705C7603765C2B
:1011E000700707080C0E3F4E2C08070718045F1DF8
:1011F0005F041807070822004D10220807077F69BF
:10120000596959697F0707397F39383F613F0707B7
:101210006B41085D08416B07071C14774177141C6C
:101220000707775D7505755D77070773517C141F98
:101230004567070704487A1F7A480407071E785C49
:101240001C7F4F0607070036006300360007076360
:1012500063000800636307071C22554955221C07D9
:10126000071C22555155221C060610381C0D01077B
:1012700006060C123F213F0C0606041E27271E04FB
:1012800006062C3E0F0F3E2C0606071D270A1224C9
:1012900006060F09392F243C06063F002D2D003F7E
:1012A00006060002253D020006060F3C0C3F0F0615
:1012B0000606011E3A3A1E0106062B0B3807343586
:1012C00006061B0F063B19080606123300003312F0
:1012D00006063333000033330606180C2633190C88
:1012E000060602263F3F260206060324383824035A
:1012F000060621120C0C122106060C002D2D000CE6
:101300000606211E12121E2106063C220909223C55
:1013100006063F090F0F0F0F06063F0F0D0F311185
:1013200006060C122121120C06060C1E3F3F1E0C55
:1013300005051B1B041B1B05050E1B1F1D0E0505AC
:1013400003061F060305051C1516151C05050C18BC
:101350001E1E04050500121D12000505021E020EC8
:101360001205051E1E1E0A0E0505081A1F1A08057D
:1013700005150E1B0E15050512191E19120505007F
:101380001F0D1F00050504061F16040505011E0B91
:101390001E010505100E1B0E1005050E1F1B11006A
:1013A00005051E0C0F1E0605051E181D1E1C050535
:1013B000041E171E040505160D0F0D160505061D46
:1013C0001F1D0605051E071F071E05051C0E070E1F
:1013D0001C0505070F1E0F0705051F1111111F051D
:1013E000051F1F0F07030505000E060200FEFFFF85
:1013F000FFFFFFFFFFFFFFFFFFFFFFFFFFFFFFFFFD
:10140000FFFFFFFFFFFFFFFFFFFFFFFFFFFFFFFFEC
:10141000FFFFFFFFFFFFFFFFFFFFFFFFFFFFFFFFDC
:10142000FFFFFFFFFFFFFFFFFFFFFFFFFFFFFFFFCC
:10143000FFFFFFFFFFFFFFFFFFFFFFFFFFFFFFFFBC
:10144000FFFFFFFFFFFFFFFFFFFFFFFEFFFFFFFFAD
:10145000FFFFFFFFFFFFFFFFFFFFFFFFFFFFFFFF9C
:10146000FFFFFFFFFFFFFFFFFFFFFFFFFFFFFFFF8C
:10147000FFFFFFFFFFFFFFFFFFFFFFFFFFFFFFFF7C
:10148000FFFFFFFFFFFFFFFFFFFFFFFFFFFFFFFF6C
:10149000FFFFFFFFFFFFFFFFFFFFFFFFFFFFFFFF5C
:1014A000FFFFFFFFFFFFFFFFFFFFFF7FFFFFFFFFCC
:1014B000FFFFFFFFFFFFFFFFFFFFFFFFFFFFFFFF3C
:1014C000FFFFFFFFFFFFFFFFFFFFFFFFFFFFFFFF2C
:1014D000FFFFFFFFFFFFFFFFFFFFFFFFFFFFFFFF1C
:1014E000FFFFFFFFFFFFFFFFFFFFFFFFFFFFFFFF0C
:1014F000FFFFFFFFFFFFFFFFFFFFFFFFFFFFFFFFFC
:10150000FFFFFFFFFFFFFFFFFF7F5F1800FC0202EE
:1015100002020282828282020202020202020202AB
:10152000020202020202020202020202020202029B
:10153000020202020202020202828282828202020B
:10154000020202020202020202020202020202027B
:10155000020202020202020202020202828282826B
:10156000828202020202020202FC0000FF0000006E
:10157000000080FFFF8080E0007CFE92929E5C0075
:1015800064F69292FE7C803E7EC0C07E3E007CFE71
:1015900092929E5C0000007FFF808088F979006451
:1015A000F69292FE7C8002FEFE02FEFC02FEFC0031
:1015B0007CFE92929E5C00000000030300B8B80815
:1015C0000F07000000000000FF00003F40404040C7
:1015D000404040404040404040404040404040400B
:1015E00040404040404040404040404040404040FB
:1015F00040404040404040404040404040404040EB
:1016000040404040404040404040404040404040DA
:1016100040404040404040404040404040404040CA
:10162000404040404040403F00FEFFFFFFFFFFFFC3
:10163000FFFFFFFFFFFFFFFFFFFFFFFFFFFFFFFFBA
:10164000FFFFFFFFFFFFFFFFFFFFFFFFFFFFFFFFAA
:10165000FFFFFFFFFFFFFFFFFFFFFFFFFFFFFFFF9A
:10166000FFFFFFFFFFFFFFFFFFFFFFFFFFFFFFFF8A
:10167000FFFFFFFFFFFFFFFFFFFFFFFFFFFFFFFF7A
:10168000FFFFFFFFFFFFFFFFFFFFFFFEFFFFFFFF6B
:10169000FFFFFFFFFFFFFFFFFFFFFFFFFFFFFFFF5A
:1016A000FFFFFFFFFFFFFFFFFFFFFFFFFFFFFFFF4A
:1016B000FFFFFFFFFFFFFFFFFFFFFFFFFFFFFFFF3A
:1016C000FFFFFFFFFFFFFFFFFFFFFFFFFFFFFFFF2A
:1016D000FFFFFFFFFFFFFFFFFFFFFFFFFFFFFFFF1A
:1016E000FFFFFFFFFFFFFFFFFFFFFFFFFFFFFF7F8A
:1016F000FFFFFFFFFFFFFFFFFFFFFFFFFFFFFFFFFA
:10170000FFFFFFFFFFFFFFFFFFFFFFFFFFFFFFFFE9
:10171000FFFFFFFFFFFFFFFFFFFFFFFFFFFFFFFFD9
:10172000FFFFFFFFFFFFFFFFFFFFFFFFFFFFFFFFC9
:10173000FFFFFFFFFFFFFFFFFFFFFFFFFFFFFFFFB9
:10174000FFFFFFFFFFFFFFFFFFFFFFFFFFFFFFFFA9
:10175000FF7F631800FC0202028282020202828280
:101760000202020202020282828282020202828259
:101770008282020202020202828282820202020249
:101780000202020202020202020202020202020239
:101790000202020202028282020202028282020229
:1017A0000202F20A0A0A0A0A0A0A0A0A0A0A0A0AC1
:1017B0000A0A0AF202FC0000FF0000001FFFE01C02
:1017C000E0FF1F007CFE92929E1C8080FFFF8080C5
:1017D000008080FFFF808000000000FFFF80C17F4D
:1017E0003E007CFE8282FE7C00FEFE0202FEFC00C9
:1017F0007CFE92929E1C000007DFDF07000007DFDF
:10180000DF07000000FF00000000000000000000F3
:10181000000000000000FF00FF00003F404040408B
:1018200040404040404040404040404040404040B8
:1018300040404040404040404040404040404040A8
:101840004040404040404040404040404040404098
:101850004040404040404040404040404040404088
:1018600040404040404040404F50505050505050F9
:101870005050505050505050504F403F00D813D10E
:1018800013CA13C313BC13B513AE13A713A0139934
:101890001392138B1384137D1376136F13681361E4
:1018A000135A1353134C1345133E13371330132895
:1018B0001320131813101308130013F812F012E872
:1018C00012E012D812D012C812C012B812B012A868
:1018D00012A0129812901288128012781270126858
:1018E000125F1256124D1244123B1232122912206C
:1018F0001217120E120512FC11F311EA11E111D8A0
:1019000011CF11C611BD11B411AB11A211991190D3
:101910001187117D11731169115F1155114B11411F
:101920001137112D11231119110F110511FB10F190
:1019300010E710DD10D310C910BF10B510AB10A107
:101940001097108D107910651051103D1029101549
:10195000100110ED0FD90FC50FB10F9D0F890F7535
:101960000F610F4D0F390F250F110FFD0EE90ED529
:101970000EC10EAD0E990E830E6D0E570E410E2B3D
:101980000E150EFF0DE90DD30DBD0DA70D910D7BAD
:101990000D650D4F0D390D230D0D0DF70CE10CCB21
:1019A0000CB50C9F0C890C730C5B0C430C2B0C13AB
:1019B0000CFB0BE30BCB0BB30B9B0B830B6B0B5396
:1019C0000B3B0B230B0B0BF30ADB0AC30AAB0A938B
:1019D0000A7B0A630A4B0A330A1B0A010AE709CD8C
:1019E00009B30999097F0965094B0931091709FDEF
:1019F00008E308C908AF0895087B08610847082D67
:101A0000081308F907DF07C507AB079107750759E2
:101A1000073D0721070507E906CD06B106950679BA
:101A2000065D06410625060906ED05D105B50599B1
:101A3000057D056105450529050D05F104D5045B06
:101A40000C430C2B0C130CFB0BE30BCB0BB30B9BC2
:101A50000B830B6B0B530B3B0B230B0B0BF30ADBB7
:101A60000AC30AAB0A930A7B0A630A4B0A330A1BAE
:101A70000A5B0C430C2B0C130CFB0BE30BCB0BB3D3
:101A80000B9B0B830B6B0B530B3B0B230B0B0BF3C6
:101A90000ADB0AC30AAB0A930A7B0A630A4B0A33BE
:101AA0000A1B0AB30491046F044D042D040B04E9CE
:101AB00003C703A503830361033F031D03FB02DB8D
:101AC00002B90297027502530231020F02ED01CBF7
:101AD00001A901870105050A150A150A0703010373
:101AE0000703050201070304060706050204141094
:101AF000000000000000C0E030303030E0C00000E6
:101B0000000000000000000000000000006C6E07F4
:101B100003010000000000001616FF010101010191
:101B200001010101010101010101010101FFAA54AB
:101B3000FF000000000000000000000000000000A6
:101B4000000000FFAA550F18281828182818281870
:101B50002818281828182818281F2A15801080806F
:101B60008080808080808080800080008040A0A075
:101B7000A0A0A0A0A0A0A0A0A0A0A0A0A0A0A0A065
:101B8000A0A0A0A0A0A0A0A0A0A0A0A0A0A0A0A055
:101B9000A0A0A0A0A0A0A0A0A0A0A0A0A0A0A0A045
:101BA000A0A0A0A0A0A0A0A0A0A0A0A0A0A0A0A035
:101BB000A0A0A0A0A0A0A0A0A0A0A0A0A0A0A0A025
:101BC000A0A0A0A0A0A0A0A0A0A0A0A0A0A0A04075
:101BD0008000800080808080808080808080FFFF07
:101BE000FFFFFFFFFFFFFF7FAA5500FF00FFFFB9C8
:101BF000B0B286C6FF8080B6B6BEBEFF8080BFBFD3
:101C0000BFBFFF8080B6B6BEBEFFC180BEBEBEDD18
:101C1000FFFEFE8080FEFEE7E7FFFF9FE3ECE08330
:101C20008FFFFFE7E7FFFF8080F6F0F9FFC080BF7E
:101C3000BFBFC0FF9E86A2B0BCFF9E86A2B0BCFF05
:101C40008080BFBFBFBFFF8080B6B6BEBEFFFFFFB4
:101C500000FF0055AA7FFFFFFFFFFFFFFFFF80107F
:101C6000FFFFFFFFFFFFFF00FF00003E0A0E003CEA
:101C7000203C0034242C0034242C00023E000018A8
:101C80003428002824140000000000000000000098
:101C90000000000000000000000000000000000044
:101CA0000000000000000000000000000000000034
:101CB000000000FF00000000000000000000000025
:101CC00000000000000000000000221008042200B4
:101CD00000000000000000FF00FFFFFFFFFFFFFF0C
:101CE0002F2F2F2F2F2F2F2F2E2D2D2D2D2D2D2D13
:101CF0002D2D2D2D2D2D2D2D2D2D2D2D2D2D2D2D14
:101D00002D2D2D2D2D2D2D2D2D2D2D2D2D2D2D2D03
:101D10002D2D2D2D2D2D2D2D2D2D2D2D2D2D2D2DF3
:101D20002D2D2D2D2D2D2D2D2D2D2D2D2D2D2D2DE3
:101D30002D2D2D2C2D2D2D2D2D2D2D2D2D2D2D2DD4
:101D40002D2D2D2D2D2D2D2D2D2D2D2D2D2D2D2DC3
:101D50002D2D2D2D2D2D2D2E2F2F2F2F2F2F2F2FA2
:101D600021080F0F08080006090B06000E03030EDA
:101D7000000F090F06000F0F000F02030F000E0FD8
:101D8000090D000E10BEBDBEBDBEBDBEBDBEBDBEFA
:101D9000BDBE0000040004000400040004000400B0
:101DA000004E080F0D0702000F050F0A000F0D0966
:101DB00000020B0D00020B0D00000000000F0D07CC
:101DC00002000F0F0808000E03030E00030E0E039F
:101DD00000000006090B06000F02030F00000000C0
:101DE000010F0F010E03030E000F0D0702000F0D70
:101DF000090E10A7C7A7C7A7C7A7C7A7C7A7C7A781
:101E00000007070707070707070707070707002453
:101E1000080E1F1F1F0E0000000000000000000041
:101E2000001F0E04000000000000000000040E1F50
:101E300000040E1F00804000000000000000F800B9
:101E4000000000000000000000F80000000000009A
:101E500000000000F800000000000000000000F892
:101E600000000000000000000000F800000000007A
:101E70000000000000F8000000000000000000006A
:101E80000000000000000000000000000000000052
:101E90000000000000000000000000000000000042
:101EA0000000000000000000000000000000000032
:101EB0000000000000000000000051010501FF01CA
:101EC000050115015101010101FF01050115015530
:101ED00001050101FF01150145011501150101FF72
:101EE00001050115015101010101FF010501150164
:101EF0005501050101FF0100014500150100010127
:101F000000000100010100010101000101000101C7
:101F100000000001000100010101010000000000BB
:101F200000000000000000000000000000000000B1
:101F300000000000000000000000090808080F0869
:101F40000809080809080808080F08090808080906
:101F5000080908080F080908090809080808080FEF
:101F6000080809080809080808080F0809080808E7
:101F700009080908080F08000809000908000808EE
:101F80000000080008080008080800080800080801
:101F90000000000800080008080808000000000011
:101FA0000000000000000000000000000000000031
:101FB0000000000000000000000000000000000021
:101FC00000000000000000FEFEFEFECE8686CEFE73
:101FD000FE787800009CBEBEBEBE9C000000F8F8F3
:101FE000FEFE060606061E1E18180000F0F0F0F0B1
:101FF00060606060E0E0808000008080E0E0606021
:102000006060E0E0808000008080E0E06060606010
:102010006060606000008080E0E060606060606040
:1020200060600000000000000000000000000000F0
:1020300000000000000000000000000000000000A0
:10204000000000000000007F7F7F7F01010101018F
:102050000100000000617F7F7F7F7F6000001F1F05
:102060007F7F606060607878181800007F7F7F7FD6
:10207000000000000101010100001F1F7F7F606060
:1020800060607F7F1F1F000061616767666666662C
:102090007E7E1818000061616767666666667E7EF0
:1020A0001818000000703010000000000000000050
:1020B0000000000000000000000000000000000020
:1020C0000000000000000000000000000000000010
:1020D0000000101010101000100010000000101070
:1020E0000010100010101000101000100000101050
:1020F0000010900090100010F01010901090101030
:10210000109010F010101010901010901010F0108F
:10211000101010901090109010F01010901090105F
:1021200010109010F010101010901010901010F06F
:1021300010101090000000000000000000000000DF
:10214000000000000000000000000000000000008F
:10215000000000808080800080008000000080807F
:10216000008080008080800080800080000080806F
:102170000080A800A2800080FF8080A080AA80A8A4
:1021800080A080FF808080808A80A880A080FF80DF
:1021900080A880A880A280A880FF8080A080AA80DC
:1021A000A880A080FF808080808A80A880A080FF97
:1021B00080A0808A000000000000000000000000F5
:1021C000000000000000000000000000000000000F
:1021D00000000000000000000000000000000000FF
:1021E00000000000000000000000000000000000EF
:1021F00000000000000000001F00000000000000C0
:102200000000001F000000000000000000001F0090
:102210000000000000000000001F0000000000009F
:10222000000000001F000000000000000000001F70
:10223000000000000000001010010100000000007C
:10224000000000000000000000000000000000008E
:10225000000000000000000000101001010000005C
:10226000000000000000000000000000000000006E
:10227000000000000000000000000010100101003C
:10228000000000000000000000000000000000004E
:10229000000000000000000000000000001010011D
:1022A000010000000000000000000000000000002D
:1022B000000000000000000000000000000000100E
:1022C0001000FF01FD05F555555555545450F000CB
:1022D00000000F003F00FFD5D5D5FD05753517006F
:1022E000001010C02020107CC28109191A6936889C
:1022F0009090600031494945320A080808050509EF
:102300001209061010F0E83D9655D6AD7E7DAED58B
:1023100056953EE8F0511BC63D6CD892D090D098AF
:102320006C3DC61B51101000008040A0A2D4F4E800
:10233000F4726562C08000BC50AF5FBF3FBF39B070
:1023400036B93DBD5EAFF010100008F4FA3D3AC258
:10235000FDFE1E1DFA44BEC280001639717274FB68
:10236000DBDBDAED6E7733171F1010000000F20D83
:1023700052A5369428289060800000000078C51A85
:1023800000FD3B3BF900D3E03708000F0F80C0C0D1
:102390007E777EF8C0C0C08080E0F0800001013F01
:1023A000773F0F010101000003070010108040502B
:1023B000D08040F95C5DF94080D050408000010140
:1023C000216F21272C2C27216F21010100101000E3
:1023D000000018A464220A020106384080000000B0
:1023E0000000000F907F84600004FF100F000010B9
:1023F00010010100000000000000000000000000CB
:1024000000000000000000000000000000000000CC
:1024100000101000FF01FD05F55555555554545059
:10242000F00000000F003F00FFD5D5D5FD05753544
:102430001700001010C02020107CC28109191A69F1
:1024400036889090600031494945320A08080805ED
:1024500005091209061010F0E83D9655D6AD7E7DAF
:10246000AED556953EE8F0511BC63D6CD892D09043
:10247000D0986C3DC61B51101000008040A0A2D423
:10248000F4E8F4726562C08000BC50AF5FBF3FBF2C
:1024900039B036B93DBD5EAFF010100008F4FA3D1A
:1024A0003AC2FDFE1E1DFA44BEC28000163971728A
:1024B00074FBDBDBDAED6E7733171F1010000000C2
:1024C000F20D52A536942828906080000000007814
:1024D000C51A00FD3B3BF900D3E03708000F0F8021
:1024E000C0C07E777EF8C0C0C08080E0F080000170
:1024F000013F773F0F01010100000307001010802A
:102500004050D08040F95C5DF94080D05040800060
:102510000101216F21272C2C27216F21010100109F
:102520001000000018A464220A020106384080004E
:1025300000000000000F907F84600004FF100F0077
:10254000001010008070086432B9D9CD4DCD4DC94E
:10255000421CE0C0CF50A74E181DB73326272607D0
:10256000A651CE1010040A010A10208040E0E0C0FD
:10257000000000000000000000000307073E7DF39C
:10258000F3BFDF6E3C0D0DFF01F96DE5BDE56DF9A3
:1025900001FFAA54070C150C150C150C150C170A85
:1025A000150D0D0E1195514E2098C48408000000A1
:1025B000000001020000000103070E1C180D0DE7CA
:1025C000B0D4E201E010C82828C810E0070F1D1899
:1025D000181B1C1918191C1A110D0D0E0323098143
:1025E000C8E0703E9E181A000803030F0F01001088
:1025F0001410180E070D0D0FFFFFFFFB8BC0C0C09E
:10260000C080000012131B13131313131B131308A2
:10261000040D0DAAFA04F299FD0DFD19F204FAAAAF
:102620000A1F001F121F101F101F001F0A0D0D7818
:10263000401EBF2DA92FA92DBF1E407807010C07F2
:10264000101F001F10070C01070D0DFF00808000F8
:10265000F8F800FFFF00E0E01F1017171017171021
:1026600017171017170D0DFFBB1B5B1BBBBBB1B5BD
:10267000B1BBBBFF1F1B1B1B1B1B1B1115111B1B06
:102680001F0D0D108888840402610C81424448901B
:102690000F0606060F001B0007030303070D0DFCC2
:1026A00002B1B505B5B102FC0000B0B01F000D0DC0
:1026B000000D0D001F020117170D0D008040208E28
:1026C0001FFF1F8E204080000102040913161516FB
:1026D00013090402010D0DC00060797A6C7C6C7ADC
:1026E000796000C01F001F001F001F001F001F0097
:1026F0001F0D0DFC1E0F4F6F6F074767670F0EFC16
:10270000070810101214141515141008070D0DAF3A
:102710000181412091482590492501AF1E101412D6
:1027200001140211001010101E0D0DFFAAFF4252DD
:102730004A52424242FFAAFF1F0A1F08080A090A1A
:1027400008081F0A1F0D0DE0A0100EE1F5F5F5E1D8
:102750000E10A0E00000010E10151515100E01005E
:10276000000D0D304A48B6797979B6484A30800074
:10277000000100010202020518060F0F070D0D1CD3
:102780003C78F142ECECEC42F1783C1C1C1E0F074B
:10279000020F1F0F02070B161C0D0D00101030301A
:1027A00037FD3730301010000306060C0C181F18C8
:1027B0000C0C0606030D0D0301B0B81C0C000C1C1C
:1027C000B8B0010318100103070600060703011043
:1027D000180D0D000F11E302D341D302E3110F00D6
:1027E00008080807101F181F10070808080D0D001B
:1027F000F0087C02297D69B90142BC000102041A7B
:10280000001F07071F0003180F0D0D3A79FCC1F0D8
:102810004D504DF0C1FC793A1207070F030505052D
:10282000030F0707120D0D09BDA1D975E5FDE5F5EB
:10283000D9A1BD0912171013151615171713101764
:10284000120C0C1E6786081020408000000000005B
:1028500000010202040408090E0E040C0C124A299D
:10286000A595555595A5294A1200000104020A0AAA
:1028700002040100000C0CF8663169E9B1A1E161C4
:102880002166F8030F0A0F030202030F0A0F030C5D
:102890000C0609D12204080404629209070C0B08F3
:1028A00004020101020C0403010C0C0804C2E1B291
:1028B00014080281228408000400010307060E0C9C
:1028C0000C08080C0C3FCFC7333939C6C6CC38309A
:1028D000C000000103060609090C0E0F0F0C0CFFC7
:1028E0000155015501FF00545204F80F0005000581
:1028F000000F000505000F0C0C000000A0530F0F87
:1029000053A0000000000003060E0E0E0E0603008A
:10291000000C0C22A4889B1B4824A2A0A020A00588
:1029200004020409090504020405040C0C04DE5029
:10293000FCFAFEFEFAFC50DE040103000001010176
:1029400001000003010C0CFB036461218D1D41613A
:102950006403FB0D0C0208080B0B0808020C0D0C9D
:102960000C03027F6B556BD5EB556B557F00000652
:102970000F0F060000060F0F060C0CE0F8FFE6E450
:102980003C3CE4E6FFF8E001000B070B01010B07FC
:102990000B00010C0C541494D4C0FF054555505441
:1029A000540504010303010405050505050C0CAAE3
:1029B00010C3F43EFAFFFA3EF4C3080A000707000A
:1029C000030703000707000C0CF80432393D3DC132
:1029D000C1C1C204F80102040808080B0B09040273
:1029E000010C0C008044DFFFDF4440401CFC1C0154
:1029F00000000F0B030E0800000F000C0CFF015528
:102A000055555501FF040408F00D0D010D0D01078A
:102A1000010D0D01070C0C0C006D6D000C0C804CB1
:102A20004C202C00000B0B000C0300000000000CDD
:102A30000CAA003C7E66FFFF66EECC00550A000340
:102A400007060F0F06070300050C0C01FE06FA9A95
:102A50006A6A9AFA06FE01080706050505050505D6
:102A60000607080C0CB8BCBE80FF80B8BE80FF8093
:102A7000800304080A080A080A080402010C0C6012
:102A8000F0F06006EFEF0660F0F0600000080C0E5A
:102A90000F0F0E0C0800000C0C009F90FC9A9C9AE3
:102AA000FC909F00AA000707010307030107070026
:102AB0000A0C0C01CC9E3E7EFCF8F2E6CE9C01088E
:102AC00003070706040103070703080B0B30C02E9A
:102AD00011151115112EC03000050604060006045C
:102AE0000605000B0B0007FFFFFFFF77777707074F
:102AF00000070707070707000000000B0BC0E0F006
:102B0000F0F0E4C2092412090103070707030100DA
:102B10000000000B0B1C22414141221C000808F858
:102B200000000007040404040404070B0BF8FFFE74
:102B3000CCC878C8CCFEFFF80103070505050505DC
:102B40000703010B0B2030F83C3EFF3E3CF83020E1
:102B500000000704040707070700000B0B00F40A36
:102B600011151511110AF4000001020404040404F3
:102B70000201000B0B0810102126F8202070507065
:102B800000000000070507000000000B0BFF01A17B
:102B90000FA90AFC00555555070404040404070056
:102BA0000505050B0B7777077770777707777777CA
:102BB00007070707000707070707070B0B0007CFE3
:102BC000E83EFEC80F0700000400050100030300F3
:102BD0000400040B0BBF81A1A1212FE009090BF810
:102BE00007040407000203000101010B0BD540009C
:102BF000FF818181818181FF0704040406000400B4
:102C00000400040B0B003D60FD80FD80FD603D0075
:102C100000000004050705040000000B0B1C3E7CAF
:102C200070FEFFFE80FCFEFC0000000007070703AB
:102C30000301000B0B008040281C987CFE5F0F07EF
:102C400007040402010000000000000B0B1F2141DB
:102C5000913972E44810A040000000000102040213
:102C60000100000B0BF804525204F804525204F80D
:102C700007020101020702010102070B0B7CFEFFA4
:102C8000C3C37FC3C3FFFE7C000007070107010722
:102C90000700000B0B00EEFAEE20FE04F8002020E7
:102CA00000070107000301000000000B0B607864BF
:102CB000E2627E6000FF00000207020002070200DD
:102CC0000302020B0BFF01DD5D5DDDDDDDDD01FFDC
:102CD00007040704040707070704070B0BF0F89C19
:102CE0000E0300FF01FD01FF0103030606040102BC
:102CF0000402010B0B40605048FE01FE485060404A
:102D000000000406050405060400000B0BE010FAA1
:102D10006C7878786CFA10E0000000010100010185
:102D20000000000A0A007CFDFEFDFE7C0038000267
:102D30000202020202020200000A0A0080C0803879
:102D40007DEEBCEE79020301030302030100000AD9
:102D50000A080C14FEF4E0C000E0100000020303B7
:102D600003030200000A0A1C3870F8FEFBF9F9FBA5
:102D7000FE000000010303030303010A0A20408050
:102D8000FCC0FFE0FFC0FC000000010303030303DD
:102D9000010A0A484472C1F24448427F42000000DE
:102DA000010303020000000A0A00FC0209BD898138
:102DB00002FC00000302020202020203000A0A7877
:102DC000843231FDFD3132847800000102020202BA
:102DD0000100000A0A00FF555D55F735BDB5BF007B
:102DE0000303030303000301000A0A060F0F364022
:102DF000AA92AA4438000000000000030000000A64
:102E00000A00000E1FF9F99F8E0000000000000369
:102E100003020200000A0AF1FACCCC7C7CCCCCFA8A
:102E2000F1030103010303010301030A0A78465178
:102E3000C6613E080808F80002030301010102030D
:102E4000030A0A1018FC1EFF9F9EFC1810000003C6
:102E5000020303030300000A0AC1673962C4386C25
:102E6000446C38010302030100000000000A0A005C
:102E700000FFA9F9A9F9A9FF00000003020302035A
:102E80000203000A0AE070B07EF2F272B67CF00033
:102E90000103010000010301000A0A01FF45FC8251
:102EA00049458902FC000300000000000001010AFE
:102EB0000A406070FC3F3FFC70604000000200036D
:102EC00003000200000A0A78FCFE8F05050D1B9620
:102ED0001C000001030302020100000A0AFCB633D1
:102EE00031FFFF3133B6FC0001030203030203018B
:102EF000000A0A0E1F5F9F0EC0242821C201020093
:102F0000000001020202010A0AF03CEE3BBFBF3B97
:102F1000EE3CF0000000020303020000000A0A90E9
:102F2000DEDE9E3E9ED4D4942401030301000103FF
:102F30000301000A0A0C1E3F3F9E0C4090204000F7
:102F40000000000001020001020909000F10A7CFD4
:102F5000A7100F0000000101010101000009090490
:102F60008E5F0E44E0F4E241010000000000010029
:102F70000009090C5ED3803F009FDE5C0000000169
:102F800001010100000909004CDEDFDFF7F66400F3
:102F90000000000101010000000909806018E6F34B
:102FA000E61860800101000001000001010909002C
:102FB000DFB6A4B6DF6060F8010100000001010087
:102FC00001090982FD82BABABA827F82000100003B
:102FD0000000000100090907091EBFFFBF1E090705
:102FE0000000010101010100000909C02070F86C16
:102FF0003E1B0E0401010100000000000009093819
:10300000FE13D31FD313FE3800010101010101019A
:10301000000909CCEEA6F7B7F7A6EECC0101000136
:10302000000100010109097CDA93333B3393DA7C18
:1030300000000101010101000009097CF6F3F1FF24
:103040001F9FDE7C00000101010101000009091041
:10305000D6D600C700D6D610000000000100000040
:10306000000909008040201C1C1E0703010000000D
:10307000000000000009090E1B15377AF0E0C000BF
:1030800000000000000001010109097C9E33333F6C
:1030900033339E7C00000101010101000009090099
:1030A000605876FD6E7860000101010101010101A7
:1030B00001090910FE9282D78292FE1000000000E2
:1030C00001000000000909C62929C610C62929C621
:1030D0000001010000000101000909C22E2ACE18DA
:1030E000C82A2CC800010100000001010009093CA8
:1030F000C2094D414D09C23C00000101010101001E
:103100000009091E3F7FFFFEDF6F3B1E000000002D
:10311000010000000009097EF1F171DF71F1F17E1B
:1031200000010100010001010009094E5959899F60
:103130008959594E01010100000001010108083CB4
:103140003CDBFFFFDB3C3C0808DFDFD8FFFF1BFB5D
:10315000FB0808FF7E3C18FC5C7C1C0808060F2F4F
:10316000A6904C201808081E3360C2878ADC4808E5
:10317000083C7EF3E1C0C460310808003872E1E128
:103180007238000808001E3BF3F33B1E000808E0FD
:10319000C0983C3C19030708083C02B9BDBD9D40DE
:1031A0003C08083C24E78181E7243C08081E3F7F57
:1031B000FEDE6F331E0808060979BEBE79090608CF
:1031C00008DB5A1824242424180808619689A8A822
:1031D0008996610808C3990042420099C308088192
:1031E0005A3C66663C5A810808C098244242241919
:1031F00003080810189CFFFF9C181008081008E42A
:103200003F3FE4081008083C638AA0A08A631C08BA
:103210000803070E1C1820C0C0080800708DB1B14B
:103220008D7000080860C0D8DCDCD8C060080838A1
:103230007CFCFD7BBC7C3807073D78607A707D386C
:103240000707081C2263221C080707080C7E7F7EE4
:103250000C0807071E79396F39791E07070E1F3FC3
:103260007E3F1F0E07071F1D77535F447C07071C17
:103270003E5F5F6F321C07070715270872547007FF
:1032800007775D7722775D770707705C7603765C5A
:10329000700707080C0E3F4E2C08070718045F1D27
:1032A0005F041807070822004D10220807077F69EE
:1032B000596959697F0707397F39383F613F0707E7
:1032C0006B41085D08416B07071C14774177141C9C
:1032D0000707775D7505755D77070773517C141FC8
:1032E0004567070704487A1F7A480407071E785C79
:1032F0001C7F4F0607070036006300360007076390
:1033000063000800636307071C22554955221C0708
:10331000071C22555155221C060610381C0D0107AA
:1033200006060C123F213F0C0606041E27271E042A
:1033300006062C3E0F0F3E2C0606071D270A1224F8
:1033400006060F09392F243C06063F002D2D003FAD
:1033500006060002253D020006060F3C0C3F0F0644
:103360000606011E3A3A1E0106062B0B38073435B5
:1033700006061B0F063B190806061233000033121F
:1033800006063333000033330606180C2633190CB7
:10339000060602263F3F2602060603243838240389
:1033A000060621120C0C122106060C002D2D000C15
:1033B0000606211E12121E2106063C220909223C85
:1033C00006063F090F0F0F0F06063F0F0D0F3111B5
:1033D00006060C122121120C06060C1E3F3F1E0C85
:1033E00005051B1B041B1B05050E1B1F1D0E0505DC
:1033F00003061F060305051C1516151C05050C18EC
:103400001E1E04050500121D12000505021E020EF7
:103410001205051E1E1E0A0E0505081A1F1A0805AC
:1034200005150E1B0E15050512191E1912050500AE
:103430001F0D1F00050504061F16040505011E0BC0
:103440001E010505100E1B0E1005050E1F1B110099
:1034500005051E0C0F1E0605051E181D1E1C050564
:10346000041E171E040505160D0F0D160505061D75
:103470001F1D0605051E071F071E05051C0E070E4E
:103480001C0505070F1E0F0705051F1111111F88C9
:103490003481347A3473346C3465345E3457345048
:1034A00034493442343B3434342D3426341F3418F8
:1034B0003411340A340334FC33F533EE33E733E0AC
:1034C00033D833D033C833C033B833B033A833A084
:1034D0003398339033883380337833703368336074
:1034E0003358335033483340333833303328332064
:1034F0003318330F330633FD32F432EB32E232D974
:1035000032D032C732BE32B532AC32A3329A3291A7
:103510003288327F3276326D3264325B32523249D7
:1035200032403237322D32233219320F320532FB1C
:1035300031F131E731DD31D331C931BF31B531AB93
:1035400031A13197318D31833179316F3165315B03
:1035500031513147313D31293115310131ED30D90A
:1035600030C530B1309D308930753061304D3039E3
:103570003025301130FD2FE92FD52FC12FAD2F99D8
:103580002F852F712F5D2F492F332F1D2F072FF1DF
:103590002EDB2EC52EAF2E992E832E6D2E572E414B
:1035A0002E2B2E152EFF2DE92DD32DBD2DA72D91C0
:1035B0002D7B2D652D4F2D392D232D0B2DF32CDB40
:1035C0002CC32CAB2C932C7B2C632C4B2C332C1B23
:1035D0002C032CEB2BD32BBB2BA32B8B2B732B5B19
:1035E0002B432B2B2B132BFB2AE32ACB2AB12A9715
:1035F0002A7D2A632A492A2F2A152AFB29E129C76D
:1036000029AD29932979295F2945292B291129F7E2
:1036100028DD28C328A9288F2875285B284128255C
:10362000280928ED27D127B52799277D2761274528
:103630002729270D27F126D526B9269D268126651F
:103640002649262D261126F525D925BD25A1258516
:10365000250B2DF32CDB2CC32CAB2C932C7B2C6358
:103660002C4B2C332C1B2C032CEB2BD32BBB2BA345
:103670002B8B2B732B5B2B432B2B2B132BFB2AE33B
:103680002ACB2A0B2DF32CDB2CC32CAB2C932C7BBD
:103690002C632C4B2C332C1B2C032CEB2BD32BBB54
:1036A0002BA32B8B2B732B5B2B432B2B2B132BFB4A
:1036B0002AE32ACB2A632541251F25FD24DD24BBCF
:1036C0002499247724552433241124EF23CD23ABCC
:1036D000238B236923472325230323E122BF229D34
:1036E000227B225922372200A12C11241FBECFEFAA
:1036F000DAE0DEBFCDBF11E0A0E0B1E0E2E2F6E645
:1037000002C005900D92A03DB107D9F727E0A0EDCA
:10371000B1E001C01D92A032B207E1F71BE1C5E79D
:10372000DBE104C02197FE010E940D31C437D107AF
:10373000C9F70E94022D0C940F330C940000DC0199
:10374000FB01918590952085922393FF0CC01496E0
:103750008C911497811102C083E0808B14968C9118
:10376000813009F4808B089522E0FC0124830895C0
:10377000089580E090E008950895089508950895CB
:1037800008950895089508950C94AB310C94AB31CD
:103790000C94AB310C94AB310C94AB310C94AB3139
:1037A0000C94AB31CF93DF9361E070E080E090E068
:1037B0000E943432EC01009721F06AEC71E00E9423
:1037C0000833CE01DF91CF910C94AB31CF92EF92C1
:1037D0000F931F93CF93DF93FC016A3039F48581F7
:1037E000848396818185890F86839DC0A4816E37ED
:1037F00019F4AF5FA48397C0962FEF0166816F5FC6
:103800009A3380F4903310F59B3219F118F4913209
:1038100021F156C09D3209F459C09E3209F050C0C2
:103820001FE31CC09B3548F4913470F49A3399F02F
:103830009F3309F045C012E411C08FE9890F8A3126
:1038400008F03EC019EB03C01FEB01C014E0190FD4
:1038500005C011E403C013E401C01EE38F81062EEE
:10386000000C770B0A2E000CBB0B8130A1F5E9EBA5
:10387000F0E00491EAEBF0E0E490112349F121E05B
:1038800030E08E2D877011F420E030E08E2D86958B
:1038900086958695280F311D029FF001039FF00D3C
:1038A00011249F011203A001139F500D11244554B0
:1038B0005F4F9AEFC92E20E030E0CD010E94742BBB
:1038C00088858D5F9C81890F8C832DC010E4C6CFC5
:1038D0004BEB50E0EECFE9EBF0E00491EAEBF0E0E7
:1038E000E4901123D9F021E030E08E2D877011F49F
:1038F00020E030E08E2D869586958695280F311D27
:10390000029FF001039FF00D11249F011203A001FB
:10391000139F500D112445545F4F02C04BEB50E0F4
:103920008BEFC82EC8CF81E090E0DF91CF911F913F
:103930000F91EF90CF9008952F923F924F925F9208
:103940006F927F928F929F92AF92BF92CF92DF92AF
:10395000EF92FF920F931F93CF93DF93CDB7DEB714
:103960002C970FB6F894DEBF0FBECDBF8C018AE94D
:1039700090E00E940F30582E8BE990E00E940F30AB
:103980008C87680182E0C80ED11C652C712CE12C5B
:10399000F12C412CFE0131965F01CE0109969A87E8
:1039A00089879C8549120EC00E571F4FE12CF12CC0
:1039B00088E0282EFE0131966F01CE0109969A8784
:1039C00089875FC0F50188E011928A95E9F7470180
:1039D0009EE9890E911C312C212CEFEFEB873514D9
:1039E00069F0C4010E940F308F70281651F08130A9
:1039F000B9F4FB85FF5FFB87F83031F4F501D601A0
:103A000015C081E028120DC0F5019B85E90FF11D5D
:103A100097FDFA9580818F5F80832224239401C0D3
:103A2000282E3394EFEF8E1A9E0AD9CF81918D9371
:103A300089859A85E817F907C9F7439498E0C90E74
:103A4000D11CE60CF71CADCFC5010E940F308F7062
:103A5000881227C081E0881651F13394A60CB71C58
:103A6000EC853E12F1CFF601D80181918D938985C5
:103A70009A85E817F907C9F79FEFE91AF90A085F6D
:103A80001F4FE51408F5F601822D11928A95E9F78A
:103A900057019EE9A90EB11C312C812C99249A94CE
:103AA000DFCF813079F49394F8E09F16E1F2F601CC
:103AB000E90DF11D97FCFA9580818F5F8083882442
:103AC0008394CBCF882EC9CF2C960FB6F894DEBF47
:103AD0000FBECDBFDF91CF911F910F91FF90EF905F
:103AE000DF90CF90BF90AF909F908F907F906F901E
:103AF0005F904F903F902F900895AF92BF92CF92DA
:103B0000DF92EF92FF920F931F93CF93DF93EC011D
:103B10006B01FB01008511851095102315FF11C065
:103B20008C85882371F081508C8713FD0AC003FFB8
:103B300008C0FE01E95EFE4F6081CE010C960E9436
:103B4000D22816FF1AC0FC848AE990E00E940F3048
:103B50002F2D30E090E001972817390774F4F39483
:103B6000FC8613FD0AC003FF08C0FE01E95EFE4F9C
:103B70006081CE010C960E94D22817FF11C08D855E
:103B8000882371F081508D8713FD0AC003FF08C0A0
:103B9000FE01E95EFE4F6081CE010C960E94D228A4
:103BA00014FF1AC0FD848AE990E00E940F302F2D87
:103BB00030E090E001972817390774F4F394FD86FC
:103BC00013FD0AC003FF08C0FE01E95EFE4F6081DD
:103BD000CE010C960E94D228FE01EE5EFE4F80813F
:103BE0009E012A5E3E4F5901811157C0F901808123
:103BF000803408F05FC07E01FCE0EF0EF11C8C8584
:103C0000FE01EF5EFE4F908128E0829F900D11240F
:103C10002D853197808138E0239F800D11243496C3
:103C2000973718F09757908301C01082FE01EB5E22
:103C3000FE4F873318F08753808301C0108213FF33
:103C400018C0C7010E94F828813061F010F082305E
:103C500081F461E0C7010E94D228C95EDE4F81E095
:103C6000888307C060E0C7010E94D228C95EDE4F8A
:103C7000188202FF06C0F5018081803410F48F5F46
:103C8000808312FF02C0F5011082F601818582FF58
:103C900036C0808582FD33C01BC0CD5EDE4F88817B
:103CA000803418F48F5F888305C013FF03C082E05F
:103CB000F601808BF5018081803408F113FF03C089
:103CC00082E0F601808B12FF1AC0F501108217C046
:103CD000C7010E94F828823010F462E003C08230ED
:103CE00071F460E0C701DF91CF911F910F91FF90B8
:103CF000EF90DF90CF90BF90AF900C94D228DF91DF
:103D0000CF911F910F91FF90EF90DF90CF90BF90D8
:103D1000AF9008952F923F924F925F926F927F9251
:103D20008F929F92AF92BF92CF92DF92EF92FF92CB
:103D30000F931F93CF93DF93CDB7DEB7C556D1094D
:103D40000FB6F894DEBF0FBECDBF2C0185E5E4E7CA
:103D5000F1E0DE01119601900D928A95E1F7DB0109
:103D600016960D90BC91A02DA696BFAFAEAFA697AC
:103D70008AE990E00E940F30382EA82EAA0CAA0CD7
:103D8000A80E90E0019625E0289F6001299FD00CA5
:103D90001124B32CBB0CBB0CBB0CE12CF12CF2019D
:103DA000E05FFE4F6A96FFAFEEAF6A9792012B5E1F
:103DB0003E4F68963FAF2EAF6897C2018F5E9E4F11
:103DC0006C969FAF8EAF6C97D201AC5EBE4F6E9675
:103DD000BFAFAEAF6E97B8E0FB9E800111249A2C66
:103DE000892D90E08C159D050CF04EC0E1E0F0E0CF
:103DF000EC0FFD1FE80FF91F80818F1143C06A96F9
:103E0000EEADFFAD6A97608170E06896AEADBFAD74
:103E100068978C91681B71096C96EEADFFAD6C973D
:103E200080819801280F311D6E96AEADBFAD6E97A3
:103E30009C914B2DF901E91BF109CF010E946128EA
:103E40006A96AEADBFAD6A978C91B801680F711DCF
:103E50006896EEADFFAD68978081681B710960348C
:103E6000710580F46C96AEADBFAD6C978C9190E00F
:103E70006E96EEADFFAD6E9720814B2D821B9109A2
:103E80000E9487289394ACCF6C96AEADBFAD6C9773
:103E90000C916E96EEADFFAD6E978081081B0E0DF6
:103EA0006A96AEADBFAD6A979C906896EEADFFADD9
:103EB00068978081981A9B0C812C10E0682D70E027
:103EC00041E0C8010E94BD27839483949814B0F701
:103ED0006A96AEADBFAD6A970C916896EEADFFAD38
:103EE00068978081081B0E0D6C96AEADBFAD6C97C8
:103EF0008C908B0C912C10E041E0B801892D90E062
:103F00000E94BD27939493948914B0F7F394B8E07A
:103F1000EB0E3F1408F05FCFE12CF12C212C231085
:103F20001BC0812C912C6EE9662E77247394B12CE2
:103F30006F961FAE6F9722242394F201EC5EFE4F22
:103F4000A296FFAFEEAFA29792012E5F3F4FA496CD
:103F50003FAF2EAFA497ADC0C12CD12CA12CB12C5A
:103F6000822D90E0DC01A256BF4FA096BFAFAEAF4E
:103F7000A097A31408F078C08AE990E00E940F305F
:103F8000B82FBA9DC001BB9D900D1124A096EEAD37
:103F9000FFADA0978E0F9F1F0E940F308F70813052
:103FA00051F1823009F059C06A96AEADBFAD6A9743
:103FB0008C91B601680F711D6E5F7F4F6896EEADF4
:103FC000FFAD68978081681B71096C96AEADBFAD7F
:103FD0006C978C91F701E80FF11DCF0102966E9658
:103FE000AEADBFAD6E972C9145ED5AE1821B9109A4
:103FF0000E94BC2832C06A96AEADBFAD6A978C9164
:104000003601680E711CB2E06B0E711C6896EEAD45
:10401000FFAD68978081681A71086C96AEADBFAD30
:104020006C978C918701080F111D0E5F1F4F6E96C4
:10403000EEADFFAD6E978081081B11094801F5E0D8
:104040008F0E911C0815190541F045E0B301C80118
:104050000E9461280F5F1F4FF5CFBFEFAB1ABB0A5D
:10406000E8E0CE0ED11C85CF2394F8E0EF0EF11CD2
:1040700056CFD20119961C926F96BFAD6F97BF5F56
:104080006F96BFAF6F97E82C8301F12CC8010E9497
:104090000F3081116FC00F5F1F4FB7E0FB0EE8E3D9
:1040A000FE12F4CFB394F8E06F0E711C28E0820E7C
:1040B000911CB31016C0812C912C5EE1652E52E04C
:1040C000752E10E001E092012C5E3E4FA2963FAFAC
:1040D0002EAFA297C2010296A4969FAF8EAFA4976F
:1040E000A5C074019EE8E90EF11CE40CF51C640106
:1040F000AAE5CA1AAEEFDA0A8301C8010E940F309E
:10410000F70191917F01891344C20F5F1F4FC016C1
:10411000D10699F76A96EEADFFAD6A97A080AA9492
:104120006896AEADBFAD6897CC90D12CD194C194B8
:10413000D1086C96EEADFFAD6C9780818401080FBD
:10414000111D0F5F1F4FA296AEADBFADA2978C9110
:10415000081B11097801B7E0EB0EF11C0E151F05C5
:1041600009F487CF4A2DB601C8010E9461280F5F6C
:104170001F4FF4CF6896EEADFFAD689790813F2D4D
:10418000391B6C96AEADBFAD6C979C919D5F8A302C
:1041900028F421E0813019F020E001C023E0A2964C
:1041A000EEADFFADA2974081941B9E0D921BD201F4
:1041B00016969C93169717969C93179718963C9370
:1041C000482F50E060E070E02AE0A4968EAD9FADED
:1041D000A4970E94BC2A69EC71E0A4968EAD9FADB5
:1041E000A4970E94A72A57CFD20119961C926F96C6
:1041F000BFAD6F97BF5F6F96BFAF6F97B82C73015E
:10420000D12CC12CC7010E940F3081115EC0BFEFBD
:10421000EB1AFB0AE5E0DE0EF8E2DF12F3CF1F5FD8
:1042200028E0620E711C38E0830E911C131509F40E
:104230007DC064013EE0C30ED11CC40CD51C5401EA
:104240008AEDA81A8DEFB80A7301C7010E940F30DA
:10425000D6019D916D0189139FC1BFEFEB1AFB0A37
:10426000AE14BF0491F76C96EEADFFAD6C97E08095
:10427000EA946A96AEADBFAD6A978C916401C80EA0
:10428000D11CBFEFCB1ADB0A6896EEADFFAD689785
:104290008081C81AD108A296AEADBFADA2978C910D
:1042A00090E0AA24BB24A81AB90AF12CE81AF90A4A
:1042B000AE14BF040CF098CF47E0B601C5010E94D0
:1042C0006128EFEFAE1ABE0AF3CF8A3008F0C3942C
:1042D0006A96EEADFFAD6A9790819F5F6896AEAD2E
:1042E000BFAD68972C91921B9B0D6E96EEADFFAD06
:1042F0006E972081F02FF21B2F2F2D0D3C2D330FA9
:10430000231BD20116962C93169717962C9317976A
:1043100018969C93482F50E060E070E02AE0A49645
:104320008EAD9FADA4970E94BC2A71CF6F968FADC2
:104330006F97282F30E0812F90E0880F991F82011E
:104340000E5E1E4F2817390761F481E0D8018C9367
:1043500088E990E00E94173061E082569D4F0E94EC
:104360001D30F8018081F201882309F458C0ED5E08
:10437000FE4F8081803409F013C188E990E00E94EB
:104380001730880F991FFC01E358F74E85919491DF
:10439000FC01F49031961491E2E5F7E10491E3E534
:1043A000F7E1E490CC24C39429E236E144E557E1F7
:1043B00064E170E08EE090E00E946F2588E990E073
:1043C0000E941730880F991FFC01E358F74E459162
:1043D0005491E12FE69560E270E06E1B7109F6944E
:1043E00085E690E08F199109CB59DF4F0FB6F8940D
:1043F000DEBF0FBECDBFDF91CF911F910F91FF9018
:10440000EF90DF90CF90BF90AF909F908F907F9074
:104410006F905F904F903F902F900C94BC28EA5E75
:10442000FE4F8081803499F4EAE0F5E10491EBE0FD
:10443000F5E1E490CC24C3942DEE33E14CE055E15A
:1044400064E170E080E190E00E946F25A9C0A6962B
:104450008EAD9FADA69760E370E00E94F930893180
:1044600008F49EC0D2011D966C911D971C968C91EC
:10447000E6EEF3E10491E7EEF3E1E4906A96EEAD47
:10448000FFAD6A979081F8E06F9FB0011124690F2A
:10449000711D6896AEADBFAD68979C91691B71099F
:1044A0006C96EEADFFAD6C972081F8E08F9FC00158
:1044B0001124820F911D6E96AEADBFAD6E97EC913B
:1044C000CC24C3942FED33E148EE53E18E1B9109C8
:1044D0000E946F25F20105856A96AEADBFAD6A9761
:1044E0008C91B8E00B9F80011124080F111D689674
:1044F000EEADFFAD68978081081B1109D2011C96B3
:10450000EC906C96EEADFFAD6C978081F8E0EF9E7D
:1045100070011124E80EF11C6E96AEADBFAD6E9722
:104520008C91E81AF1080034110528F449E0B8012B
:10453000C7010E948728B801685F7F4F603471050A
:1045400020F449E0C7010E94872849E0B801C7016B
:104550000E94612849E0B801C7010896CB59DF4F96
:104560000FB6F894DEBF0FBECDBFDF91CF911F9184
:104570000F91FF90EF90DF90CF90BF90AF909F9002
:104580008F907F906F905F904F903F902F900C9402
:104590006128F201218677CDD20119960C932ECE97
:1045A000CB59DF4F0FB6F894DEBF0FBECDBFDF9102
:1045B000CF911F910F91FF90EF90DF90CF90BF9020
:1045C000AF909F908F907F906F905F904F903F90B3
:1045D0002F9008951F93CF93DF93EC018CE990E027
:1045E0000E940F30182FFE01E25FFE4F80838DE99D
:1045F00090E00E940F30FE01E15FFE4F8083329613
:10460000912F990F990F190F1D5F1083319797E024
:10461000899F802D11248E5F80833396108233967C
:104620001082349710821C861D86CE010C96DF9175
:10463000CF911F910C949C1C08950895FC01DB01FF
:1046400019968C911997809518969C9118978923A3
:1046500099F08281882311F08CE7828392819111F5
:104660000EC081E0828380E48093900081E49FE02B
:10467000909399008093980092819923B1F09F5F65
:104680009283953059F09D3761F0923071F480E556
:1046900096E490939900809398000895109290006A
:1046A000089581E050968C930895089545E35EE166
:1046B00060E070E080E090E00C9410292F923F922F
:1046C0004F925F926F927F928F929F92AF92BF9222
:1046D000CF92DF92EF92FF920F931F93CF93DF93CE
:1046E000CDB7DEB729970FB6F894DEBF0FBECDBFAA
:1046F000998788876B01DC011C968D919C911D9791
:1047000069E170E00E94F9308B01282F8230910519
:1047100030F0863130F44EEF742E780E04C0712CD8
:1047200002C034E1732E7C82B5E0B70DBD83223028
:1047300018F4672C680E08C0273118F08451682ED1
:1047400002C022E0622E670C89E1809F4001819FB8
:10475000900C11247401E2E6EE1AEDEFFE0A54010A
:10476000F9E4AF1AFDEFBF0A512CC7010E940F30C8
:10477000813009F453943FEFE31AF30AEA14FB047F
:10478000A1F7550C550C59824EE55CE160E070E0F4
:1047900080E090E00E9410294CE55BE160E370E06E
:1047A00080E090E00E941029D60116968D919C9190
:1047B000179760E370E00E94F9308F839BE0392EF9
:1047C000E885F98532966F01FD817F160CF07EC079
:1047D000872D072C000C990B9B838A835C01A80C06
:1047E000B91CF501EE0FFF1FDF01A157BB4C2D01D6
:1047F000FD0185919491FC012490319634913E8382
:10480000E72C8C81E81A99E1E99E70011124AF81AF
:10481000A93110F4761441F048E15BE164E170E005
:10482000C70104960E94BC28C50182569D4F0E9474
:104830000F30813079F4F201459154914E804694C5
:104840006EE170E064197109C7010E962694821911
:10485000910906C04EEE5AE164E170E0C70104968A
:104860000E94BC28E885F985368237823BE2308792
:1048700088E087152CF06BEC71E0C6010E94A72A36
:104880004A815B814F5F5F4F4F3F9FEF590791F424
:10489000A885B9851296ED91FC9113970190F0814E
:1048A000E02D6DE2C60109952AE041E050E060E0AC
:1048B00070E005C0052E000C660B770B2AE0C601E0
:1048C0000E94BC2A7394B9E13B0E7ECF8AE2E88550
:1048D000F9858683878310864801F5E08F0E911C49
:1048E000A12CB12C2AE0B501A401C6010E94BC2A6A
:1048F0006DEC71E0C6010E94A72A2AE0B501A4016F
:10490000C6010E94BC2A8DE5A885B98516968C93B0
:10491000169717968C93179718961C92B981B436F0
:1049200068F46BEC71E0C6010E94A72AE981EA30C5
:1049300028F46BEC71E0C6010E94A72AF9814F2F81
:1049400050E060E070E02AE0C6010E94BC2A011538
:10495000110501F54CED5AE162E070E089E490E068
:1049600029960FB6F894DEBF0FBECDBFDF91CF9171
:104970001F910F91FF90EF90DF90CF90BF90AF907D
:104980009F908F907F906F905F904F903F902F906F
:104990000C94BC2845EE5AE162E070E081E490E0BE
:1049A0000E94BC280F301105A8F229960FB6F89482
:1049B000DEBF0FBECDBFDF91CF911F910F91FF9052
:1049C000EF90DF90CF90BF90AF909F908F907F90AF
:1049D0006F905F904F903F902F9008950F931F938B
:1049E000CF93DF93FC01EB0129852095888528234F
:1049F00004851585C80169E170E00E94F93025FF42
:104A000006C0882321F0015011091587048726FF6D
:104A100007C0883129F0848595850196958784871C
:104A200027FF07C0662329F08485958549979587D8
:104A3000848724FF07C06B3028F4848595854996C8
:104A40009587848723FF12C08E01EF0188E990E0EB
:104A50000E940F30282F8C859D8530E0281739075C
:104A600011F00E94262983E0F801808BDF91CF911D
:104A70001F910F9108950F931F93CF93DF938C0194
:104A800088E990E00E941730F801958784878BE9C8
:104A900090E00E940F30811104C080E090E00E94FD
:104AA0002629F801C485D585CE0182569D4F0E94E6
:104AB0000F30813079F42196CC32F1E0DF0750F4E9
:104AC000CE0182569D4F0E940F308111F4CFF80124
:104AD000D587C487DF91CF911F910F9108954F9291
:104AE0005F926F927F928F929F92AF92BF92CF927E
:104AF000DF92EF92FF920F931F93CF93DF9300D03B
:104B000000D0CDB7DEB7DC0139012C2DA02EB12CA1
:104B1000C5018A0F9B1F181619060CF0AEC1A038EC
:104B2000B1050CF0AAC1FB01EE0DF11D1E161F060A
:104B30000CF0A3C1603471050CF09FC14115510503
:104B400009F49BC1362F3770F32EFB0177FD3796A2
:104B500033E0F595E7953A95E1F73E2F77FF04C0EE
:104B6000FF2011F03FEF3E0FB7FF05C0EE27FF27F4
:104B7000EA1BFB0B02C0E0E0F0E0803891051CF07E
:104B800090E89A1B01C0902F9E1B632F032E000CF0
:104B9000770B3F3F1CF4162F109501C010E0DD2469
:104BA000D3948E2D877009F4D12CE694E694E69484
:104BB000ED0C6E0D711D693071051CF088E0E82E5A
:104BC000E31AE11A310F60E83603A00DB11D11247C
:104BD000AE0FBF1F019FE00DF11D11244E0F5F1F8F
:104BE00061E070E04B010F2C02C0880C991C0A9404
:104BF000E2F7233009F4FFC0B8F4213009F4B3C060
:104C0000223009F03AC18FEF889D8001899D100DF7
:104C10001124009510951A8309832A81FD01E95E0C
:104C2000FC4F2F01E30E29C02A3FD1F12B3F09F0A1
:104C300024C1FD01E95EFC4F6F01E30E82C0849147
:104C4000889D6001899DD00C1124DC82CB8237FDC8
:104C500005C0DB018C918023C82ACC92F11013C0CF
:104C600031966F5F7F4F8E2F841B891740F33F5F14
:104C70004A0D5B1DB0E84B0E511C3E1509F4FDC0FA
:104C8000B201FA01F0CF37305CF76B01B0E8CB0E20
:104C9000D11CD6018C9182237C8087298C93E0CF14
:104CA000FD01E95EFC4F6F01E30E3E1509F4E5C01E
:104CB0008601FA018E2F841B8917F0F48491889D58
:104CC000B001899D700D11247C836B8337FD04C076
:104CD000D8018C91682B6C93FF2051F0373044F44D
:104CE000B80160587F4FDB012C918C81822B8C9313
:104CF00031960F5F1F4FDECF3F5F4A0D5B1DB0E85F
:104D0000CB0ED11CD2CF8491889D8001899D100D3E
:104D100011241C830B8337FD05C00095DB018C91AA
:104D200008230C93F11013C031966F5F7F4F8E2FC5
:104D3000841B891740F33F5F4A0D5B1DB0E8CB0E23
:104D4000D11C3E1509F499C0B601FA01F0CF3730F5
:104D50005CF78B0100581F4F8C818095D8012C91F6
:104D600082238C93E1CFB3016E0F7F1FA95EBC4FEE
:104D7000E30E3E1509F481C08D01C12CD12CC9165A
:104D800090F5FB01EC0DFD1DE491E89D3001E99DDE
:104D9000700C1124609470947A826982FA01EC0D8F
:104DA000FD1DE491E89D2001E99D500C11245C82D9
:104DB0004B8237FD05C0F801808168224628408279
:104DC000FF2059F037304CF4F801E058FF4F2081B4
:104DD0008A8182232C81822B8083FFEFCF1ADF0A06
:104DE0000F5F1F4FCCCF3F5F4A0D5B1D6A0D7B1DD0
:104DF000A058BF4FBECFC92ED12CE40FF51FA95E1E
:104E0000BC4F00E810E00C191D09AC18BD08A50145
:104E1000440F551F792F2E2D792ECF93DF93ED015F
:104E2000EF96EF962296A590C590FF2059F0A89C8A
:104E30005001C89C600137302CF4E880D094ED20FC
:104E4000EB28E99233233AF0EC90C094EC20EA2866
:104E5000ED920C942C2711967A9529F72A9551F00A
:104E6000772D33951124E40FF11DA00FB11DC00F54
:104E7000D11DD9CFDF91CF9111240F900F900F90BA
:104E80000F90DF91CF911F910F91FF90EF90DF90E6
:104E9000CF90BF90AF909F908F907F906F905F90DA
:104EA0004F900895F89487E7809300088093010855
:104EB000A89588E18093600088E080936000FFCF30
:104EC000DC01FB01808591859095982384FF0BC0C0
:104ED00012962C911297203120F42F5F12962C936A
:104EE00004C00E94522712961C9293FF02C082E0D7
:104EF000808B08958F929F92AF92BF92CF92DF9254
:104F0000EF92FF926C01E12CF12C0E94052B4B01DA
:104F10005C01C114D104E104F104F1F00E94052BFD
:104F2000DC01CB0188199909AA09BB09883E934085
:104F3000A105B10570F321E0C21AD108E108F1081A
:104F400088EE880E83E0981EA11CB11CC114D10408
:104F5000E104F10419F7DDCFFF90EF90DF90CF90DF
:104F6000BF90AF909F908F9008958FB18095807F74
:104F7000669B88601C9B8460089580389105B8F416
:104F800060347105A0F490E121E061FD24E060FD52
:104F9000220F62FD2295687F969FD0011124A80FF1
:104FA000A95EBC4F8C91822B40FF82278C93089581
:104FB0000F931F93CF93DF93EC014FE05EE161E12C
:104FC00070E08FE290E00E94102941EF5DE16AE11C
:104FD00070E08BE290E00E94102941EF5DE16AE110
:104FE00070E089E490E00E9410298A81811114C048
:104FF00041EF5DE16AE170E08AE390E00E941029F0
:1050000041EA5DE16EE270E08AE190E0DF91CF91EC
:105010001F910F910C94102943E85DE16AE170E063
:105020008AE390E00E94102940E65DE16EE270E0C4
:105030008CE290E00E9410298A816FE00E94ED309E
:10504000082F0370CFE4D0E010E0011749F041E0F1
:1050500061E370E0CE010E94BD271F5F2296F5CF6D
:10506000DF91CF911F910F910895CF92DF92EF9230
:10507000FF920F931F93CF93DF936C017A018B0103
:10508000C0E0D0E0CE15DF0581F0D8016D918D0133
:10509000D601ED91FC910190F081E02DC6010995BA
:1050A000892B11F02196EECF7E01C701DF91CF91C0
:1050B0001F910F91FF90EF90DF90CF9008950E9485
:1050C000FA32EF92FF920F931F93CF93DF937C01FD
:1050D0008B01040F111DEB0177FF02C0C0E0D0E08F
:1050E000C8010134110514F080E490E0C817D90715
:1050F0003CF441E0BE01C7010E94BD272196F0CFDC
:10510000DF91CF911F910F91FF90EF9008959C0137
:10511000240F311D1216130674F5803891055CF5C5
:1051200097FF02C080E090E02138310514F020E8BC
:1051300030E0281BAB014770552731E001C0330F29
:105140004A95EAF777FF02C0695F7F4F43E07595A4
:1051500067954A95E1F77695762F66277795679557
:10516000860F971FFC01E95EFC4F215020F08081E3
:10517000832B8193FACF0895CF92EF920F9341152D
:10518000510561F0FA0104913196E4904E5F5F4F52
:105190002AEFC22E20E030E00E946F250F91EF90A1
:1051A000CF900895FF920F931F93CF93DF938C01BD
:1051B000F62E8AE990E00E940F30F8019181C081BB
:1051C000D0E0C256DF4F989FC00DD11D1124CE01F3
:1051D0000E940F308071682F6F29CE010E941D3010
:1051E000C801DF91CF911F910F91FF900C949C1CEF
:1051F000CF93DF93EC018AE990E00E940F30998110
:10520000288130E022563F4FA901989F400D511D43
:105210001124CA010E940F308F70DF91CF91089541
:10522000CF92EF920F934115510561F0FA0104916D
:105230003196E4904E5F5F4F22E0C22E20E030E0D6
:105240000E946F250F91EF90CF9008952F923F927B
:105250004F925F926F927F928F929F92AF92BF9286
:10526000CF92DF92EF92FF920F931F93CF93DF9332
:10527000CDB7DEB760970FB6F894DEBF0FBECDBFD7
:10528000FC01EE0FFF1FE157FB4C65907490F3019A
:10529000249031963490232D2770F32CF694F694B5
:1052A000F6942111F394BC0188E990E00E942F301C
:1052B000622D8AE990E00E941D30632D8BE990E019
:1052C0000E941D30022D10E0980183E0220F331F51
:1052D0008A95E1F73A87298732E0630E711C412CE9
:1052E000512CA12CB12C8F2D90E0988B8F87EF85BE
:1052F000F889AE16BF0608F043C0E12CF12C9201EC
:1053000022563F4F3E872D87E016F10678F5F701CC
:10531000E60DF71DE4918D849E848E0C9F1CC12C9C
:10532000D12C8E2F90E09C878B8781E090E00C2C15
:1053300002C0880F991F0A94E2F7EB85FC858E2343
:105340009F23892B11F060E101C060E0C4010E943D
:105350001D30FFEFCF1ADF0A800E911E28E0C21623
:10536000D10419F73FEFE31AF30ACECF4FEFA41A97
:10537000B40A600E711E89859A85480E591EB7CFF2
:10538000612C712CC12CD12C19861B86FE01319603
:105390002F01F9853F120AC0612C712CC12CD12C30
:1053A00019869E012F5F3F4F290184C0F20128E03A
:1053B00011922A95E9F773013EE9E30EF11C912C55
:1053C000A12CBB24BA942914F1F0C7010E940F301C
:1053D0008A1539F0803189F4B39448E0B41204C0DE
:1053E00012C090E1A91209C0F201EB0DF11DB7FC4A
:1053F000FA9580818F5F808380E19394EFEFEE1ABE
:10540000FE0AA82EE0CF5201E12CF12C4601F3EE6A
:105410008F1AFDEF9F0A9701F50161915F01FFEF80
:10542000EF1AFF0A662339F04B85842F90E0281786
:1054300039070CF0EB86C4018E0D9F1D0E941D30B4
:1054400088E0E816F10439F799859F5F9987E8E0CD
:10545000CE0ED11C600E711E9CCFC7010E940F3072
:105460008A15E9F18031B1F19394E00EF11EA82E76
:105470003910F3CF5201E12CF12C4301E3E68E1AEF
:10548000EEEF9E0A9701F50161915F01FFEFEF1AC0
:10549000FF0A611131C0C4018E0D9F1D0E941D3095
:1054A00088E0E816F10471F79FEFC91AD90AE8E01D
:1054B0006E0E711CC21440F5F20128E011922A957B
:1054C000E9F776013EE9E30EF11C912CA12CBB24F7
:1054D000BA94CECFB39448E0B41204C0CBCF90E1DD
:1054E000A912C2CFF201EB0DF11DB7FCFA95808134
:1054F0008F5F808380E1B8CF4985842F90E02817A3
:1055000039074CF2E986C7CF6B858CE990E00E94A1
:105510001D3069858DE990E00E941D3060960FB6C0
:10552000F894DEBF0FBECDBFDF91CF911F910F91D9
:10553000FF90EF90DF90CF90BF90AF909F908F90B3
:105540007F906F905F904F903F902F9008956115DE
:10555000710579F0FB0101900020E9F73197AF0167
:10556000461B570BDC01ED91FC910280F381E02D8D
:10557000099480E090E008958F929F92AF92BF923D
:10558000EF92FF920F931F93CF93DF93CDB7DEB7C8
:10559000A1970FB6F894DEBF0FBECDBF7C01FA0114
:1055A000CB0119A2223008F42AE08E010F5D1F4FB3
:1055B000822E912CA12CB12CBF01A50194010E9437
:1055C000BC30F901CA01015011096A3014F4605D60
:1055D00001C0695CD8016C93232B242B252B61F728
:1055E000B801C7010E94A72AA1960FB6F894DEBFA2
:1055F0000FBECDBFDF91CF911F910F91FF90EF9024
:10560000BF90AF909F908F9008953FB7F89480918E
:10561000180790911907A0911A07B0911B0726B59A
:10562000A89B05C02F3F19F00196A11DB11D3FBFDA
:10563000BA2FA92F982F8827820F911DA11DB11D68
:10564000BC01CD0142E0660F771F881F991F4A9564
:10565000D1F708951F920F920FB60F9211242F9336
:105660003F938F939F93AF93BF9380911303909138
:105670001403A0911503B09116033091170723E08E
:10568000230F2D3720F40196A11DB11D05C026E87A
:10569000230F0296A11DB11D2093170780931303BA
:1056A00090931403A0931503B093160380911807E9
:1056B00090911907A0911A07B0911B070196A11D9F
:1056C000B11D8093180790931907A0931A07B09300
:1056D0001B07BF91AF919F918F913F912F910F9099
:1056E0000FBE0F901F9018952F923F924F925F928E
:1056F0006F927F928F929F92AF92BF92CF92DF92E2
:10570000EF92FF920F931F93CF93DF9300D000D0BF
:1057100000D0CDB7DEB7CD82FC01E00FF11D1E1623
:105720001F060CF0F5C0803891050CF0F1C0DB01CC
:10573000AE0DB11D1A161B060CF0EAC060347105DF
:105740000CF0E6C04115510509F4E2C0A62FA77080
:105750007A2EDB0177FD179613E0B595A7951A957C
:10576000E1F7FA2E77FF05C0772019F0FF24FA94AD
:10577000FA0E97FF05C0AA27BB27A81BB90B02C0CA
:10578000A0E0B0E0E038F10524F060E8962E981A29
:1057900001C0902E9A1A6F2D0F2C000C770BEFEF93
:1057A000FE161CF4E62FE09501C0E0E011E0FE2DAE
:1057B000F77009F410E0E694E694E694E10E6E0DBD
:1057C000711D693071051CF068E0E62EEF188E2E11
:1057D0008F0C682D70E86703800D911D11248A0FCE
:1057E0009B1F61E070E0072C02C0660F771F0A94D0
:1057F000E2F7FD81F33019F0BB24B39402C0F2E06C
:10580000BF2EA02EA918AB9CA02C1124CB2CD12CE0
:105810000E9FA00DB11D1124AC9DF001AD9DF00DAA
:10582000BC9DF00D11248A010E0F1F1F211531059B
:1058300009F0A901960121503109E20FF31F4E0F23
:105840005F1FEFEFE69F9001E79F300D11242901C4
:1058500040945094895E9C4FEF0CEE822A2D30E0EC
:10586000B99C200D311D1124AE818A1609F450C057
:10587000DC015A017801612C961409F441C0F7014A
:105880003490369EF001379EF00D1124FC83EB839B
:10589000E095F095FA83E983FD81F23019F45A829C
:1058A000498211C0ED81EB3F19F41C821B820BC0B1
:1058B000F5013490369EF001379EF00D1124E095ED
:1058C000F095FA83E98387FC06C0F981EC91EF2318
:1058D000FB81EF2BEC93772061F0F6E0F8154CF0AC
:1058E000FD01E058FF4F20803A8032202C80322882
:1058F0003082AC0CBD1CEC0CFD1C63941196BCCF2B
:105900008394020F131F420F531F80589F4FACCF39
:1059100026960FB6F894DEBF0FBECDBFDF91CF91B4
:105920001F910F91FF90EF90DF90CF90BF90AF90BD
:105930009F908F907F906F905F904F903F902F90AF
:105940000895E0EDF1E01086118680E182871782EC
:10595000168214868AE491E09483838380E791E041
:105960009183808380E691E0928B818B138A148AE5
:1059700080E591E0968B858B178A158E148E2EE22A
:1059800031E0338F228F97E093A381E082A3178EBB
:1059900010A2168E81A34AE351E0518F408F15A2C9
:1059A00014A213A612A631A720A791AB80AB15A60F
:1059B00016A614A687A78EE191E097A386A312AA44
:1059C00013AA10920403109205031092060310927A
:1059D0000703109208031092090310920A03109211
:1059E0000B0310920C0310920D038EE091E0909344
:1059F0000F0380930E031092100310921103109264
:105A000012030895C1E0C093E0001092E2001092EA
:105A1000E10080E28093D8001092D7008091650069
:105A2000806880936500789484B5826084BD84B575
:105A3000816084BD85B5826085BD85B5816085BD89
:105A400080916E00816080936E0010928100809141
:105A500081008260809381008091810081608093C9
:105A6000810080918000816080938000809191000E
:105A70008260809391008091910081608093910079
:105A8000809190008160809390008091C10084603B
:105A90008093C1008091C10082608093C100809199
:105AA000C10081608093C1008091C30081608093B8
:105AB000C3008091C00082608093C0008091C200CA
:105AC00081608093C20080917A00846080937A0024
:105AD00080917A00826080937A0080917A00816060
